{"contracts/SlvfxProp.sol":{"SlvfxProp":{"abi":[{"inputs":[{"internalType":"uint256","name":"_pct","type":"uint256"}],"stateMutability":"nonpayable","type":"constructor"},{"anonymous":false,"inputs":[{"indexed":true,"internalType":"address","name":"owner","type":"address"},{"indexed":true,"internalType":"address","name":"approved","type":"address"},{"indexed":true,"internalType":"uint256","name":"tokenId","type":"uint256"}],"name":"Approval","type":"event"},{"anonymous":false,"inputs":[{"indexed":true,"internalType":"address","name":"owner","type":"address"},{"indexed":true,"internalType":"address","name":"operator","type":"address"},{"indexed":false,"internalType":"bool","name":"approved","type":"bool"}],"name":"ApprovalForAll","type":"event"},{"anonymous":false,"inputs":[{"indexed":true,"internalType":"address","name":"previousOwner","type":"address"},{"indexed":true,"internalType":"address","name":"newOwner","type":"address"}],"name":"OwnershipTransferred","type":"event"},{"anonymous":false,"inputs":[{"indexed":true,"internalType":"uint256","name":"id","type":"uint256"},{"indexed":true,"internalType":"address","name":"owner","type":"address"},{"indexed":false,"internalType":"uint256","name":"price","type":"uint256"}],"name":"PropertyCreated","type":"event"},{"anonymous":false,"inputs":[{"indexed":true,"internalType":"uint256","name":"id","type":"uint256"}],"name":"PropertyDeleted","type":"event"},{"anonymous":false,"inputs":[{"indexed":true,"internalType":"uint256","name":"id","type":"uint256"},{"indexed":true,"internalType":"address","name":"oldOwner","type":"address"},{"indexed":true,"internalType":"address","name":"newOwner","type":"address"},{"indexed":false,"internalType":"uint256","name":"price","type":"uint256"}],"name":"PropertySold","type":"event"},{"anonymous":false,"inputs":[{"indexed":true,"internalType":"uint256","name":"id","type":"uint256"}],"name":"PropertyUpdated","type":"event"},{"anonymous":false,"inputs":[{"indexed":true,"internalType":"uint256","name":"propertyId","type":"uint256"},{"indexed":true,"internalType":"uint256","name":"reviewId","type":"uint256"}],"name":"ReviewCreated","type":"event"},{"anonymous":false,"inputs":[{"indexed":true,"internalType":"uint256","name":"propertyId","type":"uint256"},{"indexed":true,"internalType":"uint256","name":"reviewId","type":"uint256"}],"name":"ReviewDeleted","type":"event"},{"anonymous":false,"inputs":[{"indexed":true,"internalType":"uint256","name":"propertyId","type":"uint256"},{"indexed":true,"internalType":"uint256","name":"reviewId","type":"uint256"}],"name":"ReviewUpdated","type":"event"},{"anonymous":false,"inputs":[{"indexed":true,"internalType":"address","name":"from","type":"address"},{"indexed":true,"internalType":"address","name":"to","type":"address"},{"indexed":true,"internalType":"uint256","name":"tokenId","type":"uint256"}],"name":"Transfer","type":"event"},{"inputs":[{"internalType":"address","name":"to","type":"address"},{"internalType":"uint256","name":"tokenId","type":"uint256"}],"name":"approve","outputs":[],"stateMutability":"nonpayable","type":"function"},{"inputs":[{"internalType":"address","name":"owner","type":"address"}],"name":"balanceOf","outputs":[{"internalType":"uint256","name":"","type":"uint256"}],"stateMutability":"view","type":"function"},{"inputs":[{"internalType":"uint256","name":"id","type":"uint256"}],"name":"buyProperty","outputs":[],"stateMutability":"payable","type":"function"},{"inputs":[{"internalType":"string","name":"name","type":"string"},{"internalType":"string[]","name":"images","type":"string[]"},{"internalType":"string","name":"category","type":"string"},{"internalType":"string","name":"description","type":"string"},{"internalType":"string","name":"location","type":"string"},{"internalType":"string","name":"city","type":"string"},{"internalType":"string","name":"state","type":"string"},{"internalType":"string","name":"country","type":"string"},{"internalType":"uint256","name":"zipCode","type":"uint256"},{"internalType":"uint256","name":"bedroom","type":"uint256"},{"internalType":"uint256","name":"bathroom","type":"uint256"},{"internalType":"uint256","name":"built","type":"uint256"},{"internalType":"uint256","name":"squarefit","type":"uint256"},{"internalType":"uint256","name":"price","type":"uint256"}],"name":"createProperty","outputs":[],"stateMutability":"nonpayable","type":"function"},{"inputs":[{"internalType":"uint256","name":"propertyId","type":"uint256"},{"internalType":"string","name":"comment","type":"string"}],"name":"createReview","outputs":[],"stateMutability":"nonpayable","type":"function"},{"inputs":[{"internalType":"uint256","name":"id","type":"uint256"}],"name":"deleteProperty","outputs":[],"stateMutability":"nonpayable","type":"function"},{"inputs":[{"internalType":"uint256","name":"propertyId","type":"uint256"},{"internalType":"uint256","name":"reviewId","type":"uint256"}],"name":"deleteReview","outputs":[],"stateMutability":"nonpayable","type":"function"},{"inputs":[],"name":"getAllProperties","outputs":[{"components":[{"internalType":"uint256","name":"id","type":"uint256"},{"internalType":"address","name":"owner","type":"address"},{"internalType":"string","name":"name","type":"string"},{"internalType":"string[]","name":"images","type":"string[]"},{"internalType":"string","name":"category","type":"string"},{"internalType":"string","name":"description","type":"string"},{"internalType":"string","name":"location","type":"string"},{"internalType":"string","name":"city","type":"string"},{"internalType":"string","name":"state","type":"string"},{"internalType":"string","name":"country","type":"string"},{"internalType":"uint256","name":"zipCode","type":"uint256"},{"internalType":"uint256","name":"bedroom","type":"uint256"},{"internalType":"uint256","name":"bathroom","type":"uint256"},{"internalType":"uint256","name":"built","type":"uint256"},{"internalType":"uint256","name":"squarefit","type":"uint256"},{"internalType":"uint256","name":"price","type":"uint256"},{"internalType":"bool","name":"sold","type":"bool"},{"internalType":"bool","name":"deleted","type":"bool"}],"internalType":"struct SlvfxProp.PropertyStruct[]","name":"myProperties","type":"tuple[]"}],"stateMutability":"view","type":"function"},{"inputs":[{"internalType":"uint256","name":"tokenId","type":"uint256"}],"name":"getApproved","outputs":[{"internalType":"address","name":"","type":"address"}],"stateMutability":"view","type":"function"},{"inputs":[],"name":"getMyProperties","outputs":[{"components":[{"internalType":"uint256","name":"id","type":"uint256"},{"internalType":"address","name":"owner","type":"address"},{"internalType":"string","name":"name","type":"string"},{"internalType":"string[]","name":"images","type":"string[]"},{"internalType":"string","name":"category","type":"string"},{"internalType":"string","name":"description","type":"string"},{"internalType":"string","name":"location","type":"string"},{"internalType":"string","name":"city","type":"string"},{"internalType":"string","name":"state","type":"string"},{"internalType":"string","name":"country","type":"string"},{"internalType":"uint256","name":"zipCode","type":"uint256"},{"internalType":"uint256","name":"bedroom","type":"uint256"},{"internalType":"uint256","name":"bathroom","type":"uint256"},{"internalType":"uint256","name":"built","type":"uint256"},{"internalType":"uint256","name":"squarefit","type":"uint256"},{"internalType":"uint256","name":"price","type":"uint256"},{"internalType":"bool","name":"sold","type":"bool"},{"internalType":"bool","name":"deleted","type":"bool"}],"internalType":"struct SlvfxProp.PropertyStruct[]","name":"myProperties","type":"tuple[]"}],"stateMutability":"view","type":"function"},{"inputs":[{"internalType":"uint256","name":"propertyId","type":"uint256"}],"name":"getMyReviews","outputs":[{"components":[{"internalType":"uint256","name":"id","type":"uint256"},{"internalType":"uint256","name":"propertyId","type":"uint256"},{"internalType":"string","name":"comment","type":"string"},{"internalType":"address","name":"reviewer","type":"address"},{"internalType":"bool","name":"deleted","type":"bool"},{"internalType":"uint256","name":"timestamp","type":"uint256"}],"internalType":"struct SlvfxProp.ReviewStruct[]","name":"","type":"tuple[]"}],"stateMutability":"view","type":"function"},{"inputs":[{"internalType":"uint256","name":"id","type":"uint256"}],"name":"getProperty","outputs":[{"components":[{"internalType":"uint256","name":"id","type":"uint256"},{"internalType":"address","name":"owner","type":"address"},{"internalType":"string","name":"name","type":"string"},{"internalType":"string[]","name":"images","type":"string[]"},{"internalType":"string","name":"category","type":"string"},{"internalType":"string","name":"description","type":"string"},{"internalType":"string","name":"location","type":"string"},{"internalType":"string","name":"city","type":"string"},{"internalType":"string","name":"state","type":"string"},{"internalType":"string","name":"country","type":"string"},{"internalType":"uint256","name":"zipCode","type":"uint256"},{"internalType":"uint256","name":"bedroom","type":"uint256"},{"internalType":"uint256","name":"bathroom","type":"uint256"},{"internalType":"uint256","name":"built","type":"uint256"},{"internalType":"uint256","name":"squarefit","type":"uint256"},{"internalType":"uint256","name":"price","type":"uint256"},{"internalType":"bool","name":"sold","type":"bool"},{"internalType":"bool","name":"deleted","type":"bool"}],"internalType":"struct SlvfxProp.PropertyStruct","name":"","type":"tuple"}],"stateMutability":"view","type":"function"},{"inputs":[{"internalType":"uint256","name":"propertyId","type":"uint256"},{"internalType":"uint256","name":"reviewId","type":"uint256"}],"name":"getReview","outputs":[{"components":[{"internalType":"uint256","name":"id","type":"uint256"},{"internalType":"uint256","name":"propertyId","type":"uint256"},{"internalType":"string","name":"comment","type":"string"},{"internalType":"address","name":"reviewer","type":"address"},{"internalType":"bool","name":"deleted","type":"bool"},{"internalType":"uint256","name":"timestamp","type":"uint256"}],"internalType":"struct SlvfxProp.ReviewStruct","name":"","type":"tuple"}],"stateMutability":"view","type":"function"},{"inputs":[{"internalType":"uint256","name":"propertyId","type":"uint256"}],"name":"getReviews","outputs":[{"components":[{"internalType":"uint256","name":"id","type":"uint256"},{"internalType":"uint256","name":"propertyId","type":"uint256"},{"internalType":"string","name":"comment","type":"string"},{"internalType":"address","name":"reviewer","type":"address"},{"internalType":"bool","name":"deleted","type":"bool"},{"internalType":"uint256","name":"timestamp","type":"uint256"}],"internalType":"struct SlvfxProp.ReviewStruct[]","name":"","type":"tuple[]"}],"stateMutability":"view","type":"function"},{"inputs":[{"internalType":"address","name":"owner","type":"address"},{"internalType":"address","name":"operator","type":"address"}],"name":"isApprovedForAll","outputs":[{"internalType":"bool","name":"","type":"bool"}],"stateMutability":"view","type":"function"},{"inputs":[],"name":"name","outputs":[{"internalType":"string","name":"","type":"string"}],"stateMutability":"view","type":"function"},{"inputs":[],"name":"owner","outputs":[{"internalType":"address","name":"","type":"address"}],"stateMutability":"view","type":"function"},{"inputs":[{"internalType":"uint256","name":"tokenId","type":"uint256"}],"name":"ownerOf","outputs":[{"internalType":"address","name":"","type":"address"}],"stateMutability":"view","type":"function"},{"inputs":[],"name":"renounceOwnership","outputs":[],"stateMutability":"nonpayable","type":"function"},{"inputs":[{"internalType":"address","name":"from","type":"address"},{"internalType":"address","name":"to","type":"address"},{"internalType":"uint256","name":"tokenId","type":"uint256"}],"name":"safeTransferFrom","outputs":[],"stateMutability":"nonpayable","type":"function"},{"inputs":[{"internalType":"address","name":"from","type":"address"},{"internalType":"address","name":"to","type":"address"},{"internalType":"uint256","name":"tokenId","type":"uint256"},{"internalType":"bytes","name":"data","type":"bytes"}],"name":"safeTransferFrom","outputs":[],"stateMutability":"nonpayable","type":"function"},{"inputs":[{"internalType":"address","name":"operator","type":"address"},{"internalType":"bool","name":"approved","type":"bool"}],"name":"setApprovalForAll","outputs":[],"stateMutability":"nonpayable","type":"function"},{"inputs":[{"internalType":"bytes4","name":"interfaceId","type":"bytes4"}],"name":"supportsInterface","outputs":[{"internalType":"bool","name":"","type":"bool"}],"stateMutability":"view","type":"function"},{"inputs":[],"name":"symbol","outputs":[{"internalType":"string","name":"","type":"string"}],"stateMutability":"view","type":"function"},{"inputs":[{"internalType":"uint256","name":"tokenId","type":"uint256"}],"name":"tokenURI","outputs":[{"internalType":"string","name":"","type":"string"}],"stateMutability":"view","type":"function"},{"inputs":[{"internalType":"address","name":"from","type":"address"},{"internalType":"address","name":"to","type":"address"},{"internalType":"uint256","name":"tokenId","type":"uint256"}],"name":"transferFrom","outputs":[],"stateMutability":"nonpayable","type":"function"},{"inputs":[{"internalType":"address","name":"newOwner","type":"address"}],"name":"transferOwnership","outputs":[],"stateMutability":"nonpayable","type":"function"},{"inputs":[{"internalType":"uint256","name":"id","type":"uint256"},{"internalType":"string","name":"name","type":"string"},{"internalType":"string[]","name":"images","type":"string[]"},{"internalType":"string","name":"category","type":"string"},{"internalType":"string","name":"description","type":"string"},{"internalType":"string","name":"location","type":"string"},{"internalType":"string","name":"city","type":"string"},{"internalType":"string","name":"state","type":"string"},{"internalType":"string","name":"country","type":"string"},{"internalType":"uint256","name":"zipCode","type":"uint256"},{"internalType":"uint256","name":"bedroom","type":"uint256"},{"internalType":"uint256","name":"bathroom","type":"uint256"},{"internalType":"uint256","name":"built","type":"uint256"},{"internalType":"uint256","name":"squarefit","type":"uint256"},{"internalType":"uint256","name":"price","type":"uint256"}],"name":"updateProperty","outputs":[],"stateMutability":"nonpayable","type":"function"},{"inputs":[{"internalType":"uint256","name":"propertyId","type":"uint256"},{"internalType":"uint256","name":"reviewId","type":"uint256"},{"internalType":"string","name":"comment","type":"string"}],"name":"updateReview","outputs":[],"stateMutability":"nonpayable","type":"function"}],"evm":{"bytecode":{"linkReferences":{},"object":"6080346200037b57601f601f196001600160401b0362004e2338819003848101841686018381118782101762000380578692829160405283396020958691810103126200037b5751926200005262000396565b92600b84526a53667850726f706572747960a81b868501526200007462000396565b6003815262121c1d60ea1b8782015260008054336001600160a01b031982168117835592939192906001600160a01b03167f8be0079c531659141344cd1fd0a4f28419497f9722a3daafe3b4186f6b6457e08480a38551858111620003675760019687548881811c911680156200035c575b8b8210146200034857908187849311620002f5575b508a908783116001146200029257859262000286575b5050600019600383901b1c191690871b1786555b825194851162000272576002548681811c9116801562000267575b8982101462000253578481116200020a575b5087938511600114620001a3575083949596509262000197575b5050600019600383901b1c191690821b176002555b600755601155604051614a6c9081620003b78239f35b0151905038806200016c565b849392919316966002845280842093905b888210620001f25750508385969710620001d8575b505050811b0160025562000181565b015160001960f88460031b161c19169055388080620001c9565b808785968294968601518155019501930190620001b4565b600283528883208580880160051c8201928b891062000249575b0160051c019087905b8281106200023d57505062000152565b8481550187906200022d565b9250819262000224565b634e487b7160e01b83526022600452602483fd5b90607f169062000140565b634e487b7160e01b82526041600452602482fd5b01519050388062000111565b90848a9416918487528c8720928d88905b828210620002dd5750508411620002c3575b505050811b01865562000125565b015160001960f88460031b161c19169055388080620002b5565b8385015186558d979095019493840193018e620002a3565b9091508885528a85208780850160051c8201928d86106200033e575b918b91869594930160051c01915b8281106200032f575050620000fb565b8781558594508b91016200031f565b9250819262000311565b634e487b7160e01b85526022600452602485fd5b90607f1690620000e6565b634e487b7160e01b83526041600452602483fd5b600080fd5b634e487b7160e01b600052604160045260246000fd5b60408051919082016001600160401b03811183821017620003805760405256fe608080604052600436101561001357600080fd5b60003560e01c90816301ffc9a71461343c5750806306fdde0314613399578063081812fc1461337b578063095ea7b314613201578063170140f1146130fe578063175a3b4114612e4557806323b872dd14612e2157806324d41a0314612c5d5780632c0e839b146129a957806331563b9414611bdf57806332665ffb14611b5f578063397f795214611a6c5780633d51402c1461198d57806342842e0e146119485780636352211e146119185780636fa830a61461164557806370a08231146115ae578063715018a6146115555780638da5cb5b1461152c57806395d89b411461144a5780639d4a225514611343578063a22cb46514611268578063b88d4fde146111e1578063c87b56dd14611174578063caf7844d14610503578063dfa505ed1461042d578063e985e9c5146103d7578063f15bfa68146102275763f2fde38b1461015e57600080fd5b34610222576020366003190112610222576101776134e7565b61017f613962565b6001600160a01b039081169081156101ce57600054826001600160601b0360a01b821617600055167f8be0079c531659141344cd1fd0a4f28419497f9722a3daafe3b4186f6b6457e0600080a3005b60405162461bcd60e51b815260206004820152602660248201527f4f776e61626c653a206e6577206f776e657220697320746865207a65726f206160448201526564647265737360d01b6064820152608490fd5b600080fd5b34610222576020806003193601126102225760043580600052600e825260ff906102578260406000205416614564565b60009060005b81600052600c8086526040600020548210156102ee578461028283604060002061488c565b506003908101546001600160a01b0316331492836102c6575b5050506102b1575b6102ac9061440e565b61025d565b916102be6102ac9161440e565b9290506102a3565b909192508460005287526102de83604060002061488c565b50015460a01c161584878061029b565b8583866102fa8761498f565b9260009060005b84600052600c8083526040600020548210156103c55761032582604060002061488c565b506003908101546001600160a01b031633149086908261039e575b5050610356575b506103519061440e565b610301565b61035191936103979187600052845261037c61037686604060002061488c565b506149df565b610386828a61441d565b52610391818961441d565b5061440e565b9290610347565b909150876000528285526103b684604060002061488c565b50015460a01c16158589610340565b604051806103d38982613900565b0390f35b34610222576040366003190112610222576103f06134e7565b6103f86134fd565b9060018060a01b03809116600052600660205260406000209116600052602052602060ff604060002054166040519015158152f35b34610222576103766104ee6104413661362b565b929061044b61485a565b5080600052602093600e855261046860ff60406000205416614564565b80600052600f855261048160ff604060002054166148a8565b816000526010855260406000209060005284526040600020549080600052600c85526104b360406000205483106148ec565b80600052600c85526104dd60ff60036104d085604060002061488c565b50015460a01c1615614943565b600052600c8452604060002061488c565b906103d36040519282849384528301906138af565b34610222576101e0366003190112610222576024356001600160401b038111610222576105349036906004016135d8565b6044356001600160401b03811161022257610553903690600401613658565b6064356001600160401b038111610222576105729036906004016135d8565b6084356001600160401b038111610222576105919036906004016135d8565b60a4356001600160401b038111610222576105b09036906004016135d8565b9160c4356001600160401b038111610222576105d09036906004016135d8565b9260e4356001600160401b038111610222576105f09036906004016135d8565b92610104356001600160401b038111610222576106119036906004016135d8565b92600435600052600e60205261062e60ff60406000205416614564565b6004356000908152600b60205260409020600101546001600160a01b031633036111185761065e88511515613f9f565b61066a87511515613fe2565b610678600a8851111561402e565b6106848151151561407a565b61069083511515614112565b61069c8651151561415e565b6106a8855115156141a1565b6106b4845115156141e5565b6106c2610124351515614231565b6106ce825115156140c6565b6106dc61014435151561427d565b6106ea6101643515156142c9565b6106f8610184351515614314565b6107066101a435151561436b565b6107146101c43515156143c2565b60005b8751811015610744578061073a61073161073f938b61441d565b51511515614431565b61440e565b610717565b508688600435600052600b6020526002604060002001908051906001600160401b038211610b7a5781906107788454613a29565b601f81116110e6575b50602090601f831160011461107a5760009261106f575b50508160011b916000199060031b1c19161790555b600435600052600b602052600360406000200190805190600160401b8211610b7a578254828455808310610ff4575b50602001916000526020600020916000905b828210610ed65750505050600435600052600b6020526004604060002001908051906001600160401b038211610b7a57819061082a8454613a29565b601f8111610ea4575b50602090601f8311600114610e3857600092610e2d575b50508160011b916000199060031b1c19161790555b600435600052600b6020526005604060002001908051906001600160401b038211610b7a5781906108908454613a29565b601f8111610dfb575b50602090601f8311600114610d8f57600092610d84575b50508160011b916000199060031b1c19161790555b600435600052600b6020526006604060002001908051906001600160401b038211610b7a5781906108f68454613a29565b601f8111610d52575b50602090601f8311600114610ce657600092610cdb575b50508160011b916000199060031b1c19161790555b600435600052600b602052600760406000200183516001600160401b038111610b7a576109588254613a29565b601f8111610ca9575b506020601f8211600114610c40578192939495600092610c35575b50508160011b916000199060031b1c19161790555b600435600052600b602052600860406000200182516001600160401b038111610b7a576109be8254613a29565b601f8111610c03575b506020601f8211600114610b9b5781929394600092610b90575b50508160011b916000199060031b1c19161790555b600435600052600b602052600960406000200181516001600160401b038111610b7a57610a238254613a29565b601f8111610b3d575b50602092601f8211600114610ad95792819293600092610ace575b50508160011b916000199060031b1c19161790555b6004356000818152600b60208190526040822061012435600a820155610144359181019190915561016435600c82015561018435600d8201556101a435600e8201556101c435600f909101557f7ad43e2b215acc30fe68db10cbf57c6b2b699ef7572e54808c2a106fb904f3fb9080a2005b015190508380610a47565b601f198216938360005260206000209160005b868110610b255750836001959610610b0c575b505050811b019055610a5c565b015160001960f88460031b161c19169055838080610aff565b91926020600181928685015181550194019201610aec565b610b6a90836000526020600020601f840160051c81019160208510610b70575b601f0160051c0190614501565b83610a2c565b9091508190610b5d565b634e487b7160e01b600052604160045260246000fd5b0151905084806109e1565b8260005260206000209060005b601f1984168110610beb5750600193949583601f19811610610bd2575b505050811b0190556109f6565b015160001960f88460031b161c19169055848080610bc5565b9091602060018192858a015181550193019101610ba8565b610c2f90836000526020600020601f840160051c81019160208510610b7057601f0160051c0190614501565b846109c7565b01519050858061097c565b8260005260206000209060005b601f1984168110610c91575060019394959683601f19811610610c78575b505050811b019055610991565b015160001960f88460031b161c19169055858080610c6b565b9091602060018192858b015181550193019101610c4d565b610cd590836000526020600020601f840160051c81019160208510610b7057601f0160051c0190614501565b85610961565b015190508680610916565b9250836000526020600020906000935b601f1984168510610d37576001945083601f19811610610d1e575b505050811b01905561092b565b015160001960f88460031b161c19169055868080610d11565b81810151835560209485019460019093019290910190610cf6565b610d7e90856000526020600020601f850160051c81019160208610610b7057601f0160051c0190614501565b876108ff565b0151905087806108b0565b9250836000526020600020906000935b601f1984168510610de0576001945083601f19811610610dc7575b505050811b0190556108c5565b015160001960f88460031b161c19169055878080610dba565b81810151835560209485019460019093019290910190610d9f565b610e2790856000526020600020601f850160051c81019160208610610b7057601f0160051c0190614501565b88610899565b01519050888061084a565b9250836000526020600020906000935b601f1984168510610e89576001945083601f19811610610e70575b505050811b01905561085f565b015160001960f88460031b161c19169055888080610e63565b81810151835560209485019460019093019290910190610e48565b610ed090856000526020600020601f850160051c81019160208610610b7057601f0160051c0190614501565b89610833565b80518051906001600160401b038211610b7a57610ef38654613a29565b601f8111610fb7575b50602090601f8311600114610f49579282600194936020938695600092610f3e575b5050600019600383901b1c191690841b1787555b019401910190926107ee565b015190508f80610f1e565b90866000526020600020916000601f198516905b818110610f9f5750936020936001969387969383889510610f86575b505050811b018755610f32565b015160001960f88460031b161c191690558f8080610f79565b92936020600181928786015181550195019301610f5d565b610fe4908760005260206000206005601f8601811c82019260208710610fea575b601f01901c0190614501565b8c610efc565b9192508291610fd8565b836000526020600020908382015b81830181106110125750506107dc565b8061101f60019254613a29565b8061102c575b5001611002565b601f811183146110425750600081555b8d611025565b611060908260005283601f6020600020920160051c82019101614501565b6000602081208183555561103c565b015190508a80610798565b9250836000526020600020906000935b601f19841685106110cb576001945083601f198116106110b2575b505050811b0190556107ad565b015160001960f88460031b161c191690558a80806110a5565b8181015183556020948501946001909301929091019061108a565b61111290856000526020600020601f850160051c81019160208610610b7057601f0160051c0190614501565b8b610781565b60405162461bcd60e51b815260206004820152602e60248201527f4f6e6c79207468652070726f7065727479206f776e65722063616e206564697460448201526d20746869732070726f706572747960901b6064820152608490fd5b34610222576020366003190112610222576004356000908152600360205260409020546111ab906001600160a01b031615156139ba565b60006040516111b98161354a565b526103d36040516111c98161354a565b600081526040519182916020835260208301906134a7565b34610222576080366003190112610222576111fa6134e7565b6112026134fd565b90606435906044356001600160401b0383116102225736602384011215610222576112669361123e6112619436906024816004013591016135a1565b9261125161124c8433613c20565b613b47565b61125c838383613ce8565b613f24565b613bfc565b005b34610222576040366003190112610222576112816134e7565b6024359081151590818303610222576001600160a01b0316913383146112fe576112d09033600052600660205260406000208460005260205260406000209060ff801983541691151516179055565b6040519081527f17307eab39ab6107e8899845ad3d59bd9653f200f220920489ca2b5937696c3160203392a3005b60405162461bcd60e51b815260206004820152601960248201527f4552433732313a20617070726f766520746f2063616c6c6572000000000000006044820152606490fd5b34610222576020806003193601126102225760043580600052600e825260ff6113728160406000205416614564565b60009060005b83600052600c85526040600020548110156113ce5781600361139e83604060002061488c565b50015460a01c16156113b9575b6113b49061440e565b611378565b916113c66113b49161440e565b9290506113ab565b50906113d99061498f565b9260009060005b84600052600c8083526040600020548210156103c55784600361140784604060002061488c565b50015460a01c1615611423575b5061141e9061440e565b6113e0565b61141e91936114439187600052845261037c61037686604060002061488c565b9290611414565b3461022257600036600319011261022257604051600060025461146c81613a29565b8084529060019081811690811561150557506001146114aa575b6103d38461149681860382613565565b6040519182916020835260208301906134a7565b6002600090815292507f405787fa12a823e0f2b7631cc41b3ba8828b3321ca811111fa75cd3aa3bb5ace5b8284106114ed57505050810160200161149682611486565b805460208587018101919091529093019281016114d5565b60ff191660208087019190915292151560051b850190920192506114969150839050611486565b34610222576000366003190112610222576000546040516001600160a01b039091168152602090f35b346102225760003660031901126102225761156e613962565b600080546001600160a01b0319811682556001600160a01b03167f8be0079c531659141344cd1fd0a4f28419497f9722a3daafe3b4186f6b6457e08280a3005b34610222576020366003190112610222576001600160a01b036115cf6134e7565b1680156115ee5760005260046020526020604060002054604051908152f35b60405162461bcd60e51b815260206004820152602960248201527f4552433732313a2061646472657373207a65726f206973206e6f7420612076616044820152683634b21037bbb732b960b91b6064820152608490fd5b60208060031936011261022257600435906002600754146118d457600260075581600052600e815261167e60ff60406000205416614564565b81600052600b808252600f60406000200154341061189857826000528082526116b560ff60106040600020015460081c16156145b0565b8260005280825260ff6010604060002001541661185a5760019283600954019182600955604051606081018181106001600160401b03821117610b7a57604052848101906040810194815283825233855283600052600d86526040600020918254600160401b811015610b7a5788810180855581101561184457600293600052600388600020910201915182555187820155019260018060a01b0380915116936001600160601b0360a01b948582541617905560115480340290348204143415171561182e57606490048034039034821161182e576117a76117b19286600052858952848a60406000200154166147aa565b82600054166147aa565b826000528185528560406000200154169260106040600020018660ff19825416179055856040600020019033908254161790556117ef823385613ce8565b8160005283527fddd64180d9701c7ede08673ac8106484ff983a472929330d4fbde4e35d65cb06600f60406000200154936040519485523394a4600755005b634e487b7160e01b600052601160045260246000fd5b634e487b7160e01b600052603260045260246000fd5b60405162461bcd60e51b8152600481018390526016602482015275141c9bdc195c9d1e481a185cc81899595b881cdbdb1960521b6044820152606490fd5b60405162461bcd60e51b8152600481018390526014602482015273125b9cdd59999a58da595b9d081c185e5b595b9d60621b6044820152606490fd5b6064906040519062461bcd60e51b82526004820152601f60248201527f5265656e7472616e637947756172643a207265656e7472616e742063616c6c006044820152fd5b34610222576020366003190112610222576020611936600435613a06565b6040516001600160a01b039091168152f35b3461022257611956366135f6565b6040519060208201928284106001600160401b03851117610b7a5761126694611261946040526000845261125161124c8433613c20565b346102225760003660031901126102225760088054600060015b82811115611a2c57506119b99061475a565b9160009060015b838111156119d657604051806103d3878261384d565b806119fb91600052600b60205260ff601060406000200154841c1615611a005761440e565b6119c0565b610391604060002094611a1b611a158261440e565b966145fc565b611a25828a61441d565b528761441d565b80600052600b60205260ff601060406000200154851c1615611a57575b611a529061440e565b6119a7565b90611a64611a529161440e565b919050611a49565b346102225760003660031901126102225760088054600060015b82811115611aff5750611a989061475a565b9160009060015b83811115611ab557604051806103d3878261384d565b80611ae091600052600b60205260ff601060406000200154841c161580611ae5575b611a005761440e565b611a9f565b506040600020600101546001600160a01b03163314611ad7565b80600052600b60205260ff601060406000200154851c161580611b45575b611b30575b611b2b9061440e565b611a86565b90611b3d611b2b9161440e565b919050611b22565b506040600020600101546001600160a01b03163314611b1d565b346102225760208060031936011261022257600435611b7c61447d565b5080600052600e8252611b9660ff60406000205416614564565b80600052600b8252611bb660ff60106040600020015460081c16156145b0565b600052600b8152611bca60406000206145fc565b906103d36040519282849384528301906136d8565b34610222576101c0366003190112610222576004356001600160401b03811161022257611c109036906004016135d8565b6024356001600160401b03811161022257611c2f903690600401613658565b6044356001600160401b03811161022257611c4e9036906004016135d8565b916064356001600160401b03811161022257611c6e9036906004016135d8565b6084356001600160401b03811161022257611c8d9036906004016135d8565b60a4356001600160401b03811161022257611cac9036906004016135d8565b60c4356001600160401b03811161022257611ccb9036906004016135d8565b9160e4356001600160401b03811161022257611ceb9036906004016135d8565b93611cf886511515613f9f565b611d0487511515613fe2565b611d12600a8851111561402e565b611d1e8851151561407a565b611d2a815115156140c6565b611d3682511515614112565b611d428351151561415e565b611d4e845115156141a1565b611d5a855115156141e5565b611d68610104351515614231565b611d7661012435151561427d565b611d846101443515156142c9565b611d92610164351515614314565b611da061018435151561436b565b611dae6101a43515156143c2565b60005b8751811015611dd0578061073a610731611dcb938b61441d565b611db1565b50879695966001600854019687600855611de861447d565b98888a523360208b015260408a01526060890152608088015260a087015260c086015260e0850152610100840152610120830152610104356101408301526101243561016083015261014435610180830152610164356101a0830152610184356101c08301526101a4356101e083015260405190611e658261354a565b60008252331561296557600081815260036020526040902054611f2492611261929091611e9e906001600160a01b031615155b15614518565b600081815260036020526040902054611ec1906001600160a01b03161515611e98565b3360005260046020526040600020600181540190558060005260036020526040600020336001600160601b0360a01b825416179055803360007fddf252ad1be2c89b69c2b068fc378daa952ba7f163c4a11628f55a4df523b3ef8180a433613e29565b8051600052600b60205260406000208151815560018060a01b0360208301511660018201906001600160601b0360a01b82541617905560408201519182516001600160401b038111610b7a57611f7d6002840154613a29565b601f8111612930575b506020601f82116001146128c257819293946000926128b7575b50508160011b916000199060031b1c19161760028301555b6060810151805190600160401b8211610b7a576003840154826003860155808310612839575b5060200190600384016000526020600020916000905b82821061272457858560808101519182516001600160401b038111610b7a576120206004830154613a29565b601f81116126ef575b506020601f82116001146126815781929394600092612676575b50508160011b916000199060031b1c19161760048201555b60a08201519182516001600160401b038111610b7a5761207e6005840154613a29565b601f8111612641575b506020601f82116001146125d357819293946000926125c8575b50508160011b916000199060031b1c19161760058301555b60c08101519182516001600160401b038111610b7a576120dc6006830154613a29565b601f8111612593575b506020601f8211600114612525578192939460009261251a575b50508160011b916000199060031b1c19161760068201555b60e08201519182516001600160401b038111610b7a5761213a6007840154613a29565b601f81116124e5575b506020601f8211600114612477578192939460009261246c575b50508160011b916000199060031b1c19161760078301555b6101008101519182516001600160401b038111610b7a576121996008830154613a29565b601f8111612437575b506020601f82116001146123c957819293946000926123be575b50508160011b916000199060031b1c19161760088201555b6101208201518051906001600160401b038211610b7a576121f86009840154613a29565b601f8111612389575b50602090601f83116001146123165760109392916000918361230b575b50508160011b916000199060031b1c19161760098201555b610140830151600a820155610160830151600b820155610180830151600c8201556101a0830151600d8201556101c0830151600e8201556101e0830151600f820155016122966102008301511515829060ff801983541691151516179055565b610220820151151561ff0082549160081b169061ff0019161790558051600052600e6020526040600020600160ff1982541617905580517f9815995bdb741d1e283b7e7fd822a34b01efd21fd2c59dc0d5ab07a587a6172660206101e060018060a01b038286015116940151604051908152a3005b01519050858061221e565b906009840160005260206000209160005b601f1985168110612371575091839160019360109695601f19811610612358575b505050811b016009820155612236565b015160001960f88460031b161c19169055858080612348565b91926020600181928685015181550194019201612327565b6123b890600985016000526020600020601f850160051c81019160208610610b7057601f0160051c0190614501565b84612201565b0151905084806121bc565b6008830160005260206000209060005b601f198416811061241f5750600193949583601f19811610612406575b505050811b0160088201556121d4565b015160001960f88460031b161c191690558480806123f6565b9091602060018192858a0151815501930191016123d9565b61246690600884016000526020600020601f840160051c81019160208510610b7057601f0160051c0190614501565b846121a2565b01519050848061215d565b6007840160005260206000209060005b601f19841681106124cd5750600193949583601f198116106124b4575b505050811b016007830155612175565b015160001960f88460031b161c191690558480806124a4565b9091602060018192858a015181550193019101612487565b61251490600785016000526020600020601f840160051c81019160208510610b7057601f0160051c0190614501565b84612143565b0151905084806120ff565b6006830160005260206000209060005b601f198416811061257b5750600193949583601f19811610612562575b505050811b016006820155612117565b015160001960f88460031b161c19169055848080612552565b9091602060018192858a015181550193019101612535565b6125c290600684016000526020600020601f840160051c81019160208510610b7057601f0160051c0190614501565b846120e5565b0151905084806120a1565b6005840160005260206000209060005b601f19841681106126295750600193949583601f19811610612610575b505050811b0160058301556120b9565b015160001960f88460031b161c19169055848080612600565b9091602060018192858a0151815501930191016125e3565b61267090600585016000526020600020601f840160051c81019160208510610b7057601f0160051c0190614501565b84612087565b015190508480612043565b6004830160005260206000209060005b601f19841681106126d75750600193949583601f198116106126be575b505050811b01600482015561205b565b015160001960f88460031b161c191690558480806126ae565b9091602060018192858a015181550193019101612691565b61271e90600484016000526020600020601f840160051c81019160208510610b7057601f0160051c0190614501565b84612029565b80518051906001600160401b038211610b7a576127418654613a29565b601f8111612807575b50602090601f831160011461279757928260019493602093869560009261278c575b5050600019600383901b1c191690841b1787555b01940191019092611ff4565b015190508b8061276c565b908660005260206000209160005b601f19851681106127ef575083602093600196938796938794601f198116106127d6575b505050811b018755612780565b015160001960f88460031b161c191690558b80806127c9565b919260206001819286850151815501940192016127a5565b612833908760005260206000206005601f8601811c82019260208710610fea57601f01901c0190614501565b8861274a565b600385016000526020600020908382015b818301811061285a575050611fde565b8061286760019254613a29565b80612874575b500161284a565b601f8111831461288a5750600081555b8861286d565b6128a8908260005283601f6020600020920160051c82019101614501565b60006020812081835555612884565b015190508480611fa0565b6002840160005260206000209060005b601f19841681106129185750600193949583601f198116106128ff575b505050811b016002830155611fb8565b015160001960f88460031b161c191690558480806128ef565b9091602060018192858a0151815501930191016128d2565b61295f90600285016000526020600020601f840160051c81019160208510610b7057601f0160051c0190614501565b84611f86565b606460405162461bcd60e51b815260206004820152602060248201527f4552433732313a206d696e7420746f20746865207a65726f20616464726573736044820152fd5b34610222576040366003190112610222576001600160401b03600435602435828111610222576129dd9036906004016135d8565b816000526020600e81526129f860ff60406000205416614564565b82600052600b8152612a1860ff60106040600020015460081c16156145b0565b612a24825115156147cd565b612a336103e883511115614819565b60019182600a54019485600a55612a4861485a565b918683528383019186835260608401913383526040850190815260808501916000835260a086019442865289600052600c88526040600020546010895260406000208c600052895260406000205589600052600c885260406000208054600160401b811015610b7a57612abf918b8201815561488c565b979097612c475751875551888701556002860191518051918211610b7a57612ae78354613a29565b601f8111612c17575b508790601f8311600114612ba65791806004969492600f9a99989694600092612b9b575b5050600019600383901b1c1916908a1b1790555b600385019160018060a01b0390511682549160ff60a01b9051151560a01b16916affffffffffffffffffffff60a81b161717905551910155846000525260406000209060ff198254161790557f7f81c790a4345d8750e5542a4c0213b9a5969741805deafb58ad031fe113c4cd600080a3005b015190508d80612b14565b899291601f19831691856000528a6000209260005b818110612c00575091600f9b9a99979593918560049a98969410612be7575b505050811b019055612b28565b015160001960f88460031b161c191690558d8080612bda565b8284015185558d9690940193928c01928c01612bbb565b612c41908460005289600020601f850160051c8101918b8610610b7057601f0160051c0190614501565b8b612af0565b634e487b7160e01b600052600060045260246000fd5b3461022257612c6b3661362b565b90806000526020600e8152612c8760ff60406000205416614564565b82600052600f8152612ca060ff604060002054166148a8565b816000526010815260406000208360005281526040600020549082600052600c8152612cd260406000205483106148ec565b82600052600c81526003612cea83604060002061488c565b500154336001600160a01b0391821614908115612e13575b5015612dbc5782600052600c815260ff6003612d2284604060002061488c565b50015460a01c16612d7f57600391600c612d45928560005252604060002061488c565b5001805460ff60a01b1916600160a01b1790557ffe09911b3ec9652ef94a11286713bd397f2fb090f28c62303451d8040ff62c62600080a3005b6064906040519062461bcd60e51b82526004820152601660248201527514995d9a595dc8185b1c9958591e4819195b195d195960521b6044820152fd5b6084906040519062461bcd60e51b82526004820152602a60248201527f4f6e6c79207265766965776572206f7220636f6e7472616374206f776e65722060448201526963616e2064656c65746560b01b6064820152fd5b905060005416331485612d02565b3461022257611266612e32366135f6565b91612e4061124c8433613c20565b613ce8565b34610222576060366003190112610222576024356004356001600160401b0360443581811161022257612e7c9036906004016135d8565b82600052602090600e8252612e9860ff60406000205416614564565b83600052600b8252612eb860ff60106040600020015460081c16156145b0565b84600052600f8252612ed160ff604060002054166148a8565b612edd815115156147cd565b612eec6103e882511115614819565b836000526010825260406000208560005282526040600020549284600052600c8352612f1e60406000205485106148ec565b84600052600c8352612f3484604060002061488c565b50600301546001600160a01b031633036130b95784600052600c8352612f6560ff60036104d087604060002061488c565b84600052600c83526002612f7d85604060002061488c565b5001918051918211610b7a57612f938354613a29565b601f8111613089575b508390601f831160011461301b579180600c9492612fe2979694600092613010575b50508160011b916000199060031b1c19161790555b8460005252604060002061488c565b506004429101557fa36bbb9e7cdd66e8ea36022dd73f106f7fa8d76d37b933cde8cc2af00e401ae7600080a3005b015190508980612fbe565b90601f1983169184600052856000209260005b8181106130725750926001928592612fe2999896600c989610613059575b505050811b019055612fd3565b015160001960f88460031b161c1916905589808061304c565b92938760018192878601518155019501930161302e565b6130b3908460005285600020601f850160051c810191878610610b7057601f0160051c0190614501565b87612f9c565b60405162461bcd60e51b815260048101849052601860248201527f4f6e6c792072657669657765722063616e2075706461746500000000000000006044820152606490fd5b346102225760203660031901126102225760043580600052600e60205261312c60ff60406000205416614564565b6000818152600b6020526040902060010154336001600160a01b03918216149081156131f3575b501561319e5780600052600b602052601060406000200161010061ff00198254161790557f7156884be24ff0be75b08b7bf2034f16982585fcfc7fc22c70716ad234e92673600080a2005b60405162461bcd60e51b815260206004820152602760248201527f4f6e6c792070726f7065727479206f776e65722063616e2064656c6574652070604482015266726f706572747960c81b6064820152608490fd5b905060005416331482613153565b346102225760403660031901126102225761321a6134e7565b602435906001600160a01b03808061323185613a06565b1692169180831461332c57803314908115613307575b501561329c57600083815260056020526040902080546001600160a01b0319168317905561327483613a06565b167f8c5be1e5ebec7d5bd14f71427d1e84f3dd0314c0f7b2291e5b200ac8c7c3b925600080a4005b60405162461bcd60e51b815260206004820152603d60248201527f4552433732313a20617070726f76652063616c6c6572206973206e6f7420746f60448201527f6b656e206f776e6572206f7220617070726f76656420666f7220616c6c0000006064820152608490fd5b9050600052600660205260406000203360005260205260ff6040600020541684613247565b60405162461bcd60e51b815260206004820152602160248201527f4552433732313a20617070726f76616c20746f2063757272656e74206f776e656044820152603960f91b6064820152608490fd5b34610222576020366003190112610222576020611936600435613b09565b3461022257600036600319011261022257604051600060018054906133bd82613a29565b8085529181811690811561150557506001146133e3576103d38461149681860382613565565b600081815292507fb10e2d527612073b26eecdfd717e6a320cf44b4afac2b0732d9fcbe2b7fa0cf65b82841061342457505050810160200161149682611486565b8054602085870181019190915290930192810161340c565b34610222576020366003190112610222576004359063ffffffff60e01b8216809203610222576020916380ac58cd60e01b8114908115613496575b8115613485575b5015158152f35b6301ffc9a760e01b1490508361347e565b635b5e139f60e01b81149150613477565b919082519283825260005b8481106134d3575050826000602080949584010152601f8019910116010190565b6020818301810151848301820152016134b2565b600435906001600160a01b038216820361022257565b602435906001600160a01b038216820361022257565b61024081019081106001600160401b03821117610b7a57604052565b60c081019081106001600160401b03821117610b7a57604052565b602081019081106001600160401b03821117610b7a57604052565b90601f801991011681019081106001600160401b03821117610b7a57604052565b6001600160401b038111610b7a57601f01601f191660200190565b9291926135ad82613586565b916135bb6040519384613565565b829481845281830111610222578281602093846000960137010152565b9080601f83011215610222578160206135f3933591016135a1565b90565b6060906003190112610222576001600160a01b0390600435828116810361022257916024359081168103610222579060443590565b6040906003190112610222576004359060243590565b6001600160401b038111610b7a5760051b60200190565b9080601f830112156102225781359061367082613641565b9261367e6040519485613565565b828452602092838086019160051b8301019280841161022257848301915b8483106136ac5750505050505090565b82356001600160401b0381116102225786916136cd848480948901016135d8565b81520192019161369c565b9081518152602060018060a01b0381840151168183015261370860408401516102408060408601528401906134a7565b60608401519183820360608501528251908183528083019281808460051b8301019501936000915b84831061381f575050505050506137ac6137986137866137746137626137c095608089015188820360808a01526134a7565b60a088015187820360a08901526134a7565b60c087015186820360c08801526134a7565b60e086015185820360e08701526134a7565b6101008086015190858303908601526134a7565b6101208085015190848303908501526134a7565b916101408082015190830152610160808201519083015261018080820151908301526101a080820151908301526101c080820151908301526101e080820151908301526102008082015115159083015261022080910151151591015290565b909192939495848061383d600193601f198682030187528a516134a7565b9801930193019194939290613730565b602080820190808352835180925260408301928160408460051b8301019501936000915b8483106138815750505050505090565b909192939495848061389f600193603f198682030187528a516136d8565b9801930193019194939290613871565b90815181526020820151602082015260a0806138da604085015160c0604086015260c08501906134a7565b93600180831b036060820151166060850152608081015115156080850152015191015290565b602080820190808352835180925260408301928160408460051b8301019501936000915b8483106139345750505050505090565b9091929394958480613952600193603f198682030187528a516138af565b9801930193019194939290613924565b6000546001600160a01b0316330361397657565b606460405162461bcd60e51b815260206004820152602060248201527f4f776e61626c653a2063616c6c6572206973206e6f7420746865206f776e65726044820152fd5b156139c157565b60405162461bcd60e51b815260206004820152601860248201527f4552433732313a20696e76616c696420746f6b656e20494400000000000000006044820152606490fd5b6000908152600360205260409020546001600160a01b03166135f38115156139ba565b90600182811c92168015613a59575b6020831014613a4357565b634e487b7160e01b600052602260045260246000fd5b91607f1691613a38565b9060405191826000825492613a7784613a29565b908184526001948581169081600014613ae65750600114613aa3575b5050613aa192500383613565565b565b9093915060005260209081600020936000915b818310613ace575050613aa193508201013880613a93565b85548884018501529485019487945091830191613ab6565b915050613aa194506020925060ff191682840152151560051b8201013880613a93565b600081815260036020526040902054613b2c906001600160a01b031615156139ba565b6000908152600560205260409020546001600160a01b031690565b15613b4e57565b60405162461bcd60e51b815260206004820152602d60248201527f4552433732313a2063616c6c6572206973206e6f7420746f6b656e206f776e6560448201526c1c881bdc88185c1c1c9bdd9959609a1b6064820152608490fd5b60809060208152603260208201527f4552433732313a207472616e7366657220746f206e6f6e20455243373231526560408201527131b2b4bb32b91034b6b83632b6b2b73a32b960711b60608201520190565b15613c0357565b60405162461bcd60e51b815280613c1c60048201613ba9565b0390fd5b906001600160a01b038080613c3484613a06565b16931691838314938415613c67575b508315613c51575b50505090565b613c5d91929350613b09565b1614388080613c4b565b909350600052600660205260406000208260005260205260ff604060002054169238613c43565b15613c9557565b60405162461bcd60e51b815260206004820152602560248201527f4552433732313a207472616e736665722066726f6d20696e636f72726563742060448201526437bbb732b960d91b6064820152608490fd5b90613d1091613cf684613a06565b6001600160a01b0393918416928492909183168414613c8e565b16918215613da85781613d2d91613d2686613a06565b1614613c8e565b7fddf252ad1be2c89b69c2b068fc378daa952ba7f163c4a11628f55a4df523b3ef60008481526005602052604081206001600160601b0360a01b9081815416905583825260046020526040822060001981540190558482526040822060018154019055858252600360205284604083209182541617905580a4565b60405162461bcd60e51b8152602060048201526024808201527f4552433732313a207472616e7366657220746f20746865207a65726f206164646044820152637265737360e01b6064820152608490fd5b3d15613e24573d90613e0a82613586565b91613e186040519384613565565b82523d6000602084013e565b606090565b9091600091803b15613f1b57613e746020918493604051948580948193630a85bd0160e11b9a8b845233600485015284602485015260448401526080606484015260848301906134a7565b03926001600160a01b03165af190829082613ecc575b5050613ebe57613e98613df9565b80519081613eb95760405162461bcd60e51b815280613c1c60048201613ba9565b602001fd5b6001600160e01b0319161490565b909192506020813d8211613f13575b81613ee860209383613565565b81010312613f0f5751906001600160e01b031982168203613f0c5750903880613e8a565b80fd5b5080fd5b3d9150613edb565b50505050600190565b91926000929190813b15613f9557602091613f7a9185604051958680958194630a85bd0160e11b9b8c845233600485015260018060a01b03809516602485015260448401526080606484015260848301906134a7565b0393165af190829082613ecc575050613ebe57613e98613df9565b5050505050600190565b15613fa657565b60405162461bcd60e51b81526020600482015260146024820152734e616d652063616e6e6f7420626520656d70747960601b6044820152606490fd5b15613fe957565b60405162461bcd60e51b815260206004820152601e60248201527f4174206c65617374206f6e6520696d61676520697320726571756972656400006044820152606490fd5b1561403557565b60405162461bcd60e51b815260206004820152601960248201527f4d6178696d756d20313020696d6167657320616c6c6f776564000000000000006044820152606490fd5b1561408157565b60405162461bcd60e51b815260206004820152601860248201527f43617465676f72792063616e6e6f7420626520656d70747900000000000000006044820152606490fd5b156140cd57565b60405162461bcd60e51b815260206004820152601b60248201527f4465736372697074696f6e2063616e6e6f7420626520656d70747900000000006044820152606490fd5b1561411957565b60405162461bcd60e51b815260206004820152601860248201527f4c6f636174696f6e2063616e6e6f7420626520656d70747900000000000000006044820152606490fd5b1561416557565b60405162461bcd60e51b8152602060048201526014602482015273436974792063616e6e6f7420626520656d70747960601b6044820152606490fd5b156141a857565b60405162461bcd60e51b815260206004820152601560248201527453746174652063616e6e6f7420626520656d70747960581b6044820152606490fd5b156141ec57565b60405162461bcd60e51b815260206004820152601760248201527f436f756e7472792063616e6e6f7420626520656d7074790000000000000000006044820152606490fd5b1561423857565b60405162461bcd60e51b815260206004820152601860248201527f5a697020436f64652063616e6e6f7420626520656d70747900000000000000006044820152606490fd5b1561428457565b60405162461bcd60e51b815260206004820152601f60248201527f426564726f6f6d2063616e6e6f74206265207a65726f206f7220656d707479006044820152606490fd5b156142d057565b606460405162461bcd60e51b815260206004820152602060248201527f42617468726f6f6d2063616e6e6f74206265207a65726f206f7220656d7074796044820152fd5b1561431b57565b60405162461bcd60e51b815260206004820152602260248201527f59656172206275696c742063616e6e6f74206265207a65726f206f7220656d70604482015261747960f01b6064820152608490fd5b1561437257565b60405162461bcd60e51b815260206004820152602260248201527f486f7573652073697a652063616e6e6f74206265207a65726f206f7220656d70604482015261747960f01b6064820152608490fd5b156143c957565b60405162461bcd60e51b815260206004820152601f60248201527f5072696365206d7573742062652067726561746572207468616e207a65726f006044820152606490fd5b600019811461182e5760010190565b80518210156118445760209160051b010190565b1561443857565b60405162461bcd60e51b815260206004820152601960248201527f496d6167652055524c2063616e6e6f7420626520656d707479000000000000006044820152606490fd5b6040519061448a82613513565b81610220600091828152826020820152606080604083015280808301528060808301528060a08301528060c08301528060e083015280610100830152610120820152826101408201528261016082015282610180820152826101a0820152826101c0820152826101e0820152826102008201520152565b81811061450c575050565b60008155600101614501565b1561451f57565b60405162461bcd60e51b815260206004820152601c60248201527f4552433732313a20746f6b656e20616c7265616479206d696e746564000000006044820152606490fd5b1561456b57565b60405162461bcd60e51b815260206004820152601760248201527f50726f706572747920646f6573206e6f742065786973740000000000000000006044820152606490fd5b156145b757565b60405162461bcd60e51b815260206004820152601960248201527f50726f706572747920686173206265656e2064656c65746564000000000000006044820152606490fd5b9060405161460981613513565b8092805482526001808060a01b038183015416906020918285015261463060028401613a63565b60408501526003830180549061464582613641565b936146536040519586613565565b82855260009182528082208186015b84841061473f5750505050505060106102209260ff92606086015261468960048201613a63565b608086015261469a60058201613a63565b60a08601526146ab60068201613a63565b60c08601526146bc60078201613a63565b60e08601526146cd60088201613a63565b6101008601526146df60098201613a63565b610120860152600a810154610140860152600b810154610160860152600c810154610180860152600d8101546101a0860152600e8101546101c0860152600f8101546101e08601520154818116151561020085015260081c161515910152565b8583819261474c85613a63565b815201920193019290614662565b9061476482613641565b6147716040519182613565565b8281528092614782601f1991613641565b019060005b82811061479357505050565b60209061479e61447d565b82828501015201614787565b600080808094819460018060a01b03165af16147c4613df9565b5015613f0c5750565b156147d457565b60405162461bcd60e51b815260206004820152601860248201527f526576696577206d757374206e6f7420626520656d70747900000000000000006044820152606490fd5b1561482057565b60405162461bcd60e51b815260206004820152601260248201527152657669657720697320746f6f206c6f6e6760701b6044820152606490fd5b604051906148678261352f565b600060a083828152826020820152606060408201528260608201528260808201520152565b8054821015611844576000526005602060002091020190600090565b156148af57565b60405162461bcd60e51b815260206004820152601560248201527414995d9a595dc8191bd95cc81b9bdd08195e1a5cdd605a1b6044820152606490fd5b156148f357565b60405162461bcd60e51b815260206004820152602260248201527f526576696577206e6f7420666f756e6420666f7220746869732070726f706572604482015261747960f01b6064820152608490fd5b1561494a57565b60405162461bcd60e51b815260206004820152601760248201527f52657669657720686173206265656e2064656c657465640000000000000000006044820152606490fd5b9061499982613641565b6149a66040519182613565565b82815280926149b7601f1991613641565b019060005b8281106149c857505050565b6020906149d361485a565b828285010152016149bc565b906040516149ec8161352f565b60a0600482948054845260018101546020850152614a0c60028201613a63565b604085015260ff6003820154600180861b0381166060870152841c1615156080850152015491015256fea26469706673582212208aebc581571cd5ed288db8d801589d23481bc05b6550c75190e09c9c347506a664736f6c63430008110033","opcodes":"PUSH1 0x80 CALLVALUE PUSH3 0x37B JUMPI PUSH1 0x1F PUSH1 0x1F NOT PUSH1 0x1 PUSH1 0x1 PUSH1 0x40 SHL SUB PUSH3 0x4E23 CODESIZE DUP2 SWAP1 SUB DUP5 DUP2 ADD DUP5 AND DUP7 ADD DUP4 DUP2 GT DUP8 DUP3 LT OR PUSH3 0x380 JUMPI DUP7 SWAP3 DUP3 SWAP2 PUSH1 0x40 MSTORE DUP4 CODECOPY PUSH1 0x20 SWAP6 DUP7 SWAP2 DUP2 ADD SUB SLT PUSH3 0x37B JUMPI MLOAD SWAP3 PUSH3 0x52 PUSH3 0x396 JUMP JUMPDEST SWAP3 PUSH1 0xB DUP5 MSTORE PUSH11 0x53667850726F7065727479 PUSH1 0xA8 SHL DUP7 DUP6 ADD MSTORE PUSH3 0x74 PUSH3 0x396 JUMP JUMPDEST PUSH1 0x3 DUP2 MSTORE PUSH3 0x121C1D PUSH1 0xEA SHL DUP8 DUP3 ADD MSTORE PUSH1 0x0 DUP1 SLOAD CALLER PUSH1 0x1 PUSH1 0x1 PUSH1 0xA0 SHL SUB NOT DUP3 AND DUP2 OR DUP4 SSTORE SWAP3 SWAP4 SWAP2 SWAP3 SWAP1 PUSH1 0x1 PUSH1 0x1 PUSH1 0xA0 SHL SUB AND PUSH32 0x8BE0079C531659141344CD1FD0A4F28419497F9722A3DAAFE3B4186F6B6457E0 DUP5 DUP1 LOG3 DUP6 MLOAD DUP6 DUP2 GT PUSH3 0x367 JUMPI PUSH1 0x1 SWAP7 DUP8 SLOAD DUP9 DUP2 DUP2 SHR SWAP2 AND DUP1 ISZERO PUSH3 0x35C JUMPI JUMPDEST DUP12 DUP3 LT EQ PUSH3 0x348 JUMPI SWAP1 DUP2 DUP8 DUP5 SWAP4 GT PUSH3 0x2F5 JUMPI JUMPDEST POP DUP11 SWAP1 DUP8 DUP4 GT PUSH1 0x1 EQ PUSH3 0x292 JUMPI DUP6 SWAP3 PUSH3 0x286 JUMPI JUMPDEST POP POP PUSH1 0x0 NOT PUSH1 0x3 DUP4 SWAP1 SHL SHR NOT AND SWAP1 DUP8 SHL OR DUP7 SSTORE JUMPDEST DUP3 MLOAD SWAP5 DUP6 GT PUSH3 0x272 JUMPI PUSH1 0x2 SLOAD DUP7 DUP2 DUP2 SHR SWAP2 AND DUP1 ISZERO PUSH3 0x267 JUMPI JUMPDEST DUP10 DUP3 LT EQ PUSH3 0x253 JUMPI DUP5 DUP2 GT PUSH3 0x20A JUMPI JUMPDEST POP DUP8 SWAP4 DUP6 GT PUSH1 0x1 EQ PUSH3 0x1A3 JUMPI POP DUP4 SWAP5 SWAP6 SWAP7 POP SWAP3 PUSH3 0x197 JUMPI JUMPDEST POP POP PUSH1 0x0 NOT PUSH1 0x3 DUP4 SWAP1 SHL SHR NOT AND SWAP1 DUP3 SHL OR PUSH1 0x2 SSTORE JUMPDEST PUSH1 0x7 SSTORE PUSH1 0x11 SSTORE PUSH1 0x40 MLOAD PUSH2 0x4A6C SWAP1 DUP2 PUSH3 0x3B7 DUP3 CODECOPY RETURN JUMPDEST ADD MLOAD SWAP1 POP CODESIZE DUP1 PUSH3 0x16C JUMP JUMPDEST DUP5 SWAP4 SWAP3 SWAP2 SWAP4 AND SWAP7 PUSH1 0x2 DUP5 MSTORE DUP1 DUP5 KECCAK256 SWAP4 SWAP1 JUMPDEST DUP9 DUP3 LT PUSH3 0x1F2 JUMPI POP POP DUP4 DUP6 SWAP7 SWAP8 LT PUSH3 0x1D8 JUMPI JUMPDEST POP POP POP DUP2 SHL ADD PUSH1 0x2 SSTORE PUSH3 0x181 JUMP JUMPDEST ADD MLOAD PUSH1 0x0 NOT PUSH1 0xF8 DUP5 PUSH1 0x3 SHL AND SHR NOT AND SWAP1 SSTORE CODESIZE DUP1 DUP1 PUSH3 0x1C9 JUMP JUMPDEST DUP1 DUP8 DUP6 SWAP7 DUP3 SWAP5 SWAP7 DUP7 ADD MLOAD DUP2 SSTORE ADD SWAP6 ADD SWAP4 ADD SWAP1 PUSH3 0x1B4 JUMP JUMPDEST PUSH1 0x2 DUP4 MSTORE DUP9 DUP4 KECCAK256 DUP6 DUP1 DUP9 ADD PUSH1 0x5 SHR DUP3 ADD SWAP3 DUP12 DUP10 LT PUSH3 0x249 JUMPI JUMPDEST ADD PUSH1 0x5 SHR ADD SWAP1 DUP8 SWAP1 JUMPDEST DUP3 DUP2 LT PUSH3 0x23D JUMPI POP POP PUSH3 0x152 JUMP JUMPDEST DUP5 DUP2 SSTORE ADD DUP8 SWAP1 PUSH3 0x22D JUMP JUMPDEST SWAP3 POP DUP2 SWAP3 PUSH3 0x224 JUMP JUMPDEST PUSH4 0x4E487B71 PUSH1 0xE0 SHL DUP4 MSTORE PUSH1 0x22 PUSH1 0x4 MSTORE PUSH1 0x24 DUP4 REVERT JUMPDEST SWAP1 PUSH1 0x7F AND SWAP1 PUSH3 0x140 JUMP JUMPDEST PUSH4 0x4E487B71 PUSH1 0xE0 SHL DUP3 MSTORE PUSH1 0x41 PUSH1 0x4 MSTORE PUSH1 0x24 DUP3 REVERT JUMPDEST ADD MLOAD SWAP1 POP CODESIZE DUP1 PUSH3 0x111 JUMP JUMPDEST SWAP1 DUP5 DUP11 SWAP5 AND SWAP2 DUP5 DUP8 MSTORE DUP13 DUP8 KECCAK256 SWAP3 DUP14 DUP9 SWAP1 JUMPDEST DUP3 DUP3 LT PUSH3 0x2DD JUMPI POP POP DUP5 GT PUSH3 0x2C3 JUMPI JUMPDEST POP POP POP DUP2 SHL ADD DUP7 SSTORE PUSH3 0x125 JUMP JUMPDEST ADD MLOAD PUSH1 0x0 NOT PUSH1 0xF8 DUP5 PUSH1 0x3 SHL AND SHR NOT AND SWAP1 SSTORE CODESIZE DUP1 DUP1 PUSH3 0x2B5 JUMP JUMPDEST DUP4 DUP6 ADD MLOAD DUP7 SSTORE DUP14 SWAP8 SWAP1 SWAP6 ADD SWAP5 SWAP4 DUP5 ADD SWAP4 ADD DUP15 PUSH3 0x2A3 JUMP JUMPDEST SWAP1 SWAP2 POP DUP9 DUP6 MSTORE DUP11 DUP6 KECCAK256 DUP8 DUP1 DUP6 ADD PUSH1 0x5 SHR DUP3 ADD SWAP3 DUP14 DUP7 LT PUSH3 0x33E JUMPI JUMPDEST SWAP2 DUP12 SWAP2 DUP7 SWAP6 SWAP5 SWAP4 ADD PUSH1 0x5 SHR ADD SWAP2 JUMPDEST DUP3 DUP2 LT PUSH3 0x32F JUMPI POP POP PUSH3 0xFB JUMP JUMPDEST DUP8 DUP2 SSTORE DUP6 SWAP5 POP DUP12 SWAP2 ADD PUSH3 0x31F JUMP JUMPDEST SWAP3 POP DUP2 SWAP3 PUSH3 0x311 JUMP JUMPDEST PUSH4 0x4E487B71 PUSH1 0xE0 SHL DUP6 MSTORE PUSH1 0x22 PUSH1 0x4 MSTORE PUSH1 0x24 DUP6 REVERT JUMPDEST SWAP1 PUSH1 0x7F AND SWAP1 PUSH3 0xE6 JUMP JUMPDEST PUSH4 0x4E487B71 PUSH1 0xE0 SHL DUP4 MSTORE PUSH1 0x41 PUSH1 0x4 MSTORE PUSH1 0x24 DUP4 REVERT JUMPDEST PUSH1 0x0 DUP1 REVERT JUMPDEST PUSH4 0x4E487B71 PUSH1 0xE0 SHL PUSH1 0x0 MSTORE PUSH1 0x41 PUSH1 0x4 MSTORE PUSH1 0x24 PUSH1 0x0 REVERT JUMPDEST PUSH1 0x40 DUP1 MLOAD SWAP2 SWAP1 DUP3 ADD PUSH1 0x1 PUSH1 0x1 PUSH1 0x40 SHL SUB DUP2 GT DUP4 DUP3 LT OR PUSH3 0x380 JUMPI PUSH1 0x40 MSTORE JUMP INVALID PUSH1 0x80 DUP1 PUSH1 0x40 MSTORE PUSH1 0x4 CALLDATASIZE LT ISZERO PUSH2 0x13 JUMPI PUSH1 0x0 DUP1 REVERT JUMPDEST PUSH1 0x0 CALLDATALOAD PUSH1 0xE0 SHR SWAP1 DUP2 PUSH4 0x1FFC9A7 EQ PUSH2 0x343C JUMPI POP DUP1 PUSH4 0x6FDDE03 EQ PUSH2 0x3399 JUMPI DUP1 PUSH4 0x81812FC EQ PUSH2 0x337B JUMPI DUP1 PUSH4 0x95EA7B3 EQ PUSH2 0x3201 JUMPI DUP1 PUSH4 0x170140F1 EQ PUSH2 0x30FE JUMPI DUP1 PUSH4 0x175A3B41 EQ PUSH2 0x2E45 JUMPI DUP1 PUSH4 0x23B872DD EQ PUSH2 0x2E21 JUMPI DUP1 PUSH4 0x24D41A03 EQ PUSH2 0x2C5D JUMPI DUP1 PUSH4 0x2C0E839B EQ PUSH2 0x29A9 JUMPI DUP1 PUSH4 0x31563B94 EQ PUSH2 0x1BDF JUMPI DUP1 PUSH4 0x32665FFB EQ PUSH2 0x1B5F JUMPI DUP1 PUSH4 0x397F7952 EQ PUSH2 0x1A6C JUMPI DUP1 PUSH4 0x3D51402C EQ PUSH2 0x198D JUMPI DUP1 PUSH4 0x42842E0E EQ PUSH2 0x1948 JUMPI DUP1 PUSH4 0x6352211E EQ PUSH2 0x1918 JUMPI DUP1 PUSH4 0x6FA830A6 EQ PUSH2 0x1645 JUMPI DUP1 PUSH4 0x70A08231 EQ PUSH2 0x15AE JUMPI DUP1 PUSH4 0x715018A6 EQ PUSH2 0x1555 JUMPI DUP1 PUSH4 0x8DA5CB5B EQ PUSH2 0x152C JUMPI DUP1 PUSH4 0x95D89B41 EQ PUSH2 0x144A JUMPI DUP1 PUSH4 0x9D4A2255 EQ PUSH2 0x1343 JUMPI DUP1 PUSH4 0xA22CB465 EQ PUSH2 0x1268 JUMPI DUP1 PUSH4 0xB88D4FDE EQ PUSH2 0x11E1 JUMPI DUP1 PUSH4 0xC87B56DD EQ PUSH2 0x1174 JUMPI DUP1 PUSH4 0xCAF7844D EQ PUSH2 0x503 JUMPI DUP1 PUSH4 0xDFA505ED EQ PUSH2 0x42D JUMPI DUP1 PUSH4 0xE985E9C5 EQ PUSH2 0x3D7 JUMPI DUP1 PUSH4 0xF15BFA68 EQ PUSH2 0x227 JUMPI PUSH4 0xF2FDE38B EQ PUSH2 0x15E JUMPI PUSH1 0x0 DUP1 REVERT JUMPDEST CALLVALUE PUSH2 0x222 JUMPI PUSH1 0x20 CALLDATASIZE PUSH1 0x3 NOT ADD SLT PUSH2 0x222 JUMPI PUSH2 0x177 PUSH2 0x34E7 JUMP JUMPDEST PUSH2 0x17F PUSH2 0x3962 JUMP JUMPDEST PUSH1 0x1 PUSH1 0x1 PUSH1 0xA0 SHL SUB SWAP1 DUP2 AND SWAP1 DUP2 ISZERO PUSH2 0x1CE JUMPI PUSH1 0x0 SLOAD DUP3 PUSH1 0x1 PUSH1 0x1 PUSH1 0x60 SHL SUB PUSH1 0xA0 SHL DUP3 AND OR PUSH1 0x0 SSTORE AND PUSH32 0x8BE0079C531659141344CD1FD0A4F28419497F9722A3DAAFE3B4186F6B6457E0 PUSH1 0x0 DUP1 LOG3 STOP JUMPDEST PUSH1 0x40 MLOAD PUSH3 0x461BCD PUSH1 0xE5 SHL DUP2 MSTORE PUSH1 0x20 PUSH1 0x4 DUP3 ADD MSTORE PUSH1 0x26 PUSH1 0x24 DUP3 ADD MSTORE PUSH32 0x4F776E61626C653A206E6577206F776E657220697320746865207A65726F2061 PUSH1 0x44 DUP3 ADD MSTORE PUSH6 0x646472657373 PUSH1 0xD0 SHL PUSH1 0x64 DUP3 ADD MSTORE PUSH1 0x84 SWAP1 REVERT JUMPDEST PUSH1 0x0 DUP1 REVERT JUMPDEST CALLVALUE PUSH2 0x222 JUMPI PUSH1 0x20 DUP1 PUSH1 0x3 NOT CALLDATASIZE ADD SLT PUSH2 0x222 JUMPI PUSH1 0x4 CALLDATALOAD DUP1 PUSH1 0x0 MSTORE PUSH1 0xE DUP3 MSTORE PUSH1 0xFF SWAP1 PUSH2 0x257 DUP3 PUSH1 0x40 PUSH1 0x0 KECCAK256 SLOAD AND PUSH2 0x4564 JUMP JUMPDEST PUSH1 0x0 SWAP1 PUSH1 0x0 JUMPDEST DUP2 PUSH1 0x0 MSTORE PUSH1 0xC DUP1 DUP7 MSTORE PUSH1 0x40 PUSH1 0x0 KECCAK256 SLOAD DUP3 LT ISZERO PUSH2 0x2EE JUMPI DUP5 PUSH2 0x282 DUP4 PUSH1 0x40 PUSH1 0x0 KECCAK256 PUSH2 0x488C JUMP JUMPDEST POP PUSH1 0x3 SWAP1 DUP2 ADD SLOAD PUSH1 0x1 PUSH1 0x1 PUSH1 0xA0 SHL SUB AND CALLER EQ SWAP3 DUP4 PUSH2 0x2C6 JUMPI JUMPDEST POP POP POP PUSH2 0x2B1 JUMPI JUMPDEST PUSH2 0x2AC SWAP1 PUSH2 0x440E JUMP JUMPDEST PUSH2 0x25D JUMP JUMPDEST SWAP2 PUSH2 0x2BE PUSH2 0x2AC SWAP2 PUSH2 0x440E JUMP JUMPDEST SWAP3 SWAP1 POP PUSH2 0x2A3 JUMP JUMPDEST SWAP1 SWAP2 SWAP3 POP DUP5 PUSH1 0x0 MSTORE DUP8 MSTORE PUSH2 0x2DE DUP4 PUSH1 0x40 PUSH1 0x0 KECCAK256 PUSH2 0x488C JUMP JUMPDEST POP ADD SLOAD PUSH1 0xA0 SHR AND ISZERO DUP5 DUP8 DUP1 PUSH2 0x29B JUMP JUMPDEST DUP6 DUP4 DUP7 PUSH2 0x2FA DUP8 PUSH2 0x498F JUMP JUMPDEST SWAP3 PUSH1 0x0 SWAP1 PUSH1 0x0 JUMPDEST DUP5 PUSH1 0x0 MSTORE PUSH1 0xC DUP1 DUP4 MSTORE PUSH1 0x40 PUSH1 0x0 KECCAK256 SLOAD DUP3 LT ISZERO PUSH2 0x3C5 JUMPI PUSH2 0x325 DUP3 PUSH1 0x40 PUSH1 0x0 KECCAK256 PUSH2 0x488C JUMP JUMPDEST POP PUSH1 0x3 SWAP1 DUP2 ADD SLOAD PUSH1 0x1 PUSH1 0x1 PUSH1 0xA0 SHL SUB AND CALLER EQ SWAP1 DUP7 SWAP1 DUP3 PUSH2 0x39E JUMPI JUMPDEST POP POP PUSH2 0x356 JUMPI JUMPDEST POP PUSH2 0x351 SWAP1 PUSH2 0x440E JUMP JUMPDEST PUSH2 0x301 JUMP JUMPDEST PUSH2 0x351 SWAP2 SWAP4 PUSH2 0x397 SWAP2 DUP8 PUSH1 0x0 MSTORE DUP5 MSTORE PUSH2 0x37C PUSH2 0x376 DUP7 PUSH1 0x40 PUSH1 0x0 KECCAK256 PUSH2 0x488C JUMP JUMPDEST POP PUSH2 0x49DF JUMP JUMPDEST PUSH2 0x386 DUP3 DUP11 PUSH2 0x441D JUMP JUMPDEST MSTORE PUSH2 0x391 DUP2 DUP10 PUSH2 0x441D JUMP JUMPDEST POP PUSH2 0x440E JUMP JUMPDEST SWAP3 SWAP1 PUSH2 0x347 JUMP JUMPDEST SWAP1 SWAP2 POP DUP8 PUSH1 0x0 MSTORE DUP3 DUP6 MSTORE PUSH2 0x3B6 DUP5 PUSH1 0x40 PUSH1 0x0 KECCAK256 PUSH2 0x488C JUMP JUMPDEST POP ADD SLOAD PUSH1 0xA0 SHR AND ISZERO DUP6 DUP10 PUSH2 0x340 JUMP JUMPDEST PUSH1 0x40 MLOAD DUP1 PUSH2 0x3D3 DUP10 DUP3 PUSH2 0x3900 JUMP JUMPDEST SUB SWAP1 RETURN JUMPDEST CALLVALUE PUSH2 0x222 JUMPI PUSH1 0x40 CALLDATASIZE PUSH1 0x3 NOT ADD SLT PUSH2 0x222 JUMPI PUSH2 0x3F0 PUSH2 0x34E7 JUMP JUMPDEST PUSH2 0x3F8 PUSH2 0x34FD JUMP JUMPDEST SWAP1 PUSH1 0x1 DUP1 PUSH1 0xA0 SHL SUB DUP1 SWAP2 AND PUSH1 0x0 MSTORE PUSH1 0x6 PUSH1 0x20 MSTORE PUSH1 0x40 PUSH1 0x0 KECCAK256 SWAP2 AND PUSH1 0x0 MSTORE PUSH1 0x20 MSTORE PUSH1 0x20 PUSH1 0xFF PUSH1 0x40 PUSH1 0x0 KECCAK256 SLOAD AND PUSH1 0x40 MLOAD SWAP1 ISZERO ISZERO DUP2 MSTORE RETURN JUMPDEST CALLVALUE PUSH2 0x222 JUMPI PUSH2 0x376 PUSH2 0x4EE PUSH2 0x441 CALLDATASIZE PUSH2 0x362B JUMP JUMPDEST SWAP3 SWAP1 PUSH2 0x44B PUSH2 0x485A JUMP JUMPDEST POP DUP1 PUSH1 0x0 MSTORE PUSH1 0x20 SWAP4 PUSH1 0xE DUP6 MSTORE PUSH2 0x468 PUSH1 0xFF PUSH1 0x40 PUSH1 0x0 KECCAK256 SLOAD AND PUSH2 0x4564 JUMP JUMPDEST DUP1 PUSH1 0x0 MSTORE PUSH1 0xF DUP6 MSTORE PUSH2 0x481 PUSH1 0xFF PUSH1 0x40 PUSH1 0x0 KECCAK256 SLOAD AND PUSH2 0x48A8 JUMP JUMPDEST DUP2 PUSH1 0x0 MSTORE PUSH1 0x10 DUP6 MSTORE PUSH1 0x40 PUSH1 0x0 KECCAK256 SWAP1 PUSH1 0x0 MSTORE DUP5 MSTORE PUSH1 0x40 PUSH1 0x0 KECCAK256 SLOAD SWAP1 DUP1 PUSH1 0x0 MSTORE PUSH1 0xC DUP6 MSTORE PUSH2 0x4B3 PUSH1 0x40 PUSH1 0x0 KECCAK256 SLOAD DUP4 LT PUSH2 0x48EC JUMP JUMPDEST DUP1 PUSH1 0x0 MSTORE PUSH1 0xC DUP6 MSTORE PUSH2 0x4DD PUSH1 0xFF PUSH1 0x3 PUSH2 0x4D0 DUP6 PUSH1 0x40 PUSH1 0x0 KECCAK256 PUSH2 0x488C JUMP JUMPDEST POP ADD SLOAD PUSH1 0xA0 SHR AND ISZERO PUSH2 0x4943 JUMP JUMPDEST PUSH1 0x0 MSTORE PUSH1 0xC DUP5 MSTORE PUSH1 0x40 PUSH1 0x0 KECCAK256 PUSH2 0x488C JUMP JUMPDEST SWAP1 PUSH2 0x3D3 PUSH1 0x40 MLOAD SWAP3 DUP3 DUP5 SWAP4 DUP5 MSTORE DUP4 ADD SWAP1 PUSH2 0x38AF JUMP JUMPDEST CALLVALUE PUSH2 0x222 JUMPI PUSH2 0x1E0 CALLDATASIZE PUSH1 0x3 NOT ADD SLT PUSH2 0x222 JUMPI PUSH1 0x24 CALLDATALOAD PUSH1 0x1 PUSH1 0x1 PUSH1 0x40 SHL SUB DUP2 GT PUSH2 0x222 JUMPI PUSH2 0x534 SWAP1 CALLDATASIZE SWAP1 PUSH1 0x4 ADD PUSH2 0x35D8 JUMP JUMPDEST PUSH1 0x44 CALLDATALOAD PUSH1 0x1 PUSH1 0x1 PUSH1 0x40 SHL SUB DUP2 GT PUSH2 0x222 JUMPI PUSH2 0x553 SWAP1 CALLDATASIZE SWAP1 PUSH1 0x4 ADD PUSH2 0x3658 JUMP JUMPDEST PUSH1 0x64 CALLDATALOAD PUSH1 0x1 PUSH1 0x1 PUSH1 0x40 SHL SUB DUP2 GT PUSH2 0x222 JUMPI PUSH2 0x572 SWAP1 CALLDATASIZE SWAP1 PUSH1 0x4 ADD PUSH2 0x35D8 JUMP JUMPDEST PUSH1 0x84 CALLDATALOAD PUSH1 0x1 PUSH1 0x1 PUSH1 0x40 SHL SUB DUP2 GT PUSH2 0x222 JUMPI PUSH2 0x591 SWAP1 CALLDATASIZE SWAP1 PUSH1 0x4 ADD PUSH2 0x35D8 JUMP JUMPDEST PUSH1 0xA4 CALLDATALOAD PUSH1 0x1 PUSH1 0x1 PUSH1 0x40 SHL SUB DUP2 GT PUSH2 0x222 JUMPI PUSH2 0x5B0 SWAP1 CALLDATASIZE SWAP1 PUSH1 0x4 ADD PUSH2 0x35D8 JUMP JUMPDEST SWAP2 PUSH1 0xC4 CALLDATALOAD PUSH1 0x1 PUSH1 0x1 PUSH1 0x40 SHL SUB DUP2 GT PUSH2 0x222 JUMPI PUSH2 0x5D0 SWAP1 CALLDATASIZE SWAP1 PUSH1 0x4 ADD PUSH2 0x35D8 JUMP JUMPDEST SWAP3 PUSH1 0xE4 CALLDATALOAD PUSH1 0x1 PUSH1 0x1 PUSH1 0x40 SHL SUB DUP2 GT PUSH2 0x222 JUMPI PUSH2 0x5F0 SWAP1 CALLDATASIZE SWAP1 PUSH1 0x4 ADD PUSH2 0x35D8 JUMP JUMPDEST SWAP3 PUSH2 0x104 CALLDATALOAD PUSH1 0x1 PUSH1 0x1 PUSH1 0x40 SHL SUB DUP2 GT PUSH2 0x222 JUMPI PUSH2 0x611 SWAP1 CALLDATASIZE SWAP1 PUSH1 0x4 ADD PUSH2 0x35D8 JUMP JUMPDEST SWAP3 PUSH1 0x4 CALLDATALOAD PUSH1 0x0 MSTORE PUSH1 0xE PUSH1 0x20 MSTORE PUSH2 0x62E PUSH1 0xFF PUSH1 0x40 PUSH1 0x0 KECCAK256 SLOAD AND PUSH2 0x4564 JUMP JUMPDEST PUSH1 0x4 CALLDATALOAD PUSH1 0x0 SWAP1 DUP2 MSTORE PUSH1 0xB PUSH1 0x20 MSTORE PUSH1 0x40 SWAP1 KECCAK256 PUSH1 0x1 ADD SLOAD PUSH1 0x1 PUSH1 0x1 PUSH1 0xA0 SHL SUB AND CALLER SUB PUSH2 0x1118 JUMPI PUSH2 0x65E DUP9 MLOAD ISZERO ISZERO PUSH2 0x3F9F JUMP JUMPDEST PUSH2 0x66A DUP8 MLOAD ISZERO ISZERO PUSH2 0x3FE2 JUMP JUMPDEST PUSH2 0x678 PUSH1 0xA DUP9 MLOAD GT ISZERO PUSH2 0x402E JUMP JUMPDEST PUSH2 0x684 DUP2 MLOAD ISZERO ISZERO PUSH2 0x407A JUMP JUMPDEST PUSH2 0x690 DUP4 MLOAD ISZERO ISZERO PUSH2 0x4112 JUMP JUMPDEST PUSH2 0x69C DUP7 MLOAD ISZERO ISZERO PUSH2 0x415E JUMP JUMPDEST PUSH2 0x6A8 DUP6 MLOAD ISZERO ISZERO PUSH2 0x41A1 JUMP JUMPDEST PUSH2 0x6B4 DUP5 MLOAD ISZERO ISZERO PUSH2 0x41E5 JUMP JUMPDEST PUSH2 0x6C2 PUSH2 0x124 CALLDATALOAD ISZERO ISZERO PUSH2 0x4231 JUMP JUMPDEST PUSH2 0x6CE DUP3 MLOAD ISZERO ISZERO PUSH2 0x40C6 JUMP JUMPDEST PUSH2 0x6DC PUSH2 0x144 CALLDATALOAD ISZERO ISZERO PUSH2 0x427D JUMP JUMPDEST PUSH2 0x6EA PUSH2 0x164 CALLDATALOAD ISZERO ISZERO PUSH2 0x42C9 JUMP JUMPDEST PUSH2 0x6F8 PUSH2 0x184 CALLDATALOAD ISZERO ISZERO PUSH2 0x4314 JUMP JUMPDEST PUSH2 0x706 PUSH2 0x1A4 CALLDATALOAD ISZERO ISZERO PUSH2 0x436B JUMP JUMPDEST PUSH2 0x714 PUSH2 0x1C4 CALLDATALOAD ISZERO ISZERO PUSH2 0x43C2 JUMP JUMPDEST PUSH1 0x0 JUMPDEST DUP8 MLOAD DUP2 LT ISZERO PUSH2 0x744 JUMPI DUP1 PUSH2 0x73A PUSH2 0x731 PUSH2 0x73F SWAP4 DUP12 PUSH2 0x441D JUMP JUMPDEST MLOAD MLOAD ISZERO ISZERO PUSH2 0x4431 JUMP JUMPDEST PUSH2 0x440E JUMP JUMPDEST PUSH2 0x717 JUMP JUMPDEST POP DUP7 DUP9 PUSH1 0x4 CALLDATALOAD PUSH1 0x0 MSTORE PUSH1 0xB PUSH1 0x20 MSTORE PUSH1 0x2 PUSH1 0x40 PUSH1 0x0 KECCAK256 ADD SWAP1 DUP1 MLOAD SWAP1 PUSH1 0x1 PUSH1 0x1 PUSH1 0x40 SHL SUB DUP3 GT PUSH2 0xB7A JUMPI DUP2 SWAP1 PUSH2 0x778 DUP5 SLOAD PUSH2 0x3A29 JUMP JUMPDEST PUSH1 0x1F DUP2 GT PUSH2 0x10E6 JUMPI JUMPDEST POP PUSH1 0x20 SWAP1 PUSH1 0x1F DUP4 GT PUSH1 0x1 EQ PUSH2 0x107A JUMPI PUSH1 0x0 SWAP3 PUSH2 0x106F JUMPI JUMPDEST POP POP DUP2 PUSH1 0x1 SHL SWAP2 PUSH1 0x0 NOT SWAP1 PUSH1 0x3 SHL SHR NOT AND OR SWAP1 SSTORE JUMPDEST PUSH1 0x4 CALLDATALOAD PUSH1 0x0 MSTORE PUSH1 0xB PUSH1 0x20 MSTORE PUSH1 0x3 PUSH1 0x40 PUSH1 0x0 KECCAK256 ADD SWAP1 DUP1 MLOAD SWAP1 PUSH1 0x1 PUSH1 0x40 SHL DUP3 GT PUSH2 0xB7A JUMPI DUP3 SLOAD DUP3 DUP5 SSTORE DUP1 DUP4 LT PUSH2 0xFF4 JUMPI JUMPDEST POP PUSH1 0x20 ADD SWAP2 PUSH1 0x0 MSTORE PUSH1 0x20 PUSH1 0x0 KECCAK256 SWAP2 PUSH1 0x0 SWAP1 JUMPDEST DUP3 DUP3 LT PUSH2 0xED6 JUMPI POP POP POP POP PUSH1 0x4 CALLDATALOAD PUSH1 0x0 MSTORE PUSH1 0xB PUSH1 0x20 MSTORE PUSH1 0x4 PUSH1 0x40 PUSH1 0x0 KECCAK256 ADD SWAP1 DUP1 MLOAD SWAP1 PUSH1 0x1 PUSH1 0x1 PUSH1 0x40 SHL SUB DUP3 GT PUSH2 0xB7A JUMPI DUP2 SWAP1 PUSH2 0x82A DUP5 SLOAD PUSH2 0x3A29 JUMP JUMPDEST PUSH1 0x1F DUP2 GT PUSH2 0xEA4 JUMPI JUMPDEST POP PUSH1 0x20 SWAP1 PUSH1 0x1F DUP4 GT PUSH1 0x1 EQ PUSH2 0xE38 JUMPI PUSH1 0x0 SWAP3 PUSH2 0xE2D JUMPI JUMPDEST POP POP DUP2 PUSH1 0x1 SHL SWAP2 PUSH1 0x0 NOT SWAP1 PUSH1 0x3 SHL SHR NOT AND OR SWAP1 SSTORE JUMPDEST PUSH1 0x4 CALLDATALOAD PUSH1 0x0 MSTORE PUSH1 0xB PUSH1 0x20 MSTORE PUSH1 0x5 PUSH1 0x40 PUSH1 0x0 KECCAK256 ADD SWAP1 DUP1 MLOAD SWAP1 PUSH1 0x1 PUSH1 0x1 PUSH1 0x40 SHL SUB DUP3 GT PUSH2 0xB7A JUMPI DUP2 SWAP1 PUSH2 0x890 DUP5 SLOAD PUSH2 0x3A29 JUMP JUMPDEST PUSH1 0x1F DUP2 GT PUSH2 0xDFB JUMPI JUMPDEST POP PUSH1 0x20 SWAP1 PUSH1 0x1F DUP4 GT PUSH1 0x1 EQ PUSH2 0xD8F JUMPI PUSH1 0x0 SWAP3 PUSH2 0xD84 JUMPI JUMPDEST POP POP DUP2 PUSH1 0x1 SHL SWAP2 PUSH1 0x0 NOT SWAP1 PUSH1 0x3 SHL SHR NOT AND OR SWAP1 SSTORE JUMPDEST PUSH1 0x4 CALLDATALOAD PUSH1 0x0 MSTORE PUSH1 0xB PUSH1 0x20 MSTORE PUSH1 0x6 PUSH1 0x40 PUSH1 0x0 KECCAK256 ADD SWAP1 DUP1 MLOAD SWAP1 PUSH1 0x1 PUSH1 0x1 PUSH1 0x40 SHL SUB DUP3 GT PUSH2 0xB7A JUMPI DUP2 SWAP1 PUSH2 0x8F6 DUP5 SLOAD PUSH2 0x3A29 JUMP JUMPDEST PUSH1 0x1F DUP2 GT PUSH2 0xD52 JUMPI JUMPDEST POP PUSH1 0x20 SWAP1 PUSH1 0x1F DUP4 GT PUSH1 0x1 EQ PUSH2 0xCE6 JUMPI PUSH1 0x0 SWAP3 PUSH2 0xCDB JUMPI JUMPDEST POP POP DUP2 PUSH1 0x1 SHL SWAP2 PUSH1 0x0 NOT SWAP1 PUSH1 0x3 SHL SHR NOT AND OR SWAP1 SSTORE JUMPDEST PUSH1 0x4 CALLDATALOAD PUSH1 0x0 MSTORE PUSH1 0xB PUSH1 0x20 MSTORE PUSH1 0x7 PUSH1 0x40 PUSH1 0x0 KECCAK256 ADD DUP4 MLOAD PUSH1 0x1 PUSH1 0x1 PUSH1 0x40 SHL SUB DUP2 GT PUSH2 0xB7A JUMPI PUSH2 0x958 DUP3 SLOAD PUSH2 0x3A29 JUMP JUMPDEST PUSH1 0x1F DUP2 GT PUSH2 0xCA9 JUMPI JUMPDEST POP PUSH1 0x20 PUSH1 0x1F DUP3 GT PUSH1 0x1 EQ PUSH2 0xC40 JUMPI DUP2 SWAP3 SWAP4 SWAP5 SWAP6 PUSH1 0x0 SWAP3 PUSH2 0xC35 JUMPI JUMPDEST POP POP DUP2 PUSH1 0x1 SHL SWAP2 PUSH1 0x0 NOT SWAP1 PUSH1 0x3 SHL SHR NOT AND OR SWAP1 SSTORE JUMPDEST PUSH1 0x4 CALLDATALOAD PUSH1 0x0 MSTORE PUSH1 0xB PUSH1 0x20 MSTORE PUSH1 0x8 PUSH1 0x40 PUSH1 0x0 KECCAK256 ADD DUP3 MLOAD PUSH1 0x1 PUSH1 0x1 PUSH1 0x40 SHL SUB DUP2 GT PUSH2 0xB7A JUMPI PUSH2 0x9BE DUP3 SLOAD PUSH2 0x3A29 JUMP JUMPDEST PUSH1 0x1F DUP2 GT PUSH2 0xC03 JUMPI JUMPDEST POP PUSH1 0x20 PUSH1 0x1F DUP3 GT PUSH1 0x1 EQ PUSH2 0xB9B JUMPI DUP2 SWAP3 SWAP4 SWAP5 PUSH1 0x0 SWAP3 PUSH2 0xB90 JUMPI JUMPDEST POP POP DUP2 PUSH1 0x1 SHL SWAP2 PUSH1 0x0 NOT SWAP1 PUSH1 0x3 SHL SHR NOT AND OR SWAP1 SSTORE JUMPDEST PUSH1 0x4 CALLDATALOAD PUSH1 0x0 MSTORE PUSH1 0xB PUSH1 0x20 MSTORE PUSH1 0x9 PUSH1 0x40 PUSH1 0x0 KECCAK256 ADD DUP2 MLOAD PUSH1 0x1 PUSH1 0x1 PUSH1 0x40 SHL SUB DUP2 GT PUSH2 0xB7A JUMPI PUSH2 0xA23 DUP3 SLOAD PUSH2 0x3A29 JUMP JUMPDEST PUSH1 0x1F DUP2 GT PUSH2 0xB3D JUMPI JUMPDEST POP PUSH1 0x20 SWAP3 PUSH1 0x1F DUP3 GT PUSH1 0x1 EQ PUSH2 0xAD9 JUMPI SWAP3 DUP2 SWAP3 SWAP4 PUSH1 0x0 SWAP3 PUSH2 0xACE JUMPI JUMPDEST POP POP DUP2 PUSH1 0x1 SHL SWAP2 PUSH1 0x0 NOT SWAP1 PUSH1 0x3 SHL SHR NOT AND OR SWAP1 SSTORE JUMPDEST PUSH1 0x4 CALLDATALOAD PUSH1 0x0 DUP2 DUP2 MSTORE PUSH1 0xB PUSH1 0x20 DUP2 SWAP1 MSTORE PUSH1 0x40 DUP3 KECCAK256 PUSH2 0x124 CALLDATALOAD PUSH1 0xA DUP3 ADD SSTORE PUSH2 0x144 CALLDATALOAD SWAP2 DUP2 ADD SWAP2 SWAP1 SWAP2 SSTORE PUSH2 0x164 CALLDATALOAD PUSH1 0xC DUP3 ADD SSTORE PUSH2 0x184 CALLDATALOAD PUSH1 0xD DUP3 ADD SSTORE PUSH2 0x1A4 CALLDATALOAD PUSH1 0xE DUP3 ADD SSTORE PUSH2 0x1C4 CALLDATALOAD PUSH1 0xF SWAP1 SWAP2 ADD SSTORE PUSH32 0x7AD43E2B215ACC30FE68DB10CBF57C6B2B699EF7572E54808C2A106FB904F3FB SWAP1 DUP1 LOG2 STOP JUMPDEST ADD MLOAD SWAP1 POP DUP4 DUP1 PUSH2 0xA47 JUMP JUMPDEST PUSH1 0x1F NOT DUP3 AND SWAP4 DUP4 PUSH1 0x0 MSTORE PUSH1 0x20 PUSH1 0x0 KECCAK256 SWAP2 PUSH1 0x0 JUMPDEST DUP7 DUP2 LT PUSH2 0xB25 JUMPI POP DUP4 PUSH1 0x1 SWAP6 SWAP7 LT PUSH2 0xB0C JUMPI JUMPDEST POP POP POP DUP2 SHL ADD SWAP1 SSTORE PUSH2 0xA5C JUMP JUMPDEST ADD MLOAD PUSH1 0x0 NOT PUSH1 0xF8 DUP5 PUSH1 0x3 SHL AND SHR NOT AND SWAP1 SSTORE DUP4 DUP1 DUP1 PUSH2 0xAFF JUMP JUMPDEST SWAP2 SWAP3 PUSH1 0x20 PUSH1 0x1 DUP2 SWAP3 DUP7 DUP6 ADD MLOAD DUP2 SSTORE ADD SWAP5 ADD SWAP3 ADD PUSH2 0xAEC JUMP JUMPDEST PUSH2 0xB6A SWAP1 DUP4 PUSH1 0x0 MSTORE PUSH1 0x20 PUSH1 0x0 KECCAK256 PUSH1 0x1F DUP5 ADD PUSH1 0x5 SHR DUP2 ADD SWAP2 PUSH1 0x20 DUP6 LT PUSH2 0xB70 JUMPI JUMPDEST PUSH1 0x1F ADD PUSH1 0x5 SHR ADD SWAP1 PUSH2 0x4501 JUMP JUMPDEST DUP4 PUSH2 0xA2C JUMP JUMPDEST SWAP1 SWAP2 POP DUP2 SWAP1 PUSH2 0xB5D JUMP JUMPDEST PUSH4 0x4E487B71 PUSH1 0xE0 SHL PUSH1 0x0 MSTORE PUSH1 0x41 PUSH1 0x4 MSTORE PUSH1 0x24 PUSH1 0x0 REVERT JUMPDEST ADD MLOAD SWAP1 POP DUP5 DUP1 PUSH2 0x9E1 JUMP JUMPDEST DUP3 PUSH1 0x0 MSTORE PUSH1 0x20 PUSH1 0x0 KECCAK256 SWAP1 PUSH1 0x0 JUMPDEST PUSH1 0x1F NOT DUP5 AND DUP2 LT PUSH2 0xBEB JUMPI POP PUSH1 0x1 SWAP4 SWAP5 SWAP6 DUP4 PUSH1 0x1F NOT DUP2 AND LT PUSH2 0xBD2 JUMPI JUMPDEST POP POP POP DUP2 SHL ADD SWAP1 SSTORE PUSH2 0x9F6 JUMP JUMPDEST ADD MLOAD PUSH1 0x0 NOT PUSH1 0xF8 DUP5 PUSH1 0x3 SHL AND SHR NOT AND SWAP1 SSTORE DUP5 DUP1 DUP1 PUSH2 0xBC5 JUMP JUMPDEST SWAP1 SWAP2 PUSH1 0x20 PUSH1 0x1 DUP2 SWAP3 DUP6 DUP11 ADD MLOAD DUP2 SSTORE ADD SWAP4 ADD SWAP2 ADD PUSH2 0xBA8 JUMP JUMPDEST PUSH2 0xC2F SWAP1 DUP4 PUSH1 0x0 MSTORE PUSH1 0x20 PUSH1 0x0 KECCAK256 PUSH1 0x1F DUP5 ADD PUSH1 0x5 SHR DUP2 ADD SWAP2 PUSH1 0x20 DUP6 LT PUSH2 0xB70 JUMPI PUSH1 0x1F ADD PUSH1 0x5 SHR ADD SWAP1 PUSH2 0x4501 JUMP JUMPDEST DUP5 PUSH2 0x9C7 JUMP JUMPDEST ADD MLOAD SWAP1 POP DUP6 DUP1 PUSH2 0x97C JUMP JUMPDEST DUP3 PUSH1 0x0 MSTORE PUSH1 0x20 PUSH1 0x0 KECCAK256 SWAP1 PUSH1 0x0 JUMPDEST PUSH1 0x1F NOT DUP5 AND DUP2 LT PUSH2 0xC91 JUMPI POP PUSH1 0x1 SWAP4 SWAP5 SWAP6 SWAP7 DUP4 PUSH1 0x1F NOT DUP2 AND LT PUSH2 0xC78 JUMPI JUMPDEST POP POP POP DUP2 SHL ADD SWAP1 SSTORE PUSH2 0x991 JUMP JUMPDEST ADD MLOAD PUSH1 0x0 NOT PUSH1 0xF8 DUP5 PUSH1 0x3 SHL AND SHR NOT AND SWAP1 SSTORE DUP6 DUP1 DUP1 PUSH2 0xC6B JUMP JUMPDEST SWAP1 SWAP2 PUSH1 0x20 PUSH1 0x1 DUP2 SWAP3 DUP6 DUP12 ADD MLOAD DUP2 SSTORE ADD SWAP4 ADD SWAP2 ADD PUSH2 0xC4D JUMP JUMPDEST PUSH2 0xCD5 SWAP1 DUP4 PUSH1 0x0 MSTORE PUSH1 0x20 PUSH1 0x0 KECCAK256 PUSH1 0x1F DUP5 ADD PUSH1 0x5 SHR DUP2 ADD SWAP2 PUSH1 0x20 DUP6 LT PUSH2 0xB70 JUMPI PUSH1 0x1F ADD PUSH1 0x5 SHR ADD SWAP1 PUSH2 0x4501 JUMP JUMPDEST DUP6 PUSH2 0x961 JUMP JUMPDEST ADD MLOAD SWAP1 POP DUP7 DUP1 PUSH2 0x916 JUMP JUMPDEST SWAP3 POP DUP4 PUSH1 0x0 MSTORE PUSH1 0x20 PUSH1 0x0 KECCAK256 SWAP1 PUSH1 0x0 SWAP4 JUMPDEST PUSH1 0x1F NOT DUP5 AND DUP6 LT PUSH2 0xD37 JUMPI PUSH1 0x1 SWAP5 POP DUP4 PUSH1 0x1F NOT DUP2 AND LT PUSH2 0xD1E JUMPI JUMPDEST POP POP POP DUP2 SHL ADD SWAP1 SSTORE PUSH2 0x92B JUMP JUMPDEST ADD MLOAD PUSH1 0x0 NOT PUSH1 0xF8 DUP5 PUSH1 0x3 SHL AND SHR NOT AND SWAP1 SSTORE DUP7 DUP1 DUP1 PUSH2 0xD11 JUMP JUMPDEST DUP2 DUP2 ADD MLOAD DUP4 SSTORE PUSH1 0x20 SWAP5 DUP6 ADD SWAP5 PUSH1 0x1 SWAP1 SWAP4 ADD SWAP3 SWAP1 SWAP2 ADD SWAP1 PUSH2 0xCF6 JUMP JUMPDEST PUSH2 0xD7E SWAP1 DUP6 PUSH1 0x0 MSTORE PUSH1 0x20 PUSH1 0x0 KECCAK256 PUSH1 0x1F DUP6 ADD PUSH1 0x5 SHR DUP2 ADD SWAP2 PUSH1 0x20 DUP7 LT PUSH2 0xB70 JUMPI PUSH1 0x1F ADD PUSH1 0x5 SHR ADD SWAP1 PUSH2 0x4501 JUMP JUMPDEST DUP8 PUSH2 0x8FF JUMP JUMPDEST ADD MLOAD SWAP1 POP DUP8 DUP1 PUSH2 0x8B0 JUMP JUMPDEST SWAP3 POP DUP4 PUSH1 0x0 MSTORE PUSH1 0x20 PUSH1 0x0 KECCAK256 SWAP1 PUSH1 0x0 SWAP4 JUMPDEST PUSH1 0x1F NOT DUP5 AND DUP6 LT PUSH2 0xDE0 JUMPI PUSH1 0x1 SWAP5 POP DUP4 PUSH1 0x1F NOT DUP2 AND LT PUSH2 0xDC7 JUMPI JUMPDEST POP POP POP DUP2 SHL ADD SWAP1 SSTORE PUSH2 0x8C5 JUMP JUMPDEST ADD MLOAD PUSH1 0x0 NOT PUSH1 0xF8 DUP5 PUSH1 0x3 SHL AND SHR NOT AND SWAP1 SSTORE DUP8 DUP1 DUP1 PUSH2 0xDBA JUMP JUMPDEST DUP2 DUP2 ADD MLOAD DUP4 SSTORE PUSH1 0x20 SWAP5 DUP6 ADD SWAP5 PUSH1 0x1 SWAP1 SWAP4 ADD SWAP3 SWAP1 SWAP2 ADD SWAP1 PUSH2 0xD9F JUMP JUMPDEST PUSH2 0xE27 SWAP1 DUP6 PUSH1 0x0 MSTORE PUSH1 0x20 PUSH1 0x0 KECCAK256 PUSH1 0x1F DUP6 ADD PUSH1 0x5 SHR DUP2 ADD SWAP2 PUSH1 0x20 DUP7 LT PUSH2 0xB70 JUMPI PUSH1 0x1F ADD PUSH1 0x5 SHR ADD SWAP1 PUSH2 0x4501 JUMP JUMPDEST DUP9 PUSH2 0x899 JUMP JUMPDEST ADD MLOAD SWAP1 POP DUP9 DUP1 PUSH2 0x84A JUMP JUMPDEST SWAP3 POP DUP4 PUSH1 0x0 MSTORE PUSH1 0x20 PUSH1 0x0 KECCAK256 SWAP1 PUSH1 0x0 SWAP4 JUMPDEST PUSH1 0x1F NOT DUP5 AND DUP6 LT PUSH2 0xE89 JUMPI PUSH1 0x1 SWAP5 POP DUP4 PUSH1 0x1F NOT DUP2 AND LT PUSH2 0xE70 JUMPI JUMPDEST POP POP POP DUP2 SHL ADD SWAP1 SSTORE PUSH2 0x85F JUMP JUMPDEST ADD MLOAD PUSH1 0x0 NOT PUSH1 0xF8 DUP5 PUSH1 0x3 SHL AND SHR NOT AND SWAP1 SSTORE DUP9 DUP1 DUP1 PUSH2 0xE63 JUMP JUMPDEST DUP2 DUP2 ADD MLOAD DUP4 SSTORE PUSH1 0x20 SWAP5 DUP6 ADD SWAP5 PUSH1 0x1 SWAP1 SWAP4 ADD SWAP3 SWAP1 SWAP2 ADD SWAP1 PUSH2 0xE48 JUMP JUMPDEST PUSH2 0xED0 SWAP1 DUP6 PUSH1 0x0 MSTORE PUSH1 0x20 PUSH1 0x0 KECCAK256 PUSH1 0x1F DUP6 ADD PUSH1 0x5 SHR DUP2 ADD SWAP2 PUSH1 0x20 DUP7 LT PUSH2 0xB70 JUMPI PUSH1 0x1F ADD PUSH1 0x5 SHR ADD SWAP1 PUSH2 0x4501 JUMP JUMPDEST DUP10 PUSH2 0x833 JUMP JUMPDEST DUP1 MLOAD DUP1 MLOAD SWAP1 PUSH1 0x1 PUSH1 0x1 PUSH1 0x40 SHL SUB DUP3 GT PUSH2 0xB7A JUMPI PUSH2 0xEF3 DUP7 SLOAD PUSH2 0x3A29 JUMP JUMPDEST PUSH1 0x1F DUP2 GT PUSH2 0xFB7 JUMPI JUMPDEST POP PUSH1 0x20 SWAP1 PUSH1 0x1F DUP4 GT PUSH1 0x1 EQ PUSH2 0xF49 JUMPI SWAP3 DUP3 PUSH1 0x1 SWAP5 SWAP4 PUSH1 0x20 SWAP4 DUP7 SWAP6 PUSH1 0x0 SWAP3 PUSH2 0xF3E JUMPI JUMPDEST POP POP PUSH1 0x0 NOT PUSH1 0x3 DUP4 SWAP1 SHL SHR NOT AND SWAP1 DUP5 SHL OR DUP8 SSTORE JUMPDEST ADD SWAP5 ADD SWAP2 ADD SWAP1 SWAP3 PUSH2 0x7EE JUMP JUMPDEST ADD MLOAD SWAP1 POP DUP16 DUP1 PUSH2 0xF1E JUMP JUMPDEST SWAP1 DUP7 PUSH1 0x0 MSTORE PUSH1 0x20 PUSH1 0x0 KECCAK256 SWAP2 PUSH1 0x0 PUSH1 0x1F NOT DUP6 AND SWAP1 JUMPDEST DUP2 DUP2 LT PUSH2 0xF9F JUMPI POP SWAP4 PUSH1 0x20 SWAP4 PUSH1 0x1 SWAP7 SWAP4 DUP8 SWAP7 SWAP4 DUP4 DUP9 SWAP6 LT PUSH2 0xF86 JUMPI JUMPDEST POP POP POP DUP2 SHL ADD DUP8 SSTORE PUSH2 0xF32 JUMP JUMPDEST ADD MLOAD PUSH1 0x0 NOT PUSH1 0xF8 DUP5 PUSH1 0x3 SHL AND SHR NOT AND SWAP1 SSTORE DUP16 DUP1 DUP1 PUSH2 0xF79 JUMP JUMPDEST SWAP3 SWAP4 PUSH1 0x20 PUSH1 0x1 DUP2 SWAP3 DUP8 DUP7 ADD MLOAD DUP2 SSTORE ADD SWAP6 ADD SWAP4 ADD PUSH2 0xF5D JUMP JUMPDEST PUSH2 0xFE4 SWAP1 DUP8 PUSH1 0x0 MSTORE PUSH1 0x20 PUSH1 0x0 KECCAK256 PUSH1 0x5 PUSH1 0x1F DUP7 ADD DUP2 SHR DUP3 ADD SWAP3 PUSH1 0x20 DUP8 LT PUSH2 0xFEA JUMPI JUMPDEST PUSH1 0x1F ADD SWAP1 SHR ADD SWAP1 PUSH2 0x4501 JUMP JUMPDEST DUP13 PUSH2 0xEFC JUMP JUMPDEST SWAP2 SWAP3 POP DUP3 SWAP2 PUSH2 0xFD8 JUMP JUMPDEST DUP4 PUSH1 0x0 MSTORE PUSH1 0x20 PUSH1 0x0 KECCAK256 SWAP1 DUP4 DUP3 ADD JUMPDEST DUP2 DUP4 ADD DUP2 LT PUSH2 0x1012 JUMPI POP POP PUSH2 0x7DC JUMP JUMPDEST DUP1 PUSH2 0x101F PUSH1 0x1 SWAP3 SLOAD PUSH2 0x3A29 JUMP JUMPDEST DUP1 PUSH2 0x102C JUMPI JUMPDEST POP ADD PUSH2 0x1002 JUMP JUMPDEST PUSH1 0x1F DUP2 GT DUP4 EQ PUSH2 0x1042 JUMPI POP PUSH1 0x0 DUP2 SSTORE JUMPDEST DUP14 PUSH2 0x1025 JUMP JUMPDEST PUSH2 0x1060 SWAP1 DUP3 PUSH1 0x0 MSTORE DUP4 PUSH1 0x1F PUSH1 0x20 PUSH1 0x0 KECCAK256 SWAP3 ADD PUSH1 0x5 SHR DUP3 ADD SWAP2 ADD PUSH2 0x4501 JUMP JUMPDEST PUSH1 0x0 PUSH1 0x20 DUP2 KECCAK256 DUP2 DUP4 SSTORE SSTORE PUSH2 0x103C JUMP JUMPDEST ADD MLOAD SWAP1 POP DUP11 DUP1 PUSH2 0x798 JUMP JUMPDEST SWAP3 POP DUP4 PUSH1 0x0 MSTORE PUSH1 0x20 PUSH1 0x0 KECCAK256 SWAP1 PUSH1 0x0 SWAP4 JUMPDEST PUSH1 0x1F NOT DUP5 AND DUP6 LT PUSH2 0x10CB JUMPI PUSH1 0x1 SWAP5 POP DUP4 PUSH1 0x1F NOT DUP2 AND LT PUSH2 0x10B2 JUMPI JUMPDEST POP POP POP DUP2 SHL ADD SWAP1 SSTORE PUSH2 0x7AD JUMP JUMPDEST ADD MLOAD PUSH1 0x0 NOT PUSH1 0xF8 DUP5 PUSH1 0x3 SHL AND SHR NOT AND SWAP1 SSTORE DUP11 DUP1 DUP1 PUSH2 0x10A5 JUMP JUMPDEST DUP2 DUP2 ADD MLOAD DUP4 SSTORE PUSH1 0x20 SWAP5 DUP6 ADD SWAP5 PUSH1 0x1 SWAP1 SWAP4 ADD SWAP3 SWAP1 SWAP2 ADD SWAP1 PUSH2 0x108A JUMP JUMPDEST PUSH2 0x1112 SWAP1 DUP6 PUSH1 0x0 MSTORE PUSH1 0x20 PUSH1 0x0 KECCAK256 PUSH1 0x1F DUP6 ADD PUSH1 0x5 SHR DUP2 ADD SWAP2 PUSH1 0x20 DUP7 LT PUSH2 0xB70 JUMPI PUSH1 0x1F ADD PUSH1 0x5 SHR ADD SWAP1 PUSH2 0x4501 JUMP JUMPDEST DUP12 PUSH2 0x781 JUMP JUMPDEST PUSH1 0x40 MLOAD PUSH3 0x461BCD PUSH1 0xE5 SHL DUP2 MSTORE PUSH1 0x20 PUSH1 0x4 DUP3 ADD MSTORE PUSH1 0x2E PUSH1 0x24 DUP3 ADD MSTORE PUSH32 0x4F6E6C79207468652070726F7065727479206F776E65722063616E2065646974 PUSH1 0x44 DUP3 ADD MSTORE PUSH14 0x20746869732070726F7065727479 PUSH1 0x90 SHL PUSH1 0x64 DUP3 ADD MSTORE PUSH1 0x84 SWAP1 REVERT JUMPDEST CALLVALUE PUSH2 0x222 JUMPI PUSH1 0x20 CALLDATASIZE PUSH1 0x3 NOT ADD SLT PUSH2 0x222 JUMPI PUSH1 0x4 CALLDATALOAD PUSH1 0x0 SWAP1 DUP2 MSTORE PUSH1 0x3 PUSH1 0x20 MSTORE PUSH1 0x40 SWAP1 KECCAK256 SLOAD PUSH2 0x11AB SWAP1 PUSH1 0x1 PUSH1 0x1 PUSH1 0xA0 SHL SUB AND ISZERO ISZERO PUSH2 0x39BA JUMP JUMPDEST PUSH1 0x0 PUSH1 0x40 MLOAD PUSH2 0x11B9 DUP2 PUSH2 0x354A JUMP JUMPDEST MSTORE PUSH2 0x3D3 PUSH1 0x40 MLOAD PUSH2 0x11C9 DUP2 PUSH2 0x354A JUMP JUMPDEST PUSH1 0x0 DUP2 MSTORE PUSH1 0x40 MLOAD SWAP2 DUP3 SWAP2 PUSH1 0x20 DUP4 MSTORE PUSH1 0x20 DUP4 ADD SWAP1 PUSH2 0x34A7 JUMP JUMPDEST CALLVALUE PUSH2 0x222 JUMPI PUSH1 0x80 CALLDATASIZE PUSH1 0x3 NOT ADD SLT PUSH2 0x222 JUMPI PUSH2 0x11FA PUSH2 0x34E7 JUMP JUMPDEST PUSH2 0x1202 PUSH2 0x34FD JUMP JUMPDEST SWAP1 PUSH1 0x64 CALLDATALOAD SWAP1 PUSH1 0x44 CALLDATALOAD PUSH1 0x1 PUSH1 0x1 PUSH1 0x40 SHL SUB DUP4 GT PUSH2 0x222 JUMPI CALLDATASIZE PUSH1 0x23 DUP5 ADD SLT ISZERO PUSH2 0x222 JUMPI PUSH2 0x1266 SWAP4 PUSH2 0x123E PUSH2 0x1261 SWAP5 CALLDATASIZE SWAP1 PUSH1 0x24 DUP2 PUSH1 0x4 ADD CALLDATALOAD SWAP2 ADD PUSH2 0x35A1 JUMP JUMPDEST SWAP3 PUSH2 0x1251 PUSH2 0x124C DUP5 CALLER PUSH2 0x3C20 JUMP JUMPDEST PUSH2 0x3B47 JUMP JUMPDEST PUSH2 0x125C DUP4 DUP4 DUP4 PUSH2 0x3CE8 JUMP JUMPDEST PUSH2 0x3F24 JUMP JUMPDEST PUSH2 0x3BFC JUMP JUMPDEST STOP JUMPDEST CALLVALUE PUSH2 0x222 JUMPI PUSH1 0x40 CALLDATASIZE PUSH1 0x3 NOT ADD SLT PUSH2 0x222 JUMPI PUSH2 0x1281 PUSH2 0x34E7 JUMP JUMPDEST PUSH1 0x24 CALLDATALOAD SWAP1 DUP2 ISZERO ISZERO SWAP1 DUP2 DUP4 SUB PUSH2 0x222 JUMPI PUSH1 0x1 PUSH1 0x1 PUSH1 0xA0 SHL SUB AND SWAP2 CALLER DUP4 EQ PUSH2 0x12FE JUMPI PUSH2 0x12D0 SWAP1 CALLER PUSH1 0x0 MSTORE PUSH1 0x6 PUSH1 0x20 MSTORE PUSH1 0x40 PUSH1 0x0 KECCAK256 DUP5 PUSH1 0x0 MSTORE PUSH1 0x20 MSTORE PUSH1 0x40 PUSH1 0x0 KECCAK256 SWAP1 PUSH1 0xFF DUP1 NOT DUP4 SLOAD AND SWAP2 ISZERO ISZERO AND OR SWAP1 SSTORE JUMP JUMPDEST PUSH1 0x40 MLOAD SWAP1 DUP2 MSTORE PUSH32 0x17307EAB39AB6107E8899845AD3D59BD9653F200F220920489CA2B5937696C31 PUSH1 0x20 CALLER SWAP3 LOG3 STOP JUMPDEST PUSH1 0x40 MLOAD PUSH3 0x461BCD PUSH1 0xE5 SHL DUP2 MSTORE PUSH1 0x20 PUSH1 0x4 DUP3 ADD MSTORE PUSH1 0x19 PUSH1 0x24 DUP3 ADD MSTORE PUSH32 0x4552433732313A20617070726F766520746F2063616C6C657200000000000000 PUSH1 0x44 DUP3 ADD MSTORE PUSH1 0x64 SWAP1 REVERT JUMPDEST CALLVALUE PUSH2 0x222 JUMPI PUSH1 0x20 DUP1 PUSH1 0x3 NOT CALLDATASIZE ADD SLT PUSH2 0x222 JUMPI PUSH1 0x4 CALLDATALOAD DUP1 PUSH1 0x0 MSTORE PUSH1 0xE DUP3 MSTORE PUSH1 0xFF PUSH2 0x1372 DUP2 PUSH1 0x40 PUSH1 0x0 KECCAK256 SLOAD AND PUSH2 0x4564 JUMP JUMPDEST PUSH1 0x0 SWAP1 PUSH1 0x0 JUMPDEST DUP4 PUSH1 0x0 MSTORE PUSH1 0xC DUP6 MSTORE PUSH1 0x40 PUSH1 0x0 KECCAK256 SLOAD DUP2 LT ISZERO PUSH2 0x13CE JUMPI DUP2 PUSH1 0x3 PUSH2 0x139E DUP4 PUSH1 0x40 PUSH1 0x0 KECCAK256 PUSH2 0x488C JUMP JUMPDEST POP ADD SLOAD PUSH1 0xA0 SHR AND ISZERO PUSH2 0x13B9 JUMPI JUMPDEST PUSH2 0x13B4 SWAP1 PUSH2 0x440E JUMP JUMPDEST PUSH2 0x1378 JUMP JUMPDEST SWAP2 PUSH2 0x13C6 PUSH2 0x13B4 SWAP2 PUSH2 0x440E JUMP JUMPDEST SWAP3 SWAP1 POP PUSH2 0x13AB JUMP JUMPDEST POP SWAP1 PUSH2 0x13D9 SWAP1 PUSH2 0x498F JUMP JUMPDEST SWAP3 PUSH1 0x0 SWAP1 PUSH1 0x0 JUMPDEST DUP5 PUSH1 0x0 MSTORE PUSH1 0xC DUP1 DUP4 MSTORE PUSH1 0x40 PUSH1 0x0 KECCAK256 SLOAD DUP3 LT ISZERO PUSH2 0x3C5 JUMPI DUP5 PUSH1 0x3 PUSH2 0x1407 DUP5 PUSH1 0x40 PUSH1 0x0 KECCAK256 PUSH2 0x488C JUMP JUMPDEST POP ADD SLOAD PUSH1 0xA0 SHR AND ISZERO PUSH2 0x1423 JUMPI JUMPDEST POP PUSH2 0x141E SWAP1 PUSH2 0x440E JUMP JUMPDEST PUSH2 0x13E0 JUMP JUMPDEST PUSH2 0x141E SWAP2 SWAP4 PUSH2 0x1443 SWAP2 DUP8 PUSH1 0x0 MSTORE DUP5 MSTORE PUSH2 0x37C PUSH2 0x376 DUP7 PUSH1 0x40 PUSH1 0x0 KECCAK256 PUSH2 0x488C JUMP JUMPDEST SWAP3 SWAP1 PUSH2 0x1414 JUMP JUMPDEST CALLVALUE PUSH2 0x222 JUMPI PUSH1 0x0 CALLDATASIZE PUSH1 0x3 NOT ADD SLT PUSH2 0x222 JUMPI PUSH1 0x40 MLOAD PUSH1 0x0 PUSH1 0x2 SLOAD PUSH2 0x146C DUP2 PUSH2 0x3A29 JUMP JUMPDEST DUP1 DUP5 MSTORE SWAP1 PUSH1 0x1 SWAP1 DUP2 DUP2 AND SWAP1 DUP2 ISZERO PUSH2 0x1505 JUMPI POP PUSH1 0x1 EQ PUSH2 0x14AA JUMPI JUMPDEST PUSH2 0x3D3 DUP5 PUSH2 0x1496 DUP2 DUP7 SUB DUP3 PUSH2 0x3565 JUMP JUMPDEST PUSH1 0x40 MLOAD SWAP2 DUP3 SWAP2 PUSH1 0x20 DUP4 MSTORE PUSH1 0x20 DUP4 ADD SWAP1 PUSH2 0x34A7 JUMP JUMPDEST PUSH1 0x2 PUSH1 0x0 SWAP1 DUP2 MSTORE SWAP3 POP PUSH32 0x405787FA12A823E0F2B7631CC41B3BA8828B3321CA811111FA75CD3AA3BB5ACE JUMPDEST DUP3 DUP5 LT PUSH2 0x14ED JUMPI POP POP POP DUP2 ADD PUSH1 0x20 ADD PUSH2 0x1496 DUP3 PUSH2 0x1486 JUMP JUMPDEST DUP1 SLOAD PUSH1 0x20 DUP6 DUP8 ADD DUP2 ADD SWAP2 SWAP1 SWAP2 MSTORE SWAP1 SWAP4 ADD SWAP3 DUP2 ADD PUSH2 0x14D5 JUMP JUMPDEST PUSH1 0xFF NOT AND PUSH1 0x20 DUP1 DUP8 ADD SWAP2 SWAP1 SWAP2 MSTORE SWAP3 ISZERO ISZERO PUSH1 0x5 SHL DUP6 ADD SWAP1 SWAP3 ADD SWAP3 POP PUSH2 0x1496 SWAP2 POP DUP4 SWAP1 POP PUSH2 0x1486 JUMP JUMPDEST CALLVALUE PUSH2 0x222 JUMPI PUSH1 0x0 CALLDATASIZE PUSH1 0x3 NOT ADD SLT PUSH2 0x222 JUMPI PUSH1 0x0 SLOAD PUSH1 0x40 MLOAD PUSH1 0x1 PUSH1 0x1 PUSH1 0xA0 SHL SUB SWAP1 SWAP2 AND DUP2 MSTORE PUSH1 0x20 SWAP1 RETURN JUMPDEST CALLVALUE PUSH2 0x222 JUMPI PUSH1 0x0 CALLDATASIZE PUSH1 0x3 NOT ADD SLT PUSH2 0x222 JUMPI PUSH2 0x156E PUSH2 0x3962 JUMP JUMPDEST PUSH1 0x0 DUP1 SLOAD PUSH1 0x1 PUSH1 0x1 PUSH1 0xA0 SHL SUB NOT DUP2 AND DUP3 SSTORE PUSH1 0x1 PUSH1 0x1 PUSH1 0xA0 SHL SUB AND PUSH32 0x8BE0079C531659141344CD1FD0A4F28419497F9722A3DAAFE3B4186F6B6457E0 DUP3 DUP1 LOG3 STOP JUMPDEST CALLVALUE PUSH2 0x222 JUMPI PUSH1 0x20 CALLDATASIZE PUSH1 0x3 NOT ADD SLT PUSH2 0x222 JUMPI PUSH1 0x1 PUSH1 0x1 PUSH1 0xA0 SHL SUB PUSH2 0x15CF PUSH2 0x34E7 JUMP JUMPDEST AND DUP1 ISZERO PUSH2 0x15EE JUMPI PUSH1 0x0 MSTORE PUSH1 0x4 PUSH1 0x20 MSTORE PUSH1 0x20 PUSH1 0x40 PUSH1 0x0 KECCAK256 SLOAD PUSH1 0x40 MLOAD SWAP1 DUP2 MSTORE RETURN JUMPDEST PUSH1 0x40 MLOAD PUSH3 0x461BCD PUSH1 0xE5 SHL DUP2 MSTORE PUSH1 0x20 PUSH1 0x4 DUP3 ADD MSTORE PUSH1 0x29 PUSH1 0x24 DUP3 ADD MSTORE PUSH32 0x4552433732313A2061646472657373207A65726F206973206E6F742061207661 PUSH1 0x44 DUP3 ADD MSTORE PUSH9 0x3634B21037BBB732B9 PUSH1 0xB9 SHL PUSH1 0x64 DUP3 ADD MSTORE PUSH1 0x84 SWAP1 REVERT JUMPDEST PUSH1 0x20 DUP1 PUSH1 0x3 NOT CALLDATASIZE ADD SLT PUSH2 0x222 JUMPI PUSH1 0x4 CALLDATALOAD SWAP1 PUSH1 0x2 PUSH1 0x7 SLOAD EQ PUSH2 0x18D4 JUMPI PUSH1 0x2 PUSH1 0x7 SSTORE DUP2 PUSH1 0x0 MSTORE PUSH1 0xE DUP2 MSTORE PUSH2 0x167E PUSH1 0xFF PUSH1 0x40 PUSH1 0x0 KECCAK256 SLOAD AND PUSH2 0x4564 JUMP JUMPDEST DUP2 PUSH1 0x0 MSTORE PUSH1 0xB DUP1 DUP3 MSTORE PUSH1 0xF PUSH1 0x40 PUSH1 0x0 KECCAK256 ADD SLOAD CALLVALUE LT PUSH2 0x1898 JUMPI DUP3 PUSH1 0x0 MSTORE DUP1 DUP3 MSTORE PUSH2 0x16B5 PUSH1 0xFF PUSH1 0x10 PUSH1 0x40 PUSH1 0x0 KECCAK256 ADD SLOAD PUSH1 0x8 SHR AND ISZERO PUSH2 0x45B0 JUMP JUMPDEST DUP3 PUSH1 0x0 MSTORE DUP1 DUP3 MSTORE PUSH1 0xFF PUSH1 0x10 PUSH1 0x40 PUSH1 0x0 KECCAK256 ADD SLOAD AND PUSH2 0x185A JUMPI PUSH1 0x1 SWAP3 DUP4 PUSH1 0x9 SLOAD ADD SWAP2 DUP3 PUSH1 0x9 SSTORE PUSH1 0x40 MLOAD PUSH1 0x60 DUP2 ADD DUP2 DUP2 LT PUSH1 0x1 PUSH1 0x1 PUSH1 0x40 SHL SUB DUP3 GT OR PUSH2 0xB7A JUMPI PUSH1 0x40 MSTORE DUP5 DUP2 ADD SWAP1 PUSH1 0x40 DUP2 ADD SWAP5 DUP2 MSTORE DUP4 DUP3 MSTORE CALLER DUP6 MSTORE DUP4 PUSH1 0x0 MSTORE PUSH1 0xD DUP7 MSTORE PUSH1 0x40 PUSH1 0x0 KECCAK256 SWAP2 DUP3 SLOAD PUSH1 0x1 PUSH1 0x40 SHL DUP2 LT ISZERO PUSH2 0xB7A JUMPI DUP9 DUP2 ADD DUP1 DUP6 SSTORE DUP2 LT ISZERO PUSH2 0x1844 JUMPI PUSH1 0x2 SWAP4 PUSH1 0x0 MSTORE PUSH1 0x3 DUP9 PUSH1 0x0 KECCAK256 SWAP2 MUL ADD SWAP2 MLOAD DUP3 SSTORE MLOAD DUP8 DUP3 ADD SSTORE ADD SWAP3 PUSH1 0x1 DUP1 PUSH1 0xA0 SHL SUB DUP1 SWAP2 MLOAD AND SWAP4 PUSH1 0x1 PUSH1 0x1 PUSH1 0x60 SHL SUB PUSH1 0xA0 SHL SWAP5 DUP6 DUP3 SLOAD AND OR SWAP1 SSTORE PUSH1 0x11 SLOAD DUP1 CALLVALUE MUL SWAP1 CALLVALUE DUP3 DIV EQ CALLVALUE ISZERO OR ISZERO PUSH2 0x182E JUMPI PUSH1 0x64 SWAP1 DIV DUP1 CALLVALUE SUB SWAP1 CALLVALUE DUP3 GT PUSH2 0x182E JUMPI PUSH2 0x17A7 PUSH2 0x17B1 SWAP3 DUP7 PUSH1 0x0 MSTORE DUP6 DUP10 MSTORE DUP5 DUP11 PUSH1 0x40 PUSH1 0x0 KECCAK256 ADD SLOAD AND PUSH2 0x47AA JUMP JUMPDEST DUP3 PUSH1 0x0 SLOAD AND PUSH2 0x47AA JUMP JUMPDEST DUP3 PUSH1 0x0 MSTORE DUP2 DUP6 MSTORE DUP6 PUSH1 0x40 PUSH1 0x0 KECCAK256 ADD SLOAD AND SWAP3 PUSH1 0x10 PUSH1 0x40 PUSH1 0x0 KECCAK256 ADD DUP7 PUSH1 0xFF NOT DUP3 SLOAD AND OR SWAP1 SSTORE DUP6 PUSH1 0x40 PUSH1 0x0 KECCAK256 ADD SWAP1 CALLER SWAP1 DUP3 SLOAD AND OR SWAP1 SSTORE PUSH2 0x17EF DUP3 CALLER DUP6 PUSH2 0x3CE8 JUMP JUMPDEST DUP2 PUSH1 0x0 MSTORE DUP4 MSTORE PUSH32 0xDDD64180D9701C7EDE08673AC8106484FF983A472929330D4FBDE4E35D65CB06 PUSH1 0xF PUSH1 0x40 PUSH1 0x0 KECCAK256 ADD SLOAD SWAP4 PUSH1 0x40 MLOAD SWAP5 DUP6 MSTORE CALLER SWAP5 LOG4 PUSH1 0x7 SSTORE STOP JUMPDEST PUSH4 0x4E487B71 PUSH1 0xE0 SHL PUSH1 0x0 MSTORE PUSH1 0x11 PUSH1 0x4 MSTORE PUSH1 0x24 PUSH1 0x0 REVERT JUMPDEST PUSH4 0x4E487B71 PUSH1 0xE0 SHL PUSH1 0x0 MSTORE PUSH1 0x32 PUSH1 0x4 MSTORE PUSH1 0x24 PUSH1 0x0 REVERT JUMPDEST PUSH1 0x40 MLOAD PUSH3 0x461BCD PUSH1 0xE5 SHL DUP2 MSTORE PUSH1 0x4 DUP2 ADD DUP4 SWAP1 MSTORE PUSH1 0x16 PUSH1 0x24 DUP3 ADD MSTORE PUSH22 0x141C9BDC195C9D1E481A185CC81899595B881CDBDB19 PUSH1 0x52 SHL PUSH1 0x44 DUP3 ADD MSTORE PUSH1 0x64 SWAP1 REVERT JUMPDEST PUSH1 0x40 MLOAD PUSH3 0x461BCD PUSH1 0xE5 SHL DUP2 MSTORE PUSH1 0x4 DUP2 ADD DUP4 SWAP1 MSTORE PUSH1 0x14 PUSH1 0x24 DUP3 ADD MSTORE PUSH20 0x125B9CDD59999A58DA595B9D081C185E5B595B9D PUSH1 0x62 SHL PUSH1 0x44 DUP3 ADD MSTORE PUSH1 0x64 SWAP1 REVERT JUMPDEST PUSH1 0x64 SWAP1 PUSH1 0x40 MLOAD SWAP1 PUSH3 0x461BCD PUSH1 0xE5 SHL DUP3 MSTORE PUSH1 0x4 DUP3 ADD MSTORE PUSH1 0x1F PUSH1 0x24 DUP3 ADD MSTORE PUSH32 0x5265656E7472616E637947756172643A207265656E7472616E742063616C6C00 PUSH1 0x44 DUP3 ADD MSTORE REVERT JUMPDEST CALLVALUE PUSH2 0x222 JUMPI PUSH1 0x20 CALLDATASIZE PUSH1 0x3 NOT ADD SLT PUSH2 0x222 JUMPI PUSH1 0x20 PUSH2 0x1936 PUSH1 0x4 CALLDATALOAD PUSH2 0x3A06 JUMP JUMPDEST PUSH1 0x40 MLOAD PUSH1 0x1 PUSH1 0x1 PUSH1 0xA0 SHL SUB SWAP1 SWAP2 AND DUP2 MSTORE RETURN JUMPDEST CALLVALUE PUSH2 0x222 JUMPI PUSH2 0x1956 CALLDATASIZE PUSH2 0x35F6 JUMP JUMPDEST PUSH1 0x40 MLOAD SWAP1 PUSH1 0x20 DUP3 ADD SWAP3 DUP3 DUP5 LT PUSH1 0x1 PUSH1 0x1 PUSH1 0x40 SHL SUB DUP6 GT OR PUSH2 0xB7A JUMPI PUSH2 0x1266 SWAP5 PUSH2 0x1261 SWAP5 PUSH1 0x40 MSTORE PUSH1 0x0 DUP5 MSTORE PUSH2 0x1251 PUSH2 0x124C DUP5 CALLER PUSH2 0x3C20 JUMP JUMPDEST CALLVALUE PUSH2 0x222 JUMPI PUSH1 0x0 CALLDATASIZE PUSH1 0x3 NOT ADD SLT PUSH2 0x222 JUMPI PUSH1 0x8 DUP1 SLOAD PUSH1 0x0 PUSH1 0x1 JUMPDEST DUP3 DUP2 GT ISZERO PUSH2 0x1A2C JUMPI POP PUSH2 0x19B9 SWAP1 PUSH2 0x475A JUMP JUMPDEST SWAP2 PUSH1 0x0 SWAP1 PUSH1 0x1 JUMPDEST DUP4 DUP2 GT ISZERO PUSH2 0x19D6 JUMPI PUSH1 0x40 MLOAD DUP1 PUSH2 0x3D3 DUP8 DUP3 PUSH2 0x384D JUMP JUMPDEST DUP1 PUSH2 0x19FB SWAP2 PUSH1 0x0 MSTORE PUSH1 0xB PUSH1 0x20 MSTORE PUSH1 0xFF PUSH1 0x10 PUSH1 0x40 PUSH1 0x0 KECCAK256 ADD SLOAD DUP5 SHR AND ISZERO PUSH2 0x1A00 JUMPI PUSH2 0x440E JUMP JUMPDEST PUSH2 0x19C0 JUMP JUMPDEST PUSH2 0x391 PUSH1 0x40 PUSH1 0x0 KECCAK256 SWAP5 PUSH2 0x1A1B PUSH2 0x1A15 DUP3 PUSH2 0x440E JUMP JUMPDEST SWAP7 PUSH2 0x45FC JUMP JUMPDEST PUSH2 0x1A25 DUP3 DUP11 PUSH2 0x441D JUMP JUMPDEST MSTORE DUP8 PUSH2 0x441D JUMP JUMPDEST DUP1 PUSH1 0x0 MSTORE PUSH1 0xB PUSH1 0x20 MSTORE PUSH1 0xFF PUSH1 0x10 PUSH1 0x40 PUSH1 0x0 KECCAK256 ADD SLOAD DUP6 SHR AND ISZERO PUSH2 0x1A57 JUMPI JUMPDEST PUSH2 0x1A52 SWAP1 PUSH2 0x440E JUMP JUMPDEST PUSH2 0x19A7 JUMP JUMPDEST SWAP1 PUSH2 0x1A64 PUSH2 0x1A52 SWAP2 PUSH2 0x440E JUMP JUMPDEST SWAP2 SWAP1 POP PUSH2 0x1A49 JUMP JUMPDEST CALLVALUE PUSH2 0x222 JUMPI PUSH1 0x0 CALLDATASIZE PUSH1 0x3 NOT ADD SLT PUSH2 0x222 JUMPI PUSH1 0x8 DUP1 SLOAD PUSH1 0x0 PUSH1 0x1 JUMPDEST DUP3 DUP2 GT ISZERO PUSH2 0x1AFF JUMPI POP PUSH2 0x1A98 SWAP1 PUSH2 0x475A JUMP JUMPDEST SWAP2 PUSH1 0x0 SWAP1 PUSH1 0x1 JUMPDEST DUP4 DUP2 GT ISZERO PUSH2 0x1AB5 JUMPI PUSH1 0x40 MLOAD DUP1 PUSH2 0x3D3 DUP8 DUP3 PUSH2 0x384D JUMP JUMPDEST DUP1 PUSH2 0x1AE0 SWAP2 PUSH1 0x0 MSTORE PUSH1 0xB PUSH1 0x20 MSTORE PUSH1 0xFF PUSH1 0x10 PUSH1 0x40 PUSH1 0x0 KECCAK256 ADD SLOAD DUP5 SHR AND ISZERO DUP1 PUSH2 0x1AE5 JUMPI JUMPDEST PUSH2 0x1A00 JUMPI PUSH2 0x440E JUMP JUMPDEST PUSH2 0x1A9F JUMP JUMPDEST POP PUSH1 0x40 PUSH1 0x0 KECCAK256 PUSH1 0x1 ADD SLOAD PUSH1 0x1 PUSH1 0x1 PUSH1 0xA0 SHL SUB AND CALLER EQ PUSH2 0x1AD7 JUMP JUMPDEST DUP1 PUSH1 0x0 MSTORE PUSH1 0xB PUSH1 0x20 MSTORE PUSH1 0xFF PUSH1 0x10 PUSH1 0x40 PUSH1 0x0 KECCAK256 ADD SLOAD DUP6 SHR AND ISZERO DUP1 PUSH2 0x1B45 JUMPI JUMPDEST PUSH2 0x1B30 JUMPI JUMPDEST PUSH2 0x1B2B SWAP1 PUSH2 0x440E JUMP JUMPDEST PUSH2 0x1A86 JUMP JUMPDEST SWAP1 PUSH2 0x1B3D PUSH2 0x1B2B SWAP2 PUSH2 0x440E JUMP JUMPDEST SWAP2 SWAP1 POP PUSH2 0x1B22 JUMP JUMPDEST POP PUSH1 0x40 PUSH1 0x0 KECCAK256 PUSH1 0x1 ADD SLOAD PUSH1 0x1 PUSH1 0x1 PUSH1 0xA0 SHL SUB AND CALLER EQ PUSH2 0x1B1D JUMP JUMPDEST CALLVALUE PUSH2 0x222 JUMPI PUSH1 0x20 DUP1 PUSH1 0x3 NOT CALLDATASIZE ADD SLT PUSH2 0x222 JUMPI PUSH1 0x4 CALLDATALOAD PUSH2 0x1B7C PUSH2 0x447D JUMP JUMPDEST POP DUP1 PUSH1 0x0 MSTORE PUSH1 0xE DUP3 MSTORE PUSH2 0x1B96 PUSH1 0xFF PUSH1 0x40 PUSH1 0x0 KECCAK256 SLOAD AND PUSH2 0x4564 JUMP JUMPDEST DUP1 PUSH1 0x0 MSTORE PUSH1 0xB DUP3 MSTORE PUSH2 0x1BB6 PUSH1 0xFF PUSH1 0x10 PUSH1 0x40 PUSH1 0x0 KECCAK256 ADD SLOAD PUSH1 0x8 SHR AND ISZERO PUSH2 0x45B0 JUMP JUMPDEST PUSH1 0x0 MSTORE PUSH1 0xB DUP2 MSTORE PUSH2 0x1BCA PUSH1 0x40 PUSH1 0x0 KECCAK256 PUSH2 0x45FC JUMP JUMPDEST SWAP1 PUSH2 0x3D3 PUSH1 0x40 MLOAD SWAP3 DUP3 DUP5 SWAP4 DUP5 MSTORE DUP4 ADD SWAP1 PUSH2 0x36D8 JUMP JUMPDEST CALLVALUE PUSH2 0x222 JUMPI PUSH2 0x1C0 CALLDATASIZE PUSH1 0x3 NOT ADD SLT PUSH2 0x222 JUMPI PUSH1 0x4 CALLDATALOAD PUSH1 0x1 PUSH1 0x1 PUSH1 0x40 SHL SUB DUP2 GT PUSH2 0x222 JUMPI PUSH2 0x1C10 SWAP1 CALLDATASIZE SWAP1 PUSH1 0x4 ADD PUSH2 0x35D8 JUMP JUMPDEST PUSH1 0x24 CALLDATALOAD PUSH1 0x1 PUSH1 0x1 PUSH1 0x40 SHL SUB DUP2 GT PUSH2 0x222 JUMPI PUSH2 0x1C2F SWAP1 CALLDATASIZE SWAP1 PUSH1 0x4 ADD PUSH2 0x3658 JUMP JUMPDEST PUSH1 0x44 CALLDATALOAD PUSH1 0x1 PUSH1 0x1 PUSH1 0x40 SHL SUB DUP2 GT PUSH2 0x222 JUMPI PUSH2 0x1C4E SWAP1 CALLDATASIZE SWAP1 PUSH1 0x4 ADD PUSH2 0x35D8 JUMP JUMPDEST SWAP2 PUSH1 0x64 CALLDATALOAD PUSH1 0x1 PUSH1 0x1 PUSH1 0x40 SHL SUB DUP2 GT PUSH2 0x222 JUMPI PUSH2 0x1C6E SWAP1 CALLDATASIZE SWAP1 PUSH1 0x4 ADD PUSH2 0x35D8 JUMP JUMPDEST PUSH1 0x84 CALLDATALOAD PUSH1 0x1 PUSH1 0x1 PUSH1 0x40 SHL SUB DUP2 GT PUSH2 0x222 JUMPI PUSH2 0x1C8D SWAP1 CALLDATASIZE SWAP1 PUSH1 0x4 ADD PUSH2 0x35D8 JUMP JUMPDEST PUSH1 0xA4 CALLDATALOAD PUSH1 0x1 PUSH1 0x1 PUSH1 0x40 SHL SUB DUP2 GT PUSH2 0x222 JUMPI PUSH2 0x1CAC SWAP1 CALLDATASIZE SWAP1 PUSH1 0x4 ADD PUSH2 0x35D8 JUMP JUMPDEST PUSH1 0xC4 CALLDATALOAD PUSH1 0x1 PUSH1 0x1 PUSH1 0x40 SHL SUB DUP2 GT PUSH2 0x222 JUMPI PUSH2 0x1CCB SWAP1 CALLDATASIZE SWAP1 PUSH1 0x4 ADD PUSH2 0x35D8 JUMP JUMPDEST SWAP2 PUSH1 0xE4 CALLDATALOAD PUSH1 0x1 PUSH1 0x1 PUSH1 0x40 SHL SUB DUP2 GT PUSH2 0x222 JUMPI PUSH2 0x1CEB SWAP1 CALLDATASIZE SWAP1 PUSH1 0x4 ADD PUSH2 0x35D8 JUMP JUMPDEST SWAP4 PUSH2 0x1CF8 DUP7 MLOAD ISZERO ISZERO PUSH2 0x3F9F JUMP JUMPDEST PUSH2 0x1D04 DUP8 MLOAD ISZERO ISZERO PUSH2 0x3FE2 JUMP JUMPDEST PUSH2 0x1D12 PUSH1 0xA DUP9 MLOAD GT ISZERO PUSH2 0x402E JUMP JUMPDEST PUSH2 0x1D1E DUP9 MLOAD ISZERO ISZERO PUSH2 0x407A JUMP JUMPDEST PUSH2 0x1D2A DUP2 MLOAD ISZERO ISZERO PUSH2 0x40C6 JUMP JUMPDEST PUSH2 0x1D36 DUP3 MLOAD ISZERO ISZERO PUSH2 0x4112 JUMP JUMPDEST PUSH2 0x1D42 DUP4 MLOAD ISZERO ISZERO PUSH2 0x415E JUMP JUMPDEST PUSH2 0x1D4E DUP5 MLOAD ISZERO ISZERO PUSH2 0x41A1 JUMP JUMPDEST PUSH2 0x1D5A DUP6 MLOAD ISZERO ISZERO PUSH2 0x41E5 JUMP JUMPDEST PUSH2 0x1D68 PUSH2 0x104 CALLDATALOAD ISZERO ISZERO PUSH2 0x4231 JUMP JUMPDEST PUSH2 0x1D76 PUSH2 0x124 CALLDATALOAD ISZERO ISZERO PUSH2 0x427D JUMP JUMPDEST PUSH2 0x1D84 PUSH2 0x144 CALLDATALOAD ISZERO ISZERO PUSH2 0x42C9 JUMP JUMPDEST PUSH2 0x1D92 PUSH2 0x164 CALLDATALOAD ISZERO ISZERO PUSH2 0x4314 JUMP JUMPDEST PUSH2 0x1DA0 PUSH2 0x184 CALLDATALOAD ISZERO ISZERO PUSH2 0x436B JUMP JUMPDEST PUSH2 0x1DAE PUSH2 0x1A4 CALLDATALOAD ISZERO ISZERO PUSH2 0x43C2 JUMP JUMPDEST PUSH1 0x0 JUMPDEST DUP8 MLOAD DUP2 LT ISZERO PUSH2 0x1DD0 JUMPI DUP1 PUSH2 0x73A PUSH2 0x731 PUSH2 0x1DCB SWAP4 DUP12 PUSH2 0x441D JUMP JUMPDEST PUSH2 0x1DB1 JUMP JUMPDEST POP DUP8 SWAP7 SWAP6 SWAP7 PUSH1 0x1 PUSH1 0x8 SLOAD ADD SWAP7 DUP8 PUSH1 0x8 SSTORE PUSH2 0x1DE8 PUSH2 0x447D JUMP JUMPDEST SWAP9 DUP9 DUP11 MSTORE CALLER PUSH1 0x20 DUP12 ADD MSTORE PUSH1 0x40 DUP11 ADD MSTORE PUSH1 0x60 DUP10 ADD MSTORE PUSH1 0x80 DUP9 ADD MSTORE PUSH1 0xA0 DUP8 ADD MSTORE PUSH1 0xC0 DUP7 ADD MSTORE PUSH1 0xE0 DUP6 ADD MSTORE PUSH2 0x100 DUP5 ADD MSTORE PUSH2 0x120 DUP4 ADD MSTORE PUSH2 0x104 CALLDATALOAD PUSH2 0x140 DUP4 ADD MSTORE PUSH2 0x124 CALLDATALOAD PUSH2 0x160 DUP4 ADD MSTORE PUSH2 0x144 CALLDATALOAD PUSH2 0x180 DUP4 ADD MSTORE PUSH2 0x164 CALLDATALOAD PUSH2 0x1A0 DUP4 ADD MSTORE PUSH2 0x184 CALLDATALOAD PUSH2 0x1C0 DUP4 ADD MSTORE PUSH2 0x1A4 CALLDATALOAD PUSH2 0x1E0 DUP4 ADD MSTORE PUSH1 0x40 MLOAD SWAP1 PUSH2 0x1E65 DUP3 PUSH2 0x354A JUMP JUMPDEST PUSH1 0x0 DUP3 MSTORE CALLER ISZERO PUSH2 0x2965 JUMPI PUSH1 0x0 DUP2 DUP2 MSTORE PUSH1 0x3 PUSH1 0x20 MSTORE PUSH1 0x40 SWAP1 KECCAK256 SLOAD PUSH2 0x1F24 SWAP3 PUSH2 0x1261 SWAP3 SWAP1 SWAP2 PUSH2 0x1E9E SWAP1 PUSH1 0x1 PUSH1 0x1 PUSH1 0xA0 SHL SUB AND ISZERO ISZERO JUMPDEST ISZERO PUSH2 0x4518 JUMP JUMPDEST PUSH1 0x0 DUP2 DUP2 MSTORE PUSH1 0x3 PUSH1 0x20 MSTORE PUSH1 0x40 SWAP1 KECCAK256 SLOAD PUSH2 0x1EC1 SWAP1 PUSH1 0x1 PUSH1 0x1 PUSH1 0xA0 SHL SUB AND ISZERO ISZERO PUSH2 0x1E98 JUMP JUMPDEST CALLER PUSH1 0x0 MSTORE PUSH1 0x4 PUSH1 0x20 MSTORE PUSH1 0x40 PUSH1 0x0 KECCAK256 PUSH1 0x1 DUP2 SLOAD ADD SWAP1 SSTORE DUP1 PUSH1 0x0 MSTORE PUSH1 0x3 PUSH1 0x20 MSTORE PUSH1 0x40 PUSH1 0x0 KECCAK256 CALLER PUSH1 0x1 PUSH1 0x1 PUSH1 0x60 SHL SUB PUSH1 0xA0 SHL DUP3 SLOAD AND OR SWAP1 SSTORE DUP1 CALLER PUSH1 0x0 PUSH32 0xDDF252AD1BE2C89B69C2B068FC378DAA952BA7F163C4A11628F55A4DF523B3EF DUP2 DUP1 LOG4 CALLER PUSH2 0x3E29 JUMP JUMPDEST DUP1 MLOAD PUSH1 0x0 MSTORE PUSH1 0xB PUSH1 0x20 MSTORE PUSH1 0x40 PUSH1 0x0 KECCAK256 DUP2 MLOAD DUP2 SSTORE PUSH1 0x1 DUP1 PUSH1 0xA0 SHL SUB PUSH1 0x20 DUP4 ADD MLOAD AND PUSH1 0x1 DUP3 ADD SWAP1 PUSH1 0x1 PUSH1 0x1 PUSH1 0x60 SHL SUB PUSH1 0xA0 SHL DUP3 SLOAD AND OR SWAP1 SSTORE PUSH1 0x40 DUP3 ADD MLOAD SWAP2 DUP3 MLOAD PUSH1 0x1 PUSH1 0x1 PUSH1 0x40 SHL SUB DUP2 GT PUSH2 0xB7A JUMPI PUSH2 0x1F7D PUSH1 0x2 DUP5 ADD SLOAD PUSH2 0x3A29 JUMP JUMPDEST PUSH1 0x1F DUP2 GT PUSH2 0x2930 JUMPI JUMPDEST POP PUSH1 0x20 PUSH1 0x1F DUP3 GT PUSH1 0x1 EQ PUSH2 0x28C2 JUMPI DUP2 SWAP3 SWAP4 SWAP5 PUSH1 0x0 SWAP3 PUSH2 0x28B7 JUMPI JUMPDEST POP POP DUP2 PUSH1 0x1 SHL SWAP2 PUSH1 0x0 NOT SWAP1 PUSH1 0x3 SHL SHR NOT AND OR PUSH1 0x2 DUP4 ADD SSTORE JUMPDEST PUSH1 0x60 DUP2 ADD MLOAD DUP1 MLOAD SWAP1 PUSH1 0x1 PUSH1 0x40 SHL DUP3 GT PUSH2 0xB7A JUMPI PUSH1 0x3 DUP5 ADD SLOAD DUP3 PUSH1 0x3 DUP7 ADD SSTORE DUP1 DUP4 LT PUSH2 0x2839 JUMPI JUMPDEST POP PUSH1 0x20 ADD SWAP1 PUSH1 0x3 DUP5 ADD PUSH1 0x0 MSTORE PUSH1 0x20 PUSH1 0x0 KECCAK256 SWAP2 PUSH1 0x0 SWAP1 JUMPDEST DUP3 DUP3 LT PUSH2 0x2724 JUMPI DUP6 DUP6 PUSH1 0x80 DUP2 ADD MLOAD SWAP2 DUP3 MLOAD PUSH1 0x1 PUSH1 0x1 PUSH1 0x40 SHL SUB DUP2 GT PUSH2 0xB7A JUMPI PUSH2 0x2020 PUSH1 0x4 DUP4 ADD SLOAD PUSH2 0x3A29 JUMP JUMPDEST PUSH1 0x1F DUP2 GT PUSH2 0x26EF JUMPI JUMPDEST POP PUSH1 0x20 PUSH1 0x1F DUP3 GT PUSH1 0x1 EQ PUSH2 0x2681 JUMPI DUP2 SWAP3 SWAP4 SWAP5 PUSH1 0x0 SWAP3 PUSH2 0x2676 JUMPI JUMPDEST POP POP DUP2 PUSH1 0x1 SHL SWAP2 PUSH1 0x0 NOT SWAP1 PUSH1 0x3 SHL SHR NOT AND OR PUSH1 0x4 DUP3 ADD SSTORE JUMPDEST PUSH1 0xA0 DUP3 ADD MLOAD SWAP2 DUP3 MLOAD PUSH1 0x1 PUSH1 0x1 PUSH1 0x40 SHL SUB DUP2 GT PUSH2 0xB7A JUMPI PUSH2 0x207E PUSH1 0x5 DUP5 ADD SLOAD PUSH2 0x3A29 JUMP JUMPDEST PUSH1 0x1F DUP2 GT PUSH2 0x2641 JUMPI JUMPDEST POP PUSH1 0x20 PUSH1 0x1F DUP3 GT PUSH1 0x1 EQ PUSH2 0x25D3 JUMPI DUP2 SWAP3 SWAP4 SWAP5 PUSH1 0x0 SWAP3 PUSH2 0x25C8 JUMPI JUMPDEST POP POP DUP2 PUSH1 0x1 SHL SWAP2 PUSH1 0x0 NOT SWAP1 PUSH1 0x3 SHL SHR NOT AND OR PUSH1 0x5 DUP4 ADD SSTORE JUMPDEST PUSH1 0xC0 DUP2 ADD MLOAD SWAP2 DUP3 MLOAD PUSH1 0x1 PUSH1 0x1 PUSH1 0x40 SHL SUB DUP2 GT PUSH2 0xB7A JUMPI PUSH2 0x20DC PUSH1 0x6 DUP4 ADD SLOAD PUSH2 0x3A29 JUMP JUMPDEST PUSH1 0x1F DUP2 GT PUSH2 0x2593 JUMPI JUMPDEST POP PUSH1 0x20 PUSH1 0x1F DUP3 GT PUSH1 0x1 EQ PUSH2 0x2525 JUMPI DUP2 SWAP3 SWAP4 SWAP5 PUSH1 0x0 SWAP3 PUSH2 0x251A JUMPI JUMPDEST POP POP DUP2 PUSH1 0x1 SHL SWAP2 PUSH1 0x0 NOT SWAP1 PUSH1 0x3 SHL SHR NOT AND OR PUSH1 0x6 DUP3 ADD SSTORE JUMPDEST PUSH1 0xE0 DUP3 ADD MLOAD SWAP2 DUP3 MLOAD PUSH1 0x1 PUSH1 0x1 PUSH1 0x40 SHL SUB DUP2 GT PUSH2 0xB7A JUMPI PUSH2 0x213A PUSH1 0x7 DUP5 ADD SLOAD PUSH2 0x3A29 JUMP JUMPDEST PUSH1 0x1F DUP2 GT PUSH2 0x24E5 JUMPI JUMPDEST POP PUSH1 0x20 PUSH1 0x1F DUP3 GT PUSH1 0x1 EQ PUSH2 0x2477 JUMPI DUP2 SWAP3 SWAP4 SWAP5 PUSH1 0x0 SWAP3 PUSH2 0x246C JUMPI JUMPDEST POP POP DUP2 PUSH1 0x1 SHL SWAP2 PUSH1 0x0 NOT SWAP1 PUSH1 0x3 SHL SHR NOT AND OR PUSH1 0x7 DUP4 ADD SSTORE JUMPDEST PUSH2 0x100 DUP2 ADD MLOAD SWAP2 DUP3 MLOAD PUSH1 0x1 PUSH1 0x1 PUSH1 0x40 SHL SUB DUP2 GT PUSH2 0xB7A JUMPI PUSH2 0x2199 PUSH1 0x8 DUP4 ADD SLOAD PUSH2 0x3A29 JUMP JUMPDEST PUSH1 0x1F DUP2 GT PUSH2 0x2437 JUMPI JUMPDEST POP PUSH1 0x20 PUSH1 0x1F DUP3 GT PUSH1 0x1 EQ PUSH2 0x23C9 JUMPI DUP2 SWAP3 SWAP4 SWAP5 PUSH1 0x0 SWAP3 PUSH2 0x23BE JUMPI JUMPDEST POP POP DUP2 PUSH1 0x1 SHL SWAP2 PUSH1 0x0 NOT SWAP1 PUSH1 0x3 SHL SHR NOT AND OR PUSH1 0x8 DUP3 ADD SSTORE JUMPDEST PUSH2 0x120 DUP3 ADD MLOAD DUP1 MLOAD SWAP1 PUSH1 0x1 PUSH1 0x1 PUSH1 0x40 SHL SUB DUP3 GT PUSH2 0xB7A JUMPI PUSH2 0x21F8 PUSH1 0x9 DUP5 ADD SLOAD PUSH2 0x3A29 JUMP JUMPDEST PUSH1 0x1F DUP2 GT PUSH2 0x2389 JUMPI JUMPDEST POP PUSH1 0x20 SWAP1 PUSH1 0x1F DUP4 GT PUSH1 0x1 EQ PUSH2 0x2316 JUMPI PUSH1 0x10 SWAP4 SWAP3 SWAP2 PUSH1 0x0 SWAP2 DUP4 PUSH2 0x230B JUMPI JUMPDEST POP POP DUP2 PUSH1 0x1 SHL SWAP2 PUSH1 0x0 NOT SWAP1 PUSH1 0x3 SHL SHR NOT AND OR PUSH1 0x9 DUP3 ADD SSTORE JUMPDEST PUSH2 0x140 DUP4 ADD MLOAD PUSH1 0xA DUP3 ADD SSTORE PUSH2 0x160 DUP4 ADD MLOAD PUSH1 0xB DUP3 ADD SSTORE PUSH2 0x180 DUP4 ADD MLOAD PUSH1 0xC DUP3 ADD SSTORE PUSH2 0x1A0 DUP4 ADD MLOAD PUSH1 0xD DUP3 ADD SSTORE PUSH2 0x1C0 DUP4 ADD MLOAD PUSH1 0xE DUP3 ADD SSTORE PUSH2 0x1E0 DUP4 ADD MLOAD PUSH1 0xF DUP3 ADD SSTORE ADD PUSH2 0x2296 PUSH2 0x200 DUP4 ADD MLOAD ISZERO ISZERO DUP3 SWAP1 PUSH1 0xFF DUP1 NOT DUP4 SLOAD AND SWAP2 ISZERO ISZERO AND OR SWAP1 SSTORE JUMP JUMPDEST PUSH2 0x220 DUP3 ADD MLOAD ISZERO ISZERO PUSH2 0xFF00 DUP3 SLOAD SWAP2 PUSH1 0x8 SHL AND SWAP1 PUSH2 0xFF00 NOT AND OR SWAP1 SSTORE DUP1 MLOAD PUSH1 0x0 MSTORE PUSH1 0xE PUSH1 0x20 MSTORE PUSH1 0x40 PUSH1 0x0 KECCAK256 PUSH1 0x1 PUSH1 0xFF NOT DUP3 SLOAD AND OR SWAP1 SSTORE DUP1 MLOAD PUSH32 0x9815995BDB741D1E283B7E7FD822A34B01EFD21FD2C59DC0D5AB07A587A61726 PUSH1 0x20 PUSH2 0x1E0 PUSH1 0x1 DUP1 PUSH1 0xA0 SHL SUB DUP3 DUP7 ADD MLOAD AND SWAP5 ADD MLOAD PUSH1 0x40 MLOAD SWAP1 DUP2 MSTORE LOG3 STOP JUMPDEST ADD MLOAD SWAP1 POP DUP6 DUP1 PUSH2 0x221E JUMP JUMPDEST SWAP1 PUSH1 0x9 DUP5 ADD PUSH1 0x0 MSTORE PUSH1 0x20 PUSH1 0x0 KECCAK256 SWAP2 PUSH1 0x0 JUMPDEST PUSH1 0x1F NOT DUP6 AND DUP2 LT PUSH2 0x2371 JUMPI POP SWAP2 DUP4 SWAP2 PUSH1 0x1 SWAP4 PUSH1 0x10 SWAP7 SWAP6 PUSH1 0x1F NOT DUP2 AND LT PUSH2 0x2358 JUMPI JUMPDEST POP POP POP DUP2 SHL ADD PUSH1 0x9 DUP3 ADD SSTORE PUSH2 0x2236 JUMP JUMPDEST ADD MLOAD PUSH1 0x0 NOT PUSH1 0xF8 DUP5 PUSH1 0x3 SHL AND SHR NOT AND SWAP1 SSTORE DUP6 DUP1 DUP1 PUSH2 0x2348 JUMP JUMPDEST SWAP2 SWAP3 PUSH1 0x20 PUSH1 0x1 DUP2 SWAP3 DUP7 DUP6 ADD MLOAD DUP2 SSTORE ADD SWAP5 ADD SWAP3 ADD PUSH2 0x2327 JUMP JUMPDEST PUSH2 0x23B8 SWAP1 PUSH1 0x9 DUP6 ADD PUSH1 0x0 MSTORE PUSH1 0x20 PUSH1 0x0 KECCAK256 PUSH1 0x1F DUP6 ADD PUSH1 0x5 SHR DUP2 ADD SWAP2 PUSH1 0x20 DUP7 LT PUSH2 0xB70 JUMPI PUSH1 0x1F ADD PUSH1 0x5 SHR ADD SWAP1 PUSH2 0x4501 JUMP JUMPDEST DUP5 PUSH2 0x2201 JUMP JUMPDEST ADD MLOAD SWAP1 POP DUP5 DUP1 PUSH2 0x21BC JUMP JUMPDEST PUSH1 0x8 DUP4 ADD PUSH1 0x0 MSTORE PUSH1 0x20 PUSH1 0x0 KECCAK256 SWAP1 PUSH1 0x0 JUMPDEST PUSH1 0x1F NOT DUP5 AND DUP2 LT PUSH2 0x241F JUMPI POP PUSH1 0x1 SWAP4 SWAP5 SWAP6 DUP4 PUSH1 0x1F NOT DUP2 AND LT PUSH2 0x2406 JUMPI JUMPDEST POP POP POP DUP2 SHL ADD PUSH1 0x8 DUP3 ADD SSTORE PUSH2 0x21D4 JUMP JUMPDEST ADD MLOAD PUSH1 0x0 NOT PUSH1 0xF8 DUP5 PUSH1 0x3 SHL AND SHR NOT AND SWAP1 SSTORE DUP5 DUP1 DUP1 PUSH2 0x23F6 JUMP JUMPDEST SWAP1 SWAP2 PUSH1 0x20 PUSH1 0x1 DUP2 SWAP3 DUP6 DUP11 ADD MLOAD DUP2 SSTORE ADD SWAP4 ADD SWAP2 ADD PUSH2 0x23D9 JUMP JUMPDEST PUSH2 0x2466 SWAP1 PUSH1 0x8 DUP5 ADD PUSH1 0x0 MSTORE PUSH1 0x20 PUSH1 0x0 KECCAK256 PUSH1 0x1F DUP5 ADD PUSH1 0x5 SHR DUP2 ADD SWAP2 PUSH1 0x20 DUP6 LT PUSH2 0xB70 JUMPI PUSH1 0x1F ADD PUSH1 0x5 SHR ADD SWAP1 PUSH2 0x4501 JUMP JUMPDEST DUP5 PUSH2 0x21A2 JUMP JUMPDEST ADD MLOAD SWAP1 POP DUP5 DUP1 PUSH2 0x215D JUMP JUMPDEST PUSH1 0x7 DUP5 ADD PUSH1 0x0 MSTORE PUSH1 0x20 PUSH1 0x0 KECCAK256 SWAP1 PUSH1 0x0 JUMPDEST PUSH1 0x1F NOT DUP5 AND DUP2 LT PUSH2 0x24CD JUMPI POP PUSH1 0x1 SWAP4 SWAP5 SWAP6 DUP4 PUSH1 0x1F NOT DUP2 AND LT PUSH2 0x24B4 JUMPI JUMPDEST POP POP POP DUP2 SHL ADD PUSH1 0x7 DUP4 ADD SSTORE PUSH2 0x2175 JUMP JUMPDEST ADD MLOAD PUSH1 0x0 NOT PUSH1 0xF8 DUP5 PUSH1 0x3 SHL AND SHR NOT AND SWAP1 SSTORE DUP5 DUP1 DUP1 PUSH2 0x24A4 JUMP JUMPDEST SWAP1 SWAP2 PUSH1 0x20 PUSH1 0x1 DUP2 SWAP3 DUP6 DUP11 ADD MLOAD DUP2 SSTORE ADD SWAP4 ADD SWAP2 ADD PUSH2 0x2487 JUMP JUMPDEST PUSH2 0x2514 SWAP1 PUSH1 0x7 DUP6 ADD PUSH1 0x0 MSTORE PUSH1 0x20 PUSH1 0x0 KECCAK256 PUSH1 0x1F DUP5 ADD PUSH1 0x5 SHR DUP2 ADD SWAP2 PUSH1 0x20 DUP6 LT PUSH2 0xB70 JUMPI PUSH1 0x1F ADD PUSH1 0x5 SHR ADD SWAP1 PUSH2 0x4501 JUMP JUMPDEST DUP5 PUSH2 0x2143 JUMP JUMPDEST ADD MLOAD SWAP1 POP DUP5 DUP1 PUSH2 0x20FF JUMP JUMPDEST PUSH1 0x6 DUP4 ADD PUSH1 0x0 MSTORE PUSH1 0x20 PUSH1 0x0 KECCAK256 SWAP1 PUSH1 0x0 JUMPDEST PUSH1 0x1F NOT DUP5 AND DUP2 LT PUSH2 0x257B JUMPI POP PUSH1 0x1 SWAP4 SWAP5 SWAP6 DUP4 PUSH1 0x1F NOT DUP2 AND LT PUSH2 0x2562 JUMPI JUMPDEST POP POP POP DUP2 SHL ADD PUSH1 0x6 DUP3 ADD SSTORE PUSH2 0x2117 JUMP JUMPDEST ADD MLOAD PUSH1 0x0 NOT PUSH1 0xF8 DUP5 PUSH1 0x3 SHL AND SHR NOT AND SWAP1 SSTORE DUP5 DUP1 DUP1 PUSH2 0x2552 JUMP JUMPDEST SWAP1 SWAP2 PUSH1 0x20 PUSH1 0x1 DUP2 SWAP3 DUP6 DUP11 ADD MLOAD DUP2 SSTORE ADD SWAP4 ADD SWAP2 ADD PUSH2 0x2535 JUMP JUMPDEST PUSH2 0x25C2 SWAP1 PUSH1 0x6 DUP5 ADD PUSH1 0x0 MSTORE PUSH1 0x20 PUSH1 0x0 KECCAK256 PUSH1 0x1F DUP5 ADD PUSH1 0x5 SHR DUP2 ADD SWAP2 PUSH1 0x20 DUP6 LT PUSH2 0xB70 JUMPI PUSH1 0x1F ADD PUSH1 0x5 SHR ADD SWAP1 PUSH2 0x4501 JUMP JUMPDEST DUP5 PUSH2 0x20E5 JUMP JUMPDEST ADD MLOAD SWAP1 POP DUP5 DUP1 PUSH2 0x20A1 JUMP JUMPDEST PUSH1 0x5 DUP5 ADD PUSH1 0x0 MSTORE PUSH1 0x20 PUSH1 0x0 KECCAK256 SWAP1 PUSH1 0x0 JUMPDEST PUSH1 0x1F NOT DUP5 AND DUP2 LT PUSH2 0x2629 JUMPI POP PUSH1 0x1 SWAP4 SWAP5 SWAP6 DUP4 PUSH1 0x1F NOT DUP2 AND LT PUSH2 0x2610 JUMPI JUMPDEST POP POP POP DUP2 SHL ADD PUSH1 0x5 DUP4 ADD SSTORE PUSH2 0x20B9 JUMP JUMPDEST ADD MLOAD PUSH1 0x0 NOT PUSH1 0xF8 DUP5 PUSH1 0x3 SHL AND SHR NOT AND SWAP1 SSTORE DUP5 DUP1 DUP1 PUSH2 0x2600 JUMP JUMPDEST SWAP1 SWAP2 PUSH1 0x20 PUSH1 0x1 DUP2 SWAP3 DUP6 DUP11 ADD MLOAD DUP2 SSTORE ADD SWAP4 ADD SWAP2 ADD PUSH2 0x25E3 JUMP JUMPDEST PUSH2 0x2670 SWAP1 PUSH1 0x5 DUP6 ADD PUSH1 0x0 MSTORE PUSH1 0x20 PUSH1 0x0 KECCAK256 PUSH1 0x1F DUP5 ADD PUSH1 0x5 SHR DUP2 ADD SWAP2 PUSH1 0x20 DUP6 LT PUSH2 0xB70 JUMPI PUSH1 0x1F ADD PUSH1 0x5 SHR ADD SWAP1 PUSH2 0x4501 JUMP JUMPDEST DUP5 PUSH2 0x2087 JUMP JUMPDEST ADD MLOAD SWAP1 POP DUP5 DUP1 PUSH2 0x2043 JUMP JUMPDEST PUSH1 0x4 DUP4 ADD PUSH1 0x0 MSTORE PUSH1 0x20 PUSH1 0x0 KECCAK256 SWAP1 PUSH1 0x0 JUMPDEST PUSH1 0x1F NOT DUP5 AND DUP2 LT PUSH2 0x26D7 JUMPI POP PUSH1 0x1 SWAP4 SWAP5 SWAP6 DUP4 PUSH1 0x1F NOT DUP2 AND LT PUSH2 0x26BE JUMPI JUMPDEST POP POP POP DUP2 SHL ADD PUSH1 0x4 DUP3 ADD SSTORE PUSH2 0x205B JUMP JUMPDEST ADD MLOAD PUSH1 0x0 NOT PUSH1 0xF8 DUP5 PUSH1 0x3 SHL AND SHR NOT AND SWAP1 SSTORE DUP5 DUP1 DUP1 PUSH2 0x26AE JUMP JUMPDEST SWAP1 SWAP2 PUSH1 0x20 PUSH1 0x1 DUP2 SWAP3 DUP6 DUP11 ADD MLOAD DUP2 SSTORE ADD SWAP4 ADD SWAP2 ADD PUSH2 0x2691 JUMP JUMPDEST PUSH2 0x271E SWAP1 PUSH1 0x4 DUP5 ADD PUSH1 0x0 MSTORE PUSH1 0x20 PUSH1 0x0 KECCAK256 PUSH1 0x1F DUP5 ADD PUSH1 0x5 SHR DUP2 ADD SWAP2 PUSH1 0x20 DUP6 LT PUSH2 0xB70 JUMPI PUSH1 0x1F ADD PUSH1 0x5 SHR ADD SWAP1 PUSH2 0x4501 JUMP JUMPDEST DUP5 PUSH2 0x2029 JUMP JUMPDEST DUP1 MLOAD DUP1 MLOAD SWAP1 PUSH1 0x1 PUSH1 0x1 PUSH1 0x40 SHL SUB DUP3 GT PUSH2 0xB7A JUMPI PUSH2 0x2741 DUP7 SLOAD PUSH2 0x3A29 JUMP JUMPDEST PUSH1 0x1F DUP2 GT PUSH2 0x2807 JUMPI JUMPDEST POP PUSH1 0x20 SWAP1 PUSH1 0x1F DUP4 GT PUSH1 0x1 EQ PUSH2 0x2797 JUMPI SWAP3 DUP3 PUSH1 0x1 SWAP5 SWAP4 PUSH1 0x20 SWAP4 DUP7 SWAP6 PUSH1 0x0 SWAP3 PUSH2 0x278C JUMPI JUMPDEST POP POP PUSH1 0x0 NOT PUSH1 0x3 DUP4 SWAP1 SHL SHR NOT AND SWAP1 DUP5 SHL OR DUP8 SSTORE JUMPDEST ADD SWAP5 ADD SWAP2 ADD SWAP1 SWAP3 PUSH2 0x1FF4 JUMP JUMPDEST ADD MLOAD SWAP1 POP DUP12 DUP1 PUSH2 0x276C JUMP JUMPDEST SWAP1 DUP7 PUSH1 0x0 MSTORE PUSH1 0x20 PUSH1 0x0 KECCAK256 SWAP2 PUSH1 0x0 JUMPDEST PUSH1 0x1F NOT DUP6 AND DUP2 LT PUSH2 0x27EF JUMPI POP DUP4 PUSH1 0x20 SWAP4 PUSH1 0x1 SWAP7 SWAP4 DUP8 SWAP7 SWAP4 DUP8 SWAP5 PUSH1 0x1F NOT DUP2 AND LT PUSH2 0x27D6 JUMPI JUMPDEST POP POP POP DUP2 SHL ADD DUP8 SSTORE PUSH2 0x2780 JUMP JUMPDEST ADD MLOAD PUSH1 0x0 NOT PUSH1 0xF8 DUP5 PUSH1 0x3 SHL AND SHR NOT AND SWAP1 SSTORE DUP12 DUP1 DUP1 PUSH2 0x27C9 JUMP JUMPDEST SWAP2 SWAP3 PUSH1 0x20 PUSH1 0x1 DUP2 SWAP3 DUP7 DUP6 ADD MLOAD DUP2 SSTORE ADD SWAP5 ADD SWAP3 ADD PUSH2 0x27A5 JUMP JUMPDEST PUSH2 0x2833 SWAP1 DUP8 PUSH1 0x0 MSTORE PUSH1 0x20 PUSH1 0x0 KECCAK256 PUSH1 0x5 PUSH1 0x1F DUP7 ADD DUP2 SHR DUP3 ADD SWAP3 PUSH1 0x20 DUP8 LT PUSH2 0xFEA JUMPI PUSH1 0x1F ADD SWAP1 SHR ADD SWAP1 PUSH2 0x4501 JUMP JUMPDEST DUP9 PUSH2 0x274A JUMP JUMPDEST PUSH1 0x3 DUP6 ADD PUSH1 0x0 MSTORE PUSH1 0x20 PUSH1 0x0 KECCAK256 SWAP1 DUP4 DUP3 ADD JUMPDEST DUP2 DUP4 ADD DUP2 LT PUSH2 0x285A JUMPI POP POP PUSH2 0x1FDE JUMP JUMPDEST DUP1 PUSH2 0x2867 PUSH1 0x1 SWAP3 SLOAD PUSH2 0x3A29 JUMP JUMPDEST DUP1 PUSH2 0x2874 JUMPI JUMPDEST POP ADD PUSH2 0x284A JUMP JUMPDEST PUSH1 0x1F DUP2 GT DUP4 EQ PUSH2 0x288A JUMPI POP PUSH1 0x0 DUP2 SSTORE JUMPDEST DUP9 PUSH2 0x286D JUMP JUMPDEST PUSH2 0x28A8 SWAP1 DUP3 PUSH1 0x0 MSTORE DUP4 PUSH1 0x1F PUSH1 0x20 PUSH1 0x0 KECCAK256 SWAP3 ADD PUSH1 0x5 SHR DUP3 ADD SWAP2 ADD PUSH2 0x4501 JUMP JUMPDEST PUSH1 0x0 PUSH1 0x20 DUP2 KECCAK256 DUP2 DUP4 SSTORE SSTORE PUSH2 0x2884 JUMP JUMPDEST ADD MLOAD SWAP1 POP DUP5 DUP1 PUSH2 0x1FA0 JUMP JUMPDEST PUSH1 0x2 DUP5 ADD PUSH1 0x0 MSTORE PUSH1 0x20 PUSH1 0x0 KECCAK256 SWAP1 PUSH1 0x0 JUMPDEST PUSH1 0x1F NOT DUP5 AND DUP2 LT PUSH2 0x2918 JUMPI POP PUSH1 0x1 SWAP4 SWAP5 SWAP6 DUP4 PUSH1 0x1F NOT DUP2 AND LT PUSH2 0x28FF JUMPI JUMPDEST POP POP POP DUP2 SHL ADD PUSH1 0x2 DUP4 ADD SSTORE PUSH2 0x1FB8 JUMP JUMPDEST ADD MLOAD PUSH1 0x0 NOT PUSH1 0xF8 DUP5 PUSH1 0x3 SHL AND SHR NOT AND SWAP1 SSTORE DUP5 DUP1 DUP1 PUSH2 0x28EF JUMP JUMPDEST SWAP1 SWAP2 PUSH1 0x20 PUSH1 0x1 DUP2 SWAP3 DUP6 DUP11 ADD MLOAD DUP2 SSTORE ADD SWAP4 ADD SWAP2 ADD PUSH2 0x28D2 JUMP JUMPDEST PUSH2 0x295F SWAP1 PUSH1 0x2 DUP6 ADD PUSH1 0x0 MSTORE PUSH1 0x20 PUSH1 0x0 KECCAK256 PUSH1 0x1F DUP5 ADD PUSH1 0x5 SHR DUP2 ADD SWAP2 PUSH1 0x20 DUP6 LT PUSH2 0xB70 JUMPI PUSH1 0x1F ADD PUSH1 0x5 SHR ADD SWAP1 PUSH2 0x4501 JUMP JUMPDEST DUP5 PUSH2 0x1F86 JUMP JUMPDEST PUSH1 0x64 PUSH1 0x40 MLOAD PUSH3 0x461BCD PUSH1 0xE5 SHL DUP2 MSTORE PUSH1 0x20 PUSH1 0x4 DUP3 ADD MSTORE PUSH1 0x20 PUSH1 0x24 DUP3 ADD MSTORE PUSH32 0x4552433732313A206D696E7420746F20746865207A65726F2061646472657373 PUSH1 0x44 DUP3 ADD MSTORE REVERT JUMPDEST CALLVALUE PUSH2 0x222 JUMPI PUSH1 0x40 CALLDATASIZE PUSH1 0x3 NOT ADD SLT PUSH2 0x222 JUMPI PUSH1 0x1 PUSH1 0x1 PUSH1 0x40 SHL SUB PUSH1 0x4 CALLDATALOAD PUSH1 0x24 CALLDATALOAD DUP3 DUP2 GT PUSH2 0x222 JUMPI PUSH2 0x29DD SWAP1 CALLDATASIZE SWAP1 PUSH1 0x4 ADD PUSH2 0x35D8 JUMP JUMPDEST DUP2 PUSH1 0x0 MSTORE PUSH1 0x20 PUSH1 0xE DUP2 MSTORE PUSH2 0x29F8 PUSH1 0xFF PUSH1 0x40 PUSH1 0x0 KECCAK256 SLOAD AND PUSH2 0x4564 JUMP JUMPDEST DUP3 PUSH1 0x0 MSTORE PUSH1 0xB DUP2 MSTORE PUSH2 0x2A18 PUSH1 0xFF PUSH1 0x10 PUSH1 0x40 PUSH1 0x0 KECCAK256 ADD SLOAD PUSH1 0x8 SHR AND ISZERO PUSH2 0x45B0 JUMP JUMPDEST PUSH2 0x2A24 DUP3 MLOAD ISZERO ISZERO PUSH2 0x47CD JUMP JUMPDEST PUSH2 0x2A33 PUSH2 0x3E8 DUP4 MLOAD GT ISZERO PUSH2 0x4819 JUMP JUMPDEST PUSH1 0x1 SWAP2 DUP3 PUSH1 0xA SLOAD ADD SWAP5 DUP6 PUSH1 0xA SSTORE PUSH2 0x2A48 PUSH2 0x485A JUMP JUMPDEST SWAP2 DUP7 DUP4 MSTORE DUP4 DUP4 ADD SWAP2 DUP7 DUP4 MSTORE PUSH1 0x60 DUP5 ADD SWAP2 CALLER DUP4 MSTORE PUSH1 0x40 DUP6 ADD SWAP1 DUP2 MSTORE PUSH1 0x80 DUP6 ADD SWAP2 PUSH1 0x0 DUP4 MSTORE PUSH1 0xA0 DUP7 ADD SWAP5 TIMESTAMP DUP7 MSTORE DUP10 PUSH1 0x0 MSTORE PUSH1 0xC DUP9 MSTORE PUSH1 0x40 PUSH1 0x0 KECCAK256 SLOAD PUSH1 0x10 DUP10 MSTORE PUSH1 0x40 PUSH1 0x0 KECCAK256 DUP13 PUSH1 0x0 MSTORE DUP10 MSTORE PUSH1 0x40 PUSH1 0x0 KECCAK256 SSTORE DUP10 PUSH1 0x0 MSTORE PUSH1 0xC DUP9 MSTORE PUSH1 0x40 PUSH1 0x0 KECCAK256 DUP1 SLOAD PUSH1 0x1 PUSH1 0x40 SHL DUP2 LT ISZERO PUSH2 0xB7A JUMPI PUSH2 0x2ABF SWAP2 DUP12 DUP3 ADD DUP2 SSTORE PUSH2 0x488C JUMP JUMPDEST SWAP8 SWAP1 SWAP8 PUSH2 0x2C47 JUMPI MLOAD DUP8 SSTORE MLOAD DUP9 DUP8 ADD SSTORE PUSH1 0x2 DUP7 ADD SWAP2 MLOAD DUP1 MLOAD SWAP2 DUP3 GT PUSH2 0xB7A JUMPI PUSH2 0x2AE7 DUP4 SLOAD PUSH2 0x3A29 JUMP JUMPDEST PUSH1 0x1F DUP2 GT PUSH2 0x2C17 JUMPI JUMPDEST POP DUP8 SWAP1 PUSH1 0x1F DUP4 GT PUSH1 0x1 EQ PUSH2 0x2BA6 JUMPI SWAP2 DUP1 PUSH1 0x4 SWAP7 SWAP5 SWAP3 PUSH1 0xF SWAP11 SWAP10 SWAP9 SWAP7 SWAP5 PUSH1 0x0 SWAP3 PUSH2 0x2B9B JUMPI JUMPDEST POP POP PUSH1 0x0 NOT PUSH1 0x3 DUP4 SWAP1 SHL SHR NOT AND SWAP1 DUP11 SHL OR SWAP1 SSTORE JUMPDEST PUSH1 0x3 DUP6 ADD SWAP2 PUSH1 0x1 DUP1 PUSH1 0xA0 SHL SUB SWAP1 MLOAD AND DUP3 SLOAD SWAP2 PUSH1 0xFF PUSH1 0xA0 SHL SWAP1 MLOAD ISZERO ISZERO PUSH1 0xA0 SHL AND SWAP2 PUSH11 0xFFFFFFFFFFFFFFFFFFFFFF PUSH1 0xA8 SHL AND OR OR SWAP1 SSTORE MLOAD SWAP2 ADD SSTORE DUP5 PUSH1 0x0 MSTORE MSTORE PUSH1 0x40 PUSH1 0x0 KECCAK256 SWAP1 PUSH1 0xFF NOT DUP3 SLOAD AND OR SWAP1 SSTORE PUSH32 0x7F81C790A4345D8750E5542A4C0213B9A5969741805DEAFB58AD031FE113C4CD PUSH1 0x0 DUP1 LOG3 STOP JUMPDEST ADD MLOAD SWAP1 POP DUP14 DUP1 PUSH2 0x2B14 JUMP JUMPDEST DUP10 SWAP3 SWAP2 PUSH1 0x1F NOT DUP4 AND SWAP2 DUP6 PUSH1 0x0 MSTORE DUP11 PUSH1 0x0 KECCAK256 SWAP3 PUSH1 0x0 JUMPDEST DUP2 DUP2 LT PUSH2 0x2C00 JUMPI POP SWAP2 PUSH1 0xF SWAP12 SWAP11 SWAP10 SWAP8 SWAP6 SWAP4 SWAP2 DUP6 PUSH1 0x4 SWAP11 SWAP9 SWAP7 SWAP5 LT PUSH2 0x2BE7 JUMPI JUMPDEST POP POP POP DUP2 SHL ADD SWAP1 SSTORE PUSH2 0x2B28 JUMP JUMPDEST ADD MLOAD PUSH1 0x0 NOT PUSH1 0xF8 DUP5 PUSH1 0x3 SHL AND SHR NOT AND SWAP1 SSTORE DUP14 DUP1 DUP1 PUSH2 0x2BDA JUMP JUMPDEST DUP3 DUP5 ADD MLOAD DUP6 SSTORE DUP14 SWAP7 SWAP1 SWAP5 ADD SWAP4 SWAP3 DUP13 ADD SWAP3 DUP13 ADD PUSH2 0x2BBB JUMP JUMPDEST PUSH2 0x2C41 SWAP1 DUP5 PUSH1 0x0 MSTORE DUP10 PUSH1 0x0 KECCAK256 PUSH1 0x1F DUP6 ADD PUSH1 0x5 SHR DUP2 ADD SWAP2 DUP12 DUP7 LT PUSH2 0xB70 JUMPI PUSH1 0x1F ADD PUSH1 0x5 SHR ADD SWAP1 PUSH2 0x4501 JUMP JUMPDEST DUP12 PUSH2 0x2AF0 JUMP JUMPDEST PUSH4 0x4E487B71 PUSH1 0xE0 SHL PUSH1 0x0 MSTORE PUSH1 0x0 PUSH1 0x4 MSTORE PUSH1 0x24 PUSH1 0x0 REVERT JUMPDEST CALLVALUE PUSH2 0x222 JUMPI PUSH2 0x2C6B CALLDATASIZE PUSH2 0x362B JUMP JUMPDEST SWAP1 DUP1 PUSH1 0x0 MSTORE PUSH1 0x20 PUSH1 0xE DUP2 MSTORE PUSH2 0x2C87 PUSH1 0xFF PUSH1 0x40 PUSH1 0x0 KECCAK256 SLOAD AND PUSH2 0x4564 JUMP JUMPDEST DUP3 PUSH1 0x0 MSTORE PUSH1 0xF DUP2 MSTORE PUSH2 0x2CA0 PUSH1 0xFF PUSH1 0x40 PUSH1 0x0 KECCAK256 SLOAD AND PUSH2 0x48A8 JUMP JUMPDEST DUP2 PUSH1 0x0 MSTORE PUSH1 0x10 DUP2 MSTORE PUSH1 0x40 PUSH1 0x0 KECCAK256 DUP4 PUSH1 0x0 MSTORE DUP2 MSTORE PUSH1 0x40 PUSH1 0x0 KECCAK256 SLOAD SWAP1 DUP3 PUSH1 0x0 MSTORE PUSH1 0xC DUP2 MSTORE PUSH2 0x2CD2 PUSH1 0x40 PUSH1 0x0 KECCAK256 SLOAD DUP4 LT PUSH2 0x48EC JUMP JUMPDEST DUP3 PUSH1 0x0 MSTORE PUSH1 0xC DUP2 MSTORE PUSH1 0x3 PUSH2 0x2CEA DUP4 PUSH1 0x40 PUSH1 0x0 KECCAK256 PUSH2 0x488C JUMP JUMPDEST POP ADD SLOAD CALLER PUSH1 0x1 PUSH1 0x1 PUSH1 0xA0 SHL SUB SWAP2 DUP3 AND EQ SWAP1 DUP2 ISZERO PUSH2 0x2E13 JUMPI JUMPDEST POP ISZERO PUSH2 0x2DBC JUMPI DUP3 PUSH1 0x0 MSTORE PUSH1 0xC DUP2 MSTORE PUSH1 0xFF PUSH1 0x3 PUSH2 0x2D22 DUP5 PUSH1 0x40 PUSH1 0x0 KECCAK256 PUSH2 0x488C JUMP JUMPDEST POP ADD SLOAD PUSH1 0xA0 SHR AND PUSH2 0x2D7F JUMPI PUSH1 0x3 SWAP2 PUSH1 0xC PUSH2 0x2D45 SWAP3 DUP6 PUSH1 0x0 MSTORE MSTORE PUSH1 0x40 PUSH1 0x0 KECCAK256 PUSH2 0x488C JUMP JUMPDEST POP ADD DUP1 SLOAD PUSH1 0xFF PUSH1 0xA0 SHL NOT AND PUSH1 0x1 PUSH1 0xA0 SHL OR SWAP1 SSTORE PUSH32 0xFE09911B3EC9652EF94A11286713BD397F2FB090F28C62303451D8040FF62C62 PUSH1 0x0 DUP1 LOG3 STOP JUMPDEST PUSH1 0x64 SWAP1 PUSH1 0x40 MLOAD SWAP1 PUSH3 0x461BCD PUSH1 0xE5 SHL DUP3 MSTORE PUSH1 0x4 DUP3 ADD MSTORE PUSH1 0x16 PUSH1 0x24 DUP3 ADD MSTORE PUSH22 0x14995D9A595DC8185B1C9958591E4819195B195D1959 PUSH1 0x52 SHL PUSH1 0x44 DUP3 ADD MSTORE REVERT JUMPDEST PUSH1 0x84 SWAP1 PUSH1 0x40 MLOAD SWAP1 PUSH3 0x461BCD PUSH1 0xE5 SHL DUP3 MSTORE PUSH1 0x4 DUP3 ADD MSTORE PUSH1 0x2A PUSH1 0x24 DUP3 ADD MSTORE PUSH32 0x4F6E6C79207265766965776572206F7220636F6E7472616374206F776E657220 PUSH1 0x44 DUP3 ADD MSTORE PUSH10 0x63616E2064656C657465 PUSH1 0xB0 SHL PUSH1 0x64 DUP3 ADD MSTORE REVERT JUMPDEST SWAP1 POP PUSH1 0x0 SLOAD AND CALLER EQ DUP6 PUSH2 0x2D02 JUMP JUMPDEST CALLVALUE PUSH2 0x222 JUMPI PUSH2 0x1266 PUSH2 0x2E32 CALLDATASIZE PUSH2 0x35F6 JUMP JUMPDEST SWAP2 PUSH2 0x2E40 PUSH2 0x124C DUP5 CALLER PUSH2 0x3C20 JUMP JUMPDEST PUSH2 0x3CE8 JUMP JUMPDEST CALLVALUE PUSH2 0x222 JUMPI PUSH1 0x60 CALLDATASIZE PUSH1 0x3 NOT ADD SLT PUSH2 0x222 JUMPI PUSH1 0x24 CALLDATALOAD PUSH1 0x4 CALLDATALOAD PUSH1 0x1 PUSH1 0x1 PUSH1 0x40 SHL SUB PUSH1 0x44 CALLDATALOAD DUP2 DUP2 GT PUSH2 0x222 JUMPI PUSH2 0x2E7C SWAP1 CALLDATASIZE SWAP1 PUSH1 0x4 ADD PUSH2 0x35D8 JUMP JUMPDEST DUP3 PUSH1 0x0 MSTORE PUSH1 0x20 SWAP1 PUSH1 0xE DUP3 MSTORE PUSH2 0x2E98 PUSH1 0xFF PUSH1 0x40 PUSH1 0x0 KECCAK256 SLOAD AND PUSH2 0x4564 JUMP JUMPDEST DUP4 PUSH1 0x0 MSTORE PUSH1 0xB DUP3 MSTORE PUSH2 0x2EB8 PUSH1 0xFF PUSH1 0x10 PUSH1 0x40 PUSH1 0x0 KECCAK256 ADD SLOAD PUSH1 0x8 SHR AND ISZERO PUSH2 0x45B0 JUMP JUMPDEST DUP5 PUSH1 0x0 MSTORE PUSH1 0xF DUP3 MSTORE PUSH2 0x2ED1 PUSH1 0xFF PUSH1 0x40 PUSH1 0x0 KECCAK256 SLOAD AND PUSH2 0x48A8 JUMP JUMPDEST PUSH2 0x2EDD DUP2 MLOAD ISZERO ISZERO PUSH2 0x47CD JUMP JUMPDEST PUSH2 0x2EEC PUSH2 0x3E8 DUP3 MLOAD GT ISZERO PUSH2 0x4819 JUMP JUMPDEST DUP4 PUSH1 0x0 MSTORE PUSH1 0x10 DUP3 MSTORE PUSH1 0x40 PUSH1 0x0 KECCAK256 DUP6 PUSH1 0x0 MSTORE DUP3 MSTORE PUSH1 0x40 PUSH1 0x0 KECCAK256 SLOAD SWAP3 DUP5 PUSH1 0x0 MSTORE PUSH1 0xC DUP4 MSTORE PUSH2 0x2F1E PUSH1 0x40 PUSH1 0x0 KECCAK256 SLOAD DUP6 LT PUSH2 0x48EC JUMP JUMPDEST DUP5 PUSH1 0x0 MSTORE PUSH1 0xC DUP4 MSTORE PUSH2 0x2F34 DUP5 PUSH1 0x40 PUSH1 0x0 KECCAK256 PUSH2 0x488C JUMP JUMPDEST POP PUSH1 0x3 ADD SLOAD PUSH1 0x1 PUSH1 0x1 PUSH1 0xA0 SHL SUB AND CALLER SUB PUSH2 0x30B9 JUMPI DUP5 PUSH1 0x0 MSTORE PUSH1 0xC DUP4 MSTORE PUSH2 0x2F65 PUSH1 0xFF PUSH1 0x3 PUSH2 0x4D0 DUP8 PUSH1 0x40 PUSH1 0x0 KECCAK256 PUSH2 0x488C JUMP JUMPDEST DUP5 PUSH1 0x0 MSTORE PUSH1 0xC DUP4 MSTORE PUSH1 0x2 PUSH2 0x2F7D DUP6 PUSH1 0x40 PUSH1 0x0 KECCAK256 PUSH2 0x488C JUMP JUMPDEST POP ADD SWAP2 DUP1 MLOAD SWAP2 DUP3 GT PUSH2 0xB7A JUMPI PUSH2 0x2F93 DUP4 SLOAD PUSH2 0x3A29 JUMP JUMPDEST PUSH1 0x1F DUP2 GT PUSH2 0x3089 JUMPI JUMPDEST POP DUP4 SWAP1 PUSH1 0x1F DUP4 GT PUSH1 0x1 EQ PUSH2 0x301B JUMPI SWAP2 DUP1 PUSH1 0xC SWAP5 SWAP3 PUSH2 0x2FE2 SWAP8 SWAP7 SWAP5 PUSH1 0x0 SWAP3 PUSH2 0x3010 JUMPI JUMPDEST POP POP DUP2 PUSH1 0x1 SHL SWAP2 PUSH1 0x0 NOT SWAP1 PUSH1 0x3 SHL SHR NOT AND OR SWAP1 SSTORE JUMPDEST DUP5 PUSH1 0x0 MSTORE MSTORE PUSH1 0x40 PUSH1 0x0 KECCAK256 PUSH2 0x488C JUMP JUMPDEST POP PUSH1 0x4 TIMESTAMP SWAP2 ADD SSTORE PUSH32 0xA36BBB9E7CDD66E8EA36022DD73F106F7FA8D76D37B933CDE8CC2AF00E401AE7 PUSH1 0x0 DUP1 LOG3 STOP JUMPDEST ADD MLOAD SWAP1 POP DUP10 DUP1 PUSH2 0x2FBE JUMP JUMPDEST SWAP1 PUSH1 0x1F NOT DUP4 AND SWAP2 DUP5 PUSH1 0x0 MSTORE DUP6 PUSH1 0x0 KECCAK256 SWAP3 PUSH1 0x0 JUMPDEST DUP2 DUP2 LT PUSH2 0x3072 JUMPI POP SWAP3 PUSH1 0x1 SWAP3 DUP6 SWAP3 PUSH2 0x2FE2 SWAP10 SWAP9 SWAP7 PUSH1 0xC SWAP9 SWAP7 LT PUSH2 0x3059 JUMPI JUMPDEST POP POP POP DUP2 SHL ADD SWAP1 SSTORE PUSH2 0x2FD3 JUMP JUMPDEST ADD MLOAD PUSH1 0x0 NOT PUSH1 0xF8 DUP5 PUSH1 0x3 SHL AND SHR NOT AND SWAP1 SSTORE DUP10 DUP1 DUP1 PUSH2 0x304C JUMP JUMPDEST SWAP3 SWAP4 DUP8 PUSH1 0x1 DUP2 SWAP3 DUP8 DUP7 ADD MLOAD DUP2 SSTORE ADD SWAP6 ADD SWAP4 ADD PUSH2 0x302E JUMP JUMPDEST PUSH2 0x30B3 SWAP1 DUP5 PUSH1 0x0 MSTORE DUP6 PUSH1 0x0 KECCAK256 PUSH1 0x1F DUP6 ADD PUSH1 0x5 SHR DUP2 ADD SWAP2 DUP8 DUP7 LT PUSH2 0xB70 JUMPI PUSH1 0x1F ADD PUSH1 0x5 SHR ADD SWAP1 PUSH2 0x4501 JUMP JUMPDEST DUP8 PUSH2 0x2F9C JUMP JUMPDEST PUSH1 0x40 MLOAD PUSH3 0x461BCD PUSH1 0xE5 SHL DUP2 MSTORE PUSH1 0x4 DUP2 ADD DUP5 SWAP1 MSTORE PUSH1 0x18 PUSH1 0x24 DUP3 ADD MSTORE PUSH32 0x4F6E6C792072657669657765722063616E207570646174650000000000000000 PUSH1 0x44 DUP3 ADD MSTORE PUSH1 0x64 SWAP1 REVERT JUMPDEST CALLVALUE PUSH2 0x222 JUMPI PUSH1 0x20 CALLDATASIZE PUSH1 0x3 NOT ADD SLT PUSH2 0x222 JUMPI PUSH1 0x4 CALLDATALOAD DUP1 PUSH1 0x0 MSTORE PUSH1 0xE PUSH1 0x20 MSTORE PUSH2 0x312C PUSH1 0xFF PUSH1 0x40 PUSH1 0x0 KECCAK256 SLOAD AND PUSH2 0x4564 JUMP JUMPDEST PUSH1 0x0 DUP2 DUP2 MSTORE PUSH1 0xB PUSH1 0x20 MSTORE PUSH1 0x40 SWAP1 KECCAK256 PUSH1 0x1 ADD SLOAD CALLER PUSH1 0x1 PUSH1 0x1 PUSH1 0xA0 SHL SUB SWAP2 DUP3 AND EQ SWAP1 DUP2 ISZERO PUSH2 0x31F3 JUMPI JUMPDEST POP ISZERO PUSH2 0x319E JUMPI DUP1 PUSH1 0x0 MSTORE PUSH1 0xB PUSH1 0x20 MSTORE PUSH1 0x10 PUSH1 0x40 PUSH1 0x0 KECCAK256 ADD PUSH2 0x100 PUSH2 0xFF00 NOT DUP3 SLOAD AND OR SWAP1 SSTORE PUSH32 0x7156884BE24FF0BE75B08B7BF2034F16982585FCFC7FC22C70716AD234E92673 PUSH1 0x0 DUP1 LOG2 STOP JUMPDEST PUSH1 0x40 MLOAD PUSH3 0x461BCD PUSH1 0xE5 SHL DUP2 MSTORE PUSH1 0x20 PUSH1 0x4 DUP3 ADD MSTORE PUSH1 0x27 PUSH1 0x24 DUP3 ADD MSTORE PUSH32 0x4F6E6C792070726F7065727479206F776E65722063616E2064656C6574652070 PUSH1 0x44 DUP3 ADD MSTORE PUSH7 0x726F7065727479 PUSH1 0xC8 SHL PUSH1 0x64 DUP3 ADD MSTORE PUSH1 0x84 SWAP1 REVERT JUMPDEST SWAP1 POP PUSH1 0x0 SLOAD AND CALLER EQ DUP3 PUSH2 0x3153 JUMP JUMPDEST CALLVALUE PUSH2 0x222 JUMPI PUSH1 0x40 CALLDATASIZE PUSH1 0x3 NOT ADD SLT PUSH2 0x222 JUMPI PUSH2 0x321A PUSH2 0x34E7 JUMP JUMPDEST PUSH1 0x24 CALLDATALOAD SWAP1 PUSH1 0x1 PUSH1 0x1 PUSH1 0xA0 SHL SUB DUP1 DUP1 PUSH2 0x3231 DUP6 PUSH2 0x3A06 JUMP JUMPDEST AND SWAP3 AND SWAP2 DUP1 DUP4 EQ PUSH2 0x332C JUMPI DUP1 CALLER EQ SWAP1 DUP2 ISZERO PUSH2 0x3307 JUMPI JUMPDEST POP ISZERO PUSH2 0x329C JUMPI PUSH1 0x0 DUP4 DUP2 MSTORE PUSH1 0x5 PUSH1 0x20 MSTORE PUSH1 0x40 SWAP1 KECCAK256 DUP1 SLOAD PUSH1 0x1 PUSH1 0x1 PUSH1 0xA0 SHL SUB NOT AND DUP4 OR SWAP1 SSTORE PUSH2 0x3274 DUP4 PUSH2 0x3A06 JUMP JUMPDEST AND PUSH32 0x8C5BE1E5EBEC7D5BD14F71427D1E84F3DD0314C0F7B2291E5B200AC8C7C3B925 PUSH1 0x0 DUP1 LOG4 STOP JUMPDEST PUSH1 0x40 MLOAD PUSH3 0x461BCD PUSH1 0xE5 SHL DUP2 MSTORE PUSH1 0x20 PUSH1 0x4 DUP3 ADD MSTORE PUSH1 0x3D PUSH1 0x24 DUP3 ADD MSTORE PUSH32 0x4552433732313A20617070726F76652063616C6C6572206973206E6F7420746F PUSH1 0x44 DUP3 ADD MSTORE PUSH32 0x6B656E206F776E6572206F7220617070726F76656420666F7220616C6C000000 PUSH1 0x64 DUP3 ADD MSTORE PUSH1 0x84 SWAP1 REVERT JUMPDEST SWAP1 POP PUSH1 0x0 MSTORE PUSH1 0x6 PUSH1 0x20 MSTORE PUSH1 0x40 PUSH1 0x0 KECCAK256 CALLER PUSH1 0x0 MSTORE PUSH1 0x20 MSTORE PUSH1 0xFF PUSH1 0x40 PUSH1 0x0 KECCAK256 SLOAD AND DUP5 PUSH2 0x3247 JUMP JUMPDEST PUSH1 0x40 MLOAD PUSH3 0x461BCD PUSH1 0xE5 SHL DUP2 MSTORE PUSH1 0x20 PUSH1 0x4 DUP3 ADD MSTORE PUSH1 0x21 PUSH1 0x24 DUP3 ADD MSTORE PUSH32 0x4552433732313A20617070726F76616C20746F2063757272656E74206F776E65 PUSH1 0x44 DUP3 ADD MSTORE PUSH1 0x39 PUSH1 0xF9 SHL PUSH1 0x64 DUP3 ADD MSTORE PUSH1 0x84 SWAP1 REVERT JUMPDEST CALLVALUE PUSH2 0x222 JUMPI PUSH1 0x20 CALLDATASIZE PUSH1 0x3 NOT ADD SLT PUSH2 0x222 JUMPI PUSH1 0x20 PUSH2 0x1936 PUSH1 0x4 CALLDATALOAD PUSH2 0x3B09 JUMP JUMPDEST CALLVALUE PUSH2 0x222 JUMPI PUSH1 0x0 CALLDATASIZE PUSH1 0x3 NOT ADD SLT PUSH2 0x222 JUMPI PUSH1 0x40 MLOAD PUSH1 0x0 PUSH1 0x1 DUP1 SLOAD SWAP1 PUSH2 0x33BD DUP3 PUSH2 0x3A29 JUMP JUMPDEST DUP1 DUP6 MSTORE SWAP2 DUP2 DUP2 AND SWAP1 DUP2 ISZERO PUSH2 0x1505 JUMPI POP PUSH1 0x1 EQ PUSH2 0x33E3 JUMPI PUSH2 0x3D3 DUP5 PUSH2 0x1496 DUP2 DUP7 SUB DUP3 PUSH2 0x3565 JUMP JUMPDEST PUSH1 0x0 DUP2 DUP2 MSTORE SWAP3 POP PUSH32 0xB10E2D527612073B26EECDFD717E6A320CF44B4AFAC2B0732D9FCBE2B7FA0CF6 JUMPDEST DUP3 DUP5 LT PUSH2 0x3424 JUMPI POP POP POP DUP2 ADD PUSH1 0x20 ADD PUSH2 0x1496 DUP3 PUSH2 0x1486 JUMP JUMPDEST DUP1 SLOAD PUSH1 0x20 DUP6 DUP8 ADD DUP2 ADD SWAP2 SWAP1 SWAP2 MSTORE SWAP1 SWAP4 ADD SWAP3 DUP2 ADD PUSH2 0x340C JUMP JUMPDEST CALLVALUE PUSH2 0x222 JUMPI PUSH1 0x20 CALLDATASIZE PUSH1 0x3 NOT ADD SLT PUSH2 0x222 JUMPI PUSH1 0x4 CALLDATALOAD SWAP1 PUSH4 0xFFFFFFFF PUSH1 0xE0 SHL DUP3 AND DUP1 SWAP3 SUB PUSH2 0x222 JUMPI PUSH1 0x20 SWAP2 PUSH4 0x80AC58CD PUSH1 0xE0 SHL DUP2 EQ SWAP1 DUP2 ISZERO PUSH2 0x3496 JUMPI JUMPDEST DUP2 ISZERO PUSH2 0x3485 JUMPI JUMPDEST POP ISZERO ISZERO DUP2 MSTORE RETURN JUMPDEST PUSH4 0x1FFC9A7 PUSH1 0xE0 SHL EQ SWAP1 POP DUP4 PUSH2 0x347E JUMP JUMPDEST PUSH4 0x5B5E139F PUSH1 0xE0 SHL DUP2 EQ SWAP2 POP PUSH2 0x3477 JUMP JUMPDEST SWAP2 SWAP1 DUP3 MLOAD SWAP3 DUP4 DUP3 MSTORE PUSH1 0x0 JUMPDEST DUP5 DUP2 LT PUSH2 0x34D3 JUMPI POP POP DUP3 PUSH1 0x0 PUSH1 0x20 DUP1 SWAP5 SWAP6 DUP5 ADD ADD MSTORE PUSH1 0x1F DUP1 NOT SWAP2 ADD AND ADD ADD SWAP1 JUMP JUMPDEST PUSH1 0x20 DUP2 DUP4 ADD DUP2 ADD MLOAD DUP5 DUP4 ADD DUP3 ADD MSTORE ADD PUSH2 0x34B2 JUMP JUMPDEST PUSH1 0x4 CALLDATALOAD SWAP1 PUSH1 0x1 PUSH1 0x1 PUSH1 0xA0 SHL SUB DUP3 AND DUP3 SUB PUSH2 0x222 JUMPI JUMP JUMPDEST PUSH1 0x24 CALLDATALOAD SWAP1 PUSH1 0x1 PUSH1 0x1 PUSH1 0xA0 SHL SUB DUP3 AND DUP3 SUB PUSH2 0x222 JUMPI JUMP JUMPDEST PUSH2 0x240 DUP2 ADD SWAP1 DUP2 LT PUSH1 0x1 PUSH1 0x1 PUSH1 0x40 SHL SUB DUP3 GT OR PUSH2 0xB7A JUMPI PUSH1 0x40 MSTORE JUMP JUMPDEST PUSH1 0xC0 DUP2 ADD SWAP1 DUP2 LT PUSH1 0x1 PUSH1 0x1 PUSH1 0x40 SHL SUB DUP3 GT OR PUSH2 0xB7A JUMPI PUSH1 0x40 MSTORE JUMP JUMPDEST PUSH1 0x20 DUP2 ADD SWAP1 DUP2 LT PUSH1 0x1 PUSH1 0x1 PUSH1 0x40 SHL SUB DUP3 GT OR PUSH2 0xB7A JUMPI PUSH1 0x40 MSTORE JUMP JUMPDEST SWAP1 PUSH1 0x1F DUP1 NOT SWAP2 ADD AND DUP2 ADD SWAP1 DUP2 LT PUSH1 0x1 PUSH1 0x1 PUSH1 0x40 SHL SUB DUP3 GT OR PUSH2 0xB7A JUMPI PUSH1 0x40 MSTORE JUMP JUMPDEST PUSH1 0x1 PUSH1 0x1 PUSH1 0x40 SHL SUB DUP2 GT PUSH2 0xB7A JUMPI PUSH1 0x1F ADD PUSH1 0x1F NOT AND PUSH1 0x20 ADD SWAP1 JUMP JUMPDEST SWAP3 SWAP2 SWAP3 PUSH2 0x35AD DUP3 PUSH2 0x3586 JUMP JUMPDEST SWAP2 PUSH2 0x35BB PUSH1 0x40 MLOAD SWAP4 DUP5 PUSH2 0x3565 JUMP JUMPDEST DUP3 SWAP5 DUP2 DUP5 MSTORE DUP2 DUP4 ADD GT PUSH2 0x222 JUMPI DUP3 DUP2 PUSH1 0x20 SWAP4 DUP5 PUSH1 0x0 SWAP7 ADD CALLDATACOPY ADD ADD MSTORE JUMP JUMPDEST SWAP1 DUP1 PUSH1 0x1F DUP4 ADD SLT ISZERO PUSH2 0x222 JUMPI DUP2 PUSH1 0x20 PUSH2 0x35F3 SWAP4 CALLDATALOAD SWAP2 ADD PUSH2 0x35A1 JUMP JUMPDEST SWAP1 JUMP JUMPDEST PUSH1 0x60 SWAP1 PUSH1 0x3 NOT ADD SLT PUSH2 0x222 JUMPI PUSH1 0x1 PUSH1 0x1 PUSH1 0xA0 SHL SUB SWAP1 PUSH1 0x4 CALLDATALOAD DUP3 DUP2 AND DUP2 SUB PUSH2 0x222 JUMPI SWAP2 PUSH1 0x24 CALLDATALOAD SWAP1 DUP2 AND DUP2 SUB PUSH2 0x222 JUMPI SWAP1 PUSH1 0x44 CALLDATALOAD SWAP1 JUMP JUMPDEST PUSH1 0x40 SWAP1 PUSH1 0x3 NOT ADD SLT PUSH2 0x222 JUMPI PUSH1 0x4 CALLDATALOAD SWAP1 PUSH1 0x24 CALLDATALOAD SWAP1 JUMP JUMPDEST PUSH1 0x1 PUSH1 0x1 PUSH1 0x40 SHL SUB DUP2 GT PUSH2 0xB7A JUMPI PUSH1 0x5 SHL PUSH1 0x20 ADD SWAP1 JUMP JUMPDEST SWAP1 DUP1 PUSH1 0x1F DUP4 ADD SLT ISZERO PUSH2 0x222 JUMPI DUP2 CALLDATALOAD SWAP1 PUSH2 0x3670 DUP3 PUSH2 0x3641 JUMP JUMPDEST SWAP3 PUSH2 0x367E PUSH1 0x40 MLOAD SWAP5 DUP6 PUSH2 0x3565 JUMP JUMPDEST DUP3 DUP5 MSTORE PUSH1 0x20 SWAP3 DUP4 DUP1 DUP7 ADD SWAP2 PUSH1 0x5 SHL DUP4 ADD ADD SWAP3 DUP1 DUP5 GT PUSH2 0x222 JUMPI DUP5 DUP4 ADD SWAP2 JUMPDEST DUP5 DUP4 LT PUSH2 0x36AC JUMPI POP POP POP POP POP POP SWAP1 JUMP JUMPDEST DUP3 CALLDATALOAD PUSH1 0x1 PUSH1 0x1 PUSH1 0x40 SHL SUB DUP2 GT PUSH2 0x222 JUMPI DUP7 SWAP2 PUSH2 0x36CD DUP5 DUP5 DUP1 SWAP5 DUP10 ADD ADD PUSH2 0x35D8 JUMP JUMPDEST DUP2 MSTORE ADD SWAP3 ADD SWAP2 PUSH2 0x369C JUMP JUMPDEST SWAP1 DUP2 MLOAD DUP2 MSTORE PUSH1 0x20 PUSH1 0x1 DUP1 PUSH1 0xA0 SHL SUB DUP2 DUP5 ADD MLOAD AND DUP2 DUP4 ADD MSTORE PUSH2 0x3708 PUSH1 0x40 DUP5 ADD MLOAD PUSH2 0x240 DUP1 PUSH1 0x40 DUP7 ADD MSTORE DUP5 ADD SWAP1 PUSH2 0x34A7 JUMP JUMPDEST PUSH1 0x60 DUP5 ADD MLOAD SWAP2 DUP4 DUP3 SUB PUSH1 0x60 DUP6 ADD MSTORE DUP3 MLOAD SWAP1 DUP2 DUP4 MSTORE DUP1 DUP4 ADD SWAP3 DUP2 DUP1 DUP5 PUSH1 0x5 SHL DUP4 ADD ADD SWAP6 ADD SWAP4 PUSH1 0x0 SWAP2 JUMPDEST DUP5 DUP4 LT PUSH2 0x381F JUMPI POP POP POP POP POP POP PUSH2 0x37AC PUSH2 0x3798 PUSH2 0x3786 PUSH2 0x3774 PUSH2 0x3762 PUSH2 0x37C0 SWAP6 PUSH1 0x80 DUP10 ADD MLOAD DUP9 DUP3 SUB PUSH1 0x80 DUP11 ADD MSTORE PUSH2 0x34A7 JUMP JUMPDEST PUSH1 0xA0 DUP9 ADD MLOAD DUP8 DUP3 SUB PUSH1 0xA0 DUP10 ADD MSTORE PUSH2 0x34A7 JUMP JUMPDEST PUSH1 0xC0 DUP8 ADD MLOAD DUP7 DUP3 SUB PUSH1 0xC0 DUP9 ADD MSTORE PUSH2 0x34A7 JUMP JUMPDEST PUSH1 0xE0 DUP7 ADD MLOAD DUP6 DUP3 SUB PUSH1 0xE0 DUP8 ADD MSTORE PUSH2 0x34A7 JUMP JUMPDEST PUSH2 0x100 DUP1 DUP7 ADD MLOAD SWAP1 DUP6 DUP4 SUB SWAP1 DUP7 ADD MSTORE PUSH2 0x34A7 JUMP JUMPDEST PUSH2 0x120 DUP1 DUP6 ADD MLOAD SWAP1 DUP5 DUP4 SUB SWAP1 DUP6 ADD MSTORE PUSH2 0x34A7 JUMP JUMPDEST SWAP2 PUSH2 0x140 DUP1 DUP3 ADD MLOAD SWAP1 DUP4 ADD MSTORE PUSH2 0x160 DUP1 DUP3 ADD MLOAD SWAP1 DUP4 ADD MSTORE PUSH2 0x180 DUP1 DUP3 ADD MLOAD SWAP1 DUP4 ADD MSTORE PUSH2 0x1A0 DUP1 DUP3 ADD MLOAD SWAP1 DUP4 ADD MSTORE PUSH2 0x1C0 DUP1 DUP3 ADD MLOAD SWAP1 DUP4 ADD MSTORE PUSH2 0x1E0 DUP1 DUP3 ADD MLOAD SWAP1 DUP4 ADD MSTORE PUSH2 0x200 DUP1 DUP3 ADD MLOAD ISZERO ISZERO SWAP1 DUP4 ADD MSTORE PUSH2 0x220 DUP1 SWAP2 ADD MLOAD ISZERO ISZERO SWAP2 ADD MSTORE SWAP1 JUMP JUMPDEST SWAP1 SWAP2 SWAP3 SWAP4 SWAP5 SWAP6 DUP5 DUP1 PUSH2 0x383D PUSH1 0x1 SWAP4 PUSH1 0x1F NOT DUP7 DUP3 SUB ADD DUP8 MSTORE DUP11 MLOAD PUSH2 0x34A7 JUMP JUMPDEST SWAP9 ADD SWAP4 ADD SWAP4 ADD SWAP2 SWAP5 SWAP4 SWAP3 SWAP1 PUSH2 0x3730 JUMP JUMPDEST PUSH1 0x20 DUP1 DUP3 ADD SWAP1 DUP1 DUP4 MSTORE DUP4 MLOAD DUP1 SWAP3 MSTORE PUSH1 0x40 DUP4 ADD SWAP3 DUP2 PUSH1 0x40 DUP5 PUSH1 0x5 SHL DUP4 ADD ADD SWAP6 ADD SWAP4 PUSH1 0x0 SWAP2 JUMPDEST DUP5 DUP4 LT PUSH2 0x3881 JUMPI POP POP POP POP POP POP SWAP1 JUMP JUMPDEST SWAP1 SWAP2 SWAP3 SWAP4 SWAP5 SWAP6 DUP5 DUP1 PUSH2 0x389F PUSH1 0x1 SWAP4 PUSH1 0x3F NOT DUP7 DUP3 SUB ADD DUP8 MSTORE DUP11 MLOAD PUSH2 0x36D8 JUMP JUMPDEST SWAP9 ADD SWAP4 ADD SWAP4 ADD SWAP2 SWAP5 SWAP4 SWAP3 SWAP1 PUSH2 0x3871 JUMP JUMPDEST SWAP1 DUP2 MLOAD DUP2 MSTORE PUSH1 0x20 DUP3 ADD MLOAD PUSH1 0x20 DUP3 ADD MSTORE PUSH1 0xA0 DUP1 PUSH2 0x38DA PUSH1 0x40 DUP6 ADD MLOAD PUSH1 0xC0 PUSH1 0x40 DUP7 ADD MSTORE PUSH1 0xC0 DUP6 ADD SWAP1 PUSH2 0x34A7 JUMP JUMPDEST SWAP4 PUSH1 0x1 DUP1 DUP4 SHL SUB PUSH1 0x60 DUP3 ADD MLOAD AND PUSH1 0x60 DUP6 ADD MSTORE PUSH1 0x80 DUP2 ADD MLOAD ISZERO ISZERO PUSH1 0x80 DUP6 ADD MSTORE ADD MLOAD SWAP2 ADD MSTORE SWAP1 JUMP JUMPDEST PUSH1 0x20 DUP1 DUP3 ADD SWAP1 DUP1 DUP4 MSTORE DUP4 MLOAD DUP1 SWAP3 MSTORE PUSH1 0x40 DUP4 ADD SWAP3 DUP2 PUSH1 0x40 DUP5 PUSH1 0x5 SHL DUP4 ADD ADD SWAP6 ADD SWAP4 PUSH1 0x0 SWAP2 JUMPDEST DUP5 DUP4 LT PUSH2 0x3934 JUMPI POP POP POP POP POP POP SWAP1 JUMP JUMPDEST SWAP1 SWAP2 SWAP3 SWAP4 SWAP5 SWAP6 DUP5 DUP1 PUSH2 0x3952 PUSH1 0x1 SWAP4 PUSH1 0x3F NOT DUP7 DUP3 SUB ADD DUP8 MSTORE DUP11 MLOAD PUSH2 0x38AF JUMP JUMPDEST SWAP9 ADD SWAP4 ADD SWAP4 ADD SWAP2 SWAP5 SWAP4 SWAP3 SWAP1 PUSH2 0x3924 JUMP JUMPDEST PUSH1 0x0 SLOAD PUSH1 0x1 PUSH1 0x1 PUSH1 0xA0 SHL SUB AND CALLER SUB PUSH2 0x3976 JUMPI JUMP JUMPDEST PUSH1 0x64 PUSH1 0x40 MLOAD PUSH3 0x461BCD PUSH1 0xE5 SHL DUP2 MSTORE PUSH1 0x20 PUSH1 0x4 DUP3 ADD MSTORE PUSH1 0x20 PUSH1 0x24 DUP3 ADD MSTORE PUSH32 0x4F776E61626C653A2063616C6C6572206973206E6F7420746865206F776E6572 PUSH1 0x44 DUP3 ADD MSTORE REVERT JUMPDEST ISZERO PUSH2 0x39C1 JUMPI JUMP JUMPDEST PUSH1 0x40 MLOAD PUSH3 0x461BCD PUSH1 0xE5 SHL DUP2 MSTORE PUSH1 0x20 PUSH1 0x4 DUP3 ADD MSTORE PUSH1 0x18 PUSH1 0x24 DUP3 ADD MSTORE PUSH32 0x4552433732313A20696E76616C696420746F6B656E2049440000000000000000 PUSH1 0x44 DUP3 ADD MSTORE PUSH1 0x64 SWAP1 REVERT JUMPDEST PUSH1 0x0 SWAP1 DUP2 MSTORE PUSH1 0x3 PUSH1 0x20 MSTORE PUSH1 0x40 SWAP1 KECCAK256 SLOAD PUSH1 0x1 PUSH1 0x1 PUSH1 0xA0 SHL SUB AND PUSH2 0x35F3 DUP2 ISZERO ISZERO PUSH2 0x39BA JUMP JUMPDEST SWAP1 PUSH1 0x1 DUP3 DUP2 SHR SWAP3 AND DUP1 ISZERO PUSH2 0x3A59 JUMPI JUMPDEST PUSH1 0x20 DUP4 LT EQ PUSH2 0x3A43 JUMPI JUMP JUMPDEST PUSH4 0x4E487B71 PUSH1 0xE0 SHL PUSH1 0x0 MSTORE PUSH1 0x22 PUSH1 0x4 MSTORE PUSH1 0x24 PUSH1 0x0 REVERT JUMPDEST SWAP2 PUSH1 0x7F AND SWAP2 PUSH2 0x3A38 JUMP JUMPDEST SWAP1 PUSH1 0x40 MLOAD SWAP2 DUP3 PUSH1 0x0 DUP3 SLOAD SWAP3 PUSH2 0x3A77 DUP5 PUSH2 0x3A29 JUMP JUMPDEST SWAP1 DUP2 DUP5 MSTORE PUSH1 0x1 SWAP5 DUP6 DUP2 AND SWAP1 DUP2 PUSH1 0x0 EQ PUSH2 0x3AE6 JUMPI POP PUSH1 0x1 EQ PUSH2 0x3AA3 JUMPI JUMPDEST POP POP PUSH2 0x3AA1 SWAP3 POP SUB DUP4 PUSH2 0x3565 JUMP JUMPDEST JUMP JUMPDEST SWAP1 SWAP4 SWAP2 POP PUSH1 0x0 MSTORE PUSH1 0x20 SWAP1 DUP2 PUSH1 0x0 KECCAK256 SWAP4 PUSH1 0x0 SWAP2 JUMPDEST DUP2 DUP4 LT PUSH2 0x3ACE JUMPI POP POP PUSH2 0x3AA1 SWAP4 POP DUP3 ADD ADD CODESIZE DUP1 PUSH2 0x3A93 JUMP JUMPDEST DUP6 SLOAD DUP9 DUP5 ADD DUP6 ADD MSTORE SWAP5 DUP6 ADD SWAP5 DUP8 SWAP5 POP SWAP2 DUP4 ADD SWAP2 PUSH2 0x3AB6 JUMP JUMPDEST SWAP2 POP POP PUSH2 0x3AA1 SWAP5 POP PUSH1 0x20 SWAP3 POP PUSH1 0xFF NOT AND DUP3 DUP5 ADD MSTORE ISZERO ISZERO PUSH1 0x5 SHL DUP3 ADD ADD CODESIZE DUP1 PUSH2 0x3A93 JUMP JUMPDEST PUSH1 0x0 DUP2 DUP2 MSTORE PUSH1 0x3 PUSH1 0x20 MSTORE PUSH1 0x40 SWAP1 KECCAK256 SLOAD PUSH2 0x3B2C SWAP1 PUSH1 0x1 PUSH1 0x1 PUSH1 0xA0 SHL SUB AND ISZERO ISZERO PUSH2 0x39BA JUMP JUMPDEST PUSH1 0x0 SWAP1 DUP2 MSTORE PUSH1 0x5 PUSH1 0x20 MSTORE PUSH1 0x40 SWAP1 KECCAK256 SLOAD PUSH1 0x1 PUSH1 0x1 PUSH1 0xA0 SHL SUB AND SWAP1 JUMP JUMPDEST ISZERO PUSH2 0x3B4E JUMPI JUMP JUMPDEST PUSH1 0x40 MLOAD PUSH3 0x461BCD PUSH1 0xE5 SHL DUP2 MSTORE PUSH1 0x20 PUSH1 0x4 DUP3 ADD MSTORE PUSH1 0x2D PUSH1 0x24 DUP3 ADD MSTORE PUSH32 0x4552433732313A2063616C6C6572206973206E6F7420746F6B656E206F776E65 PUSH1 0x44 DUP3 ADD MSTORE PUSH13 0x1C881BDC88185C1C1C9BDD9959 PUSH1 0x9A SHL PUSH1 0x64 DUP3 ADD MSTORE PUSH1 0x84 SWAP1 REVERT JUMPDEST PUSH1 0x80 SWAP1 PUSH1 0x20 DUP2 MSTORE PUSH1 0x32 PUSH1 0x20 DUP3 ADD MSTORE PUSH32 0x4552433732313A207472616E7366657220746F206E6F6E204552433732315265 PUSH1 0x40 DUP3 ADD MSTORE PUSH18 0x31B2B4BB32B91034B6B83632B6B2B73A32B9 PUSH1 0x71 SHL PUSH1 0x60 DUP3 ADD MSTORE ADD SWAP1 JUMP JUMPDEST ISZERO PUSH2 0x3C03 JUMPI JUMP JUMPDEST PUSH1 0x40 MLOAD PUSH3 0x461BCD PUSH1 0xE5 SHL DUP2 MSTORE DUP1 PUSH2 0x3C1C PUSH1 0x4 DUP3 ADD PUSH2 0x3BA9 JUMP JUMPDEST SUB SWAP1 REVERT JUMPDEST SWAP1 PUSH1 0x1 PUSH1 0x1 PUSH1 0xA0 SHL SUB DUP1 DUP1 PUSH2 0x3C34 DUP5 PUSH2 0x3A06 JUMP JUMPDEST AND SWAP4 AND SWAP2 DUP4 DUP4 EQ SWAP4 DUP5 ISZERO PUSH2 0x3C67 JUMPI JUMPDEST POP DUP4 ISZERO PUSH2 0x3C51 JUMPI JUMPDEST POP POP POP SWAP1 JUMP JUMPDEST PUSH2 0x3C5D SWAP2 SWAP3 SWAP4 POP PUSH2 0x3B09 JUMP JUMPDEST AND EQ CODESIZE DUP1 DUP1 PUSH2 0x3C4B JUMP JUMPDEST SWAP1 SWAP4 POP PUSH1 0x0 MSTORE PUSH1 0x6 PUSH1 0x20 MSTORE PUSH1 0x40 PUSH1 0x0 KECCAK256 DUP3 PUSH1 0x0 MSTORE PUSH1 0x20 MSTORE PUSH1 0xFF PUSH1 0x40 PUSH1 0x0 KECCAK256 SLOAD AND SWAP3 CODESIZE PUSH2 0x3C43 JUMP JUMPDEST ISZERO PUSH2 0x3C95 JUMPI JUMP JUMPDEST PUSH1 0x40 MLOAD PUSH3 0x461BCD PUSH1 0xE5 SHL DUP2 MSTORE PUSH1 0x20 PUSH1 0x4 DUP3 ADD MSTORE PUSH1 0x25 PUSH1 0x24 DUP3 ADD MSTORE PUSH32 0x4552433732313A207472616E736665722066726F6D20696E636F727265637420 PUSH1 0x44 DUP3 ADD MSTORE PUSH5 0x37BBB732B9 PUSH1 0xD9 SHL PUSH1 0x64 DUP3 ADD MSTORE PUSH1 0x84 SWAP1 REVERT JUMPDEST SWAP1 PUSH2 0x3D10 SWAP2 PUSH2 0x3CF6 DUP5 PUSH2 0x3A06 JUMP JUMPDEST PUSH1 0x1 PUSH1 0x1 PUSH1 0xA0 SHL SUB SWAP4 SWAP2 DUP5 AND SWAP3 DUP5 SWAP3 SWAP1 SWAP2 DUP4 AND DUP5 EQ PUSH2 0x3C8E JUMP JUMPDEST AND SWAP2 DUP3 ISZERO PUSH2 0x3DA8 JUMPI DUP2 PUSH2 0x3D2D SWAP2 PUSH2 0x3D26 DUP7 PUSH2 0x3A06 JUMP JUMPDEST AND EQ PUSH2 0x3C8E JUMP JUMPDEST PUSH32 0xDDF252AD1BE2C89B69C2B068FC378DAA952BA7F163C4A11628F55A4DF523B3EF PUSH1 0x0 DUP5 DUP2 MSTORE PUSH1 0x5 PUSH1 0x20 MSTORE PUSH1 0x40 DUP2 KECCAK256 PUSH1 0x1 PUSH1 0x1 PUSH1 0x60 SHL SUB PUSH1 0xA0 SHL SWAP1 DUP2 DUP2 SLOAD AND SWAP1 SSTORE DUP4 DUP3 MSTORE PUSH1 0x4 PUSH1 0x20 MSTORE PUSH1 0x40 DUP3 KECCAK256 PUSH1 0x0 NOT DUP2 SLOAD ADD SWAP1 SSTORE DUP5 DUP3 MSTORE PUSH1 0x40 DUP3 KECCAK256 PUSH1 0x1 DUP2 SLOAD ADD SWAP1 SSTORE DUP6 DUP3 MSTORE PUSH1 0x3 PUSH1 0x20 MSTORE DUP5 PUSH1 0x40 DUP4 KECCAK256 SWAP2 DUP3 SLOAD AND OR SWAP1 SSTORE DUP1 LOG4 JUMP JUMPDEST PUSH1 0x40 MLOAD PUSH3 0x461BCD PUSH1 0xE5 SHL DUP2 MSTORE PUSH1 0x20 PUSH1 0x4 DUP3 ADD MSTORE PUSH1 0x24 DUP1 DUP3 ADD MSTORE PUSH32 0x4552433732313A207472616E7366657220746F20746865207A65726F20616464 PUSH1 0x44 DUP3 ADD MSTORE PUSH4 0x72657373 PUSH1 0xE0 SHL PUSH1 0x64 DUP3 ADD MSTORE PUSH1 0x84 SWAP1 REVERT JUMPDEST RETURNDATASIZE ISZERO PUSH2 0x3E24 JUMPI RETURNDATASIZE SWAP1 PUSH2 0x3E0A DUP3 PUSH2 0x3586 JUMP JUMPDEST SWAP2 PUSH2 0x3E18 PUSH1 0x40 MLOAD SWAP4 DUP5 PUSH2 0x3565 JUMP JUMPDEST DUP3 MSTORE RETURNDATASIZE PUSH1 0x0 PUSH1 0x20 DUP5 ADD RETURNDATACOPY JUMP JUMPDEST PUSH1 0x60 SWAP1 JUMP JUMPDEST SWAP1 SWAP2 PUSH1 0x0 SWAP2 DUP1 EXTCODESIZE ISZERO PUSH2 0x3F1B JUMPI PUSH2 0x3E74 PUSH1 0x20 SWAP2 DUP5 SWAP4 PUSH1 0x40 MLOAD SWAP5 DUP6 DUP1 SWAP5 DUP2 SWAP4 PUSH4 0xA85BD01 PUSH1 0xE1 SHL SWAP11 DUP12 DUP5 MSTORE CALLER PUSH1 0x4 DUP6 ADD MSTORE DUP5 PUSH1 0x24 DUP6 ADD MSTORE PUSH1 0x44 DUP5 ADD MSTORE PUSH1 0x80 PUSH1 0x64 DUP5 ADD MSTORE PUSH1 0x84 DUP4 ADD SWAP1 PUSH2 0x34A7 JUMP JUMPDEST SUB SWAP3 PUSH1 0x1 PUSH1 0x1 PUSH1 0xA0 SHL SUB AND GAS CALL SWAP1 DUP3 SWAP1 DUP3 PUSH2 0x3ECC JUMPI JUMPDEST POP POP PUSH2 0x3EBE JUMPI PUSH2 0x3E98 PUSH2 0x3DF9 JUMP JUMPDEST DUP1 MLOAD SWAP1 DUP2 PUSH2 0x3EB9 JUMPI PUSH1 0x40 MLOAD PUSH3 0x461BCD PUSH1 0xE5 SHL DUP2 MSTORE DUP1 PUSH2 0x3C1C PUSH1 0x4 DUP3 ADD PUSH2 0x3BA9 JUMP JUMPDEST PUSH1 0x20 ADD REVERT JUMPDEST PUSH1 0x1 PUSH1 0x1 PUSH1 0xE0 SHL SUB NOT AND EQ SWAP1 JUMP JUMPDEST SWAP1 SWAP2 SWAP3 POP PUSH1 0x20 DUP2 RETURNDATASIZE DUP3 GT PUSH2 0x3F13 JUMPI JUMPDEST DUP2 PUSH2 0x3EE8 PUSH1 0x20 SWAP4 DUP4 PUSH2 0x3565 JUMP JUMPDEST DUP2 ADD SUB SLT PUSH2 0x3F0F JUMPI MLOAD SWAP1 PUSH1 0x1 PUSH1 0x1 PUSH1 0xE0 SHL SUB NOT DUP3 AND DUP3 SUB PUSH2 0x3F0C JUMPI POP SWAP1 CODESIZE DUP1 PUSH2 0x3E8A JUMP JUMPDEST DUP1 REVERT JUMPDEST POP DUP1 REVERT JUMPDEST RETURNDATASIZE SWAP2 POP PUSH2 0x3EDB JUMP JUMPDEST POP POP POP POP PUSH1 0x1 SWAP1 JUMP JUMPDEST SWAP2 SWAP3 PUSH1 0x0 SWAP3 SWAP2 SWAP1 DUP2 EXTCODESIZE ISZERO PUSH2 0x3F95 JUMPI PUSH1 0x20 SWAP2 PUSH2 0x3F7A SWAP2 DUP6 PUSH1 0x40 MLOAD SWAP6 DUP7 DUP1 SWAP6 DUP2 SWAP5 PUSH4 0xA85BD01 PUSH1 0xE1 SHL SWAP12 DUP13 DUP5 MSTORE CALLER PUSH1 0x4 DUP6 ADD MSTORE PUSH1 0x1 DUP1 PUSH1 0xA0 SHL SUB DUP1 SWAP6 AND PUSH1 0x24 DUP6 ADD MSTORE PUSH1 0x44 DUP5 ADD MSTORE PUSH1 0x80 PUSH1 0x64 DUP5 ADD MSTORE PUSH1 0x84 DUP4 ADD SWAP1 PUSH2 0x34A7 JUMP JUMPDEST SUB SWAP4 AND GAS CALL SWAP1 DUP3 SWAP1 DUP3 PUSH2 0x3ECC JUMPI POP POP PUSH2 0x3EBE JUMPI PUSH2 0x3E98 PUSH2 0x3DF9 JUMP JUMPDEST POP POP POP POP POP PUSH1 0x1 SWAP1 JUMP JUMPDEST ISZERO PUSH2 0x3FA6 JUMPI JUMP JUMPDEST PUSH1 0x40 MLOAD PUSH3 0x461BCD PUSH1 0xE5 SHL DUP2 MSTORE PUSH1 0x20 PUSH1 0x4 DUP3 ADD MSTORE PUSH1 0x14 PUSH1 0x24 DUP3 ADD MSTORE PUSH20 0x4E616D652063616E6E6F7420626520656D707479 PUSH1 0x60 SHL PUSH1 0x44 DUP3 ADD MSTORE PUSH1 0x64 SWAP1 REVERT JUMPDEST ISZERO PUSH2 0x3FE9 JUMPI JUMP JUMPDEST PUSH1 0x40 MLOAD PUSH3 0x461BCD PUSH1 0xE5 SHL DUP2 MSTORE PUSH1 0x20 PUSH1 0x4 DUP3 ADD MSTORE PUSH1 0x1E PUSH1 0x24 DUP3 ADD MSTORE PUSH32 0x4174206C65617374206F6E6520696D6167652069732072657175697265640000 PUSH1 0x44 DUP3 ADD MSTORE PUSH1 0x64 SWAP1 REVERT JUMPDEST ISZERO PUSH2 0x4035 JUMPI JUMP JUMPDEST PUSH1 0x40 MLOAD PUSH3 0x461BCD PUSH1 0xE5 SHL DUP2 MSTORE PUSH1 0x20 PUSH1 0x4 DUP3 ADD MSTORE PUSH1 0x19 PUSH1 0x24 DUP3 ADD MSTORE PUSH32 0x4D6178696D756D20313020696D6167657320616C6C6F77656400000000000000 PUSH1 0x44 DUP3 ADD MSTORE PUSH1 0x64 SWAP1 REVERT JUMPDEST ISZERO PUSH2 0x4081 JUMPI JUMP JUMPDEST PUSH1 0x40 MLOAD PUSH3 0x461BCD PUSH1 0xE5 SHL DUP2 MSTORE PUSH1 0x20 PUSH1 0x4 DUP3 ADD MSTORE PUSH1 0x18 PUSH1 0x24 DUP3 ADD MSTORE PUSH32 0x43617465676F72792063616E6E6F7420626520656D7074790000000000000000 PUSH1 0x44 DUP3 ADD MSTORE PUSH1 0x64 SWAP1 REVERT JUMPDEST ISZERO PUSH2 0x40CD JUMPI JUMP JUMPDEST PUSH1 0x40 MLOAD PUSH3 0x461BCD PUSH1 0xE5 SHL DUP2 MSTORE PUSH1 0x20 PUSH1 0x4 DUP3 ADD MSTORE PUSH1 0x1B PUSH1 0x24 DUP3 ADD MSTORE PUSH32 0x4465736372697074696F6E2063616E6E6F7420626520656D7074790000000000 PUSH1 0x44 DUP3 ADD MSTORE PUSH1 0x64 SWAP1 REVERT JUMPDEST ISZERO PUSH2 0x4119 JUMPI JUMP JUMPDEST PUSH1 0x40 MLOAD PUSH3 0x461BCD PUSH1 0xE5 SHL DUP2 MSTORE PUSH1 0x20 PUSH1 0x4 DUP3 ADD MSTORE PUSH1 0x18 PUSH1 0x24 DUP3 ADD MSTORE PUSH32 0x4C6F636174696F6E2063616E6E6F7420626520656D7074790000000000000000 PUSH1 0x44 DUP3 ADD MSTORE PUSH1 0x64 SWAP1 REVERT JUMPDEST ISZERO PUSH2 0x4165 JUMPI JUMP JUMPDEST PUSH1 0x40 MLOAD PUSH3 0x461BCD PUSH1 0xE5 SHL DUP2 MSTORE PUSH1 0x20 PUSH1 0x4 DUP3 ADD MSTORE PUSH1 0x14 PUSH1 0x24 DUP3 ADD MSTORE PUSH20 0x436974792063616E6E6F7420626520656D707479 PUSH1 0x60 SHL PUSH1 0x44 DUP3 ADD MSTORE PUSH1 0x64 SWAP1 REVERT JUMPDEST ISZERO PUSH2 0x41A8 JUMPI JUMP JUMPDEST PUSH1 0x40 MLOAD PUSH3 0x461BCD PUSH1 0xE5 SHL DUP2 MSTORE PUSH1 0x20 PUSH1 0x4 DUP3 ADD MSTORE PUSH1 0x15 PUSH1 0x24 DUP3 ADD MSTORE PUSH21 0x53746174652063616E6E6F7420626520656D707479 PUSH1 0x58 SHL PUSH1 0x44 DUP3 ADD MSTORE PUSH1 0x64 SWAP1 REVERT JUMPDEST ISZERO PUSH2 0x41EC JUMPI JUMP JUMPDEST PUSH1 0x40 MLOAD PUSH3 0x461BCD PUSH1 0xE5 SHL DUP2 MSTORE PUSH1 0x20 PUSH1 0x4 DUP3 ADD MSTORE PUSH1 0x17 PUSH1 0x24 DUP3 ADD MSTORE PUSH32 0x436F756E7472792063616E6E6F7420626520656D707479000000000000000000 PUSH1 0x44 DUP3 ADD MSTORE PUSH1 0x64 SWAP1 REVERT JUMPDEST ISZERO PUSH2 0x4238 JUMPI JUMP JUMPDEST PUSH1 0x40 MLOAD PUSH3 0x461BCD PUSH1 0xE5 SHL DUP2 MSTORE PUSH1 0x20 PUSH1 0x4 DUP3 ADD MSTORE PUSH1 0x18 PUSH1 0x24 DUP3 ADD MSTORE PUSH32 0x5A697020436F64652063616E6E6F7420626520656D7074790000000000000000 PUSH1 0x44 DUP3 ADD MSTORE PUSH1 0x64 SWAP1 REVERT JUMPDEST ISZERO PUSH2 0x4284 JUMPI JUMP JUMPDEST PUSH1 0x40 MLOAD PUSH3 0x461BCD PUSH1 0xE5 SHL DUP2 MSTORE PUSH1 0x20 PUSH1 0x4 DUP3 ADD MSTORE PUSH1 0x1F PUSH1 0x24 DUP3 ADD MSTORE PUSH32 0x426564726F6F6D2063616E6E6F74206265207A65726F206F7220656D70747900 PUSH1 0x44 DUP3 ADD MSTORE PUSH1 0x64 SWAP1 REVERT JUMPDEST ISZERO PUSH2 0x42D0 JUMPI JUMP JUMPDEST PUSH1 0x64 PUSH1 0x40 MLOAD PUSH3 0x461BCD PUSH1 0xE5 SHL DUP2 MSTORE PUSH1 0x20 PUSH1 0x4 DUP3 ADD MSTORE PUSH1 0x20 PUSH1 0x24 DUP3 ADD MSTORE PUSH32 0x42617468726F6F6D2063616E6E6F74206265207A65726F206F7220656D707479 PUSH1 0x44 DUP3 ADD MSTORE REVERT JUMPDEST ISZERO PUSH2 0x431B JUMPI JUMP JUMPDEST PUSH1 0x40 MLOAD PUSH3 0x461BCD PUSH1 0xE5 SHL DUP2 MSTORE PUSH1 0x20 PUSH1 0x4 DUP3 ADD MSTORE PUSH1 0x22 PUSH1 0x24 DUP3 ADD MSTORE PUSH32 0x59656172206275696C742063616E6E6F74206265207A65726F206F7220656D70 PUSH1 0x44 DUP3 ADD MSTORE PUSH2 0x7479 PUSH1 0xF0 SHL PUSH1 0x64 DUP3 ADD MSTORE PUSH1 0x84 SWAP1 REVERT JUMPDEST ISZERO PUSH2 0x4372 JUMPI JUMP JUMPDEST PUSH1 0x40 MLOAD PUSH3 0x461BCD PUSH1 0xE5 SHL DUP2 MSTORE PUSH1 0x20 PUSH1 0x4 DUP3 ADD MSTORE PUSH1 0x22 PUSH1 0x24 DUP3 ADD MSTORE PUSH32 0x486F7573652073697A652063616E6E6F74206265207A65726F206F7220656D70 PUSH1 0x44 DUP3 ADD MSTORE PUSH2 0x7479 PUSH1 0xF0 SHL PUSH1 0x64 DUP3 ADD MSTORE PUSH1 0x84 SWAP1 REVERT JUMPDEST ISZERO PUSH2 0x43C9 JUMPI JUMP JUMPDEST PUSH1 0x40 MLOAD PUSH3 0x461BCD PUSH1 0xE5 SHL DUP2 MSTORE PUSH1 0x20 PUSH1 0x4 DUP3 ADD MSTORE PUSH1 0x1F PUSH1 0x24 DUP3 ADD MSTORE PUSH32 0x5072696365206D7573742062652067726561746572207468616E207A65726F00 PUSH1 0x44 DUP3 ADD MSTORE PUSH1 0x64 SWAP1 REVERT JUMPDEST PUSH1 0x0 NOT DUP2 EQ PUSH2 0x182E JUMPI PUSH1 0x1 ADD SWAP1 JUMP JUMPDEST DUP1 MLOAD DUP3 LT ISZERO PUSH2 0x1844 JUMPI PUSH1 0x20 SWAP2 PUSH1 0x5 SHL ADD ADD SWAP1 JUMP JUMPDEST ISZERO PUSH2 0x4438 JUMPI JUMP JUMPDEST PUSH1 0x40 MLOAD PUSH3 0x461BCD PUSH1 0xE5 SHL DUP2 MSTORE PUSH1 0x20 PUSH1 0x4 DUP3 ADD MSTORE PUSH1 0x19 PUSH1 0x24 DUP3 ADD MSTORE PUSH32 0x496D6167652055524C2063616E6E6F7420626520656D70747900000000000000 PUSH1 0x44 DUP3 ADD MSTORE PUSH1 0x64 SWAP1 REVERT JUMPDEST PUSH1 0x40 MLOAD SWAP1 PUSH2 0x448A DUP3 PUSH2 0x3513 JUMP JUMPDEST DUP2 PUSH2 0x220 PUSH1 0x0 SWAP2 DUP3 DUP2 MSTORE DUP3 PUSH1 0x20 DUP3 ADD MSTORE PUSH1 0x60 DUP1 PUSH1 0x40 DUP4 ADD MSTORE DUP1 DUP1 DUP4 ADD MSTORE DUP1 PUSH1 0x80 DUP4 ADD MSTORE DUP1 PUSH1 0xA0 DUP4 ADD MSTORE DUP1 PUSH1 0xC0 DUP4 ADD MSTORE DUP1 PUSH1 0xE0 DUP4 ADD MSTORE DUP1 PUSH2 0x100 DUP4 ADD MSTORE PUSH2 0x120 DUP3 ADD MSTORE DUP3 PUSH2 0x140 DUP3 ADD MSTORE DUP3 PUSH2 0x160 DUP3 ADD MSTORE DUP3 PUSH2 0x180 DUP3 ADD MSTORE DUP3 PUSH2 0x1A0 DUP3 ADD MSTORE DUP3 PUSH2 0x1C0 DUP3 ADD MSTORE DUP3 PUSH2 0x1E0 DUP3 ADD MSTORE DUP3 PUSH2 0x200 DUP3 ADD MSTORE ADD MSTORE JUMP JUMPDEST DUP2 DUP2 LT PUSH2 0x450C JUMPI POP POP JUMP JUMPDEST PUSH1 0x0 DUP2 SSTORE PUSH1 0x1 ADD PUSH2 0x4501 JUMP JUMPDEST ISZERO PUSH2 0x451F JUMPI JUMP JUMPDEST PUSH1 0x40 MLOAD PUSH3 0x461BCD PUSH1 0xE5 SHL DUP2 MSTORE PUSH1 0x20 PUSH1 0x4 DUP3 ADD MSTORE PUSH1 0x1C PUSH1 0x24 DUP3 ADD MSTORE PUSH32 0x4552433732313A20746F6B656E20616C7265616479206D696E74656400000000 PUSH1 0x44 DUP3 ADD MSTORE PUSH1 0x64 SWAP1 REVERT JUMPDEST ISZERO PUSH2 0x456B JUMPI JUMP JUMPDEST PUSH1 0x40 MLOAD PUSH3 0x461BCD PUSH1 0xE5 SHL DUP2 MSTORE PUSH1 0x20 PUSH1 0x4 DUP3 ADD MSTORE PUSH1 0x17 PUSH1 0x24 DUP3 ADD MSTORE PUSH32 0x50726F706572747920646F6573206E6F74206578697374000000000000000000 PUSH1 0x44 DUP3 ADD MSTORE PUSH1 0x64 SWAP1 REVERT JUMPDEST ISZERO PUSH2 0x45B7 JUMPI JUMP JUMPDEST PUSH1 0x40 MLOAD PUSH3 0x461BCD PUSH1 0xE5 SHL DUP2 MSTORE PUSH1 0x20 PUSH1 0x4 DUP3 ADD MSTORE PUSH1 0x19 PUSH1 0x24 DUP3 ADD MSTORE PUSH32 0x50726F706572747920686173206265656E2064656C6574656400000000000000 PUSH1 0x44 DUP3 ADD MSTORE PUSH1 0x64 SWAP1 REVERT JUMPDEST SWAP1 PUSH1 0x40 MLOAD PUSH2 0x4609 DUP2 PUSH2 0x3513 JUMP JUMPDEST DUP1 SWAP3 DUP1 SLOAD DUP3 MSTORE PUSH1 0x1 DUP1 DUP1 PUSH1 0xA0 SHL SUB DUP2 DUP4 ADD SLOAD AND SWAP1 PUSH1 0x20 SWAP2 DUP3 DUP6 ADD MSTORE PUSH2 0x4630 PUSH1 0x2 DUP5 ADD PUSH2 0x3A63 JUMP JUMPDEST PUSH1 0x40 DUP6 ADD MSTORE PUSH1 0x3 DUP4 ADD DUP1 SLOAD SWAP1 PUSH2 0x4645 DUP3 PUSH2 0x3641 JUMP JUMPDEST SWAP4 PUSH2 0x4653 PUSH1 0x40 MLOAD SWAP6 DUP7 PUSH2 0x3565 JUMP JUMPDEST DUP3 DUP6 MSTORE PUSH1 0x0 SWAP2 DUP3 MSTORE DUP1 DUP3 KECCAK256 DUP2 DUP7 ADD JUMPDEST DUP5 DUP5 LT PUSH2 0x473F JUMPI POP POP POP POP POP POP PUSH1 0x10 PUSH2 0x220 SWAP3 PUSH1 0xFF SWAP3 PUSH1 0x60 DUP7 ADD MSTORE PUSH2 0x4689 PUSH1 0x4 DUP3 ADD PUSH2 0x3A63 JUMP JUMPDEST PUSH1 0x80 DUP7 ADD MSTORE PUSH2 0x469A PUSH1 0x5 DUP3 ADD PUSH2 0x3A63 JUMP JUMPDEST PUSH1 0xA0 DUP7 ADD MSTORE PUSH2 0x46AB PUSH1 0x6 DUP3 ADD PUSH2 0x3A63 JUMP JUMPDEST PUSH1 0xC0 DUP7 ADD MSTORE PUSH2 0x46BC PUSH1 0x7 DUP3 ADD PUSH2 0x3A63 JUMP JUMPDEST PUSH1 0xE0 DUP7 ADD MSTORE PUSH2 0x46CD PUSH1 0x8 DUP3 ADD PUSH2 0x3A63 JUMP JUMPDEST PUSH2 0x100 DUP7 ADD MSTORE PUSH2 0x46DF PUSH1 0x9 DUP3 ADD PUSH2 0x3A63 JUMP JUMPDEST PUSH2 0x120 DUP7 ADD MSTORE PUSH1 0xA DUP2 ADD SLOAD PUSH2 0x140 DUP7 ADD MSTORE PUSH1 0xB DUP2 ADD SLOAD PUSH2 0x160 DUP7 ADD MSTORE PUSH1 0xC DUP2 ADD SLOAD PUSH2 0x180 DUP7 ADD MSTORE PUSH1 0xD DUP2 ADD SLOAD PUSH2 0x1A0 DUP7 ADD MSTORE PUSH1 0xE DUP2 ADD SLOAD PUSH2 0x1C0 DUP7 ADD MSTORE PUSH1 0xF DUP2 ADD SLOAD PUSH2 0x1E0 DUP7 ADD MSTORE ADD SLOAD DUP2 DUP2 AND ISZERO ISZERO PUSH2 0x200 DUP6 ADD MSTORE PUSH1 0x8 SHR AND ISZERO ISZERO SWAP2 ADD MSTORE JUMP JUMPDEST DUP6 DUP4 DUP2 SWAP3 PUSH2 0x474C DUP6 PUSH2 0x3A63 JUMP JUMPDEST DUP2 MSTORE ADD SWAP3 ADD SWAP4 ADD SWAP3 SWAP1 PUSH2 0x4662 JUMP JUMPDEST SWAP1 PUSH2 0x4764 DUP3 PUSH2 0x3641 JUMP JUMPDEST PUSH2 0x4771 PUSH1 0x40 MLOAD SWAP2 DUP3 PUSH2 0x3565 JUMP JUMPDEST DUP3 DUP2 MSTORE DUP1 SWAP3 PUSH2 0x4782 PUSH1 0x1F NOT SWAP2 PUSH2 0x3641 JUMP JUMPDEST ADD SWAP1 PUSH1 0x0 JUMPDEST DUP3 DUP2 LT PUSH2 0x4793 JUMPI POP POP POP JUMP JUMPDEST PUSH1 0x20 SWAP1 PUSH2 0x479E PUSH2 0x447D JUMP JUMPDEST DUP3 DUP3 DUP6 ADD ADD MSTORE ADD PUSH2 0x4787 JUMP JUMPDEST PUSH1 0x0 DUP1 DUP1 DUP1 SWAP5 DUP2 SWAP5 PUSH1 0x1 DUP1 PUSH1 0xA0 SHL SUB AND GAS CALL PUSH2 0x47C4 PUSH2 0x3DF9 JUMP JUMPDEST POP ISZERO PUSH2 0x3F0C JUMPI POP JUMP JUMPDEST ISZERO PUSH2 0x47D4 JUMPI JUMP JUMPDEST PUSH1 0x40 MLOAD PUSH3 0x461BCD PUSH1 0xE5 SHL DUP2 MSTORE PUSH1 0x20 PUSH1 0x4 DUP3 ADD MSTORE PUSH1 0x18 PUSH1 0x24 DUP3 ADD MSTORE PUSH32 0x526576696577206D757374206E6F7420626520656D7074790000000000000000 PUSH1 0x44 DUP3 ADD MSTORE PUSH1 0x64 SWAP1 REVERT JUMPDEST ISZERO PUSH2 0x4820 JUMPI JUMP JUMPDEST PUSH1 0x40 MLOAD PUSH3 0x461BCD PUSH1 0xE5 SHL DUP2 MSTORE PUSH1 0x20 PUSH1 0x4 DUP3 ADD MSTORE PUSH1 0x12 PUSH1 0x24 DUP3 ADD MSTORE PUSH18 0x52657669657720697320746F6F206C6F6E67 PUSH1 0x70 SHL PUSH1 0x44 DUP3 ADD MSTORE PUSH1 0x64 SWAP1 REVERT JUMPDEST PUSH1 0x40 MLOAD SWAP1 PUSH2 0x4867 DUP3 PUSH2 0x352F JUMP JUMPDEST PUSH1 0x0 PUSH1 0xA0 DUP4 DUP3 DUP2 MSTORE DUP3 PUSH1 0x20 DUP3 ADD MSTORE PUSH1 0x60 PUSH1 0x40 DUP3 ADD MSTORE DUP3 PUSH1 0x60 DUP3 ADD MSTORE DUP3 PUSH1 0x80 DUP3 ADD MSTORE ADD MSTORE JUMP JUMPDEST DUP1 SLOAD DUP3 LT ISZERO PUSH2 0x1844 JUMPI PUSH1 0x0 MSTORE PUSH1 0x5 PUSH1 0x20 PUSH1 0x0 KECCAK256 SWAP2 MUL ADD SWAP1 PUSH1 0x0 SWAP1 JUMP JUMPDEST ISZERO PUSH2 0x48AF JUMPI JUMP JUMPDEST PUSH1 0x40 MLOAD PUSH3 0x461BCD PUSH1 0xE5 SHL DUP2 MSTORE PUSH1 0x20 PUSH1 0x4 DUP3 ADD MSTORE PUSH1 0x15 PUSH1 0x24 DUP3 ADD MSTORE PUSH21 0x14995D9A595DC8191BD95CC81B9BDD08195E1A5CDD PUSH1 0x5A SHL PUSH1 0x44 DUP3 ADD MSTORE PUSH1 0x64 SWAP1 REVERT JUMPDEST ISZERO PUSH2 0x48F3 JUMPI JUMP JUMPDEST PUSH1 0x40 MLOAD PUSH3 0x461BCD PUSH1 0xE5 SHL DUP2 MSTORE PUSH1 0x20 PUSH1 0x4 DUP3 ADD MSTORE PUSH1 0x22 PUSH1 0x24 DUP3 ADD MSTORE PUSH32 0x526576696577206E6F7420666F756E6420666F7220746869732070726F706572 PUSH1 0x44 DUP3 ADD MSTORE PUSH2 0x7479 PUSH1 0xF0 SHL PUSH1 0x64 DUP3 ADD MSTORE PUSH1 0x84 SWAP1 REVERT JUMPDEST ISZERO PUSH2 0x494A JUMPI JUMP JUMPDEST PUSH1 0x40 MLOAD PUSH3 0x461BCD PUSH1 0xE5 SHL DUP2 MSTORE PUSH1 0x20 PUSH1 0x4 DUP3 ADD MSTORE PUSH1 0x17 PUSH1 0x24 DUP3 ADD MSTORE PUSH32 0x52657669657720686173206265656E2064656C65746564000000000000000000 PUSH1 0x44 DUP3 ADD MSTORE PUSH1 0x64 SWAP1 REVERT JUMPDEST SWAP1 PUSH2 0x4999 DUP3 PUSH2 0x3641 JUMP JUMPDEST PUSH2 0x49A6 PUSH1 0x40 MLOAD SWAP2 DUP3 PUSH2 0x3565 JUMP JUMPDEST DUP3 DUP2 MSTORE DUP1 SWAP3 PUSH2 0x49B7 PUSH1 0x1F NOT SWAP2 PUSH2 0x3641 JUMP JUMPDEST ADD SWAP1 PUSH1 0x0 JUMPDEST DUP3 DUP2 LT PUSH2 0x49C8 JUMPI POP POP POP JUMP JUMPDEST PUSH1 0x20 SWAP1 PUSH2 0x49D3 PUSH2 0x485A JUMP JUMPDEST DUP3 DUP3 DUP6 ADD ADD MSTORE ADD PUSH2 0x49BC JUMP JUMPDEST SWAP1 PUSH1 0x40 MLOAD PUSH2 0x49EC DUP2 PUSH2 0x352F JUMP JUMPDEST PUSH1 0xA0 PUSH1 0x4 DUP3 SWAP5 DUP1 SLOAD DUP5 MSTORE PUSH1 0x1 DUP2 ADD SLOAD PUSH1 0x20 DUP6 ADD MSTORE PUSH2 0x4A0C PUSH1 0x2 DUP3 ADD PUSH2 0x3A63 JUMP JUMPDEST PUSH1 0x40 DUP6 ADD MSTORE PUSH1 0xFF PUSH1 0x3 DUP3 ADD SLOAD PUSH1 0x1 DUP1 DUP7 SHL SUB DUP2 AND PUSH1 0x60 DUP8 ADD MSTORE DUP5 SHR AND ISZERO ISZERO PUSH1 0x80 DUP6 ADD MSTORE ADD SLOAD SWAP2 ADD MSTORE JUMP INVALID LOG2 PUSH5 0x6970667358 0x22 SLT KECCAK256 DUP11 0xEB 0xC5 DUP2 JUMPI SHR 0xD5 0xED 0x28 DUP14 0xB8 0xD8 ADD PC SWAP14 0x23 BASEFEE SHL 0xC0 JUMPDEST PUSH6 0x50C75190E09C SWAP13 CALLVALUE PUSH22 0x6A664736F6C63430008110033000000000000000000 "},"methodIdentifiers":{"approve(address,uint256)":"095ea7b3","balanceOf(address)":"70a08231","buyProperty(uint256)":"6fa830a6","createProperty(string,string[],string,string,string,string,string,string,uint256,uint256,uint256,uint256,uint256,uint256)":"31563b94","createReview(uint256,string)":"2c0e839b","deleteProperty(uint256)":"170140f1","deleteReview(uint256,uint256)":"24d41a03","getAllProperties()":"3d51402c","getApproved(uint256)":"081812fc","getMyProperties()":"397f7952","getMyReviews(uint256)":"f15bfa68","getProperty(uint256)":"32665ffb","getReview(uint256,uint256)":"dfa505ed","getReviews(uint256)":"9d4a2255","isApprovedForAll(address,address)":"e985e9c5","name()":"06fdde03","owner()":"8da5cb5b","ownerOf(uint256)":"6352211e","renounceOwnership()":"715018a6","safeTransferFrom(address,address,uint256)":"42842e0e","safeTransferFrom(address,address,uint256,bytes)":"b88d4fde","setApprovalForAll(address,bool)":"a22cb465","supportsInterface(bytes4)":"01ffc9a7","symbol()":"95d89b41","tokenURI(uint256)":"c87b56dd","transferFrom(address,address,uint256)":"23b872dd","transferOwnership(address)":"f2fde38b","updateProperty(uint256,string,string[],string,string,string,string,string,string,uint256,uint256,uint256,uint256,uint256,uint256)":"caf7844d","updateReview(uint256,uint256,string)":"175a3b41"}}}}}