{
  "_format": "hh-sol-artifact-1",
  "contractName": "HemProp",
  "sourceName": "contracts/HemProp.sol",
  "abi": [
    {
      "inputs": [
        {
          "internalType": "uint256",
          "name": "_pct",
          "type": "uint256"
        }
      ],
      "stateMutability": "nonpayable",
      "type": "constructor"
    },
    {
      "anonymous": false,
      "inputs": [
        {
          "indexed": true,
          "internalType": "address",
          "name": "owner",
          "type": "address"
        },
        {
          "indexed": true,
          "internalType": "address",
          "name": "approved",
          "type": "address"
        },
        {
          "indexed": true,
          "internalType": "uint256",
          "name": "tokenId",
          "type": "uint256"
        }
      ],
      "name": "Approval",
      "type": "event"
    },
    {
      "anonymous": false,
      "inputs": [
        {
          "indexed": true,
          "internalType": "address",
          "name": "owner",
          "type": "address"
        },
        {
          "indexed": true,
          "internalType": "address",
          "name": "operator",
          "type": "address"
        },
        {
          "indexed": false,
          "internalType": "bool",
          "name": "approved",
          "type": "bool"
        }
      ],
      "name": "ApprovalForAll",
      "type": "event"
    },
    {
      "anonymous": false,
      "inputs": [
        {
          "indexed": true,
          "internalType": "address",
          "name": "previousOwner",
          "type": "address"
        },
        {
          "indexed": true,
          "internalType": "address",
          "name": "newOwner",
          "type": "address"
        }
      ],
      "name": "OwnershipTransferred",
      "type": "event"
    },
    {
      "anonymous": false,
      "inputs": [
        {
          "indexed": true,
          "internalType": "uint256",
          "name": "id",
          "type": "uint256"
        },
        {
          "indexed": true,
          "internalType": "address",
          "name": "owner",
          "type": "address"
        },
        {
          "indexed": false,
          "internalType": "uint256",
          "name": "price",
          "type": "uint256"
        }
      ],
      "name": "PropertyCreated",
      "type": "event"
    },
    {
      "anonymous": false,
      "inputs": [
        {
          "indexed": true,
          "internalType": "uint256",
          "name": "id",
          "type": "uint256"
        }
      ],
      "name": "PropertyDeleted",
      "type": "event"
    },
    {
      "anonymous": false,
      "inputs": [
        {
          "indexed": true,
          "internalType": "uint256",
          "name": "id",
          "type": "uint256"
        },
        {
          "indexed": true,
          "internalType": "address",
          "name": "oldOwner",
          "type": "address"
        },
        {
          "indexed": true,
          "internalType": "address",
          "name": "newOwner",
          "type": "address"
        },
        {
          "indexed": false,
          "internalType": "uint256",
          "name": "price",
          "type": "uint256"
        }
      ],
      "name": "PropertySold",
      "type": "event"
    },
    {
      "anonymous": false,
      "inputs": [
        {
          "indexed": true,
          "internalType": "uint256",
          "name": "id",
          "type": "uint256"
        }
      ],
      "name": "PropertyUpdated",
      "type": "event"
    },
    {
      "anonymous": false,
      "inputs": [
        {
          "indexed": true,
          "internalType": "uint256",
          "name": "propertyId",
          "type": "uint256"
        },
        {
          "indexed": true,
          "internalType": "uint256",
          "name": "reviewId",
          "type": "uint256"
        }
      ],
      "name": "ReviewCreated",
      "type": "event"
    },
    {
      "anonymous": false,
      "inputs": [
        {
          "indexed": true,
          "internalType": "uint256",
          "name": "propertyId",
          "type": "uint256"
        },
        {
          "indexed": true,
          "internalType": "uint256",
          "name": "reviewId",
          "type": "uint256"
        }
      ],
      "name": "ReviewDeleted",
      "type": "event"
    },
    {
      "anonymous": false,
      "inputs": [
        {
          "indexed": true,
          "internalType": "uint256",
          "name": "propertyId",
          "type": "uint256"
        },
        {
          "indexed": true,
          "internalType": "uint256",
          "name": "reviewId",
          "type": "uint256"
        }
      ],
      "name": "ReviewUpdated",
      "type": "event"
    },
    {
      "anonymous": false,
      "inputs": [
        {
          "indexed": true,
          "internalType": "address",
          "name": "from",
          "type": "address"
        },
        {
          "indexed": true,
          "internalType": "address",
          "name": "to",
          "type": "address"
        },
        {
          "indexed": true,
          "internalType": "uint256",
          "name": "tokenId",
          "type": "uint256"
        }
      ],
      "name": "Transfer",
      "type": "event"
    },
    {
      "inputs": [
        {
          "internalType": "address",
          "name": "to",
          "type": "address"
        },
        {
          "internalType": "uint256",
          "name": "tokenId",
          "type": "uint256"
        }
      ],
      "name": "approve",
      "outputs": [],
      "stateMutability": "nonpayable",
      "type": "function"
    },
    {
      "inputs": [
        {
          "internalType": "address",
          "name": "owner",
          "type": "address"
        }
      ],
      "name": "balanceOf",
      "outputs": [
        {
          "internalType": "uint256",
          "name": "",
          "type": "uint256"
        }
      ],
      "stateMutability": "view",
      "type": "function"
    },
    {
      "inputs": [
        {
          "internalType": "uint256",
          "name": "id",
          "type": "uint256"
        }
      ],
      "name": "buyProperty",
      "outputs": [],
      "stateMutability": "payable",
      "type": "function"
    },
    {
      "inputs": [
        {
          "internalType": "string",
          "name": "name",
          "type": "string"
        },
        {
          "internalType": "string[]",
          "name": "images",
          "type": "string[]"
        },
        {
          "internalType": "string",
          "name": "category",
          "type": "string"
        },
        {
          "internalType": "string",
          "name": "description",
          "type": "string"
        },
        {
          "internalType": "string",
          "name": "location",
          "type": "string"
        },
        {
          "internalType": "string",
          "name": "city",
          "type": "string"
        },
        {
          "internalType": "string",
          "name": "state",
          "type": "string"
        },
        {
          "internalType": "string",
          "name": "country",
          "type": "string"
        },
        {
          "internalType": "uint256",
          "name": "zipCode",
          "type": "uint256"
        },
        {
          "internalType": "uint256",
          "name": "bedroom",
          "type": "uint256"
        },
        {
          "internalType": "uint256",
          "name": "bathroom",
          "type": "uint256"
        },
        {
          "internalType": "uint256",
          "name": "built",
          "type": "uint256"
        },
        {
          "internalType": "uint256",
          "name": "squarefit",
          "type": "uint256"
        },
        {
          "internalType": "uint256",
          "name": "price",
          "type": "uint256"
        }
      ],
      "name": "createProperty",
      "outputs": [],
      "stateMutability": "nonpayable",
      "type": "function"
    },
    {
      "inputs": [
        {
          "internalType": "uint256",
          "name": "propertyId",
          "type": "uint256"
        },
        {
          "internalType": "string",
          "name": "comment",
          "type": "string"
        }
      ],
      "name": "createReview",
      "outputs": [],
      "stateMutability": "nonpayable",
      "type": "function"
    },
    {
      "inputs": [
        {
          "internalType": "uint256",
          "name": "id",
          "type": "uint256"
        }
      ],
      "name": "deleteProperty",
      "outputs": [],
      "stateMutability": "nonpayable",
      "type": "function"
    },
    {
      "inputs": [
        {
          "internalType": "uint256",
          "name": "propertyId",
          "type": "uint256"
        },
        {
          "internalType": "uint256",
          "name": "reviewId",
          "type": "uint256"
        }
      ],
      "name": "deleteReview",
      "outputs": [],
      "stateMutability": "nonpayable",
      "type": "function"
    },
    {
      "inputs": [],
      "name": "getAllProperties",
      "outputs": [
        {
          "components": [
            {
              "internalType": "uint256",
              "name": "id",
              "type": "uint256"
            },
            {
              "internalType": "address",
              "name": "owner",
              "type": "address"
            },
            {
              "internalType": "string",
              "name": "name",
              "type": "string"
            },
            {
              "internalType": "string[]",
              "name": "images",
              "type": "string[]"
            },
            {
              "internalType": "string",
              "name": "category",
              "type": "string"
            },
            {
              "internalType": "string",
              "name": "description",
              "type": "string"
            },
            {
              "internalType": "string",
              "name": "location",
              "type": "string"
            },
            {
              "internalType": "string",
              "name": "city",
              "type": "string"
            },
            {
              "internalType": "string",
              "name": "state",
              "type": "string"
            },
            {
              "internalType": "string",
              "name": "country",
              "type": "string"
            },
            {
              "internalType": "uint256",
              "name": "zipCode",
              "type": "uint256"
            },
            {
              "internalType": "uint256",
              "name": "bedroom",
              "type": "uint256"
            },
            {
              "internalType": "uint256",
              "name": "bathroom",
              "type": "uint256"
            },
            {
              "internalType": "uint256",
              "name": "built",
              "type": "uint256"
            },
            {
              "internalType": "uint256",
              "name": "squarefit",
              "type": "uint256"
            },
            {
              "internalType": "uint256",
              "name": "price",
              "type": "uint256"
            },
            {
              "internalType": "bool",
              "name": "sold",
              "type": "bool"
            },
            {
              "internalType": "bool",
              "name": "deleted",
              "type": "bool"
            }
          ],
          "internalType": "struct HemProp.PropertyStruct[]",
          "name": "myProperties",
          "type": "tuple[]"
        }
      ],
      "stateMutability": "view",
      "type": "function"
    },
    {
      "inputs": [
        {
          "internalType": "uint256",
          "name": "tokenId",
          "type": "uint256"
        }
      ],
      "name": "getApproved",
      "outputs": [
        {
          "internalType": "address",
          "name": "",
          "type": "address"
        }
      ],
      "stateMutability": "view",
      "type": "function"
    },
    {
      "inputs": [],
      "name": "getMyProperties",
      "outputs": [
        {
          "components": [
            {
              "internalType": "uint256",
              "name": "id",
              "type": "uint256"
            },
            {
              "internalType": "address",
              "name": "owner",
              "type": "address"
            },
            {
              "internalType": "string",
              "name": "name",
              "type": "string"
            },
            {
              "internalType": "string[]",
              "name": "images",
              "type": "string[]"
            },
            {
              "internalType": "string",
              "name": "category",
              "type": "string"
            },
            {
              "internalType": "string",
              "name": "description",
              "type": "string"
            },
            {
              "internalType": "string",
              "name": "location",
              "type": "string"
            },
            {
              "internalType": "string",
              "name": "city",
              "type": "string"
            },
            {
              "internalType": "string",
              "name": "state",
              "type": "string"
            },
            {
              "internalType": "string",
              "name": "country",
              "type": "string"
            },
            {
              "internalType": "uint256",
              "name": "zipCode",
              "type": "uint256"
            },
            {
              "internalType": "uint256",
              "name": "bedroom",
              "type": "uint256"
            },
            {
              "internalType": "uint256",
              "name": "bathroom",
              "type": "uint256"
            },
            {
              "internalType": "uint256",
              "name": "built",
              "type": "uint256"
            },
            {
              "internalType": "uint256",
              "name": "squarefit",
              "type": "uint256"
            },
            {
              "internalType": "uint256",
              "name": "price",
              "type": "uint256"
            },
            {
              "internalType": "bool",
              "name": "sold",
              "type": "bool"
            },
            {
              "internalType": "bool",
              "name": "deleted",
              "type": "bool"
            }
          ],
          "internalType": "struct HemProp.PropertyStruct[]",
          "name": "myProperties",
          "type": "tuple[]"
        }
      ],
      "stateMutability": "view",
      "type": "function"
    },
    {
      "inputs": [
        {
          "internalType": "uint256",
          "name": "propertyId",
          "type": "uint256"
        }
      ],
      "name": "getMyReviews",
      "outputs": [
        {
          "components": [
            {
              "internalType": "uint256",
              "name": "id",
              "type": "uint256"
            },
            {
              "internalType": "uint256",
              "name": "propertyId",
              "type": "uint256"
            },
            {
              "internalType": "string",
              "name": "comment",
              "type": "string"
            },
            {
              "internalType": "address",
              "name": "reviewer",
              "type": "address"
            },
            {
              "internalType": "bool",
              "name": "deleted",
              "type": "bool"
            },
            {
              "internalType": "uint256",
              "name": "timestamp",
              "type": "uint256"
            }
          ],
          "internalType": "struct HemProp.ReviewStruct[]",
          "name": "",
          "type": "tuple[]"
        }
      ],
      "stateMutability": "view",
      "type": "function"
    },
    {
      "inputs": [
        {
          "internalType": "uint256",
          "name": "id",
          "type": "uint256"
        }
      ],
      "name": "getProperty",
      "outputs": [
        {
          "components": [
            {
              "internalType": "uint256",
              "name": "id",
              "type": "uint256"
            },
            {
              "internalType": "address",
              "name": "owner",
              "type": "address"
            },
            {
              "internalType": "string",
              "name": "name",
              "type": "string"
            },
            {
              "internalType": "string[]",
              "name": "images",
              "type": "string[]"
            },
            {
              "internalType": "string",
              "name": "category",
              "type": "string"
            },
            {
              "internalType": "string",
              "name": "description",
              "type": "string"
            },
            {
              "internalType": "string",
              "name": "location",
              "type": "string"
            },
            {
              "internalType": "string",
              "name": "city",
              "type": "string"
            },
            {
              "internalType": "string",
              "name": "state",
              "type": "string"
            },
            {
              "internalType": "string",
              "name": "country",
              "type": "string"
            },
            {
              "internalType": "uint256",
              "name": "zipCode",
              "type": "uint256"
            },
            {
              "internalType": "uint256",
              "name": "bedroom",
              "type": "uint256"
            },
            {
              "internalType": "uint256",
              "name": "bathroom",
              "type": "uint256"
            },
            {
              "internalType": "uint256",
              "name": "built",
              "type": "uint256"
            },
            {
              "internalType": "uint256",
              "name": "squarefit",
              "type": "uint256"
            },
            {
              "internalType": "uint256",
              "name": "price",
              "type": "uint256"
            },
            {
              "internalType": "bool",
              "name": "sold",
              "type": "bool"
            },
            {
              "internalType": "bool",
              "name": "deleted",
              "type": "bool"
            }
          ],
          "internalType": "struct HemProp.PropertyStruct",
          "name": "",
          "type": "tuple"
        }
      ],
      "stateMutability": "view",
      "type": "function"
    },
    {
      "inputs": [
        {
          "internalType": "uint256",
          "name": "propertyId",
          "type": "uint256"
        },
        {
          "internalType": "uint256",
          "name": "reviewId",
          "type": "uint256"
        }
      ],
      "name": "getReview",
      "outputs": [
        {
          "components": [
            {
              "internalType": "uint256",
              "name": "id",
              "type": "uint256"
            },
            {
              "internalType": "uint256",
              "name": "propertyId",
              "type": "uint256"
            },
            {
              "internalType": "string",
              "name": "comment",
              "type": "string"
            },
            {
              "internalType": "address",
              "name": "reviewer",
              "type": "address"
            },
            {
              "internalType": "bool",
              "name": "deleted",
              "type": "bool"
            },
            {
              "internalType": "uint256",
              "name": "timestamp",
              "type": "uint256"
            }
          ],
          "internalType": "struct HemProp.ReviewStruct",
          "name": "",
          "type": "tuple"
        }
      ],
      "stateMutability": "view",
      "type": "function"
    },
    {
      "inputs": [
        {
          "internalType": "uint256",
          "name": "propertyId",
          "type": "uint256"
        }
      ],
      "name": "getReviews",
      "outputs": [
        {
          "components": [
            {
              "internalType": "uint256",
              "name": "id",
              "type": "uint256"
            },
            {
              "internalType": "uint256",
              "name": "propertyId",
              "type": "uint256"
            },
            {
              "internalType": "string",
              "name": "comment",
              "type": "string"
            },
            {
              "internalType": "address",
              "name": "reviewer",
              "type": "address"
            },
            {
              "internalType": "bool",
              "name": "deleted",
              "type": "bool"
            },
            {
              "internalType": "uint256",
              "name": "timestamp",
              "type": "uint256"
            }
          ],
          "internalType": "struct HemProp.ReviewStruct[]",
          "name": "",
          "type": "tuple[]"
        }
      ],
      "stateMutability": "view",
      "type": "function"
    },
    {
      "inputs": [
        {
          "internalType": "address",
          "name": "owner",
          "type": "address"
        },
        {
          "internalType": "address",
          "name": "operator",
          "type": "address"
        }
      ],
      "name": "isApprovedForAll",
      "outputs": [
        {
          "internalType": "bool",
          "name": "",
          "type": "bool"
        }
      ],
      "stateMutability": "view",
      "type": "function"
    },
    {
      "inputs": [],
      "name": "name",
      "outputs": [
        {
          "internalType": "string",
          "name": "",
          "type": "string"
        }
      ],
      "stateMutability": "view",
      "type": "function"
    },
    {
      "inputs": [],
      "name": "owner",
      "outputs": [
        {
          "internalType": "address",
          "name": "",
          "type": "address"
        }
      ],
      "stateMutability": "view",
      "type": "function"
    },
    {
      "inputs": [
        {
          "internalType": "uint256",
          "name": "tokenId",
          "type": "uint256"
        }
      ],
      "name": "ownerOf",
      "outputs": [
        {
          "internalType": "address",
          "name": "",
          "type": "address"
        }
      ],
      "stateMutability": "view",
      "type": "function"
    },
    {
      "inputs": [],
      "name": "renounceOwnership",
      "outputs": [],
      "stateMutability": "nonpayable",
      "type": "function"
    },
    {
      "inputs": [
        {
          "internalType": "address",
          "name": "from",
          "type": "address"
        },
        {
          "internalType": "address",
          "name": "to",
          "type": "address"
        },
        {
          "internalType": "uint256",
          "name": "tokenId",
          "type": "uint256"
        }
      ],
      "name": "safeTransferFrom",
      "outputs": [],
      "stateMutability": "nonpayable",
      "type": "function"
    },
    {
      "inputs": [
        {
          "internalType": "address",
          "name": "from",
          "type": "address"
        },
        {
          "internalType": "address",
          "name": "to",
          "type": "address"
        },
        {
          "internalType": "uint256",
          "name": "tokenId",
          "type": "uint256"
        },
        {
          "internalType": "bytes",
          "name": "data",
          "type": "bytes"
        }
      ],
      "name": "safeTransferFrom",
      "outputs": [],
      "stateMutability": "nonpayable",
      "type": "function"
    },
    {
      "inputs": [
        {
          "internalType": "address",
          "name": "operator",
          "type": "address"
        },
        {
          "internalType": "bool",
          "name": "approved",
          "type": "bool"
        }
      ],
      "name": "setApprovalForAll",
      "outputs": [],
      "stateMutability": "nonpayable",
      "type": "function"
    },
    {
      "inputs": [
        {
          "internalType": "bytes4",
          "name": "interfaceId",
          "type": "bytes4"
        }
      ],
      "name": "supportsInterface",
      "outputs": [
        {
          "internalType": "bool",
          "name": "",
          "type": "bool"
        }
      ],
      "stateMutability": "view",
      "type": "function"
    },
    {
      "inputs": [],
      "name": "symbol",
      "outputs": [
        {
          "internalType": "string",
          "name": "",
          "type": "string"
        }
      ],
      "stateMutability": "view",
      "type": "function"
    },
    {
      "inputs": [
        {
          "internalType": "uint256",
          "name": "tokenId",
          "type": "uint256"
        }
      ],
      "name": "tokenURI",
      "outputs": [
        {
          "internalType": "string",
          "name": "",
          "type": "string"
        }
      ],
      "stateMutability": "view",
      "type": "function"
    },
    {
      "inputs": [
        {
          "internalType": "address",
          "name": "from",
          "type": "address"
        },
        {
          "internalType": "address",
          "name": "to",
          "type": "address"
        },
        {
          "internalType": "uint256",
          "name": "tokenId",
          "type": "uint256"
        }
      ],
      "name": "transferFrom",
      "outputs": [],
      "stateMutability": "nonpayable",
      "type": "function"
    },
    {
      "inputs": [
        {
          "internalType": "address",
          "name": "newOwner",
          "type": "address"
        }
      ],
      "name": "transferOwnership",
      "outputs": [],
      "stateMutability": "nonpayable",
      "type": "function"
    },
    {
      "inputs": [
        {
          "internalType": "uint256",
          "name": "id",
          "type": "uint256"
        },
        {
          "internalType": "string",
          "name": "name",
          "type": "string"
        },
        {
          "internalType": "string[]",
          "name": "images",
          "type": "string[]"
        },
        {
          "internalType": "string",
          "name": "category",
          "type": "string"
        },
        {
          "internalType": "string",
          "name": "description",
          "type": "string"
        },
        {
          "internalType": "string",
          "name": "location",
          "type": "string"
        },
        {
          "internalType": "string",
          "name": "city",
          "type": "string"
        },
        {
          "internalType": "string",
          "name": "state",
          "type": "string"
        },
        {
          "internalType": "string",
          "name": "country",
          "type": "string"
        },
        {
          "internalType": "uint256",
          "name": "zipCode",
          "type": "uint256"
        },
        {
          "internalType": "uint256",
          "name": "bedroom",
          "type": "uint256"
        },
        {
          "internalType": "uint256",
          "name": "bathroom",
          "type": "uint256"
        },
        {
          "internalType": "uint256",
          "name": "built",
          "type": "uint256"
        },
        {
          "internalType": "uint256",
          "name": "squarefit",
          "type": "uint256"
        },
        {
          "internalType": "uint256",
          "name": "price",
          "type": "uint256"
        }
      ],
      "name": "updateProperty",
      "outputs": [],
      "stateMutability": "nonpayable",
      "type": "function"
    },
    {
      "inputs": [
        {
          "internalType": "uint256",
          "name": "propertyId",
          "type": "uint256"
        },
        {
          "internalType": "uint256",
          "name": "reviewId",
          "type": "uint256"
        },
        {
          "internalType": "string",
          "name": "comment",
          "type": "string"
        }
      ],
      "name": "updateReview",
      "outputs": [],
      "stateMutability": "nonpayable",
      "type": "function"
    }
  ],
  "bytecode": "0x6080346200037b57601f601f196001600160401b0362004e3338819003848101841686018381118782101762000380578692829160405283396020958691810103126200037b5751926200005262000396565b92600b84526a48656d50726f706572747960a81b868501526200007462000396565b6003815262121c1d60ea1b8782015260008054336001600160a01b031982168117835592939192906001600160a01b03167f8be0079c531659141344cd1fd0a4f28419497f9722a3daafe3b4186f6b6457e08480a38551858111620003675760019687548881811c911680156200035c575b8b8210146200034857908187849311620002f5575b508a908783116001146200029257859262000286575b5050600019600383901b1c191690871b1786555b825194851162000272576002548681811c9116801562000267575b8982101462000253578481116200020a575b5087938511600114620001a3575083949596509262000197575b5050600019600383901b1c191690821b176002555b600755601155604051614a7c9081620003b78239f35b0151905038806200016c565b849392919316966002845280842093905b888210620001f25750508385969710620001d8575b505050811b0160025562000181565b015160001960f88460031b161c19169055388080620001c9565b808785968294968601518155019501930190620001b4565b600283528883208580880160051c8201928b891062000249575b0160051c019087905b8281106200023d57505062000152565b8481550187906200022d565b9250819262000224565b634e487b7160e01b83526022600452602483fd5b90607f169062000140565b634e487b7160e01b82526041600452602482fd5b01519050388062000111565b90848a9416918487528c8720928d88905b828210620002dd5750508411620002c3575b505050811b01865562000125565b015160001960f88460031b161c19169055388080620002b5565b8385015186558d979095019493840193018e620002a3565b9091508885528a85208780850160051c8201928d86106200033e575b918b91869594930160051c01915b8281106200032f575050620000fb565b8781558594508b91016200031f565b9250819262000311565b634e487b7160e01b85526022600452602485fd5b90607f1690620000e6565b634e487b7160e01b83526041600452602483fd5b600080fd5b634e487b7160e01b600052604160045260246000fd5b60408051919082016001600160401b03811183821017620003805760405256fe608080604052600436101561001357600080fd5b60003560e01c90816301ffc9a71461344c5750806306fdde03146133a9578063081812fc1461338b578063095ea7b314613211578063170140f11461310e578063175a3b4114612e5557806323b872dd14612e3157806324d41a0314612c6d5780632c0e839b146129b957806331563b9414611bdf57806332665ffb14611b5f578063397f795214611a6c5780633d51402c1461198d57806342842e0e146119485780636352211e146119185780636fa830a61461164557806370a08231146115ae578063715018a6146115555780638da5cb5b1461152c57806395d89b411461144a5780639d4a225514611343578063a22cb46514611268578063b88d4fde146111e1578063c87b56dd14611174578063caf7844d14610503578063dfa505ed1461042d578063e985e9c5146103d7578063f15bfa68146102275763f2fde38b1461015e57600080fd5b34610222576020366003190112610222576101776134f7565b61017f613972565b6001600160a01b039081169081156101ce57600054826001600160601b0360a01b821617600055167f8be0079c531659141344cd1fd0a4f28419497f9722a3daafe3b4186f6b6457e0600080a3005b60405162461bcd60e51b815260206004820152602660248201527f4f776e61626c653a206e6577206f776e657220697320746865207a65726f206160448201526564647265737360d01b6064820152608490fd5b600080fd5b34610222576020806003193601126102225760043580600052600e825260ff906102578260406000205416614574565b60009060005b81600052600c8086526040600020548210156102ee578461028283604060002061489c565b506003908101546001600160a01b0316331492836102c6575b5050506102b1575b6102ac9061441e565b61025d565b916102be6102ac9161441e565b9290506102a3565b909192508460005287526102de83604060002061489c565b50015460a01c161584878061029b565b8583866102fa8761499f565b9260009060005b84600052600c8083526040600020548210156103c55761032582604060002061489c565b506003908101546001600160a01b031633149086908261039e575b5050610356575b506103519061441e565b610301565b61035191936103979187600052845261037c61037686604060002061489c565b506149ef565b610386828a61442d565b52610391818961442d565b5061441e565b9290610347565b909150876000528285526103b684604060002061489c565b50015460a01c16158589610340565b604051806103d38982613910565b0390f35b34610222576040366003190112610222576103f06134f7565b6103f861350d565b9060018060a01b03809116600052600660205260406000209116600052602052602060ff604060002054166040519015158152f35b34610222576103766104ee6104413661363b565b929061044b61486a565b5080600052602093600e855261046860ff60406000205416614574565b80600052600f855261048160ff604060002054166148b8565b816000526010855260406000209060005284526040600020549080600052600c85526104b360406000205483106148fc565b80600052600c85526104dd60ff60036104d085604060002061489c565b50015460a01c1615614953565b600052600c8452604060002061489c565b906103d36040519282849384528301906138bf565b34610222576101e0366003190112610222576024356001600160401b038111610222576105349036906004016135e8565b6044356001600160401b03811161022257610553903690600401613668565b6064356001600160401b038111610222576105729036906004016135e8565b6084356001600160401b038111610222576105919036906004016135e8565b60a4356001600160401b038111610222576105b09036906004016135e8565b9160c4356001600160401b038111610222576105d09036906004016135e8565b9260e4356001600160401b038111610222576105f09036906004016135e8565b92610104356001600160401b038111610222576106119036906004016135e8565b92600435600052600e60205261062e60ff60406000205416614574565b6004356000908152600b60205260409020600101546001600160a01b031633036111185761065e88511515613faf565b61066a87511515613ff2565b610678600a8851111561403e565b6106848151151561408a565b61069083511515614122565b61069c8651151561416e565b6106a8855115156141b1565b6106b4845115156141f5565b6106c2610124351515614241565b6106ce825115156140d6565b6106dc61014435151561428d565b6106ea6101643515156142d9565b6106f8610184351515614324565b6107066101a435151561437b565b6107146101c43515156143d2565b60005b8751811015610744578061073a61073161073f938b61442d565b51511515614441565b61441e565b610717565b508688600435600052600b6020526002604060002001908051906001600160401b038211610b7a5781906107788454613a39565b601f81116110e6575b50602090601f831160011461107a5760009261106f575b50508160011b916000199060031b1c19161790555b600435600052600b602052600360406000200190805190600160401b8211610b7a578254828455808310610ff4575b50602001916000526020600020916000905b828210610ed65750505050600435600052600b6020526004604060002001908051906001600160401b038211610b7a57819061082a8454613a39565b601f8111610ea4575b50602090601f8311600114610e3857600092610e2d575b50508160011b916000199060031b1c19161790555b600435600052600b6020526005604060002001908051906001600160401b038211610b7a5781906108908454613a39565b601f8111610dfb575b50602090601f8311600114610d8f57600092610d84575b50508160011b916000199060031b1c19161790555b600435600052600b6020526006604060002001908051906001600160401b038211610b7a5781906108f68454613a39565b601f8111610d52575b50602090601f8311600114610ce657600092610cdb575b50508160011b916000199060031b1c19161790555b600435600052600b602052600760406000200183516001600160401b038111610b7a576109588254613a39565b601f8111610ca9575b506020601f8211600114610c40578192939495600092610c35575b50508160011b916000199060031b1c19161790555b600435600052600b602052600860406000200182516001600160401b038111610b7a576109be8254613a39565b601f8111610c03575b506020601f8211600114610b9b5781929394600092610b90575b50508160011b916000199060031b1c19161790555b600435600052600b602052600960406000200181516001600160401b038111610b7a57610a238254613a39565b601f8111610b3d575b50602092601f8211600114610ad95792819293600092610ace575b50508160011b916000199060031b1c19161790555b6004356000818152600b60208190526040822061012435600a820155610144359181019190915561016435600c82015561018435600d8201556101a435600e8201556101c435600f909101557f7ad43e2b215acc30fe68db10cbf57c6b2b699ef7572e54808c2a106fb904f3fb9080a2005b015190508380610a47565b601f198216938360005260206000209160005b868110610b255750836001959610610b0c575b505050811b019055610a5c565b015160001960f88460031b161c19169055838080610aff565b91926020600181928685015181550194019201610aec565b610b6a90836000526020600020601f840160051c81019160208510610b70575b601f0160051c0190614511565b83610a2c565b9091508190610b5d565b634e487b7160e01b600052604160045260246000fd5b0151905084806109e1565b8260005260206000209060005b601f1984168110610beb5750600193949583601f19811610610bd2575b505050811b0190556109f6565b015160001960f88460031b161c19169055848080610bc5565b9091602060018192858a015181550193019101610ba8565b610c2f90836000526020600020601f840160051c81019160208510610b7057601f0160051c0190614511565b846109c7565b01519050858061097c565b8260005260206000209060005b601f1984168110610c91575060019394959683601f19811610610c78575b505050811b019055610991565b015160001960f88460031b161c19169055858080610c6b565b9091602060018192858b015181550193019101610c4d565b610cd590836000526020600020601f840160051c81019160208510610b7057601f0160051c0190614511565b85610961565b015190508680610916565b9250836000526020600020906000935b601f1984168510610d37576001945083601f19811610610d1e575b505050811b01905561092b565b015160001960f88460031b161c19169055868080610d11565b81810151835560209485019460019093019290910190610cf6565b610d7e90856000526020600020601f850160051c81019160208610610b7057601f0160051c0190614511565b876108ff565b0151905087806108b0565b9250836000526020600020906000935b601f1984168510610de0576001945083601f19811610610dc7575b505050811b0190556108c5565b015160001960f88460031b161c19169055878080610dba565b81810151835560209485019460019093019290910190610d9f565b610e2790856000526020600020601f850160051c81019160208610610b7057601f0160051c0190614511565b88610899565b01519050888061084a565b9250836000526020600020906000935b601f1984168510610e89576001945083601f19811610610e70575b505050811b01905561085f565b015160001960f88460031b161c19169055888080610e63565b81810151835560209485019460019093019290910190610e48565b610ed090856000526020600020601f850160051c81019160208610610b7057601f0160051c0190614511565b89610833565b80518051906001600160401b038211610b7a57610ef38654613a39565b601f8111610fb7575b50602090601f8311600114610f49579282600194936020938695600092610f3e575b5050600019600383901b1c191690841b1787555b019401910190926107ee565b015190508f80610f1e565b90866000526020600020916000601f198516905b818110610f9f5750936020936001969387969383889510610f86575b505050811b018755610f32565b015160001960f88460031b161c191690558f8080610f79565b92936020600181928786015181550195019301610f5d565b610fe4908760005260206000206005601f8601811c82019260208710610fea575b601f01901c0190614511565b8c610efc565b9192508291610fd8565b836000526020600020908382015b81830181106110125750506107dc565b8061101f60019254613a39565b8061102c575b5001611002565b601f811183146110425750600081555b8d611025565b611060908260005283601f6020600020920160051c82019101614511565b6000602081208183555561103c565b015190508a80610798565b9250836000526020600020906000935b601f19841685106110cb576001945083601f198116106110b2575b505050811b0190556107ad565b015160001960f88460031b161c191690558a80806110a5565b8181015183556020948501946001909301929091019061108a565b61111290856000526020600020601f850160051c81019160208610610b7057601f0160051c0190614511565b8b610781565b60405162461bcd60e51b815260206004820152602e60248201527f4f6e6c79207468652070726f7065727479206f776e65722063616e206564697460448201526d20746869732070726f706572747960901b6064820152608490fd5b34610222576020366003190112610222576004356000908152600360205260409020546111ab906001600160a01b031615156139ca565b60006040516111b98161355a565b526103d36040516111c98161355a565b600081526040519182916020835260208301906134b7565b34610222576080366003190112610222576111fa6134f7565b61120261350d565b90606435906044356001600160401b0383116102225736602384011215610222576112669361123e6112619436906024816004013591016135b1565b9261125161124c8433613c30565b613b57565b61125c838383613cf8565b613f34565b613c0c565b005b34610222576040366003190112610222576112816134f7565b6024359081151590818303610222576001600160a01b0316913383146112fe576112d09033600052600660205260406000208460005260205260406000209060ff801983541691151516179055565b6040519081527f17307eab39ab6107e8899845ad3d59bd9653f200f220920489ca2b5937696c3160203392a3005b60405162461bcd60e51b815260206004820152601960248201527f4552433732313a20617070726f766520746f2063616c6c6572000000000000006044820152606490fd5b34610222576020806003193601126102225760043580600052600e825260ff6113728160406000205416614574565b60009060005b83600052600c85526040600020548110156113ce5781600361139e83604060002061489c565b50015460a01c16156113b9575b6113b49061441e565b611378565b916113c66113b49161441e565b9290506113ab565b50906113d99061499f565b9260009060005b84600052600c8083526040600020548210156103c55784600361140784604060002061489c565b50015460a01c1615611423575b5061141e9061441e565b6113e0565b61141e91936114439187600052845261037c61037686604060002061489c565b9290611414565b3461022257600036600319011261022257604051600060025461146c81613a39565b8084529060019081811690811561150557506001146114aa575b6103d38461149681860382613575565b6040519182916020835260208301906134b7565b6002600090815292507f405787fa12a823e0f2b7631cc41b3ba8828b3321ca811111fa75cd3aa3bb5ace5b8284106114ed57505050810160200161149682611486565b805460208587018101919091529093019281016114d5565b60ff191660208087019190915292151560051b850190920192506114969150839050611486565b34610222576000366003190112610222576000546040516001600160a01b039091168152602090f35b346102225760003660031901126102225761156e613972565b600080546001600160a01b0319811682556001600160a01b03167f8be0079c531659141344cd1fd0a4f28419497f9722a3daafe3b4186f6b6457e08280a3005b34610222576020366003190112610222576001600160a01b036115cf6134f7565b1680156115ee5760005260046020526020604060002054604051908152f35b60405162461bcd60e51b815260206004820152602960248201527f4552433732313a2061646472657373207a65726f206973206e6f7420612076616044820152683634b21037bbb732b960b91b6064820152608490fd5b60208060031936011261022257600435906002600754146118d457600260075581600052600e815261167e60ff60406000205416614574565b81600052600b808252600f60406000200154341061189857826000528082526116b560ff60106040600020015460081c16156145c0565b8260005280825260ff6010604060002001541661185a5760019283600954019182600955604051606081018181106001600160401b03821117610b7a57604052848101906040810194815283825233855283600052600d86526040600020918254600160401b811015610b7a5788810180855581101561184457600293600052600388600020910201915182555187820155019260018060a01b0380915116936001600160601b0360a01b948582541617905560115480340290348204143415171561182e57606490048034039034821161182e576117a76117b19286600052858952848a60406000200154166147ba565b82600054166147ba565b826000528185528560406000200154169260106040600020018660ff19825416179055856040600020019033908254161790556117ef823385613cf8565b8160005283527fddd64180d9701c7ede08673ac8106484ff983a472929330d4fbde4e35d65cb06600f60406000200154936040519485523394a4600755005b634e487b7160e01b600052601160045260246000fd5b634e487b7160e01b600052603260045260246000fd5b60405162461bcd60e51b8152600481018390526016602482015275141c9bdc195c9d1e481a185cc81899595b881cdbdb1960521b6044820152606490fd5b60405162461bcd60e51b8152600481018390526014602482015273125b9cdd59999a58da595b9d081c185e5b595b9d60621b6044820152606490fd5b6064906040519062461bcd60e51b82526004820152601f60248201527f5265656e7472616e637947756172643a207265656e7472616e742063616c6c006044820152fd5b34610222576020366003190112610222576020611936600435613a16565b6040516001600160a01b039091168152f35b346102225761195636613606565b6040519060208201928284106001600160401b03851117610b7a5761126694611261946040526000845261125161124c8433613c30565b346102225760003660031901126102225760088054600060015b82811115611a2c57506119b99061476a565b9160009060015b838111156119d657604051806103d3878261385d565b806119fb91600052600b60205260ff601060406000200154841c1615611a005761441e565b6119c0565b610391604060002094611a1b611a158261441e565b9661460c565b611a25828a61442d565b528761442d565b80600052600b60205260ff601060406000200154851c1615611a57575b611a529061441e565b6119a7565b90611a64611a529161441e565b919050611a49565b346102225760003660031901126102225760088054600060015b82811115611aff5750611a989061476a565b9160009060015b83811115611ab557604051806103d3878261385d565b80611ae091600052600b60205260ff601060406000200154841c161580611ae5575b611a005761441e565b611a9f565b506040600020600101546001600160a01b03163314611ad7565b80600052600b60205260ff601060406000200154851c161580611b45575b611b30575b611b2b9061441e565b611a86565b90611b3d611b2b9161441e565b919050611b22565b506040600020600101546001600160a01b03163314611b1d565b346102225760208060031936011261022257600435611b7c61448d565b5080600052600e8252611b9660ff60406000205416614574565b80600052600b8252611bb660ff60106040600020015460081c16156145c0565b600052600b8152611bca604060002061460c565b906103d36040519282849384528301906136e8565b34610222576101c0366003190112610222576004356001600160401b03811161022257611c109036906004016135e8565b6024356001600160401b03811161022257611c2f903690600401613668565b6044356001600160401b03811161022257611c4e9036906004016135e8565b916064356001600160401b03811161022257611c6e9036906004016135e8565b6084356001600160401b03811161022257611c8d9036906004016135e8565b60a4356001600160401b03811161022257611cac9036906004016135e8565b60c4356001600160401b03811161022257611ccb9036906004016135e8565b9160e4356001600160401b03811161022257611ceb9036906004016135e8565b93611cf886511515613faf565b611d0487511515613ff2565b611d12600a8851111561403e565b611d1e8851151561408a565b611d2a815115156140d6565b611d3682511515614122565b611d428351151561416e565b611d4e845115156141b1565b611d5a855115156141f5565b611d68610104351515614241565b611d7661012435151561428d565b611d846101443515156142d9565b611d92610164351515614324565b611da061018435151561437b565b611dae6101a43515156143d2565b611dbe601e6101a43511156143d2565b60005b8751811015611de0578061073a610731611ddb938b61442d565b611dc1565b50879695966001600854019687600855611df861448d565b98888a523360208b015260408a01526060890152608088015260a087015260c086015260e0850152610100840152610120830152610104356101408301526101243561016083015261014435610180830152610164356101a0830152610184356101c08301526101a4356101e083015260405190611e758261355a565b60008252331561297557600081815260036020526040902054611f3492611261929091611eae906001600160a01b031615155b15614528565b600081815260036020526040902054611ed1906001600160a01b03161515611ea8565b3360005260046020526040600020600181540190558060005260036020526040600020336001600160601b0360a01b825416179055803360007fddf252ad1be2c89b69c2b068fc378daa952ba7f163c4a11628f55a4df523b3ef8180a433613e39565b8051600052600b60205260406000208151815560018060a01b0360208301511660018201906001600160601b0360a01b82541617905560408201519182516001600160401b038111610b7a57611f8d6002840154613a39565b601f8111612940575b506020601f82116001146128d257819293946000926128c7575b50508160011b916000199060031b1c19161760028301555b6060810151805190600160401b8211610b7a576003840154826003860155808310612849575b5060200190600384016000526020600020916000905b82821061273457858560808101519182516001600160401b038111610b7a576120306004830154613a39565b601f81116126ff575b506020601f82116001146126915781929394600092612686575b50508160011b916000199060031b1c19161760048201555b60a08201519182516001600160401b038111610b7a5761208e6005840154613a39565b601f8111612651575b506020601f82116001146125e357819293946000926125d8575b50508160011b916000199060031b1c19161760058301555b60c08101519182516001600160401b038111610b7a576120ec6006830154613a39565b601f81116125a3575b506020601f8211600114612535578192939460009261252a575b50508160011b916000199060031b1c19161760068201555b60e08201519182516001600160401b038111610b7a5761214a6007840154613a39565b601f81116124f5575b506020601f8211600114612487578192939460009261247c575b50508160011b916000199060031b1c19161760078301555b6101008101519182516001600160401b038111610b7a576121a96008830154613a39565b601f8111612447575b506020601f82116001146123d957819293946000926123ce575b50508160011b916000199060031b1c19161760088201555b6101208201518051906001600160401b038211610b7a576122086009840154613a39565b601f8111612399575b50602090601f83116001146123265760109392916000918361231b575b50508160011b916000199060031b1c19161760098201555b610140830151600a820155610160830151600b820155610180830151600c8201556101a0830151600d8201556101c0830151600e8201556101e0830151600f820155016122a66102008301511515829060ff801983541691151516179055565b610220820151151561ff0082549160081b169061ff0019161790558051600052600e6020526040600020600160ff1982541617905580517f9815995bdb741d1e283b7e7fd822a34b01efd21fd2c59dc0d5ab07a587a6172660206101e060018060a01b038286015116940151604051908152a3005b01519050858061222e565b906009840160005260206000209160005b601f1985168110612381575091839160019360109695601f19811610612368575b505050811b016009820155612246565b015160001960f88460031b161c19169055858080612358565b91926020600181928685015181550194019201612337565b6123c890600985016000526020600020601f850160051c81019160208610610b7057601f0160051c0190614511565b84612211565b0151905084806121cc565b6008830160005260206000209060005b601f198416811061242f5750600193949583601f19811610612416575b505050811b0160088201556121e4565b015160001960f88460031b161c19169055848080612406565b9091602060018192858a0151815501930191016123e9565b61247690600884016000526020600020601f840160051c81019160208510610b7057601f0160051c0190614511565b846121b2565b01519050848061216d565b6007840160005260206000209060005b601f19841681106124dd5750600193949583601f198116106124c4575b505050811b016007830155612185565b015160001960f88460031b161c191690558480806124b4565b9091602060018192858a015181550193019101612497565b61252490600785016000526020600020601f840160051c81019160208510610b7057601f0160051c0190614511565b84612153565b01519050848061210f565b6006830160005260206000209060005b601f198416811061258b5750600193949583601f19811610612572575b505050811b016006820155612127565b015160001960f88460031b161c19169055848080612562565b9091602060018192858a015181550193019101612545565b6125d290600684016000526020600020601f840160051c81019160208510610b7057601f0160051c0190614511565b846120f5565b0151905084806120b1565b6005840160005260206000209060005b601f19841681106126395750600193949583601f19811610612620575b505050811b0160058301556120c9565b015160001960f88460031b161c19169055848080612610565b9091602060018192858a0151815501930191016125f3565b61268090600585016000526020600020601f840160051c81019160208510610b7057601f0160051c0190614511565b84612097565b015190508480612053565b6004830160005260206000209060005b601f19841681106126e75750600193949583601f198116106126ce575b505050811b01600482015561206b565b015160001960f88460031b161c191690558480806126be565b9091602060018192858a0151815501930191016126a1565b61272e90600484016000526020600020601f840160051c81019160208510610b7057601f0160051c0190614511565b84612039565b80518051906001600160401b038211610b7a576127518654613a39565b601f8111612817575b50602090601f83116001146127a757928260019493602093869560009261279c575b5050600019600383901b1c191690841b1787555b01940191019092612004565b015190508b8061277c565b908660005260206000209160005b601f19851681106127ff575083602093600196938796938794601f198116106127e6575b505050811b018755612790565b015160001960f88460031b161c191690558b80806127d9565b919260206001819286850151815501940192016127b5565b612843908760005260206000206005601f8601811c82019260208710610fea57601f01901c0190614511565b8861275a565b600385016000526020600020908382015b818301811061286a575050611fee565b8061287760019254613a39565b80612884575b500161285a565b601f8111831461289a5750600081555b8861287d565b6128b8908260005283601f6020600020920160051c82019101614511565b60006020812081835555612894565b015190508480611fb0565b6002840160005260206000209060005b601f19841681106129285750600193949583601f1981161061290f575b505050811b016002830155611fc8565b015160001960f88460031b161c191690558480806128ff565b9091602060018192858a0151815501930191016128e2565b61296f90600285016000526020600020601f840160051c81019160208510610b7057601f0160051c0190614511565b84611f96565b606460405162461bcd60e51b815260206004820152602060248201527f4552433732313a206d696e7420746f20746865207a65726f20616464726573736044820152fd5b34610222576040366003190112610222576001600160401b03600435602435828111610222576129ed9036906004016135e8565b816000526020600e8152612a0860ff60406000205416614574565b82600052600b8152612a2860ff60106040600020015460081c16156145c0565b612a34825115156147dd565b612a436103e883511115614829565b60019182600a54019485600a55612a5861486a565b918683528383019186835260608401913383526040850190815260808501916000835260a086019442865289600052600c88526040600020546010895260406000208c600052895260406000205589600052600c885260406000208054600160401b811015610b7a57612acf918b8201815561489c565b979097612c575751875551888701556002860191518051918211610b7a57612af78354613a39565b601f8111612c27575b508790601f8311600114612bb65791806004969492600f9a99989694600092612bab575b5050600019600383901b1c1916908a1b1790555b600385019160018060a01b0390511682549160ff60a01b9051151560a01b16916affffffffffffffffffffff60a81b161717905551910155846000525260406000209060ff198254161790557f7f81c790a4345d8750e5542a4c0213b9a5969741805deafb58ad031fe113c4cd600080a3005b015190508d80612b24565b899291601f19831691856000528a6000209260005b818110612c10575091600f9b9a99979593918560049a98969410612bf7575b505050811b019055612b38565b015160001960f88460031b161c191690558d8080612bea565b8284015185558d9690940193928c01928c01612bcb565b612c51908460005289600020601f850160051c8101918b8610610b7057601f0160051c0190614511565b8b612b00565b634e487b7160e01b600052600060045260246000fd5b3461022257612c7b3661363b565b90806000526020600e8152612c9760ff60406000205416614574565b82600052600f8152612cb060ff604060002054166148b8565b816000526010815260406000208360005281526040600020549082600052600c8152612ce260406000205483106148fc565b82600052600c81526003612cfa83604060002061489c565b500154336001600160a01b0391821614908115612e23575b5015612dcc5782600052600c815260ff6003612d3284604060002061489c565b50015460a01c16612d8f57600391600c612d55928560005252604060002061489c565b5001805460ff60a01b1916600160a01b1790557ffe09911b3ec9652ef94a11286713bd397f2fb090f28c62303451d8040ff62c62600080a3005b6064906040519062461bcd60e51b82526004820152601660248201527514995d9a595dc8185b1c9958591e4819195b195d195960521b6044820152fd5b6084906040519062461bcd60e51b82526004820152602a60248201527f4f6e6c79207265766965776572206f7220636f6e7472616374206f776e65722060448201526963616e2064656c65746560b01b6064820152fd5b905060005416331485612d12565b3461022257611266612e4236613606565b91612e5061124c8433613c30565b613cf8565b34610222576060366003190112610222576024356004356001600160401b0360443581811161022257612e8c9036906004016135e8565b82600052602090600e8252612ea860ff60406000205416614574565b83600052600b8252612ec860ff60106040600020015460081c16156145c0565b84600052600f8252612ee160ff604060002054166148b8565b612eed815115156147dd565b612efc6103e882511115614829565b836000526010825260406000208560005282526040600020549284600052600c8352612f2e60406000205485106148fc565b84600052600c8352612f4484604060002061489c565b50600301546001600160a01b031633036130c95784600052600c8352612f7560ff60036104d087604060002061489c565b84600052600c83526002612f8d85604060002061489c565b5001918051918211610b7a57612fa38354613a39565b601f8111613099575b508390601f831160011461302b579180600c9492612ff2979694600092613020575b50508160011b916000199060031b1c19161790555b8460005252604060002061489c565b506004429101557fa36bbb9e7cdd66e8ea36022dd73f106f7fa8d76d37b933cde8cc2af00e401ae7600080a3005b015190508980612fce565b90601f1983169184600052856000209260005b8181106130825750926001928592612ff2999896600c989610613069575b505050811b019055612fe3565b015160001960f88460031b161c1916905589808061305c565b92938760018192878601518155019501930161303e565b6130c3908460005285600020601f850160051c810191878610610b7057601f0160051c0190614511565b87612fac565b60405162461bcd60e51b815260048101849052601860248201527f4f6e6c792072657669657765722063616e2075706461746500000000000000006044820152606490fd5b346102225760203660031901126102225760043580600052600e60205261313c60ff60406000205416614574565b6000818152600b6020526040902060010154336001600160a01b0391821614908115613203575b50156131ae5780600052600b602052601060406000200161010061ff00198254161790557f7156884be24ff0be75b08b7bf2034f16982585fcfc7fc22c70716ad234e92673600080a2005b60405162461bcd60e51b815260206004820152602760248201527f4f6e6c792070726f7065727479206f776e65722063616e2064656c6574652070604482015266726f706572747960c81b6064820152608490fd5b905060005416331482613163565b346102225760403660031901126102225761322a6134f7565b602435906001600160a01b03808061324185613a16565b1692169180831461333c57803314908115613317575b50156132ac57600083815260056020526040902080546001600160a01b0319168317905561328483613a16565b167f8c5be1e5ebec7d5bd14f71427d1e84f3dd0314c0f7b2291e5b200ac8c7c3b925600080a4005b60405162461bcd60e51b815260206004820152603d60248201527f4552433732313a20617070726f76652063616c6c6572206973206e6f7420746f60448201527f6b656e206f776e6572206f7220617070726f76656420666f7220616c6c0000006064820152608490fd5b9050600052600660205260406000203360005260205260ff6040600020541684613257565b60405162461bcd60e51b815260206004820152602160248201527f4552433732313a20617070726f76616c20746f2063757272656e74206f776e656044820152603960f91b6064820152608490fd5b34610222576020366003190112610222576020611936600435613b19565b3461022257600036600319011261022257604051600060018054906133cd82613a39565b8085529181811690811561150557506001146133f3576103d38461149681860382613575565b600081815292507fb10e2d527612073b26eecdfd717e6a320cf44b4afac2b0732d9fcbe2b7fa0cf65b82841061343457505050810160200161149682611486565b8054602085870181019190915290930192810161341c565b34610222576020366003190112610222576004359063ffffffff60e01b8216809203610222576020916380ac58cd60e01b81149081156134a6575b8115613495575b5015158152f35b6301ffc9a760e01b1490508361348e565b635b5e139f60e01b81149150613487565b919082519283825260005b8481106134e3575050826000602080949584010152601f8019910116010190565b6020818301810151848301820152016134c2565b600435906001600160a01b038216820361022257565b602435906001600160a01b038216820361022257565b61024081019081106001600160401b03821117610b7a57604052565b60c081019081106001600160401b03821117610b7a57604052565b602081019081106001600160401b03821117610b7a57604052565b90601f801991011681019081106001600160401b03821117610b7a57604052565b6001600160401b038111610b7a57601f01601f191660200190565b9291926135bd82613596565b916135cb6040519384613575565b829481845281830111610222578281602093846000960137010152565b9080601f8301121561022257816020613603933591016135b1565b90565b6060906003190112610222576001600160a01b0390600435828116810361022257916024359081168103610222579060443590565b6040906003190112610222576004359060243590565b6001600160401b038111610b7a5760051b60200190565b9080601f830112156102225781359061368082613651565b9261368e6040519485613575565b828452602092838086019160051b8301019280841161022257848301915b8483106136bc5750505050505090565b82356001600160401b0381116102225786916136dd848480948901016135e8565b8152019201916136ac565b9081518152602060018060a01b0381840151168183015261371860408401516102408060408601528401906134b7565b60608401519183820360608501528251908183528083019281808460051b8301019501936000915b84831061382f575050505050506137bc6137a86137966137846137726137d095608089015188820360808a01526134b7565b60a088015187820360a08901526134b7565b60c087015186820360c08801526134b7565b60e086015185820360e08701526134b7565b6101008086015190858303908601526134b7565b6101208085015190848303908501526134b7565b916101408082015190830152610160808201519083015261018080820151908301526101a080820151908301526101c080820151908301526101e080820151908301526102008082015115159083015261022080910151151591015290565b909192939495848061384d600193601f198682030187528a516134b7565b9801930193019194939290613740565b602080820190808352835180925260408301928160408460051b8301019501936000915b8483106138915750505050505090565b90919293949584806138af600193603f198682030187528a516136e8565b9801930193019194939290613881565b90815181526020820151602082015260a0806138ea604085015160c0604086015260c08501906134b7565b93600180831b036060820151166060850152608081015115156080850152015191015290565b602080820190808352835180925260408301928160408460051b8301019501936000915b8483106139445750505050505090565b9091929394958480613962600193603f198682030187528a516138bf565b9801930193019194939290613934565b6000546001600160a01b0316330361398657565b606460405162461bcd60e51b815260206004820152602060248201527f4f776e61626c653a2063616c6c6572206973206e6f7420746865206f776e65726044820152fd5b156139d157565b60405162461bcd60e51b815260206004820152601860248201527f4552433732313a20696e76616c696420746f6b656e20494400000000000000006044820152606490fd5b6000908152600360205260409020546001600160a01b03166136038115156139ca565b90600182811c92168015613a69575b6020831014613a5357565b634e487b7160e01b600052602260045260246000fd5b91607f1691613a48565b9060405191826000825492613a8784613a39565b908184526001948581169081600014613af65750600114613ab3575b5050613ab192500383613575565b565b9093915060005260209081600020936000915b818310613ade575050613ab193508201013880613aa3565b85548884018501529485019487945091830191613ac6565b915050613ab194506020925060ff191682840152151560051b8201013880613aa3565b600081815260036020526040902054613b3c906001600160a01b031615156139ca565b6000908152600560205260409020546001600160a01b031690565b15613b5e57565b60405162461bcd60e51b815260206004820152602d60248201527f4552433732313a2063616c6c6572206973206e6f7420746f6b656e206f776e6560448201526c1c881bdc88185c1c1c9bdd9959609a1b6064820152608490fd5b60809060208152603260208201527f4552433732313a207472616e7366657220746f206e6f6e20455243373231526560408201527131b2b4bb32b91034b6b83632b6b2b73a32b960711b60608201520190565b15613c1357565b60405162461bcd60e51b815280613c2c60048201613bb9565b0390fd5b906001600160a01b038080613c4484613a16565b16931691838314938415613c77575b508315613c61575b50505090565b613c6d91929350613b19565b1614388080613c5b565b909350600052600660205260406000208260005260205260ff604060002054169238613c53565b15613ca557565b60405162461bcd60e51b815260206004820152602560248201527f4552433732313a207472616e736665722066726f6d20696e636f72726563742060448201526437bbb732b960d91b6064820152608490fd5b90613d2091613d0684613a16565b6001600160a01b0393918416928492909183168414613c9e565b16918215613db85781613d3d91613d3686613a16565b1614613c9e565b7fddf252ad1be2c89b69c2b068fc378daa952ba7f163c4a11628f55a4df523b3ef60008481526005602052604081206001600160601b0360a01b9081815416905583825260046020526040822060001981540190558482526040822060018154019055858252600360205284604083209182541617905580a4565b60405162461bcd60e51b8152602060048201526024808201527f4552433732313a207472616e7366657220746f20746865207a65726f206164646044820152637265737360e01b6064820152608490fd5b3d15613e34573d90613e1a82613596565b91613e286040519384613575565b82523d6000602084013e565b606090565b9091600091803b15613f2b57613e846020918493604051948580948193630a85bd0160e11b9a8b845233600485015284602485015260448401526080606484015260848301906134b7565b03926001600160a01b03165af190829082613edc575b5050613ece57613ea8613e09565b80519081613ec95760405162461bcd60e51b815280613c2c60048201613bb9565b602001fd5b6001600160e01b0319161490565b909192506020813d8211613f23575b81613ef860209383613575565b81010312613f1f5751906001600160e01b031982168203613f1c5750903880613e9a565b80fd5b5080fd5b3d9150613eeb565b50505050600190565b91926000929190813b15613fa557602091613f8a9185604051958680958194630a85bd0160e11b9b8c845233600485015260018060a01b03809516602485015260448401526080606484015260848301906134b7565b0393165af190829082613edc575050613ece57613ea8613e09565b5050505050600190565b15613fb657565b60405162461bcd60e51b81526020600482015260146024820152734e616d652063616e6e6f7420626520656d70747960601b6044820152606490fd5b15613ff957565b60405162461bcd60e51b815260206004820152601e60248201527f4174206c65617374206f6e6520696d61676520697320726571756972656400006044820152606490fd5b1561404557565b60405162461bcd60e51b815260206004820152601960248201527f4d6178696d756d20313020696d6167657320616c6c6f776564000000000000006044820152606490fd5b1561409157565b60405162461bcd60e51b815260206004820152601860248201527f43617465676f72792063616e6e6f7420626520656d70747900000000000000006044820152606490fd5b156140dd57565b60405162461bcd60e51b815260206004820152601b60248201527f4465736372697074696f6e2063616e6e6f7420626520656d70747900000000006044820152606490fd5b1561412957565b60405162461bcd60e51b815260206004820152601860248201527f4c6f636174696f6e2063616e6e6f7420626520656d70747900000000000000006044820152606490fd5b1561417557565b60405162461bcd60e51b8152602060048201526014602482015273436974792063616e6e6f7420626520656d70747960601b6044820152606490fd5b156141b857565b60405162461bcd60e51b815260206004820152601560248201527453746174652063616e6e6f7420626520656d70747960581b6044820152606490fd5b156141fc57565b60405162461bcd60e51b815260206004820152601760248201527f436f756e7472792063616e6e6f7420626520656d7074790000000000000000006044820152606490fd5b1561424857565b60405162461bcd60e51b815260206004820152601860248201527f5a697020436f64652063616e6e6f7420626520656d70747900000000000000006044820152606490fd5b1561429457565b60405162461bcd60e51b815260206004820152601f60248201527f426564726f6f6d2063616e6e6f74206265207a65726f206f7220656d707479006044820152606490fd5b156142e057565b606460405162461bcd60e51b815260206004820152602060248201527f42617468726f6f6d2063616e6e6f74206265207a65726f206f7220656d7074796044820152fd5b1561432b57565b60405162461bcd60e51b815260206004820152602260248201527f59656172206275696c742063616e6e6f74206265207a65726f206f7220656d70604482015261747960f01b6064820152608490fd5b1561438257565b60405162461bcd60e51b815260206004820152602260248201527f486f7573652073697a652063616e6e6f74206265207a65726f206f7220656d70604482015261747960f01b6064820152608490fd5b156143d957565b60405162461bcd60e51b815260206004820152601f60248201527f5072696365206d7573742062652067726561746572207468616e207a65726f006044820152606490fd5b600019811461182e5760010190565b80518210156118445760209160051b010190565b1561444857565b60405162461bcd60e51b815260206004820152601960248201527f496d6167652055524c2063616e6e6f7420626520656d707479000000000000006044820152606490fd5b6040519061449a82613523565b81610220600091828152826020820152606080604083015280808301528060808301528060a08301528060c08301528060e083015280610100830152610120820152826101408201528261016082015282610180820152826101a0820152826101c0820152826101e0820152826102008201520152565b81811061451c575050565b60008155600101614511565b1561452f57565b60405162461bcd60e51b815260206004820152601c60248201527f4552433732313a20746f6b656e20616c7265616479206d696e746564000000006044820152606490fd5b1561457b57565b60405162461bcd60e51b815260206004820152601760248201527f50726f706572747920646f6573206e6f742065786973740000000000000000006044820152606490fd5b156145c757565b60405162461bcd60e51b815260206004820152601960248201527f50726f706572747920686173206265656e2064656c65746564000000000000006044820152606490fd5b9060405161461981613523565b8092805482526001808060a01b038183015416906020918285015261464060028401613a73565b60408501526003830180549061465582613651565b936146636040519586613575565b82855260009182528082208186015b84841061474f5750505050505060106102209260ff92606086015261469960048201613a73565b60808601526146aa60058201613a73565b60a08601526146bb60068201613a73565b60c08601526146cc60078201613a73565b60e08601526146dd60088201613a73565b6101008601526146ef60098201613a73565b610120860152600a810154610140860152600b810154610160860152600c810154610180860152600d8101546101a0860152600e8101546101c0860152600f8101546101e08601520154818116151561020085015260081c161515910152565b8583819261475c85613a73565b815201920193019290614672565b9061477482613651565b6147816040519182613575565b8281528092614792601f1991613651565b019060005b8281106147a357505050565b6020906147ae61448d565b82828501015201614797565b600080808094819460018060a01b03165af16147d4613e09565b5015613f1c5750565b156147e457565b60405162461bcd60e51b815260206004820152601860248201527f526576696577206d757374206e6f7420626520656d70747900000000000000006044820152606490fd5b1561483057565b60405162461bcd60e51b815260206004820152601260248201527152657669657720697320746f6f206c6f6e6760701b6044820152606490fd5b604051906148778261353f565b600060a083828152826020820152606060408201528260608201528260808201520152565b8054821015611844576000526005602060002091020190600090565b156148bf57565b60405162461bcd60e51b815260206004820152601560248201527414995d9a595dc8191bd95cc81b9bdd08195e1a5cdd605a1b6044820152606490fd5b1561490357565b60405162461bcd60e51b815260206004820152602260248201527f526576696577206e6f7420666f756e6420666f7220746869732070726f706572604482015261747960f01b6064820152608490fd5b1561495a57565b60405162461bcd60e51b815260206004820152601760248201527f52657669657720686173206265656e2064656c657465640000000000000000006044820152606490fd5b906149a982613651565b6149b66040519182613575565b82815280926149c7601f1991613651565b019060005b8281106149d857505050565b6020906149e361486a565b828285010152016149cc565b906040516149fc8161353f565b60a0600482948054845260018101546020850152614a1c60028201613a73565b604085015260ff6003820154600180861b0381166060870152841c1615156080850152015491015256fea2646970667358221220760a85515e9a4d5899c1e7e570acec483c98f22b9dd14146cccc13bd64a3f43b64736f6c63430008110033",
  "linkReferences": {},
  "deployedLinkReferences": {}
}