{
  "_format": "hh-sol-artifact-1",
  "contractName": "HemProp",
  "sourceName": "contracts/HemProp.sol",
  "abi": [
    {
      "inputs": [
        {
          "internalType": "uint256",
          "name": "_pct",
          "type": "uint256"
        }
      ],
      "stateMutability": "nonpayable",
      "type": "constructor"
    },
    {
      "anonymous": false,
      "inputs": [
        {
          "indexed": true,
          "internalType": "address",
          "name": "owner",
          "type": "address"
        },
        {
          "indexed": true,
          "internalType": "address",
          "name": "approved",
          "type": "address"
        },
        {
          "indexed": true,
          "internalType": "uint256",
          "name": "tokenId",
          "type": "uint256"
        }
      ],
      "name": "Approval",
      "type": "event"
    },
    {
      "anonymous": false,
      "inputs": [
        {
          "indexed": true,
          "internalType": "address",
          "name": "owner",
          "type": "address"
        },
        {
          "indexed": true,
          "internalType": "address",
          "name": "operator",
          "type": "address"
        },
        {
          "indexed": false,
          "internalType": "bool",
          "name": "approved",
          "type": "bool"
        }
      ],
      "name": "ApprovalForAll",
      "type": "event"
    },
    {
      "anonymous": false,
      "inputs": [
        {
          "indexed": true,
          "internalType": "address",
          "name": "previousOwner",
          "type": "address"
        },
        {
          "indexed": true,
          "internalType": "address",
          "name": "newOwner",
          "type": "address"
        }
      ],
      "name": "OwnershipTransferred",
      "type": "event"
    },
    {
      "anonymous": false,
      "inputs": [
        {
          "indexed": true,
          "internalType": "address",
          "name": "from",
          "type": "address"
        },
        {
          "indexed": true,
          "internalType": "address",
          "name": "to",
          "type": "address"
        },
        {
          "indexed": true,
          "internalType": "uint256",
          "name": "tokenId",
          "type": "uint256"
        }
      ],
      "name": "Transfer",
      "type": "event"
    },
    {
      "inputs": [
        {
          "internalType": "address",
          "name": "to",
          "type": "address"
        },
        {
          "internalType": "uint256",
          "name": "tokenId",
          "type": "uint256"
        }
      ],
      "name": "approve",
      "outputs": [],
      "stateMutability": "nonpayable",
      "type": "function"
    },
    {
      "inputs": [
        {
          "internalType": "address",
          "name": "owner",
          "type": "address"
        }
      ],
      "name": "balanceOf",
      "outputs": [
        {
          "internalType": "uint256",
          "name": "",
          "type": "uint256"
        }
      ],
      "stateMutability": "view",
      "type": "function"
    },
    {
      "inputs": [
        {
          "internalType": "uint256",
          "name": "id",
          "type": "uint256"
        }
      ],
      "name": "buyProperty",
      "outputs": [],
      "stateMutability": "payable",
      "type": "function"
    },
    {
      "inputs": [
        {
          "internalType": "string",
          "name": "name",
          "type": "string"
        },
        {
          "internalType": "string",
          "name": "image",
          "type": "string"
        },
        {
          "internalType": "string",
          "name": "category",
          "type": "string"
        },
        {
          "internalType": "string",
          "name": "description",
          "type": "string"
        },
        {
          "internalType": "string",
          "name": "location",
          "type": "string"
        },
        {
          "internalType": "uint256",
          "name": "bedroom",
          "type": "uint256"
        },
        {
          "internalType": "uint256",
          "name": "bathroom",
          "type": "uint256"
        },
        {
          "internalType": "uint256",
          "name": "built",
          "type": "uint256"
        },
        {
          "internalType": "uint256",
          "name": "squarefit",
          "type": "uint256"
        },
        {
          "internalType": "uint256",
          "name": "price",
          "type": "uint256"
        }
      ],
      "name": "createProperty",
      "outputs": [],
      "stateMutability": "nonpayable",
      "type": "function"
    },
    {
      "inputs": [
        {
          "internalType": "uint256",
          "name": "propertyId",
          "type": "uint256"
        },
        {
          "internalType": "string",
          "name": "comment",
          "type": "string"
        }
      ],
      "name": "createReview",
      "outputs": [],
      "stateMutability": "nonpayable",
      "type": "function"
    },
    {
      "inputs": [
        {
          "internalType": "uint256",
          "name": "id",
          "type": "uint256"
        }
      ],
      "name": "deleteProperty",
      "outputs": [],
      "stateMutability": "nonpayable",
      "type": "function"
    },
    {
      "inputs": [
        {
          "internalType": "uint256",
          "name": "propertyId",
          "type": "uint256"
        },
        {
          "internalType": "uint256",
          "name": "reviewId",
          "type": "uint256"
        }
      ],
      "name": "deleteReview",
      "outputs": [],
      "stateMutability": "nonpayable",
      "type": "function"
    },
    {
      "inputs": [],
      "name": "getAllProperties",
      "outputs": [
        {
          "components": [
            {
              "internalType": "uint256",
              "name": "id",
              "type": "uint256"
            },
            {
              "internalType": "address",
              "name": "owner",
              "type": "address"
            },
            {
              "internalType": "string",
              "name": "name",
              "type": "string"
            },
            {
              "internalType": "string",
              "name": "image",
              "type": "string"
            },
            {
              "internalType": "string",
              "name": "category",
              "type": "string"
            },
            {
              "internalType": "string",
              "name": "description",
              "type": "string"
            },
            {
              "internalType": "string",
              "name": "location",
              "type": "string"
            },
            {
              "internalType": "uint256",
              "name": "bedroom",
              "type": "uint256"
            },
            {
              "internalType": "uint256",
              "name": "bathroom",
              "type": "uint256"
            },
            {
              "internalType": "uint256",
              "name": "built",
              "type": "uint256"
            },
            {
              "internalType": "uint256",
              "name": "squarefit",
              "type": "uint256"
            },
            {
              "internalType": "uint256",
              "name": "price",
              "type": "uint256"
            },
            {
              "internalType": "bool",
              "name": "sold",
              "type": "bool"
            },
            {
              "internalType": "bool",
              "name": "deleted",
              "type": "bool"
            }
          ],
          "internalType": "struct HemProp.PropertyStruct[]",
          "name": "Properties",
          "type": "tuple[]"
        }
      ],
      "stateMutability": "view",
      "type": "function"
    },
    {
      "inputs": [
        {
          "internalType": "uint256",
          "name": "tokenId",
          "type": "uint256"
        }
      ],
      "name": "getApproved",
      "outputs": [
        {
          "internalType": "address",
          "name": "",
          "type": "address"
        }
      ],
      "stateMutability": "view",
      "type": "function"
    },
    {
      "inputs": [],
      "name": "getMyProperties",
      "outputs": [
        {
          "components": [
            {
              "internalType": "uint256",
              "name": "id",
              "type": "uint256"
            },
            {
              "internalType": "address",
              "name": "owner",
              "type": "address"
            },
            {
              "internalType": "string",
              "name": "name",
              "type": "string"
            },
            {
              "internalType": "string",
              "name": "image",
              "type": "string"
            },
            {
              "internalType": "string",
              "name": "category",
              "type": "string"
            },
            {
              "internalType": "string",
              "name": "description",
              "type": "string"
            },
            {
              "internalType": "string",
              "name": "location",
              "type": "string"
            },
            {
              "internalType": "uint256",
              "name": "bedroom",
              "type": "uint256"
            },
            {
              "internalType": "uint256",
              "name": "bathroom",
              "type": "uint256"
            },
            {
              "internalType": "uint256",
              "name": "built",
              "type": "uint256"
            },
            {
              "internalType": "uint256",
              "name": "squarefit",
              "type": "uint256"
            },
            {
              "internalType": "uint256",
              "name": "price",
              "type": "uint256"
            },
            {
              "internalType": "bool",
              "name": "sold",
              "type": "bool"
            },
            {
              "internalType": "bool",
              "name": "deleted",
              "type": "bool"
            }
          ],
          "internalType": "struct HemProp.PropertyStruct[]",
          "name": "Properties",
          "type": "tuple[]"
        }
      ],
      "stateMutability": "view",
      "type": "function"
    },
    {
      "inputs": [
        {
          "internalType": "uint256",
          "name": "propertyId",
          "type": "uint256"
        }
      ],
      "name": "getMyReviewsForProperty",
      "outputs": [
        {
          "components": [
            {
              "internalType": "uint256",
              "name": "id",
              "type": "uint256"
            },
            {
              "internalType": "uint256",
              "name": "propertyId",
              "type": "uint256"
            },
            {
              "internalType": "string",
              "name": "comment",
              "type": "string"
            },
            {
              "internalType": "address",
              "name": "reviewer",
              "type": "address"
            },
            {
              "internalType": "bool",
              "name": "deleted",
              "type": "bool"
            },
            {
              "internalType": "uint256",
              "name": "timestamp",
              "type": "uint256"
            }
          ],
          "internalType": "struct HemProp.ReviewStruct[]",
          "name": "",
          "type": "tuple[]"
        }
      ],
      "stateMutability": "view",
      "type": "function"
    },
    {
      "inputs": [
        {
          "internalType": "uint256",
          "name": "id",
          "type": "uint256"
        }
      ],
      "name": "getProperty",
      "outputs": [
        {
          "components": [
            {
              "internalType": "uint256",
              "name": "id",
              "type": "uint256"
            },
            {
              "internalType": "address",
              "name": "owner",
              "type": "address"
            },
            {
              "internalType": "string",
              "name": "name",
              "type": "string"
            },
            {
              "internalType": "string",
              "name": "image",
              "type": "string"
            },
            {
              "internalType": "string",
              "name": "category",
              "type": "string"
            },
            {
              "internalType": "string",
              "name": "description",
              "type": "string"
            },
            {
              "internalType": "string",
              "name": "location",
              "type": "string"
            },
            {
              "internalType": "uint256",
              "name": "bedroom",
              "type": "uint256"
            },
            {
              "internalType": "uint256",
              "name": "bathroom",
              "type": "uint256"
            },
            {
              "internalType": "uint256",
              "name": "built",
              "type": "uint256"
            },
            {
              "internalType": "uint256",
              "name": "squarefit",
              "type": "uint256"
            },
            {
              "internalType": "uint256",
              "name": "price",
              "type": "uint256"
            },
            {
              "internalType": "bool",
              "name": "sold",
              "type": "bool"
            },
            {
              "internalType": "bool",
              "name": "deleted",
              "type": "bool"
            }
          ],
          "internalType": "struct HemProp.PropertyStruct",
          "name": "",
          "type": "tuple"
        }
      ],
      "stateMutability": "view",
      "type": "function"
    },
    {
      "inputs": [
        {
          "internalType": "uint256",
          "name": "propertyId",
          "type": "uint256"
        }
      ],
      "name": "getReviews",
      "outputs": [
        {
          "components": [
            {
              "internalType": "uint256",
              "name": "id",
              "type": "uint256"
            },
            {
              "internalType": "uint256",
              "name": "propertyId",
              "type": "uint256"
            },
            {
              "internalType": "string",
              "name": "comment",
              "type": "string"
            },
            {
              "internalType": "address",
              "name": "reviewer",
              "type": "address"
            },
            {
              "internalType": "bool",
              "name": "deleted",
              "type": "bool"
            },
            {
              "internalType": "uint256",
              "name": "timestamp",
              "type": "uint256"
            }
          ],
          "internalType": "struct HemProp.ReviewStruct[]",
          "name": "",
          "type": "tuple[]"
        }
      ],
      "stateMutability": "view",
      "type": "function"
    },
    {
      "inputs": [
        {
          "internalType": "address",
          "name": "owner",
          "type": "address"
        },
        {
          "internalType": "address",
          "name": "operator",
          "type": "address"
        }
      ],
      "name": "isApprovedForAll",
      "outputs": [
        {
          "internalType": "bool",
          "name": "",
          "type": "bool"
        }
      ],
      "stateMutability": "view",
      "type": "function"
    },
    {
      "inputs": [],
      "name": "name",
      "outputs": [
        {
          "internalType": "string",
          "name": "",
          "type": "string"
        }
      ],
      "stateMutability": "view",
      "type": "function"
    },
    {
      "inputs": [],
      "name": "owner",
      "outputs": [
        {
          "internalType": "address",
          "name": "",
          "type": "address"
        }
      ],
      "stateMutability": "view",
      "type": "function"
    },
    {
      "inputs": [
        {
          "internalType": "uint256",
          "name": "tokenId",
          "type": "uint256"
        }
      ],
      "name": "ownerOf",
      "outputs": [
        {
          "internalType": "address",
          "name": "",
          "type": "address"
        }
      ],
      "stateMutability": "view",
      "type": "function"
    },
    {
      "inputs": [],
      "name": "renounceOwnership",
      "outputs": [],
      "stateMutability": "nonpayable",
      "type": "function"
    },
    {
      "inputs": [
        {
          "internalType": "address",
          "name": "from",
          "type": "address"
        },
        {
          "internalType": "address",
          "name": "to",
          "type": "address"
        },
        {
          "internalType": "uint256",
          "name": "tokenId",
          "type": "uint256"
        }
      ],
      "name": "safeTransferFrom",
      "outputs": [],
      "stateMutability": "nonpayable",
      "type": "function"
    },
    {
      "inputs": [
        {
          "internalType": "address",
          "name": "from",
          "type": "address"
        },
        {
          "internalType": "address",
          "name": "to",
          "type": "address"
        },
        {
          "internalType": "uint256",
          "name": "tokenId",
          "type": "uint256"
        },
        {
          "internalType": "bytes",
          "name": "data",
          "type": "bytes"
        }
      ],
      "name": "safeTransferFrom",
      "outputs": [],
      "stateMutability": "nonpayable",
      "type": "function"
    },
    {
      "inputs": [
        {
          "internalType": "address",
          "name": "operator",
          "type": "address"
        },
        {
          "internalType": "bool",
          "name": "approved",
          "type": "bool"
        }
      ],
      "name": "setApprovalForAll",
      "outputs": [],
      "stateMutability": "nonpayable",
      "type": "function"
    },
    {
      "inputs": [
        {
          "internalType": "bytes4",
          "name": "interfaceId",
          "type": "bytes4"
        }
      ],
      "name": "supportsInterface",
      "outputs": [
        {
          "internalType": "bool",
          "name": "",
          "type": "bool"
        }
      ],
      "stateMutability": "view",
      "type": "function"
    },
    {
      "inputs": [],
      "name": "symbol",
      "outputs": [
        {
          "internalType": "string",
          "name": "",
          "type": "string"
        }
      ],
      "stateMutability": "view",
      "type": "function"
    },
    {
      "inputs": [
        {
          "internalType": "uint256",
          "name": "tokenId",
          "type": "uint256"
        }
      ],
      "name": "tokenURI",
      "outputs": [
        {
          "internalType": "string",
          "name": "",
          "type": "string"
        }
      ],
      "stateMutability": "view",
      "type": "function"
    },
    {
      "inputs": [
        {
          "internalType": "address",
          "name": "from",
          "type": "address"
        },
        {
          "internalType": "address",
          "name": "to",
          "type": "address"
        },
        {
          "internalType": "uint256",
          "name": "tokenId",
          "type": "uint256"
        }
      ],
      "name": "transferFrom",
      "outputs": [],
      "stateMutability": "nonpayable",
      "type": "function"
    },
    {
      "inputs": [
        {
          "internalType": "address",
          "name": "newOwner",
          "type": "address"
        }
      ],
      "name": "transferOwnership",
      "outputs": [],
      "stateMutability": "nonpayable",
      "type": "function"
    },
    {
      "inputs": [
        {
          "internalType": "uint256",
          "name": "id",
          "type": "uint256"
        },
        {
          "internalType": "string",
          "name": "name",
          "type": "string"
        },
        {
          "internalType": "string",
          "name": "image",
          "type": "string"
        },
        {
          "internalType": "string",
          "name": "category",
          "type": "string"
        },
        {
          "internalType": "string",
          "name": "description",
          "type": "string"
        },
        {
          "internalType": "string",
          "name": "location",
          "type": "string"
        },
        {
          "internalType": "uint256",
          "name": "bedroom",
          "type": "uint256"
        },
        {
          "internalType": "uint256",
          "name": "bathroom",
          "type": "uint256"
        },
        {
          "internalType": "uint256",
          "name": "built",
          "type": "uint256"
        },
        {
          "internalType": "uint256",
          "name": "squarefit",
          "type": "uint256"
        },
        {
          "internalType": "uint256",
          "name": "price",
          "type": "uint256"
        }
      ],
      "name": "updateProperty",
      "outputs": [],
      "stateMutability": "nonpayable",
      "type": "function"
    },
    {
      "inputs": [
        {
          "internalType": "uint256",
          "name": "propertyId",
          "type": "uint256"
        },
        {
          "internalType": "uint256",
          "name": "reviewId",
          "type": "uint256"
        },
        {
          "internalType": "string",
          "name": "comment",
          "type": "string"
        }
      ],
      "name": "updateReview",
      "outputs": [],
      "stateMutability": "nonpayable",
      "type": "function"
    }
  ],
  "bytecode": "0x60806040523480156200001157600080fd5b50604051620049c1380380620049c1833981016040819052620000349162000110565b6040518060400160405280600b81526020016a48656d50726f706572747960a81b81525060405180604001604052806003815260200162121c1d60ea1b8152506200008e62000088620000bc60201b60201c565b620000c0565b60016200009c8382620001cf565b506002620000ab8282620001cf565b50506001600755506011556200029b565b3390565b600080546001600160a01b038381166001600160a01b0319831681178455604051919092169283917f8be0079c531659141344cd1fd0a4f28419497f9722a3daafe3b4186f6b6457e09190a35050565b6000602082840312156200012357600080fd5b5051919050565b634e487b7160e01b600052604160045260246000fd5b600181811c908216806200015557607f821691505b6020821081036200017657634e487b7160e01b600052602260045260246000fd5b50919050565b601f821115620001ca57600081815260208120601f850160051c81016020861015620001a55750805b601f850160051c820191505b81811015620001c657828155600101620001b1565b5050505b505050565b81516001600160401b03811115620001eb57620001eb6200012a565b6200020381620001fc845462000140565b846200017c565b602080601f8311600181146200023b5760008415620002225750858301515b600019600386901b1c1916600185901b178555620001c6565b600085815260208120601f198616915b828110156200026c578886015182559484019460019091019084016200024b565b50858210156200028b5787850151600019600388901b60f8161c191681555b5050505050600190811b01905550565b61471680620002ab6000396000f3fe6080604052600436106101b75760003560e01c80636352211e116100ec5780639d4a22551161008a578063c87b56dd11610064578063c87b56dd146104e7578063caa51cea14610507578063e985e9c514610527578063f2fde38b1461054757600080fd5b80639d4a22551461047a578063a22cb465146104a7578063b88d4fde146104c757600080fd5b8063715018a6116100c6578063715018a6146104125780638987cc99146104275780638da5cb5b1461044757806395d89b411461046557600080fd5b80636352211e146103b15780636fa830a6146103d157806370a08231146103e457600080fd5b806323b872dd1161015957806332665ffb1161013357806332665ffb1461032d578063397f79521461035a5780633d51402c1461037c57806342842e0e1461039157600080fd5b806323b872dd146102cd57806324d41a03146102ed5780632c0e839b1461030d57600080fd5b8063081812fc11610195578063081812fc14610235578063095ea7b31461026d578063170140f11461028d578063175a3b41146102ad57600080fd5b806301ffc9a7146101bc57806303d87e48146101f157806306fdde0314610213575b600080fd5b3480156101c857600080fd5b506101dc6101d7366004613aaf565b610567565b60405190151581526020015b60405180910390f35b3480156101fd57600080fd5b5061021161020c366004613b78565b6105b9565b005b34801561021f57600080fd5b506102286109de565b6040516101e89190613cdc565b34801561024157600080fd5b50610255610250366004613cef565b610a70565b6040516001600160a01b0390911681526020016101e8565b34801561027957600080fd5b50610211610288366004613d24565b610a97565b34801561029957600080fd5b506102116102a8366004613cef565b610bac565b3480156102b957600080fd5b506102116102c8366004613d4e565b610c88565b3480156102d957600080fd5b506102116102e8366004613d9e565b610fb3565b3480156102f957600080fd5b50610211610308366004613dda565b610fe4565b34801561031957600080fd5b50610211610328366004613dfc565b611237565b34801561033957600080fd5b5061034d610348366004613cef565b611435565b6040516101e89190613f41565b34801561036657600080fd5b5061036f61180f565b6040516101e89190613f54565b34801561038857600080fd5b5061036f611cd5565b34801561039d57600080fd5b506102116103ac366004613d9e565b612147565b3480156103bd57600080fd5b506102556103cc366004613cef565b612162565b6102116103df366004613cef565b6121c2565b3480156103f057600080fd5b506104046103ff366004613fb6565b612441565b6040519081526020016101e8565b34801561041e57600080fd5b506102116124c7565b34801561043357600080fd5b50610211610442366004613fd1565b6124db565b34801561045357600080fd5b506000546001600160a01b0316610255565b34801561047157600080fd5b50610228612932565b34801561048657600080fd5b5061049a610495366004613cef565b612941565b6040516101e891906140d1565b3480156104b357600080fd5b506102116104c236600461417b565b612bfd565b3480156104d357600080fd5b506102116104e23660046141b7565b612c0c565b3480156104f357600080fd5b50610228610502366004613cef565b612c44565b34801561051357600080fd5b5061049a610522366004613cef565b612cb8565b34801561053357600080fd5b506101dc610542366004614233565b613000565b34801561055357600080fd5b50610211610562366004613fb6565b61302e565b60006001600160e01b031982166380ac58cd60e01b148061059857506001600160e01b03198216635b5e139f60e01b145b806105b357506301ffc9a760e01b6001600160e01b03198316145b92915050565b60008b8152600e602052604090205460ff166105f05760405162461bcd60e51b81526004016105e790614266565b60405180910390fd5b60008b8152600b60205260409020600101546001600160a01b0316331461066d5760405162461bcd60e51b815260206004820152602b60248201527f4f6e6c79207468652070726f7065727479206f776e65722063616e206564697460448201526a081d1a1a5cc8195d995b9d60aa1b60648201526084016105e7565b60008a51116106b55760405162461bcd60e51b81526020600482015260146024820152734e616d652063616e6e6f7420626520656d70747960601b60448201526064016105e7565b60008951116106fe5760405162461bcd60e51b8152602060048201526015602482015274496d6167652063616e6e6f7420626520656d70747960581b60448201526064016105e7565b600088511161074a5760405162461bcd60e51b815260206004820152601860248201527743617465676f72792063616e6e6f7420626520656d70747960401b60448201526064016105e7565b60008651116107965760405162461bcd60e51b81526020600482015260186024820152774c6f636174696f6e2063616e6e6f7420626520656d70747960401b60448201526064016105e7565b60008751116107e75760405162461bcd60e51b815260206004820152601b60248201527f4465736372697074696f6e2063616e6e6f7420626520656d707479000000000060448201526064016105e7565b600085116108375760405162461bcd60e51b815260206004820152601f60248201527f426564726f6f6d2063616e6e6f74206265207a65726f206f7220656d7074790060448201526064016105e7565b600084116108875760405162461bcd60e51b815260206004820181905260248201527f42617468726f6f6d2063616e6e6f74206265207a65726f206f7220656d70747960448201526064016105e7565b600083116108a75760405162461bcd60e51b81526004016105e79061429d565b600082116108c75760405162461bcd60e51b81526004016105e7906142df565b600081116109175760405162461bcd60e51b815260206004820152601f60248201527f5072696365206d7573742062652067726561746572207468616e207a65726f0060448201526064016105e7565b60008b8152600b602052604090206002016109328b826143a9565b5060008b8152600b6020526040902060040161094e89826143a9565b5060008b8152600b6020526040902060030161096a8a826143a9565b5060008b8152600b6020526040902060050161098688826143a9565b5060008b8152600b602052604090206006016109a287826143a9565b5060009a8b52600b60208190526040909b20600781019590955560088501939093556009840191909155600a8301559601959095555050505050565b6060600180546109ed90614321565b80601f0160208091040260200160405190810160405280929190818152602001828054610a1990614321565b8015610a665780601f10610a3b57610100808354040283529160200191610a66565b820191906000526020600020905b815481529060010190602001808311610a4957829003601f168201915b5050505050905090565b6000610a7b826130a4565b506000908152600560205260409020546001600160a01b031690565b6000610aa282612162565b9050806001600160a01b0316836001600160a01b031603610b0f5760405162461bcd60e51b815260206004820152602160248201527f4552433732313a20617070726f76616c20746f2063757272656e74206f776e656044820152603960f91b60648201526084016105e7565b336001600160a01b0382161480610b2b5750610b2b8133613000565b610b9d5760405162461bcd60e51b815260206004820152603d60248201527f4552433732313a20617070726f76652063616c6c6572206973206e6f7420746f60448201527f6b656e206f776e6572206f7220617070726f76656420666f7220616c6c00000060648201526084016105e7565b610ba78383613103565b505050565b6000818152600e602052604090205460ff16610bda5760405162461bcd60e51b81526004016105e790614266565b6000818152600b60205260409020600101546001600160a01b0316331480610c0c57506000546001600160a01b031633145b610c685760405162461bcd60e51b815260206004820152602760248201527f4f6e6c792070726f7065727479206f776e65722063616e2064656c6574652070604482015266726f706572747960c81b60648201526084016105e7565b6000908152600b60205260409020600c01805461ff001916610100179055565b6000838152600e602052604090205460ff16610cb65760405162461bcd60e51b81526004016105e790614266565b6000838152600b60205260409020600c0154610100900460ff1615610ced5760405162461bcd60e51b81526004016105e790614469565b6000828152600f602052604090205460ff16610d435760405162461bcd60e51b815260206004820152601560248201527414995d9a595dc8191bd95cc81b9bdd08195e1a5cdd605a1b60448201526064016105e7565b6000815111610d8f5760405162461bcd60e51b8152602060048201526018602482015277526576696577206d757374206e6f7420626520656d70747960401b60448201526064016105e7565b6103e881511115610dd75760405162461bcd60e51b815260206004820152601260248201527152657669657720697320746f6f206c6f6e6760701b60448201526064016105e7565b6000838152601060209081526040808320858452825280832054868452600c909252909120548110610e1b5760405162461bcd60e51b81526004016105e7906144a0565b6000848152600c60205260409020805433919083908110610e3e57610e3e6144e2565b60009182526020909120600360059092020101546001600160a01b031614610ea85760405162461bcd60e51b815260206004820152601860248201527f4f6e6c792072657669657765722063616e20757064617465000000000000000060448201526064016105e7565b6000848152600c60205260409020805482908110610ec857610ec86144e2565b906000526020600020906005020160030160149054906101000a900460ff1615610f345760405162461bcd60e51b815260206004820152601760248201527f52657669657720686173206265656e2064656c6574656400000000000000000060448201526064016105e7565b6000848152600c60205260409020805483919083908110610f5757610f576144e2565b90600052602060002090600502016002019081610f7491906143a9565b506000848152600c60205260409020805442919083908110610f9857610f986144e2565b90600052602060002090600502016004018190555050505050565b610fbd3382613171565b610fd95760405162461bcd60e51b81526004016105e7906144f8565b610ba78383836131d0565b6000828152600e602052604090205460ff166110125760405162461bcd60e51b81526004016105e790614266565b6000818152600f602052604090205460ff166110685760405162461bcd60e51b815260206004820152601560248201527414995d9a595dc8191bd95cc81b9bdd08195e1a5cdd605a1b60448201526064016105e7565b6000828152601060209081526040808320848452825280832054858452600c9092529091205481106110ac5760405162461bcd60e51b81526004016105e7906144a0565b6000838152600c602052604090208054339190839081106110cf576110cf6144e2565b60009182526020909120600360059092020101546001600160a01b0316148061110257506000546001600160a01b031633145b6111615760405162461bcd60e51b815260206004820152602a60248201527f4f6e6c79207265766965776572206f7220636f6e7472616374206f776e65722060448201526963616e2064656c65746560b01b60648201526084016105e7565b6000838152600c60205260409020805482908110611181576111816144e2565b906000526020600020906005020160030160149054906101000a900460ff16156111e65760405162461bcd60e51b815260206004820152601660248201527514995d9a595dc8185b1c9958591e4819195b195d195960521b60448201526064016105e7565b6000838152600c602052604090208054600191908390811061120a5761120a6144e2565b906000526020600020906005020160030160146101000a81548160ff021916908315150217905550505050565b6000828152600e602052604090205460ff166112655760405162461bcd60e51b81526004016105e790614266565b6000828152600b60205260409020600c0154610100900460ff161561129c5760405162461bcd60e51b81526004016105e790614469565b60008151116112e85760405162461bcd60e51b8152602060048201526018602482015277526576696577206d757374206e6f7420626520656d70747960401b60448201526064016105e7565b6103e8815111156113305760405162461bcd60e51b815260206004820152601260248201527152657669657720697320746f6f206c6f6e6760701b60448201526064016105e7565b61133e600a80546001019055565b6113466139dc565b6000611351600a5490565b808352602080840186815233606086015260408086018781526000608088018190524260a0890152898152600c808652838220805460108852858420898552885294832085905590865260018481018255908252949020875160059093020191825591519281019290925551919250839160028201906113d190826143a9565b50606082015160038201805460808501511515600160a01b026001600160a81b03199091166001600160a01b039093169290921791909117905560a0909101516004909101556000908152600f60205260409020805460ff19166001179055505050565b61143d613a1d565b6000828152600e602052604090205460ff1661146b5760405162461bcd60e51b81526004016105e790614266565b6000828152600b60205260409020600c0154610100900460ff16156114a25760405162461bcd60e51b81526004016105e790614469565b6000828152600b602090815260409182902082516101c0810184528154815260018201546001600160a01b03169281019290925260028101805492939192918401916114ed90614321565b80601f016020809104026020016040519081016040528092919081815260200182805461151990614321565b80156115665780601f1061153b57610100808354040283529160200191611566565b820191906000526020600020905b81548152906001019060200180831161154957829003601f168201915b5050505050815260200160038201805461157f90614321565b80601f01602080910402602001604051908101604052809291908181526020018280546115ab90614321565b80156115f85780601f106115cd576101008083540402835291602001916115f8565b820191906000526020600020905b8154815290600101906020018083116115db57829003601f168201915b5050505050815260200160048201805461161190614321565b80601f016020809104026020016040519081016040528092919081815260200182805461163d90614321565b801561168a5780601f1061165f5761010080835404028352916020019161168a565b820191906000526020600020905b81548152906001019060200180831161166d57829003601f168201915b505050505081526020016005820180546116a390614321565b80601f01602080910402602001604051908101604052809291908181526020018280546116cf90614321565b801561171c5780601f106116f15761010080835404028352916020019161171c565b820191906000526020600020905b8154815290600101906020018083116116ff57829003601f168201915b5050505050815260200160068201805461173590614321565b80601f016020809104026020016040519081016040528092919081815260200182805461176190614321565b80156117ae5780601f10611783576101008083540402835291602001916117ae565b820191906000526020600020905b81548152906001019060200180831161179157829003601f168201915b5050509183525050600782015460208201526008820154604082015260098201546060820152600a8201546080820152600b82015460a0820152600c9091015460ff808216151560c084015261010090910416151560e09091015292915050565b6060600060015b6008548111611884576000818152600b60205260409020600c0154610100900460ff1615801561185f57506000818152600b60205260409020600101546001600160a01b031633145b15611872578161186e8161455b565b9250505b8061187c8161455b565b915050611816565b508067ffffffffffffffff81111561189e5761189e613acc565b6040519080825280602002602001820160405280156118d757816020015b6118c4613a1d565b8152602001906001900390816118bc5790505b509150600060015b6008548111611ccf576000818152600b60205260409020600c0154610100900460ff1615801561192857506000818152600b60205260409020600101546001600160a01b031633145b15611cbd576000818152600b602090815260409182902082516101c0810184528154815260018201546001600160a01b031692810192909252600281018054929391929184019161197890614321565b80601f01602080910402602001604051908101604052809291908181526020018280546119a490614321565b80156119f15780601f106119c6576101008083540402835291602001916119f1565b820191906000526020600020905b8154815290600101906020018083116119d457829003601f168201915b50505050508152602001600382018054611a0a90614321565b80601f0160208091040260200160405190810160405280929190818152602001828054611a3690614321565b8015611a835780601f10611a5857610100808354040283529160200191611a83565b820191906000526020600020905b815481529060010190602001808311611a6657829003601f168201915b50505050508152602001600482018054611a9c90614321565b80601f0160208091040260200160405190810160405280929190818152602001828054611ac890614321565b8015611b155780601f10611aea57610100808354040283529160200191611b15565b820191906000526020600020905b815481529060010190602001808311611af857829003601f168201915b50505050508152602001600582018054611b2e90614321565b80601f0160208091040260200160405190810160405280929190818152602001828054611b5a90614321565b8015611ba75780601f10611b7c57610100808354040283529160200191611ba7565b820191906000526020600020905b815481529060010190602001808311611b8a57829003601f168201915b50505050508152602001600682018054611bc090614321565b80601f0160208091040260200160405190810160405280929190818152602001828054611bec90614321565b8015611c395780601f10611c0e57610100808354040283529160200191611c39565b820191906000526020600020905b815481529060010190602001808311611c1c57829003601f168201915b5050509183525050600782015460208201526008820154604082015260098201546060820152600a8201546080820152600b82015460a0820152600c9091015460ff808216151560c084015261010090910416151560e0909101528483611c9f8161455b565b945081518110611cb157611cb16144e2565b60200260200101819052505b80611cc78161455b565b9150506118df565b50505090565b6060600060015b6008548111611d23576000818152600b60205260409020600c0154610100900460ff16611d115781611d0d8161455b565b9250505b80611d1b8161455b565b915050611cdc565b508067ffffffffffffffff811115611d3d57611d3d613acc565b604051908082528060200260200182016040528015611d7657816020015b611d63613a1d565b815260200190600190039081611d5b5790505b509150600060015b6008548111611ccf576000818152600b60205260409020600c0154610100900460ff16612135576000818152600b602090815260409182902082516101c0810184528154815260018201546001600160a01b0316928101929092526002810180549293919291840191611df090614321565b80601f0160208091040260200160405190810160405280929190818152602001828054611e1c90614321565b8015611e695780601f10611e3e57610100808354040283529160200191611e69565b820191906000526020600020905b815481529060010190602001808311611e4c57829003601f168201915b50505050508152602001600382018054611e8290614321565b80601f0160208091040260200160405190810160405280929190818152602001828054611eae90614321565b8015611efb5780601f10611ed057610100808354040283529160200191611efb565b820191906000526020600020905b815481529060010190602001808311611ede57829003601f168201915b50505050508152602001600482018054611f1490614321565b80601f0160208091040260200160405190810160405280929190818152602001828054611f4090614321565b8015611f8d5780601f10611f6257610100808354040283529160200191611f8d565b820191906000526020600020905b815481529060010190602001808311611f7057829003601f168201915b50505050508152602001600582018054611fa690614321565b80601f0160208091040260200160405190810160405280929190818152602001828054611fd290614321565b801561201f5780601f10611ff45761010080835404028352916020019161201f565b820191906000526020600020905b81548152906001019060200180831161200257829003601f168201915b5050505050815260200160068201805461203890614321565b80601f016020809104026020016040519081016040528092919081815260200182805461206490614321565b80156120b15780601f10612086576101008083540402835291602001916120b1565b820191906000526020600020905b81548152906001019060200180831161209457829003601f168201915b5050509183525050600782015460208201526008820154604082015260098201546060820152600a8201546080820152600b82015460a0820152600c9091015460ff808216151560c084015261010090910416151560e09091015284836121178161455b565b945081518110612129576121296144e2565b60200260200101819052505b8061213f8161455b565b915050611d7e565b610ba783838360405180602001604052806000815250612c0c565b6000818152600360205260408120546001600160a01b0316806105b35760405162461bcd60e51b8152602060048201526018602482015277115490cdcc8c4e881a5b9d985b1a59081d1bdad95b88125160421b60448201526064016105e7565b6121ca613334565b6000818152600e602052604090205460ff166121f85760405162461bcd60e51b81526004016105e790614266565b6000818152600b6020819052604090912001543410156122515760405162461bcd60e51b8152602060048201526014602482015273125b9cdd59999a58da595b9d081c185e5b595b9d60621b60448201526064016105e7565b6000818152600b60205260409020600c0154610100900460ff16156122885760405162461bcd60e51b81526004016105e790614469565b6000818152600b60205260409020600c015460ff16156122e35760405162461bcd60e51b8152602060048201526016602482015275141c9bdc195c9d1e481a185cc81899595b881cdbdb1960521b60448201526064016105e7565b6122f1600980546001019055565b61231e6040518060600160405280600081526020016000815260200160006001600160a01b031681525090565b600954815260208082018381523360408085019182526000868152600d8552908120805460018082018355918352948220865160039096020194855592519284019290925551600290920180546001600160a01b0319166001600160a01b03909316929092179091556011546064906123979034614574565b6123a1919061458b565b905060006123af82346145ad565b6000858152600b60205260409020600101549091506123d7906001600160a01b03168261338d565b6123f26123ec6000546001600160a01b031690565b8361338d565b6000848152600b60205260409020600c8101805460ff191660019081179091550180546001600160a01b031916339081179091556124319080866131d0565b50505061243e6001600755565b50565b60006001600160a01b0382166124ab5760405162461bcd60e51b815260206004820152602960248201527f4552433732313a2061646472657373207a65726f206973206e6f7420612076616044820152683634b21037bbb732b960b91b60648201526084016105e7565b506001600160a01b031660009081526004602052604090205490565b6124cf6133ed565b6124d96000613447565b565b60008a51116125235760405162461bcd60e51b81526020600482015260146024820152734e616d652063616e6e6f7420626520656d70747960601b60448201526064016105e7565b600089511161256c5760405162461bcd60e51b8152602060048201526015602482015274496d6167652063616e6e6f7420626520656d70747960581b60448201526064016105e7565b60008851116125b85760405162461bcd60e51b815260206004820152601860248201527743617465676f72792063616e6e6f7420626520656d70747960401b60448201526064016105e7565b60008751116126095760405162461bcd60e51b815260206004820152601b60248201527f4465736372697074696f6e2063616e6e6f7420626520656d707479000000000060448201526064016105e7565b60008651116126555760405162461bcd60e51b81526020600482015260186024820152774c6f636174696f6e2063616e6e6f7420626520656d70747960401b60448201526064016105e7565b600085116126a55760405162461bcd60e51b815260206004820152601f60248201527f426564726f6f6d2063616e6e6f74206265207a65726f206f7220656d7074790060448201526064016105e7565b600084116126f55760405162461bcd60e51b815260206004820181905260248201527f42617468726f6f6d2063616e6e6f74206265207a65726f206f7220656d70747960448201526064016105e7565b600083116127155760405162461bcd60e51b81526004016105e79061429d565b600082116127355760405162461bcd60e51b81526004016105e7906142df565b600081116127855760405162461bcd60e51b815260206004820152601f60248201527f5072696365206d7573742062652067726561746572207468616e207a65726f0060448201526064016105e7565b612793600880546001019055565b61279b613a1d565b600854808252336020830152604082018c9052606082018b9052608082018a905260a0820189905260c0820188905260e0820187905261010082018690526101208201859052610140820184905261016082018390526127fb3382613497565b81516000908152600b602090815260409182902084518155908401516001820180546001600160a01b0319166001600160a01b0390921691909117905590830151839190600282019061284e90826143a9565b506060820151600382019061286390826143a9565b506080820151600482019061287890826143a9565b5060a0820151600582019061288d90826143a9565b5060c082015160068201906128a290826143a9565b5060e082015160078201556101008083015160088301556101208301516009830155610140830151600a830155610160830151600b830155610180830151600c90920180546101a09094015161ffff1990941692151561ff001916929092179215150291909117905550516000908152600e60205260409020805460ff1916600117905550505050505050505050565b6060600280546109ed90614321565b6000818152600e602052604090205460609060ff166129725760405162461bcd60e51b81526004016105e790614266565b6000805b6000848152600c60205260409020548110156129ef576000848152600c602052604090208054829081106129ac576129ac6144e2565b906000526020600020906005020160030160149054906101000a900460ff166129dd57816129d98161455b565b9250505b806129e78161455b565b915050612976565b5060008167ffffffffffffffff811115612a0b57612a0b613acc565b604051908082528060200260200182016040528015612a4457816020015b612a316139dc565b815260200190600190039081612a295790505b5090506000805b6000868152600c6020526040902054811015612bf3576000868152600c60205260409020805482908110612a8157612a816144e2565b906000526020600020906005020160030160149054906101000a900460ff16612be1576000868152600c60205260409020805482908110612ac457612ac46144e2565b90600052602060002090600502016040518060c00160405290816000820154815260200160018201548152602001600282018054612b0190614321565b80601f0160208091040260200160405190810160405280929190818152602001828054612b2d90614321565b8015612b7a5780601f10612b4f57610100808354040283529160200191612b7a565b820191906000526020600020905b815481529060010190602001808311612b5d57829003601f168201915b505050918352505060038201546001600160a01b0381166020830152600160a01b900460ff16151560408201526004909101546060909101528351849084908110612bc757612bc76144e2565b60200260200101819052508180612bdd9061455b565b9250505b80612beb8161455b565b915050612a4b565b5090949350505050565b612c083383836134b1565b5050565b612c163383613171565b612c325760405162461bcd60e51b81526004016105e7906144f8565b612c3e8484848461357f565b50505050565b6060612c4f826130a4565b6000612c6660408051602081019091526000815290565b90506000815111612c865760405180602001604052806000815250612cb1565b80612c90846135b2565b604051602001612ca19291906145c0565b6040516020818303038152906040525b9392505050565b6000818152600e602052604090205460609060ff16612ce95760405162461bcd60e51b81526004016105e790614266565b6000805b6000848152600c6020526040902054811015612db1576000848152600c60205260409020805433919083908110612d2657612d266144e2565b60009182526020909120600360059092020101546001600160a01b0316148015612d8c57506000848152600c60205260409020805482908110612d6b57612d6b6144e2565b906000526020600020906005020160030160149054906101000a900460ff16155b15612d9f5781612d9b8161455b565b9250505b80612da98161455b565b915050612ced565b5060008167ffffffffffffffff811115612dcd57612dcd613acc565b604051908082528060200260200182016040528015612e0657816020015b612df36139dc565b815260200190600190039081612deb5790505b5090506000805b6000868152600c6020526040902054811015612bf3576000868152600c60205260409020805433919083908110612e4657612e466144e2565b60009182526020909120600360059092020101546001600160a01b0316148015612eac57506000868152600c60205260409020805482908110612e8b57612e8b6144e2565b906000526020600020906005020160030160149054906101000a900460ff16155b15612fee576000868152600c60205260409020805482908110612ed157612ed16144e2565b90600052602060002090600502016040518060c00160405290816000820154815260200160018201548152602001600282018054612f0e90614321565b80601f0160208091040260200160405190810160405280929190818152602001828054612f3a90614321565b8015612f875780601f10612f5c57610100808354040283529160200191612f87565b820191906000526020600020905b815481529060010190602001808311612f6a57829003601f168201915b505050918352505060038201546001600160a01b0381166020830152600160a01b900460ff16151560408201526004909101546060909101528351849084908110612fd457612fd46144e2565b60200260200101819052508180612fea9061455b565b9250505b80612ff88161455b565b915050612e0d565b6001600160a01b03918216600090815260066020908152604080832093909416825291909152205460ff1690565b6130366133ed565b6001600160a01b03811661309b5760405162461bcd60e51b815260206004820152602660248201527f4f776e61626c653a206e6577206f776e657220697320746865207a65726f206160448201526564647265737360d01b60648201526084016105e7565b61243e81613447565b6000818152600360205260409020546001600160a01b031661243e5760405162461bcd60e51b8152602060048201526018602482015277115490cdcc8c4e881a5b9d985b1a59081d1bdad95b88125160421b60448201526064016105e7565b600081815260056020526040902080546001600160a01b0319166001600160a01b038416908117909155819061313882612162565b6001600160a01b03167f8c5be1e5ebec7d5bd14f71427d1e84f3dd0314c0f7b2291e5b200ac8c7c3b92560405160405180910390a45050565b60008061317d83612162565b9050806001600160a01b0316846001600160a01b031614806131a457506131a48185613000565b806131c85750836001600160a01b03166131bd84610a70565b6001600160a01b0316145b949350505050565b826001600160a01b03166131e382612162565b6001600160a01b0316146132095760405162461bcd60e51b81526004016105e7906145ef565b6001600160a01b03821661326b5760405162461bcd60e51b8152602060048201526024808201527f4552433732313a207472616e7366657220746f20746865207a65726f206164646044820152637265737360e01b60648201526084016105e7565b826001600160a01b031661327e82612162565b6001600160a01b0316146132a45760405162461bcd60e51b81526004016105e7906145ef565b600081815260056020908152604080832080546001600160a01b03199081169091556001600160a01b0387811680865260048552838620805460001901905590871680865283862080546001019055868652600390945282852080549092168417909155905184937fddf252ad1be2c89b69c2b068fc378daa952ba7f163c4a11628f55a4df523b3ef91a4505050565b6002600754036133865760405162461bcd60e51b815260206004820152601f60248201527f5265656e7472616e637947756172643a207265656e7472616e742063616c6c0060448201526064016105e7565b6002600755565b6000826001600160a01b03168260405160006040518083038185875af1925050503d80600081146133da576040519150601f19603f3d011682016040523d82523d6000602084013e6133df565b606091505b5050905080610ba757600080fd5b6000546001600160a01b031633146124d95760405162461bcd60e51b815260206004820181905260248201527f4f776e61626c653a2063616c6c6572206973206e6f7420746865206f776e657260448201526064016105e7565b600080546001600160a01b038381166001600160a01b0319831681178455604051919092169283917f8be0079c531659141344cd1fd0a4f28419497f9722a3daafe3b4186f6b6457e09190a35050565b612c08828260405180602001604052806000815250613645565b816001600160a01b0316836001600160a01b0316036135125760405162461bcd60e51b815260206004820152601960248201527f4552433732313a20617070726f766520746f2063616c6c65720000000000000060448201526064016105e7565b6001600160a01b03838116600081815260066020908152604080832094871680845294825291829020805460ff191686151590811790915591519182527f17307eab39ab6107e8899845ad3d59bd9653f200f220920489ca2b5937696c31910160405180910390a3505050565b61358a8484846131d0565b61359684848484613678565b612c3e5760405162461bcd60e51b81526004016105e790614634565b606060006135bf83613779565b600101905060008167ffffffffffffffff8111156135df576135df613acc565b6040519080825280601f01601f191660200182016040528015613609576020820181803683370190505b5090508181016020015b600019016f181899199a1a9b1b9c1cb0b131b232b360811b600a86061a8153600a850494508461361357509392505050565b61364f8383613851565b61365c6000848484613678565b610ba75760405162461bcd60e51b81526004016105e790614634565b60006001600160a01b0384163b1561376e57604051630a85bd0160e11b81526001600160a01b0385169063150b7a02906136bc903390899088908890600401614686565b6020604051808303816000875af19250505080156136f7575060408051601f3d908101601f191682019092526136f4918101906146c3565b60015b613754573d808015613725576040519150601f19603f3d011682016040523d82523d6000602084013e61372a565b606091505b50805160000361374c5760405162461bcd60e51b81526004016105e790614634565b805181602001fd5b6001600160e01b031916630a85bd0160e11b1490506131c8565b506001949350505050565b60008072184f03e93ff9f4daa797ed6e38ed64bf6a1f0160401b83106137b85772184f03e93ff9f4daa797ed6e38ed64bf6a1f0160401b830492506040015b6d04ee2d6d415b85acef810000000083106137e4576d04ee2d6d415b85acef8100000000830492506020015b662386f26fc10000831061380257662386f26fc10000830492506010015b6305f5e100831061381a576305f5e100830492506008015b612710831061382e57612710830492506004015b60648310613840576064830492506002015b600a83106105b35760010192915050565b6001600160a01b0382166138a75760405162461bcd60e51b815260206004820181905260248201527f4552433732313a206d696e7420746f20746865207a65726f206164647265737360448201526064016105e7565b6000818152600360205260409020546001600160a01b03161561390c5760405162461bcd60e51b815260206004820152601c60248201527f4552433732313a20746f6b656e20616c7265616479206d696e7465640000000060448201526064016105e7565b6000818152600360205260409020546001600160a01b0316156139715760405162461bcd60e51b815260206004820152601c60248201527f4552433732313a20746f6b656e20616c7265616479206d696e7465640000000060448201526064016105e7565b6001600160a01b038216600081815260046020908152604080832080546001019055848352600390915280822080546001600160a01b0319168417905551839291907fddf252ad1be2c89b69c2b068fc378daa952ba7f163c4a11628f55a4df523b3ef908290a45050565b6040518060c0016040528060008152602001600081526020016060815260200160006001600160a01b03168152602001600015158152602001600081525090565b604051806101c001604052806000815260200160006001600160a01b03168152602001606081526020016060815260200160608152602001606081526020016060815260200160008152602001600081526020016000815260200160008152602001600081526020016000151581526020016000151581525090565b6001600160e01b03198116811461243e57600080fd5b600060208284031215613ac157600080fd5b8135612cb181613a99565b634e487b7160e01b600052604160045260246000fd5b600067ffffffffffffffff80841115613afd57613afd613acc565b604051601f8501601f19908116603f01168101908282118183101715613b2557613b25613acc565b81604052809350858152868686011115613b3e57600080fd5b858560208301376000602087830101525050509392505050565b600082601f830112613b6957600080fd5b612cb183833560208501613ae2565b60008060008060008060008060008060006101608c8e031215613b9a57600080fd5b8b359a5067ffffffffffffffff8060208e01351115613bb857600080fd5b613bc88e60208f01358f01613b58565b9a508060408e01351115613bdb57600080fd5b613beb8e60408f01358f01613b58565b99508060608e01351115613bfe57600080fd5b613c0e8e60608f01358f01613b58565b98508060808e01351115613c2157600080fd5b613c318e60808f01358f01613b58565b97508060a08e01351115613c4457600080fd5b50613c558d60a08e01358e01613b58565b9a9d999c50979a9699959895975050505060c08401359360e081013593610100820135935061012082013592506101409091013590565b60005b83811015613ca7578181015183820152602001613c8f565b50506000910152565b60008151808452613cc8816020860160208601613c8c565b601f01601f19169290920160200192915050565b602081526000612cb16020830184613cb0565b600060208284031215613d0157600080fd5b5035919050565b80356001600160a01b0381168114613d1f57600080fd5b919050565b60008060408385031215613d3757600080fd5b613d4083613d08565b946020939093013593505050565b600080600060608486031215613d6357600080fd5b8335925060208401359150604084013567ffffffffffffffff811115613d8857600080fd5b613d9486828701613b58565b9150509250925092565b600080600060608486031215613db357600080fd5b613dbc84613d08565b9250613dca60208501613d08565b9150604084013590509250925092565b60008060408385031215613ded57600080fd5b50508035926020909101359150565b60008060408385031215613e0f57600080fd5b82359150602083013567ffffffffffffffff811115613e2d57600080fd5b613e3985828601613b58565b9150509250929050565b60006101c0825184526020830151613e6660208601826001600160a01b03169052565b506040830151816040860152613e7e82860182613cb0565b91505060608301518482036060860152613e988282613cb0565b91505060808301518482036080860152613eb28282613cb0565b91505060a083015184820360a0860152613ecc8282613cb0565b91505060c083015184820360c0860152613ee68282613cb0565b60e085810151908701526101008086015190870152610120808601519087015261014080860151908701526101608086015190870152610180808601511515908701526101a080860151801515828901529193509150612bf3565b602081526000612cb16020830184613e43565b6000602080830181845280855180835260408601915060408160051b870101925083870160005b82811015613fa957603f19888603018452613f97858351613e43565b94509285019290850190600101613f7b565b5092979650505050505050565b600060208284031215613fc857600080fd5b612cb182613d08565b6000806000806000806000806000806101408b8d031215613ff157600080fd5b8a3567ffffffffffffffff8082111561400957600080fd5b6140158e838f01613b58565b9b5060208d013591508082111561402b57600080fd5b6140378e838f01613b58565b9a5060408d013591508082111561404d57600080fd5b6140598e838f01613b58565b995060608d013591508082111561406f57600080fd5b61407b8e838f01613b58565b985060808d013591508082111561409157600080fd5b5061409e8d828e01613b58565b9a9d999c50979a96999860a0880135985060c08801359760e0810135975061010081013596506101200135945092505050565b60006020808301818452808551808352604092508286019150828160051b87010184880160005b8381101561416d57603f19898403018552815160c081518552888201518986015287820151818987015261412e82870182613cb0565b6060848101516001600160a01b03169088015260808085015115159088015260a0938401519390960192909252505093860193908601906001016140f8565b509098975050505050505050565b6000806040838503121561418e57600080fd5b61419783613d08565b9150602083013580151581146141ac57600080fd5b809150509250929050565b600080600080608085870312156141cd57600080fd5b6141d685613d08565b93506141e460208601613d08565b925060408501359150606085013567ffffffffffffffff81111561420757600080fd5b8501601f8101871361421857600080fd5b61422787823560208401613ae2565b91505092959194509250565b6000806040838503121561424657600080fd5b61424f83613d08565b915061425d60208401613d08565b90509250929050565b60208082526017908201527f50726f706572747920646f6573206e6f74206578697374000000000000000000604082015260600190565b60208082526022908201527f59656172206275696c742063616e6e6f74206265207a65726f206f7220656d70604082015261747960f01b606082015260800190565b60208082526022908201527f486f7573652073697a652063616e6e6f74206265207a65726f206f7220656d70604082015261747960f01b606082015260800190565b600181811c9082168061433557607f821691505b60208210810361435557634e487b7160e01b600052602260045260246000fd5b50919050565b601f821115610ba757600081815260208120601f850160051c810160208610156143825750805b601f850160051c820191505b818110156143a15782815560010161438e565b505050505050565b815167ffffffffffffffff8111156143c3576143c3613acc565b6143d7816143d18454614321565b8461435b565b602080601f83116001811461440c57600084156143f45750858301515b600019600386901b1c1916600185901b1785556143a1565b600085815260208120601f198616915b8281101561443b5788860151825594840194600190910190840161441c565b50858210156144595787850151600019600388901b60f8161c191681555b5050505050600190811b01905550565b60208082526019908201527f50726f706572747920686173206265656e2064656c6574656400000000000000604082015260600190565b60208082526022908201527f526576696577206e6f7420666f756e6420666f7220746869732070726f706572604082015261747960f01b606082015260800190565b634e487b7160e01b600052603260045260246000fd5b6020808252602d908201527f4552433732313a2063616c6c6572206973206e6f7420746f6b656e206f776e6560408201526c1c881bdc88185c1c1c9bdd9959609a1b606082015260800190565b634e487b7160e01b600052601160045260246000fd5b60006001820161456d5761456d614545565b5060010190565b80820281158282048414176105b3576105b3614545565b6000826145a857634e487b7160e01b600052601260045260246000fd5b500490565b818103818111156105b3576105b3614545565b600083516145d2818460208801613c8c565b8351908301906145e6818360208801613c8c565b01949350505050565b60208082526025908201527f4552433732313a207472616e736665722066726f6d20696e636f72726563742060408201526437bbb732b960d91b606082015260800190565b60208082526032908201527f4552433732313a207472616e7366657220746f206e6f6e20455243373231526560408201527131b2b4bb32b91034b6b83632b6b2b73a32b960711b606082015260800190565b6001600160a01b03858116825284166020820152604081018390526080606082018190526000906146b990830184613cb0565b9695505050505050565b6000602082840312156146d557600080fd5b8151612cb181613a9956fea2646970667358221220d29f342056da1cb720085d7dd12c6dcca5af2672e11cb79a66819b826095305464736f6c63430008110033",
  "linkReferences": {},
  "deployedLinkReferences": {}
}