{
  "_format": "hh-sol-artifact-1",
  "contractName": "HemProp",
  "sourceName": "contracts/HemProp.sol",
  "abi": [
    {
      "inputs": [
        {
          "internalType": "uint256",
          "name": "_pct",
          "type": "uint256"
        }
      ],
      "stateMutability": "nonpayable",
      "type": "constructor"
    },
    {
      "anonymous": false,
      "inputs": [
        {
          "indexed": true,
          "internalType": "address",
          "name": "owner",
          "type": "address"
        },
        {
          "indexed": true,
          "internalType": "address",
          "name": "approved",
          "type": "address"
        },
        {
          "indexed": true,
          "internalType": "uint256",
          "name": "tokenId",
          "type": "uint256"
        }
      ],
      "name": "Approval",
      "type": "event"
    },
    {
      "anonymous": false,
      "inputs": [
        {
          "indexed": true,
          "internalType": "address",
          "name": "owner",
          "type": "address"
        },
        {
          "indexed": true,
          "internalType": "address",
          "name": "operator",
          "type": "address"
        },
        {
          "indexed": false,
          "internalType": "bool",
          "name": "approved",
          "type": "bool"
        }
      ],
      "name": "ApprovalForAll",
      "type": "event"
    },
    {
      "anonymous": false,
      "inputs": [
        {
          "indexed": true,
          "internalType": "address",
          "name": "previousOwner",
          "type": "address"
        },
        {
          "indexed": true,
          "internalType": "address",
          "name": "newOwner",
          "type": "address"
        }
      ],
      "name": "OwnershipTransferred",
      "type": "event"
    },
    {
      "anonymous": false,
      "inputs": [
        {
          "indexed": true,
          "internalType": "address",
          "name": "from",
          "type": "address"
        },
        {
          "indexed": true,
          "internalType": "address",
          "name": "to",
          "type": "address"
        },
        {
          "indexed": true,
          "internalType": "uint256",
          "name": "tokenId",
          "type": "uint256"
        }
      ],
      "name": "Transfer",
      "type": "event"
    },
    {
      "inputs": [
        {
          "internalType": "address",
          "name": "to",
          "type": "address"
        },
        {
          "internalType": "uint256",
          "name": "tokenId",
          "type": "uint256"
        }
      ],
      "name": "approve",
      "outputs": [],
      "stateMutability": "nonpayable",
      "type": "function"
    },
    {
      "inputs": [
        {
          "internalType": "address",
          "name": "owner",
          "type": "address"
        }
      ],
      "name": "balanceOf",
      "outputs": [
        {
          "internalType": "uint256",
          "name": "",
          "type": "uint256"
        }
      ],
      "stateMutability": "view",
      "type": "function"
    },
    {
      "inputs": [
        {
          "internalType": "uint256",
          "name": "id",
          "type": "uint256"
        }
      ],
      "name": "buyProperty",
      "outputs": [],
      "stateMutability": "payable",
      "type": "function"
    },
    {
      "inputs": [
        {
          "internalType": "string",
          "name": "name",
          "type": "string"
        },
        {
          "internalType": "string",
          "name": "image",
          "type": "string"
        },
        {
          "internalType": "string",
          "name": "category",
          "type": "string"
        },
        {
          "internalType": "string",
          "name": "description",
          "type": "string"
        },
        {
          "internalType": "string",
          "name": "location",
          "type": "string"
        },
        {
          "internalType": "uint256",
          "name": "price",
          "type": "uint256"
        }
      ],
      "name": "createProperty",
      "outputs": [],
      "stateMutability": "nonpayable",
      "type": "function"
    },
    {
      "inputs": [
        {
          "internalType": "uint256",
          "name": "id",
          "type": "uint256"
        },
        {
          "internalType": "string",
          "name": "comment",
          "type": "string"
        }
      ],
      "name": "createReview",
      "outputs": [],
      "stateMutability": "nonpayable",
      "type": "function"
    },
    {
      "inputs": [
        {
          "internalType": "uint256",
          "name": "id",
          "type": "uint256"
        }
      ],
      "name": "deleteProperty",
      "outputs": [],
      "stateMutability": "nonpayable",
      "type": "function"
    },
    {
      "inputs": [
        {
          "internalType": "uint256",
          "name": "id",
          "type": "uint256"
        }
      ],
      "name": "deleteReview",
      "outputs": [],
      "stateMutability": "nonpayable",
      "type": "function"
    },
    {
      "inputs": [],
      "name": "getAllProperties",
      "outputs": [
        {
          "components": [
            {
              "internalType": "uint256",
              "name": "id",
              "type": "uint256"
            },
            {
              "internalType": "address",
              "name": "owner",
              "type": "address"
            },
            {
              "internalType": "string",
              "name": "name",
              "type": "string"
            },
            {
              "internalType": "string",
              "name": "image",
              "type": "string"
            },
            {
              "internalType": "string",
              "name": "category",
              "type": "string"
            },
            {
              "internalType": "string",
              "name": "description",
              "type": "string"
            },
            {
              "internalType": "string",
              "name": "location",
              "type": "string"
            },
            {
              "internalType": "uint256",
              "name": "price",
              "type": "uint256"
            },
            {
              "internalType": "bool",
              "name": "sold",
              "type": "bool"
            },
            {
              "internalType": "bool",
              "name": "deleted",
              "type": "bool"
            }
          ],
          "internalType": "struct HemProp.PropertyStruct[]",
          "name": "Properties",
          "type": "tuple[]"
        }
      ],
      "stateMutability": "view",
      "type": "function"
    },
    {
      "inputs": [
        {
          "internalType": "uint256",
          "name": "tokenId",
          "type": "uint256"
        }
      ],
      "name": "getApproved",
      "outputs": [
        {
          "internalType": "address",
          "name": "",
          "type": "address"
        }
      ],
      "stateMutability": "view",
      "type": "function"
    },
    {
      "inputs": [],
      "name": "getMyProperty",
      "outputs": [
        {
          "components": [
            {
              "internalType": "uint256",
              "name": "id",
              "type": "uint256"
            },
            {
              "internalType": "address",
              "name": "owner",
              "type": "address"
            },
            {
              "internalType": "string",
              "name": "name",
              "type": "string"
            },
            {
              "internalType": "string",
              "name": "image",
              "type": "string"
            },
            {
              "internalType": "string",
              "name": "category",
              "type": "string"
            },
            {
              "internalType": "string",
              "name": "description",
              "type": "string"
            },
            {
              "internalType": "string",
              "name": "location",
              "type": "string"
            },
            {
              "internalType": "uint256",
              "name": "price",
              "type": "uint256"
            },
            {
              "internalType": "bool",
              "name": "sold",
              "type": "bool"
            },
            {
              "internalType": "bool",
              "name": "deleted",
              "type": "bool"
            }
          ],
          "internalType": "struct HemProp.PropertyStruct[]",
          "name": "Properties",
          "type": "tuple[]"
        }
      ],
      "stateMutability": "view",
      "type": "function"
    },
    {
      "inputs": [
        {
          "internalType": "uint256",
          "name": "id",
          "type": "uint256"
        }
      ],
      "name": "getProperty",
      "outputs": [
        {
          "components": [
            {
              "internalType": "uint256",
              "name": "id",
              "type": "uint256"
            },
            {
              "internalType": "address",
              "name": "owner",
              "type": "address"
            },
            {
              "internalType": "string",
              "name": "name",
              "type": "string"
            },
            {
              "internalType": "string",
              "name": "image",
              "type": "string"
            },
            {
              "internalType": "string",
              "name": "category",
              "type": "string"
            },
            {
              "internalType": "string",
              "name": "description",
              "type": "string"
            },
            {
              "internalType": "string",
              "name": "location",
              "type": "string"
            },
            {
              "internalType": "uint256",
              "name": "price",
              "type": "uint256"
            },
            {
              "internalType": "bool",
              "name": "sold",
              "type": "bool"
            },
            {
              "internalType": "bool",
              "name": "deleted",
              "type": "bool"
            }
          ],
          "internalType": "struct HemProp.PropertyStruct",
          "name": "",
          "type": "tuple"
        }
      ],
      "stateMutability": "view",
      "type": "function"
    },
    {
      "inputs": [
        {
          "internalType": "uint256",
          "name": "id",
          "type": "uint256"
        }
      ],
      "name": "getReviews",
      "outputs": [
        {
          "components": [
            {
              "internalType": "uint256",
              "name": "id",
              "type": "uint256"
            },
            {
              "internalType": "uint256",
              "name": "propertyId",
              "type": "uint256"
            },
            {
              "internalType": "string",
              "name": "comment",
              "type": "string"
            },
            {
              "internalType": "address",
              "name": "reviewer",
              "type": "address"
            },
            {
              "internalType": "bool",
              "name": "deleted",
              "type": "bool"
            }
          ],
          "internalType": "struct HemProp.ReviewStruct[]",
          "name": "",
          "type": "tuple[]"
        }
      ],
      "stateMutability": "view",
      "type": "function"
    },
    {
      "inputs": [
        {
          "internalType": "uint256",
          "name": "id",
          "type": "uint256"
        }
      ],
      "name": "getSales",
      "outputs": [
        {
          "components": [
            {
              "internalType": "uint256",
              "name": "id",
              "type": "uint256"
            },
            {
              "internalType": "uint256",
              "name": "propertyId",
              "type": "uint256"
            },
            {
              "internalType": "address",
              "name": "owner",
              "type": "address"
            }
          ],
          "internalType": "struct HemProp.SaleStruct[]",
          "name": "Sales",
          "type": "tuple[]"
        }
      ],
      "stateMutability": "view",
      "type": "function"
    },
    {
      "inputs": [
        {
          "internalType": "address",
          "name": "owner",
          "type": "address"
        },
        {
          "internalType": "address",
          "name": "operator",
          "type": "address"
        }
      ],
      "name": "isApprovedForAll",
      "outputs": [
        {
          "internalType": "bool",
          "name": "",
          "type": "bool"
        }
      ],
      "stateMutability": "view",
      "type": "function"
    },
    {
      "inputs": [],
      "name": "name",
      "outputs": [
        {
          "internalType": "string",
          "name": "",
          "type": "string"
        }
      ],
      "stateMutability": "view",
      "type": "function"
    },
    {
      "inputs": [],
      "name": "owner",
      "outputs": [
        {
          "internalType": "address",
          "name": "",
          "type": "address"
        }
      ],
      "stateMutability": "view",
      "type": "function"
    },
    {
      "inputs": [
        {
          "internalType": "uint256",
          "name": "tokenId",
          "type": "uint256"
        }
      ],
      "name": "ownerOf",
      "outputs": [
        {
          "internalType": "address",
          "name": "",
          "type": "address"
        }
      ],
      "stateMutability": "view",
      "type": "function"
    },
    {
      "inputs": [],
      "name": "renounceOwnership",
      "outputs": [],
      "stateMutability": "nonpayable",
      "type": "function"
    },
    {
      "inputs": [
        {
          "internalType": "address",
          "name": "from",
          "type": "address"
        },
        {
          "internalType": "address",
          "name": "to",
          "type": "address"
        },
        {
          "internalType": "uint256",
          "name": "tokenId",
          "type": "uint256"
        }
      ],
      "name": "safeTransferFrom",
      "outputs": [],
      "stateMutability": "nonpayable",
      "type": "function"
    },
    {
      "inputs": [
        {
          "internalType": "address",
          "name": "from",
          "type": "address"
        },
        {
          "internalType": "address",
          "name": "to",
          "type": "address"
        },
        {
          "internalType": "uint256",
          "name": "tokenId",
          "type": "uint256"
        },
        {
          "internalType": "bytes",
          "name": "data",
          "type": "bytes"
        }
      ],
      "name": "safeTransferFrom",
      "outputs": [],
      "stateMutability": "nonpayable",
      "type": "function"
    },
    {
      "inputs": [
        {
          "internalType": "address",
          "name": "operator",
          "type": "address"
        },
        {
          "internalType": "bool",
          "name": "approved",
          "type": "bool"
        }
      ],
      "name": "setApprovalForAll",
      "outputs": [],
      "stateMutability": "nonpayable",
      "type": "function"
    },
    {
      "inputs": [
        {
          "internalType": "bytes4",
          "name": "interfaceId",
          "type": "bytes4"
        }
      ],
      "name": "supportsInterface",
      "outputs": [
        {
          "internalType": "bool",
          "name": "",
          "type": "bool"
        }
      ],
      "stateMutability": "view",
      "type": "function"
    },
    {
      "inputs": [],
      "name": "symbol",
      "outputs": [
        {
          "internalType": "string",
          "name": "",
          "type": "string"
        }
      ],
      "stateMutability": "view",
      "type": "function"
    },
    {
      "inputs": [
        {
          "internalType": "uint256",
          "name": "tokenId",
          "type": "uint256"
        }
      ],
      "name": "tokenURI",
      "outputs": [
        {
          "internalType": "string",
          "name": "",
          "type": "string"
        }
      ],
      "stateMutability": "view",
      "type": "function"
    },
    {
      "inputs": [
        {
          "internalType": "address",
          "name": "from",
          "type": "address"
        },
        {
          "internalType": "address",
          "name": "to",
          "type": "address"
        },
        {
          "internalType": "uint256",
          "name": "tokenId",
          "type": "uint256"
        }
      ],
      "name": "transferFrom",
      "outputs": [],
      "stateMutability": "nonpayable",
      "type": "function"
    },
    {
      "inputs": [
        {
          "internalType": "address",
          "name": "newOwner",
          "type": "address"
        }
      ],
      "name": "transferOwnership",
      "outputs": [],
      "stateMutability": "nonpayable",
      "type": "function"
    },
    {
      "inputs": [
        {
          "internalType": "uint256",
          "name": "id",
          "type": "uint256"
        },
        {
          "internalType": "string",
          "name": "name",
          "type": "string"
        },
        {
          "internalType": "string",
          "name": "image",
          "type": "string"
        },
        {
          "internalType": "string",
          "name": "category",
          "type": "string"
        },
        {
          "internalType": "string",
          "name": "description",
          "type": "string"
        },
        {
          "internalType": "string",
          "name": "location",
          "type": "string"
        },
        {
          "internalType": "uint256",
          "name": "price",
          "type": "uint256"
        }
      ],
      "name": "updateProperty",
      "outputs": [],
      "stateMutability": "nonpayable",
      "type": "function"
    },
    {
      "inputs": [
        {
          "internalType": "uint256",
          "name": "id",
          "type": "uint256"
        },
        {
          "internalType": "string",
          "name": "comment",
          "type": "string"
        }
      ],
      "name": "updateReview",
      "outputs": [],
      "stateMutability": "nonpayable",
      "type": "function"
    }
  ],
  "bytecode": "0x60806040523480156200001157600080fd5b5060405162003cd338038062003cd3833981016040819052620000349162000110565b6040518060400160405280600b81526020016a48656d50726f706572747960a81b81525060405180604001604052806003815260200162121c1d60ea1b8152506200008e62000088620000bc60201b60201c565b620000c0565b60016200009c8382620001cf565b506002620000ab8282620001cf565b50506001600755506010556200029b565b3390565b600080546001600160a01b038381166001600160a01b0319831681178455604051919092169283917f8be0079c531659141344cd1fd0a4f28419497f9722a3daafe3b4186f6b6457e09190a35050565b6000602082840312156200012357600080fd5b5051919050565b634e487b7160e01b600052604160045260246000fd5b600181811c908216806200015557607f821691505b6020821081036200017657634e487b7160e01b600052602260045260246000fd5b50919050565b601f821115620001ca57600081815260208120601f850160051c81016020861015620001a55750805b601f850160051c820191505b81811015620001c657828155600101620001b1565b5050505b505050565b81516001600160401b03811115620001eb57620001eb6200012a565b6200020381620001fc845462000140565b846200017c565b602080601f8311600181146200023b5760008415620002225750858301515b600019600386901b1c1916600185901b178555620001c6565b600085815260208120601f198616915b828110156200026c578886015182559484019460019091019084016200024b565b50858210156200028b5787850151600019600388901b60f8161c191681555b5050505050600190811b01905550565b613a2880620002ab6000396000f3fe6080604052600436106101b75760003560e01c80636f905b78116100ec578063a22cb4651161008a578063d71e489011610064578063d71e4890146104f4578063e985e9c514610514578063f2fde38b14610534578063f537294f1461055457600080fd5b8063a22cb46514610494578063b88d4fde146104b4578063c87b56dd146104d457600080fd5b8063715018a6116100c6578063715018a61461041f5780638da5cb5b1461043457806395d89b41146104525780639d4a22551461046757600080fd5b80636f905b78146103b15780636fa830a6146103de57806370a08231146103f157600080fd5b80632c0e839b116101595780634024708a116101335780634024708a1461033c57806342842e0e146103515780636352211e1461037157806366b58c031461039157600080fd5b80632c0e839b146102cd57806332665ffb146102ed5780633d51402c1461031a57600080fd5b8063095ea7b311610195578063095ea7b31461024b578063170140f11461026d57806323b872dd1461028d5780632b1c8960146102ad57600080fd5b806301ffc9a7146101bc57806306fdde03146101f1578063081812fc14610213575b600080fd5b3480156101c857600080fd5b506101dc6101d7366004612f4f565b610574565b60405190151581526020015b60405180910390f35b3480156101fd57600080fd5b506102066105c6565b6040516101e89190612fbc565b34801561021f57600080fd5b5061023361022e366004612fcf565b610658565b6040516001600160a01b0390911681526020016101e8565b34801561025757600080fd5b5061026b610266366004613004565b61067f565b005b34801561027957600080fd5b5061026b610288366004612fcf565b610799565b34801561029957600080fd5b5061026b6102a836600461302e565b6108a0565b3480156102b957600080fd5b5061026b6102c8366004613116565b6108d1565b3480156102d957600080fd5b5061026b6102e83660046131f0565b610be6565b3480156102f957600080fd5b5061030d610308366004612fcf565b610dc8565b6040516101e89190613313565b34801561032657600080fd5b5061032f6111aa565b6040516101e89190613326565b34801561034857600080fd5b5061032f6115fa565b34801561035d57600080fd5b5061026b61036c36600461302e565b611a93565b34801561037d57600080fd5b5061023361038c366004612fcf565b611aae565b34801561039d57600080fd5b5061026b6103ac3660046131f0565b611b0e565b3480156103bd57600080fd5b506103d16103cc366004612fcf565b611c7b565b6040516101e89190613388565b61026b6103ec366004612fcf565b611d10565b3480156103fd57600080fd5b5061041161040c3660046133ea565b611faa565b6040519081526020016101e8565b34801561042b57600080fd5b5061026b612030565b34801561044057600080fd5b506000546001600160a01b0316610233565b34801561045e57600080fd5b50610206612044565b34801561047357600080fd5b50610487610482366004612fcf565b612053565b6040516101e89190613405565b3480156104a057600080fd5b5061026b6104af3660046134a5565b612190565b3480156104c057600080fd5b5061026b6104cf3660046134e1565b61219f565b3480156104e057600080fd5b506102066104ef366004612fcf565b6121d7565b34801561050057600080fd5b5061026b61050f366004612fcf565b61224b565b34801561052057600080fd5b506101dc61052f36600461355d565b612366565b34801561054057600080fd5b5061026b61054f3660046133ea565b612394565b34801561056057600080fd5b5061026b61056f366004613590565b61240d565b60006001600160e01b031982166380ac58cd60e01b14806105a557506001600160e01b03198216635b5e139f60e01b145b806105c057506301ffc9a760e01b6001600160e01b03198316145b92915050565b6060600180546105d590613675565b80601f016020809104026020016040519081016040528092919081815260200182805461060190613675565b801561064e5780601f106106235761010080835404028352916020019161064e565b820191906000526020600020905b81548152906001019060200180831161063157829003601f168201915b5050505050905090565b60006106638261272b565b506000908152600560205260409020546001600160a01b031690565b600061068a82611aae565b9050806001600160a01b0316836001600160a01b0316036106fc5760405162461bcd60e51b815260206004820152602160248201527f4552433732313a20617070726f76616c20746f2063757272656e74206f776e656044820152603960f91b60648201526084015b60405180910390fd5b336001600160a01b038216148061071857506107188133612366565b61078a5760405162461bcd60e51b815260206004820152603d60248201527f4552433732313a20617070726f76652063616c6c6572206973206e6f7420746f60448201527f6b656e206f776e6572206f7220617070726f76656420666f7220616c6c00000060648201526084016106f3565b610794838361278a565b505050565b6000818152600e602052604090205460ff166107f25760405162461bcd60e51b8152602060048201526018602482015277141c9bdc195c9d1e48191bd95cc81b9bdd08195e1a5cda5d60421b60448201526064016106f3565b6000818152600b60205260409020600101546001600160a01b031633148061082457506000546001600160a01b031633145b6108805760405162461bcd60e51b815260206004820152602760248201527f4f6e6c792070726f7065727479206f776e65722063616e2064656c6574652070604482015266726f706572747960c81b60648201526084016106f3565b6000908152600b60205260409020600801805461ff001916610100179055565b6108aa33826127f8565b6108c65760405162461bcd60e51b81526004016106f3906136af565b610794838383612857565b60008651116109195760405162461bcd60e51b81526020600482015260146024820152734e616d652063616e6e6f7420626520656d70747960601b60448201526064016106f3565b60008551116109625760405162461bcd60e51b8152602060048201526015602482015274496d6167652063616e6e6f7420626520656d70747960581b60448201526064016106f3565b60008451116109ae5760405162461bcd60e51b815260206004820152601860248201527743617465676f72792063616e6e6f7420626520656d70747960401b60448201526064016106f3565b60008251116109fa5760405162461bcd60e51b81526020600482015260186024820152774c6f636174696f6e2063616e6e6f7420626520656d70747960401b60448201526064016106f3565b6000835111610a4b5760405162461bcd60e51b815260206004820152601b60248201527f4465736372697074696f6e2063616e6e6f7420626520656d707479000000000060448201526064016106f3565b60008111610a9b5760405162461bcd60e51b815260206004820152601f60248201527f5072696365206d7573742062652067726561746572207468616e207a65726f0060448201526064016106f3565b610aa9600880546001019055565b610ab1612e32565b60085480825233602080840191825260408085018b8152606086018b9052608086018a905260a0860189905260c0860188905260e086018790526000948552600b9092529092208351815590516001820180546001600160a01b0319166001600160a01b0390921691909117905590518291906002820190610b33908261374a565b5060608201516003820190610b48908261374a565b5060808201516004820190610b5d908261374a565b5060a08201516005820190610b72908261374a565b5060c08201516006820190610b87908261374a565b5060e0820151600782015561010080830151600890920180546101209094015161ffff1990941692151561ff0019169290921792151502919091179055516000908152600e60205260409020805460ff19166001179055505050505050565b6000828152600e602052604090205460ff16610c145760405162461bcd60e51b81526004016106f39061380a565b6000828152600b6020526040902060080154610100900460ff1615610c775760405162461bcd60e51b8152602060048201526019602482015278141c9bdc195c9d1e481a185cc81899595b8819195b195d1959603a1b60448201526064016106f3565b6000815111610cc85760405162461bcd60e51b815260206004820152601860248201527f526576696577206d757374206e6f7420626520656d707479000000000000000060448201526064016106f3565b610cd6600a80546001019055565b610d136040518060a0016040528060008152602001600081526020016060815260200160006001600160a01b031681526020016000151581525090565b600a548152602080820184815233606084015260408084018581526000878152600c8552918220805460018181018355918452949092208551600490950201938455915190830155518291906002820190610d6e908261374a565b506060820151600390910180546080909301511515600160a01b026001600160a81b03199093166001600160a01b0390921691909117919091179055516000908152600f60205260409020805460ff191660011790555050565b610dd0612e32565b6000828152600e602052604090205460ff16610dfe5760405162461bcd60e51b81526004016106f39061380a565b6000828152600b6020526040902060080154610100900460ff1615610e655760405162461bcd60e51b815260206004820152601860248201527f50726f7065727920686173206265656e2064656c65746564000000000000000060448201526064016106f3565b6000828152600b60209081526040918290208251610140810184528154815260018201546001600160a01b0316928101929092526002810180549293919291840191610eb090613675565b80601f0160208091040260200160405190810160405280929190818152602001828054610edc90613675565b8015610f295780601f10610efe57610100808354040283529160200191610f29565b820191906000526020600020905b815481529060010190602001808311610f0c57829003601f168201915b50505050508152602001600382018054610f4290613675565b80601f0160208091040260200160405190810160405280929190818152602001828054610f6e90613675565b8015610fbb5780601f10610f9057610100808354040283529160200191610fbb565b820191906000526020600020905b815481529060010190602001808311610f9e57829003601f168201915b50505050508152602001600482018054610fd490613675565b80601f016020809104026020016040519081016040528092919081815260200182805461100090613675565b801561104d5780601f106110225761010080835404028352916020019161104d565b820191906000526020600020905b81548152906001019060200180831161103057829003601f168201915b5050505050815260200160058201805461106690613675565b80601f016020809104026020016040519081016040528092919081815260200182805461109290613675565b80156110df5780601f106110b4576101008083540402835291602001916110df565b820191906000526020600020905b8154815290600101906020018083116110c257829003601f168201915b505050505081526020016006820180546110f890613675565b80601f016020809104026020016040519081016040528092919081815260200182805461112490613675565b80156111715780601f1061114657610100808354040283529160200191611171565b820191906000526020600020905b81548152906001019060200180831161115457829003601f168201915b50505091835250506007820154602082015260089091015460ff8082161515604084015261010090910416151560609091015292915050565b6060600060015b60085481116111f8576000818152600b6020526040902060080154610100900460ff166111e657816111e281613857565b9250505b806111f081613857565b9150506111b1565b508067ffffffffffffffff8111156112125761121261306a565b60405190808252806020026020018201604052801561124b57816020015b611238612e32565b8152602001906001900390816112305790505b509150600060015b60085481116115f4576000818152600b6020526040902060080154610100900460ff166115e2576000818152600b60209081526040918290208251610140810184528154815260018201546001600160a01b03169281019290925260028101805492939192918401916112c590613675565b80601f01602080910402602001604051908101604052809291908181526020018280546112f190613675565b801561133e5780601f106113135761010080835404028352916020019161133e565b820191906000526020600020905b81548152906001019060200180831161132157829003601f168201915b5050505050815260200160038201805461135790613675565b80601f016020809104026020016040519081016040528092919081815260200182805461138390613675565b80156113d05780601f106113a5576101008083540402835291602001916113d0565b820191906000526020600020905b8154815290600101906020018083116113b357829003601f168201915b505050505081526020016004820180546113e990613675565b80601f016020809104026020016040519081016040528092919081815260200182805461141590613675565b80156114625780601f1061143757610100808354040283529160200191611462565b820191906000526020600020905b81548152906001019060200180831161144557829003601f168201915b5050505050815260200160058201805461147b90613675565b80601f01602080910402602001604051908101604052809291908181526020018280546114a790613675565b80156114f45780601f106114c9576101008083540402835291602001916114f4565b820191906000526020600020905b8154815290600101906020018083116114d757829003601f168201915b5050505050815260200160068201805461150d90613675565b80601f016020809104026020016040519081016040528092919081815260200182805461153990613675565b80156115865780601f1061155b57610100808354040283529160200191611586565b820191906000526020600020905b81548152906001019060200180831161156957829003601f168201915b50505091835250506007820154602082015260089091015460ff8082161515604084015261010090910416151560609091015284836115c481613857565b9450815181106115d6576115d6613870565b60200260200101819052505b806115ec81613857565b915050611253565b50505090565b6060600060015b600854811161166f576000818152600b6020526040902060080154610100900460ff1615801561164a57506000818152600b60205260409020600101546001600160a01b031633145b1561165d578161165981613857565b9250505b8061166781613857565b915050611601565b508067ffffffffffffffff8111156116895761168961306a565b6040519080825280602002602001820160405280156116c257816020015b6116af612e32565b8152602001906001900390816116a75790505b509150600060015b6008548110156115f4576000818152600b6020526040902060080154610100900460ff1615801561171457506000818152600b60205260409020600101546001600160a01b031633145b15611a81576000818152600b60209081526040918290208251610140810184528154815260018201546001600160a01b031692810192909252600281018054929391929184019161176490613675565b80601f016020809104026020016040519081016040528092919081815260200182805461179090613675565b80156117dd5780601f106117b2576101008083540402835291602001916117dd565b820191906000526020600020905b8154815290600101906020018083116117c057829003601f168201915b505050505081526020016003820180546117f690613675565b80601f016020809104026020016040519081016040528092919081815260200182805461182290613675565b801561186f5780601f106118445761010080835404028352916020019161186f565b820191906000526020600020905b81548152906001019060200180831161185257829003601f168201915b5050505050815260200160048201805461188890613675565b80601f01602080910402602001604051908101604052809291908181526020018280546118b490613675565b80156119015780601f106118d657610100808354040283529160200191611901565b820191906000526020600020905b8154815290600101906020018083116118e457829003601f168201915b5050505050815260200160058201805461191a90613675565b80601f016020809104026020016040519081016040528092919081815260200182805461194690613675565b80156119935780601f1061196857610100808354040283529160200191611993565b820191906000526020600020905b81548152906001019060200180831161197657829003601f168201915b505050505081526020016006820180546119ac90613675565b80601f01602080910402602001604051908101604052809291908181526020018280546119d890613675565b8015611a255780601f106119fa57610100808354040283529160200191611a25565b820191906000526020600020905b815481529060010190602001808311611a0857829003601f168201915b50505091835250506007820154602082015260089091015460ff808216151560408401526101009091041615156060909101528483611a6381613857565b945081518110611a7557611a75613870565b60200260200101819052505b80611a8b81613857565b9150506116ca565b6107948383836040518060200160405280600081525061219f565b6000818152600360205260408120546001600160a01b0316806105c05760405162461bcd60e51b8152602060048201526018602482015277115490cdcc8c4e881a5b9d985b1a59081d1bdad95b88125160421b60448201526064016106f3565b6000828152600f602052604090205460ff16611b645760405162461bcd60e51b815260206004820152601560248201527414995d9a595dc8191bd95cc81b9bdd08195e1a5cdd605a1b60448201526064016106f3565b6000828152600c602052604081208054909190611b8357611b83613870565b60009182526020909120600490910201600301546001600160a01b03163314611bee5760405162461bcd60e51b815260206004820181905260248201527f4f6e6c792074686520726576697765722063616e20656469742072657669657760448201526064016106f3565b6000815111611c3f5760405162461bcd60e51b815260206004820152601860248201527f436f6d6d656e742063616e206e6f7420626520656d707479000000000000000060448201526064016106f3565b6000828152600c602052604081208054839290611c5e57611c5e613870565b90600052602060002090600402016002019081610794919061374a565b6060600d6000838152602001908152602001600020805480602002602001604051908101604052809291908181526020016000905b82821015611d05576000848152602090819020604080516060810182526003860290920180548352600180820154848601526002909101546001600160a01b0316918301919091529083529092019101611cb0565b505050509050919050565b6000818152600e602052604090205460ff16611d695760405162461bcd60e51b8152602060048201526018602482015277141c9bdc195c9d1e48191bd95cc81b9bdd08195e1a5cda5d60421b60448201526064016106f3565b60003411611db95760405162461bcd60e51b815260206004820152601f60248201527f7072696365206d7573742062652067726561746572207468616e205a65726f0060448201526064016106f3565b6000818152600b6020526040902060080154610100900460ff1615611e1c5760405162461bcd60e51b8152602060048201526019602482015278141c9bdc195c9d1e481a185cc81899595b8819195b195d1959603a1b60448201526064016106f3565b6000818152600b602052604090206008015460ff1615611e775760405162461bcd60e51b8152602060048201526016602482015275141c9bdc195c9d1e481a185cc81899595b881cdbdb1960521b60448201526064016106f3565b611e85600980546001019055565b611eb26040518060600160405280600081526020016000815260200160006001600160a01b031681525090565b600954815260208082018381523360408085019182526000868152600d8552908120805460018082018355918352948220865160039096020194855592519284019290925551600290920180546001600160a01b0319166001600160a01b0390931692909217909155601054606490611f2b9034613886565b611f35919061389d565b90506000611f4382346138bf565b6000858152600b6020526040902060010154909150611f6b906001600160a01b0316826129bb565b611f8973cf34f424bbfa9105288268504981f9ff6a088c8b836129bb565b5050506000908152600b60205260409020600801805460ff19166001179055565b60006001600160a01b0382166120145760405162461bcd60e51b815260206004820152602960248201527f4552433732313a2061646472657373207a65726f206973206e6f7420612076616044820152683634b21037bbb732b960b91b60648201526084016106f3565b506001600160a01b031660009081526004602052604090205490565b612038612a1b565b6120426000612a75565b565b6060600280546105d590613675565b6060600c6000838152602001908152602001600020805480602002602001604051908101604052809291908181526020016000905b82821015611d0557838290600052602060002090600402016040518060a001604052908160008201548152602001600182015481526020016002820180546120cf90613675565b80601f01602080910402602001604051908101604052809291908181526020018280546120fb90613675565b80156121485780601f1061211d57610100808354040283529160200191612148565b820191906000526020600020905b81548152906001019060200180831161212b57829003601f168201915b5050509183525050600391909101546001600160a01b038116602080840191909152600160a01b90910460ff1615156040909201919091529082526001929092019101612088565b61219b338383612ac5565b5050565b6121a933836127f8565b6121c55760405162461bcd60e51b81526004016106f3906136af565b6121d184848484612b93565b50505050565b60606121e28261272b565b60006121f960408051602081019091526000815290565b905060008151116122195760405180602001604052806000815250612244565b8061222384612bc6565b6040516020016122349291906138d2565b6040516020818303038152906040525b9392505050565b6000818152600f602052604090205460ff166122a15760405162461bcd60e51b815260206004820152601560248201527414995d9a595dc8191bd95cc81b9bdd08195e1a5cdd605a1b60448201526064016106f3565b6000818152600c6020526040812080549091906122c0576122c0613870565b60009182526020909120600490910201600301546001600160a01b031633146123375760405162461bcd60e51b815260206004820152602360248201527f4f6e6c79207468652072657669657765722063616e2064656c6574652072657660448201526269657760e81b60648201526084016106f3565b6000818152600c6020526040812061234e91612e92565b6000908152600f60205260409020805460ff19169055565b6001600160a01b03918216600090815260066020908152604080832093909416825291909152205460ff1690565b61239c612a1b565b6001600160a01b0381166124015760405162461bcd60e51b815260206004820152602660248201527f4f776e61626c653a206e6577206f776e657220697320746865207a65726f206160448201526564647265737360d01b60648201526084016106f3565b61240a81612a75565b50565b6000878152600e602052604090205460ff1661243b5760405162461bcd60e51b81526004016106f39061380a565b6000878152600b60205260409020600101546001600160a01b031633146124b85760405162461bcd60e51b815260206004820152602b60248201527f4f6e6c79207468652070726f7065727479206f776e65722063616e206564697460448201526a081d1a1a5cc8195d995b9d60aa1b60648201526084016106f3565b60008651116125005760405162461bcd60e51b81526020600482015260146024820152734e616d652063616e6e6f7420626520656d70747960601b60448201526064016106f3565b60008551116125495760405162461bcd60e51b8152602060048201526015602482015274496d6167652063616e6e6f7420626520656d70747960581b60448201526064016106f3565b60008451116125955760405162461bcd60e51b815260206004820152601860248201527743617465676f72792063616e6e6f7420626520656d70747960401b60448201526064016106f3565b60008251116125e15760405162461bcd60e51b81526020600482015260186024820152774c6f636174696f6e2063616e6e6f7420626520656d70747960401b60448201526064016106f3565b60008351116126325760405162461bcd60e51b815260206004820152601b60248201527f4465736372697074696f6e2063616e6e6f7420626520656d707479000000000060448201526064016106f3565b600081116126825760405162461bcd60e51b815260206004820152601f60248201527f5072696365206d7573742062652067726561746572207468616e207a65726f0060448201526064016106f3565b6000878152600b6020526040902060020161269d878261374a565b506000878152600b602052604090206004016126b9858261374a565b506000878152600b602052604090206003016126d5868261374a565b506000878152600b602052604090206005016126f1848261374a565b506000878152600b6020526040902060060161270d838261374a565b506000968752600b6020526040909620600701959095555050505050565b6000818152600360205260409020546001600160a01b031661240a5760405162461bcd60e51b8152602060048201526018602482015277115490cdcc8c4e881a5b9d985b1a59081d1bdad95b88125160421b60448201526064016106f3565b600081815260056020526040902080546001600160a01b0319166001600160a01b03841690811790915581906127bf82611aae565b6001600160a01b03167f8c5be1e5ebec7d5bd14f71427d1e84f3dd0314c0f7b2291e5b200ac8c7c3b92560405160405180910390a45050565b60008061280483611aae565b9050806001600160a01b0316846001600160a01b0316148061282b575061282b8185612366565b8061284f5750836001600160a01b031661284484610658565b6001600160a01b0316145b949350505050565b826001600160a01b031661286a82611aae565b6001600160a01b0316146128905760405162461bcd60e51b81526004016106f390613901565b6001600160a01b0382166128f25760405162461bcd60e51b8152602060048201526024808201527f4552433732313a207472616e7366657220746f20746865207a65726f206164646044820152637265737360e01b60648201526084016106f3565b826001600160a01b031661290582611aae565b6001600160a01b03161461292b5760405162461bcd60e51b81526004016106f390613901565b600081815260056020908152604080832080546001600160a01b03199081169091556001600160a01b0387811680865260048552838620805460001901905590871680865283862080546001019055868652600390945282852080549092168417909155905184937fddf252ad1be2c89b69c2b068fc378daa952ba7f163c4a11628f55a4df523b3ef91a4505050565b6000826001600160a01b03168260405160006040518083038185875af1925050503d8060008114612a08576040519150601f19603f3d011682016040523d82523d6000602084013e612a0d565b606091505b505090508061079457600080fd5b6000546001600160a01b031633146120425760405162461bcd60e51b815260206004820181905260248201527f4f776e61626c653a2063616c6c6572206973206e6f7420746865206f776e657260448201526064016106f3565b600080546001600160a01b038381166001600160a01b0319831681178455604051919092169283917f8be0079c531659141344cd1fd0a4f28419497f9722a3daafe3b4186f6b6457e09190a35050565b816001600160a01b0316836001600160a01b031603612b265760405162461bcd60e51b815260206004820152601960248201527f4552433732313a20617070726f766520746f2063616c6c65720000000000000060448201526064016106f3565b6001600160a01b03838116600081815260066020908152604080832094871680845294825291829020805460ff191686151590811790915591519182527f17307eab39ab6107e8899845ad3d59bd9653f200f220920489ca2b5937696c31910160405180910390a3505050565b612b9e848484612857565b612baa84848484612c59565b6121d15760405162461bcd60e51b81526004016106f390613946565b60606000612bd383612d5a565b600101905060008167ffffffffffffffff811115612bf357612bf361306a565b6040519080825280601f01601f191660200182016040528015612c1d576020820181803683370190505b5090508181016020015b600019016f181899199a1a9b1b9c1cb0b131b232b360811b600a86061a8153600a8504945084612c2757509392505050565b60006001600160a01b0384163b15612d4f57604051630a85bd0160e11b81526001600160a01b0385169063150b7a0290612c9d903390899088908890600401613998565b6020604051808303816000875af1925050508015612cd8575060408051601f3d908101601f19168201909252612cd5918101906139d5565b60015b612d35573d808015612d06576040519150601f19603f3d011682016040523d82523d6000602084013e612d0b565b606091505b508051600003612d2d5760405162461bcd60e51b81526004016106f390613946565b805181602001fd5b6001600160e01b031916630a85bd0160e11b14905061284f565b506001949350505050565b60008072184f03e93ff9f4daa797ed6e38ed64bf6a1f0160401b8310612d995772184f03e93ff9f4daa797ed6e38ed64bf6a1f0160401b830492506040015b6d04ee2d6d415b85acef81000000008310612dc5576d04ee2d6d415b85acef8100000000830492506020015b662386f26fc100008310612de357662386f26fc10000830492506010015b6305f5e1008310612dfb576305f5e100830492506008015b6127108310612e0f57612710830492506004015b60648310612e21576064830492506002015b600a83106105c05760010192915050565b6040518061014001604052806000815260200160006001600160a01b031681526020016060815260200160608152602001606081526020016060815260200160608152602001600081526020016000151581526020016000151581525090565b508054600082556004029060005260206000209081019061240a91905b80821115612eeb57600080825560018201819055612ed06002830182612eef565b506003810180546001600160a81b0319169055600401612eaf565b5090565b508054612efb90613675565b6000825580601f10612f0b575050565b601f01602090049060005260206000209081019061240a91905b80821115612eeb5760008155600101612f25565b6001600160e01b03198116811461240a57600080fd5b600060208284031215612f6157600080fd5b813561224481612f39565b60005b83811015612f87578181015183820152602001612f6f565b50506000910152565b60008151808452612fa8816020860160208601612f6c565b601f01601f19169290920160200192915050565b6020815260006122446020830184612f90565b600060208284031215612fe157600080fd5b5035919050565b80356001600160a01b0381168114612fff57600080fd5b919050565b6000806040838503121561301757600080fd5b61302083612fe8565b946020939093013593505050565b60008060006060848603121561304357600080fd5b61304c84612fe8565b925061305a60208501612fe8565b9150604084013590509250925092565b634e487b7160e01b600052604160045260246000fd5b600067ffffffffffffffff8084111561309b5761309b61306a565b604051601f8501601f19908116603f011681019082821181831017156130c3576130c361306a565b816040528093508581528686860111156130dc57600080fd5b858560208301376000602087830101525050509392505050565b600082601f83011261310757600080fd5b61224483833560208501613080565b60008060008060008060c0878903121561312f57600080fd5b863567ffffffffffffffff8082111561314757600080fd5b6131538a838b016130f6565b9750602089013591508082111561316957600080fd5b6131758a838b016130f6565b9650604089013591508082111561318b57600080fd5b6131978a838b016130f6565b955060608901359150808211156131ad57600080fd5b6131b98a838b016130f6565b945060808901359150808211156131cf57600080fd5b506131dc89828a016130f6565b92505060a087013590509295509295509295565b6000806040838503121561320357600080fd5b82359150602083013567ffffffffffffffff81111561322157600080fd5b61322d858286016130f6565b9150509250929050565b600061014082518452602083015161325a60208601826001600160a01b03169052565b50604083015181604086015261327282860182612f90565b9150506060830151848203606086015261328c8282612f90565b915050608083015184820360808601526132a68282612f90565b91505060a083015184820360a08601526132c08282612f90565b91505060c083015184820360c08601526132da8282612f90565b91505060e083015160e0850152610100808401516132fb8287018215159052565b50506101209283015115159390920192909252919050565b6020815260006122446020830184613237565b6000602080830181845280855180835260408601915060408160051b870101925083870160005b8281101561337b57603f19888603018452613369858351613237565b9450928501929085019060010161334d565b5092979650505050505050565b602080825282518282018190526000919060409081850190868401855b828110156133dd5781518051855286810151878601528501516001600160a01b031685850152606090930192908501906001016133a5565b5091979650505050505050565b6000602082840312156133fc57600080fd5b61224482612fe8565b60006020808301818452808551808352604092508286019150828160051b87010184880160005b8381101561349757603f19898403018552815160a081518552888201518986015287820151818987015261346282870182612f90565b6060848101516001600160a01b031690880152608093840151151593909601929092525050938601939086019060010161342c565b509098975050505050505050565b600080604083850312156134b857600080fd5b6134c183612fe8565b9150602083013580151581146134d657600080fd5b809150509250929050565b600080600080608085870312156134f757600080fd5b61350085612fe8565b935061350e60208601612fe8565b925060408501359150606085013567ffffffffffffffff81111561353157600080fd5b8501601f8101871361354257600080fd5b61355187823560208401613080565b91505092959194509250565b6000806040838503121561357057600080fd5b61357983612fe8565b915061358760208401612fe8565b90509250929050565b600080600080600080600060e0888a0312156135ab57600080fd5b87359650602088013567ffffffffffffffff808211156135ca57600080fd5b6135d68b838c016130f6565b975060408a01359150808211156135ec57600080fd5b6135f88b838c016130f6565b965060608a013591508082111561360e57600080fd5b61361a8b838c016130f6565b955060808a013591508082111561363057600080fd5b61363c8b838c016130f6565b945060a08a013591508082111561365257600080fd5b5061365f8a828b016130f6565b92505060c0880135905092959891949750929550565b600181811c9082168061368957607f821691505b6020821081036136a957634e487b7160e01b600052602260045260246000fd5b50919050565b6020808252602d908201527f4552433732313a2063616c6c6572206973206e6f7420746f6b656e206f776e6560408201526c1c881bdc88185c1c1c9bdd9959609a1b606082015260800190565b601f82111561079457600081815260208120601f850160051c810160208610156137235750805b601f850160051c820191505b818110156137425782815560010161372f565b505050505050565b815167ffffffffffffffff8111156137645761376461306a565b613778816137728454613675565b846136fc565b602080601f8311600181146137ad57600084156137955750858301515b600019600386901b1c1916600185901b178555613742565b600085815260208120601f198616915b828110156137dc578886015182559484019460019091019084016137bd565b50858210156137fa5787850151600019600388901b60f8161c191681555b5050505050600190811b01905550565b60208082526017908201527f50726f706572747920646f6573206e6f74206578697374000000000000000000604082015260600190565b634e487b7160e01b600052601160045260246000fd5b60006001820161386957613869613841565b5060010190565b634e487b7160e01b600052603260045260246000fd5b80820281158282048414176105c0576105c0613841565b6000826138ba57634e487b7160e01b600052601260045260246000fd5b500490565b818103818111156105c0576105c0613841565b600083516138e4818460208801612f6c565b8351908301906138f8818360208801612f6c565b01949350505050565b60208082526025908201527f4552433732313a207472616e736665722066726f6d20696e636f72726563742060408201526437bbb732b960d91b606082015260800190565b60208082526032908201527f4552433732313a207472616e7366657220746f206e6f6e20455243373231526560408201527131b2b4bb32b91034b6b83632b6b2b73a32b960711b606082015260800190565b6001600160a01b03858116825284166020820152604081018390526080606082018190526000906139cb90830184612f90565b9695505050505050565b6000602082840312156139e757600080fd5b815161224481612f3956fea26469706673582212202cb4bcc4ab7769617ea7a6bb5b98991f160da14ee93501bca36b3dc8b2552ae864736f6c63430008110033",
  "linkReferences": {},
  "deployedLinkReferences": {}
}