{
  "_format": "hh-sol-artifact-1",
  "contractName": "HemProp",
  "sourceName": "contracts/HemProp.sol",
  "abi": [
    {
      "inputs": [
        {
          "internalType": "uint256",
          "name": "_pct",
          "type": "uint256"
        }
      ],
      "stateMutability": "nonpayable",
      "type": "constructor"
    },
    {
      "anonymous": false,
      "inputs": [
        {
          "indexed": true,
          "internalType": "address",
          "name": "owner",
          "type": "address"
        },
        {
          "indexed": true,
          "internalType": "address",
          "name": "approved",
          "type": "address"
        },
        {
          "indexed": true,
          "internalType": "uint256",
          "name": "tokenId",
          "type": "uint256"
        }
      ],
      "name": "Approval",
      "type": "event"
    },
    {
      "anonymous": false,
      "inputs": [
        {
          "indexed": true,
          "internalType": "address",
          "name": "owner",
          "type": "address"
        },
        {
          "indexed": true,
          "internalType": "address",
          "name": "operator",
          "type": "address"
        },
        {
          "indexed": false,
          "internalType": "bool",
          "name": "approved",
          "type": "bool"
        }
      ],
      "name": "ApprovalForAll",
      "type": "event"
    },
    {
      "anonymous": false,
      "inputs": [
        {
          "indexed": true,
          "internalType": "address",
          "name": "previousOwner",
          "type": "address"
        },
        {
          "indexed": true,
          "internalType": "address",
          "name": "newOwner",
          "type": "address"
        }
      ],
      "name": "OwnershipTransferred",
      "type": "event"
    },
    {
      "anonymous": false,
      "inputs": [
        {
          "indexed": true,
          "internalType": "address",
          "name": "from",
          "type": "address"
        },
        {
          "indexed": true,
          "internalType": "address",
          "name": "to",
          "type": "address"
        },
        {
          "indexed": true,
          "internalType": "uint256",
          "name": "tokenId",
          "type": "uint256"
        }
      ],
      "name": "Transfer",
      "type": "event"
    },
    {
      "inputs": [
        {
          "internalType": "address",
          "name": "to",
          "type": "address"
        },
        {
          "internalType": "uint256",
          "name": "tokenId",
          "type": "uint256"
        }
      ],
      "name": "approve",
      "outputs": [],
      "stateMutability": "nonpayable",
      "type": "function"
    },
    {
      "inputs": [
        {
          "internalType": "address",
          "name": "owner",
          "type": "address"
        }
      ],
      "name": "balanceOf",
      "outputs": [
        {
          "internalType": "uint256",
          "name": "",
          "type": "uint256"
        }
      ],
      "stateMutability": "view",
      "type": "function"
    },
    {
      "inputs": [
        {
          "internalType": "uint256",
          "name": "id",
          "type": "uint256"
        }
      ],
      "name": "buyProperty",
      "outputs": [],
      "stateMutability": "payable",
      "type": "function"
    },
    {
      "inputs": [
        {
          "internalType": "string",
          "name": "name",
          "type": "string"
        },
        {
          "internalType": "string",
          "name": "image",
          "type": "string"
        },
        {
          "internalType": "string",
          "name": "category",
          "type": "string"
        },
        {
          "internalType": "string",
          "name": "description",
          "type": "string"
        },
        {
          "internalType": "string",
          "name": "location",
          "type": "string"
        },
        {
          "internalType": "uint256",
          "name": "bedroom",
          "type": "uint256"
        },
        {
          "internalType": "uint256",
          "name": "bathroom",
          "type": "uint256"
        },
        {
          "internalType": "uint256",
          "name": "built",
          "type": "uint256"
        },
        {
          "internalType": "uint256",
          "name": "squarefit",
          "type": "uint256"
        },
        {
          "internalType": "uint256",
          "name": "price",
          "type": "uint256"
        }
      ],
      "name": "createProperty",
      "outputs": [],
      "stateMutability": "nonpayable",
      "type": "function"
    },
    {
      "inputs": [
        {
          "internalType": "uint256",
          "name": "id",
          "type": "uint256"
        },
        {
          "internalType": "string",
          "name": "comment",
          "type": "string"
        }
      ],
      "name": "createReview",
      "outputs": [],
      "stateMutability": "nonpayable",
      "type": "function"
    },
    {
      "inputs": [
        {
          "internalType": "uint256",
          "name": "id",
          "type": "uint256"
        }
      ],
      "name": "deleteProperty",
      "outputs": [],
      "stateMutability": "nonpayable",
      "type": "function"
    },
    {
      "inputs": [
        {
          "internalType": "uint256",
          "name": "propertyId",
          "type": "uint256"
        },
        {
          "internalType": "uint256",
          "name": "reviewId",
          "type": "uint256"
        }
      ],
      "name": "deleteReview",
      "outputs": [],
      "stateMutability": "nonpayable",
      "type": "function"
    },
    {
      "inputs": [],
      "name": "getAllProperties",
      "outputs": [
        {
          "components": [
            {
              "internalType": "uint256",
              "name": "id",
              "type": "uint256"
            },
            {
              "internalType": "address",
              "name": "owner",
              "type": "address"
            },
            {
              "internalType": "string",
              "name": "name",
              "type": "string"
            },
            {
              "internalType": "string",
              "name": "image",
              "type": "string"
            },
            {
              "internalType": "string",
              "name": "category",
              "type": "string"
            },
            {
              "internalType": "string",
              "name": "description",
              "type": "string"
            },
            {
              "internalType": "string",
              "name": "location",
              "type": "string"
            },
            {
              "internalType": "uint256",
              "name": "bedroom",
              "type": "uint256"
            },
            {
              "internalType": "uint256",
              "name": "bathroom",
              "type": "uint256"
            },
            {
              "internalType": "uint256",
              "name": "built",
              "type": "uint256"
            },
            {
              "internalType": "uint256",
              "name": "squarefit",
              "type": "uint256"
            },
            {
              "internalType": "uint256",
              "name": "price",
              "type": "uint256"
            },
            {
              "internalType": "bool",
              "name": "sold",
              "type": "bool"
            },
            {
              "internalType": "bool",
              "name": "deleted",
              "type": "bool"
            }
          ],
          "internalType": "struct HemProp.PropertyStruct[]",
          "name": "Properties",
          "type": "tuple[]"
        }
      ],
      "stateMutability": "view",
      "type": "function"
    },
    {
      "inputs": [
        {
          "internalType": "uint256",
          "name": "tokenId",
          "type": "uint256"
        }
      ],
      "name": "getApproved",
      "outputs": [
        {
          "internalType": "address",
          "name": "",
          "type": "address"
        }
      ],
      "stateMutability": "view",
      "type": "function"
    },
    {
      "inputs": [],
      "name": "getMyProperty",
      "outputs": [
        {
          "components": [
            {
              "internalType": "uint256",
              "name": "id",
              "type": "uint256"
            },
            {
              "internalType": "address",
              "name": "owner",
              "type": "address"
            },
            {
              "internalType": "string",
              "name": "name",
              "type": "string"
            },
            {
              "internalType": "string",
              "name": "image",
              "type": "string"
            },
            {
              "internalType": "string",
              "name": "category",
              "type": "string"
            },
            {
              "internalType": "string",
              "name": "description",
              "type": "string"
            },
            {
              "internalType": "string",
              "name": "location",
              "type": "string"
            },
            {
              "internalType": "uint256",
              "name": "bedroom",
              "type": "uint256"
            },
            {
              "internalType": "uint256",
              "name": "bathroom",
              "type": "uint256"
            },
            {
              "internalType": "uint256",
              "name": "built",
              "type": "uint256"
            },
            {
              "internalType": "uint256",
              "name": "squarefit",
              "type": "uint256"
            },
            {
              "internalType": "uint256",
              "name": "price",
              "type": "uint256"
            },
            {
              "internalType": "bool",
              "name": "sold",
              "type": "bool"
            },
            {
              "internalType": "bool",
              "name": "deleted",
              "type": "bool"
            }
          ],
          "internalType": "struct HemProp.PropertyStruct[]",
          "name": "Properties",
          "type": "tuple[]"
        }
      ],
      "stateMutability": "view",
      "type": "function"
    },
    {
      "inputs": [
        {
          "internalType": "uint256",
          "name": "id",
          "type": "uint256"
        }
      ],
      "name": "getProperty",
      "outputs": [
        {
          "components": [
            {
              "internalType": "uint256",
              "name": "id",
              "type": "uint256"
            },
            {
              "internalType": "address",
              "name": "owner",
              "type": "address"
            },
            {
              "internalType": "string",
              "name": "name",
              "type": "string"
            },
            {
              "internalType": "string",
              "name": "image",
              "type": "string"
            },
            {
              "internalType": "string",
              "name": "category",
              "type": "string"
            },
            {
              "internalType": "string",
              "name": "description",
              "type": "string"
            },
            {
              "internalType": "string",
              "name": "location",
              "type": "string"
            },
            {
              "internalType": "uint256",
              "name": "bedroom",
              "type": "uint256"
            },
            {
              "internalType": "uint256",
              "name": "bathroom",
              "type": "uint256"
            },
            {
              "internalType": "uint256",
              "name": "built",
              "type": "uint256"
            },
            {
              "internalType": "uint256",
              "name": "squarefit",
              "type": "uint256"
            },
            {
              "internalType": "uint256",
              "name": "price",
              "type": "uint256"
            },
            {
              "internalType": "bool",
              "name": "sold",
              "type": "bool"
            },
            {
              "internalType": "bool",
              "name": "deleted",
              "type": "bool"
            }
          ],
          "internalType": "struct HemProp.PropertyStruct",
          "name": "",
          "type": "tuple"
        }
      ],
      "stateMutability": "view",
      "type": "function"
    },
    {
      "inputs": [
        {
          "internalType": "address",
          "name": "owner",
          "type": "address"
        },
        {
          "internalType": "address",
          "name": "operator",
          "type": "address"
        }
      ],
      "name": "isApprovedForAll",
      "outputs": [
        {
          "internalType": "bool",
          "name": "",
          "type": "bool"
        }
      ],
      "stateMutability": "view",
      "type": "function"
    },
    {
      "inputs": [],
      "name": "name",
      "outputs": [
        {
          "internalType": "string",
          "name": "",
          "type": "string"
        }
      ],
      "stateMutability": "view",
      "type": "function"
    },
    {
      "inputs": [],
      "name": "owner",
      "outputs": [
        {
          "internalType": "address",
          "name": "",
          "type": "address"
        }
      ],
      "stateMutability": "view",
      "type": "function"
    },
    {
      "inputs": [
        {
          "internalType": "uint256",
          "name": "tokenId",
          "type": "uint256"
        }
      ],
      "name": "ownerOf",
      "outputs": [
        {
          "internalType": "address",
          "name": "",
          "type": "address"
        }
      ],
      "stateMutability": "view",
      "type": "function"
    },
    {
      "inputs": [],
      "name": "renounceOwnership",
      "outputs": [],
      "stateMutability": "nonpayable",
      "type": "function"
    },
    {
      "inputs": [
        {
          "internalType": "address",
          "name": "from",
          "type": "address"
        },
        {
          "internalType": "address",
          "name": "to",
          "type": "address"
        },
        {
          "internalType": "uint256",
          "name": "tokenId",
          "type": "uint256"
        }
      ],
      "name": "safeTransferFrom",
      "outputs": [],
      "stateMutability": "nonpayable",
      "type": "function"
    },
    {
      "inputs": [
        {
          "internalType": "address",
          "name": "from",
          "type": "address"
        },
        {
          "internalType": "address",
          "name": "to",
          "type": "address"
        },
        {
          "internalType": "uint256",
          "name": "tokenId",
          "type": "uint256"
        },
        {
          "internalType": "bytes",
          "name": "data",
          "type": "bytes"
        }
      ],
      "name": "safeTransferFrom",
      "outputs": [],
      "stateMutability": "nonpayable",
      "type": "function"
    },
    {
      "inputs": [
        {
          "internalType": "address",
          "name": "operator",
          "type": "address"
        },
        {
          "internalType": "bool",
          "name": "approved",
          "type": "bool"
        }
      ],
      "name": "setApprovalForAll",
      "outputs": [],
      "stateMutability": "nonpayable",
      "type": "function"
    },
    {
      "inputs": [
        {
          "internalType": "bytes4",
          "name": "interfaceId",
          "type": "bytes4"
        }
      ],
      "name": "supportsInterface",
      "outputs": [
        {
          "internalType": "bool",
          "name": "",
          "type": "bool"
        }
      ],
      "stateMutability": "view",
      "type": "function"
    },
    {
      "inputs": [],
      "name": "symbol",
      "outputs": [
        {
          "internalType": "string",
          "name": "",
          "type": "string"
        }
      ],
      "stateMutability": "view",
      "type": "function"
    },
    {
      "inputs": [
        {
          "internalType": "uint256",
          "name": "tokenId",
          "type": "uint256"
        }
      ],
      "name": "tokenURI",
      "outputs": [
        {
          "internalType": "string",
          "name": "",
          "type": "string"
        }
      ],
      "stateMutability": "view",
      "type": "function"
    },
    {
      "inputs": [
        {
          "internalType": "address",
          "name": "from",
          "type": "address"
        },
        {
          "internalType": "address",
          "name": "to",
          "type": "address"
        },
        {
          "internalType": "uint256",
          "name": "tokenId",
          "type": "uint256"
        }
      ],
      "name": "transferFrom",
      "outputs": [],
      "stateMutability": "nonpayable",
      "type": "function"
    },
    {
      "inputs": [
        {
          "internalType": "address",
          "name": "newOwner",
          "type": "address"
        }
      ],
      "name": "transferOwnership",
      "outputs": [],
      "stateMutability": "nonpayable",
      "type": "function"
    },
    {
      "inputs": [
        {
          "internalType": "uint256",
          "name": "id",
          "type": "uint256"
        },
        {
          "internalType": "string",
          "name": "name",
          "type": "string"
        },
        {
          "internalType": "string",
          "name": "image",
          "type": "string"
        },
        {
          "internalType": "string",
          "name": "category",
          "type": "string"
        },
        {
          "internalType": "string",
          "name": "description",
          "type": "string"
        },
        {
          "internalType": "string",
          "name": "location",
          "type": "string"
        },
        {
          "internalType": "uint256",
          "name": "bedroom",
          "type": "uint256"
        },
        {
          "internalType": "uint256",
          "name": "bathroom",
          "type": "uint256"
        },
        {
          "internalType": "uint256",
          "name": "built",
          "type": "uint256"
        },
        {
          "internalType": "uint256",
          "name": "squarefit",
          "type": "uint256"
        },
        {
          "internalType": "uint256",
          "name": "price",
          "type": "uint256"
        }
      ],
      "name": "updateProperty",
      "outputs": [],
      "stateMutability": "nonpayable",
      "type": "function"
    },
    {
      "inputs": [
        {
          "internalType": "uint256",
          "name": "propertyId",
          "type": "uint256"
        },
        {
          "internalType": "uint256",
          "name": "reviewId",
          "type": "uint256"
        },
        {
          "internalType": "string",
          "name": "comment",
          "type": "string"
        }
      ],
      "name": "updateReview",
      "outputs": [],
      "stateMutability": "nonpayable",
      "type": "function"
    }
  ],
  "bytecode": "0x60806040523480156200001157600080fd5b5060405162003f3538038062003f35833981016040819052620000349162000110565b6040518060400160405280600b81526020016a48656d50726f706572747960a81b81525060405180604001604052806003815260200162121c1d60ea1b8152506200008e62000088620000bc60201b60201c565b620000c0565b60016200009c8382620001cf565b506002620000ab8282620001cf565b50506001600755506010556200029b565b3390565b600080546001600160a01b038381166001600160a01b0319831681178455604051919092169283917f8be0079c531659141344cd1fd0a4f28419497f9722a3daafe3b4186f6b6457e09190a35050565b6000602082840312156200012357600080fd5b5051919050565b634e487b7160e01b600052604160045260246000fd5b600181811c908216806200015557607f821691505b6020821081036200017657634e487b7160e01b600052602260045260246000fd5b50919050565b601f821115620001ca57600081815260208120601f850160051c81016020861015620001a55750805b601f850160051c820191505b81811015620001c657828155600101620001b1565b5050505b505050565b81516001600160401b03811115620001eb57620001eb6200012a565b6200020381620001fc845462000140565b846200017c565b602080601f8311600181146200023b5760008415620002225750858301515b600019600386901b1c1916600185901b178555620001c6565b600085815260208120601f198616915b828110156200026c578886015182559484019460019091019084016200024b565b50858210156200028b5787850151600019600388901b60f8161c191681555b5050505050600190811b01905550565b613c8a80620002ab6000396000f3fe6080604052600436106101815760003560e01c806342842e0e116100d15780638da5cb5b1161008a578063b88d4fde11610064578063b88d4fde14610464578063c87b56dd14610484578063e985e9c5146104a4578063f2fde38b146104c457600080fd5b80638da5cb5b1461041157806395d89b411461042f578063a22cb4651461044457600080fd5b806342842e0e1461035b5780636352211e1461037b5780636fa830a61461039b57806370a08231146103ae578063715018a6146103dc5780638987cc99146103f157600080fd5b8063175a3b411161013e5780632c0e839b116101185780632c0e839b146102d757806332665ffb146102f75780633d51402c146103245780634024708a1461034657600080fd5b8063175a3b411461027757806323b872dd1461029757806324d41a03146102b757600080fd5b806301ffc9a71461018657806303d87e48146101bb57806306fdde03146101dd578063081812fc146101ff578063095ea7b314610237578063170140f114610257575b600080fd5b34801561019257600080fd5b506101a66101a1366004613145565b6104e4565b60405190151581526020015b60405180910390f35b3480156101c757600080fd5b506101db6101d636600461320e565b610536565b005b3480156101e957600080fd5b506101f261095b565b6040516101b29190613372565b34801561020b57600080fd5b5061021f61021a366004613385565b6109ed565b6040516001600160a01b0390911681526020016101b2565b34801561024357600080fd5b506101db6102523660046133ba565b610a14565b34801561026357600080fd5b506101db610272366004613385565b610b29565b34801561028357600080fd5b506101db6102923660046133e4565b610c35565b3480156102a357600080fd5b506101db6102b2366004613434565b610e8b565b3480156102c357600080fd5b506101db6102d2366004613470565b610ebc565b3480156102e357600080fd5b506101db6102f2366004613492565b6110bc565b34801561030357600080fd5b50610317610312366004613385565b61129e565b6040516101b291906135d8565b34801561033057600080fd5b506103396116a8565b6040516101b291906135eb565b34801561035257600080fd5b50610339611b20565b34801561036757600080fd5b506101db610376366004613434565b611fe0565b34801561038757600080fd5b5061021f610396366004613385565b611ffb565b6101db6103a9366004613385565b61205b565b3480156103ba57600080fd5b506103ce6103c936600461364d565b612306565b6040519081526020016101b2565b3480156103e857600080fd5b506101db61238c565b3480156103fd57600080fd5b506101db61040c366004613668565b6123a0565b34801561041d57600080fd5b506000546001600160a01b031661021f565b34801561043b57600080fd5b506101f26127e5565b34801561045057600080fd5b506101db61045f366004613768565b6127f4565b34801561047057600080fd5b506101db61047f3660046137a4565b612803565b34801561049057600080fd5b506101f261049f366004613385565b61283b565b3480156104b057600080fd5b506101a66104bf366004613820565b6128af565b3480156104d057600080fd5b506101db6104df36600461364d565b6128dd565b60006001600160e01b031982166380ac58cd60e01b148061051557506001600160e01b03198216635b5e139f60e01b145b8061053057506301ffc9a760e01b6001600160e01b03198316145b92915050565b60008b8152600e602052604090205460ff1661056d5760405162461bcd60e51b815260040161056490613853565b60405180910390fd5b60008b8152600b60205260409020600101546001600160a01b031633146105ea5760405162461bcd60e51b815260206004820152602b60248201527f4f6e6c79207468652070726f7065727479206f776e65722063616e206564697460448201526a081d1a1a5cc8195d995b9d60aa1b6064820152608401610564565b60008a51116106325760405162461bcd60e51b81526020600482015260146024820152734e616d652063616e6e6f7420626520656d70747960601b6044820152606401610564565b600089511161067b5760405162461bcd60e51b8152602060048201526015602482015274496d6167652063616e6e6f7420626520656d70747960581b6044820152606401610564565b60008851116106c75760405162461bcd60e51b815260206004820152601860248201527743617465676f72792063616e6e6f7420626520656d70747960401b6044820152606401610564565b60008651116107135760405162461bcd60e51b81526020600482015260186024820152774c6f636174696f6e2063616e6e6f7420626520656d70747960401b6044820152606401610564565b60008751116107645760405162461bcd60e51b815260206004820152601b60248201527f4465736372697074696f6e2063616e6e6f7420626520656d70747900000000006044820152606401610564565b600085116107b45760405162461bcd60e51b815260206004820152601f60248201527f426564726f6f6d2063616e6e6f74206265207a65726f206f7220656d707479006044820152606401610564565b600084116108045760405162461bcd60e51b815260206004820181905260248201527f42617468726f6f6d2063616e6e6f74206265207a65726f206f7220656d7074796044820152606401610564565b600083116108245760405162461bcd60e51b81526004016105649061388a565b600082116108445760405162461bcd60e51b8152600401610564906138cc565b600081116108945760405162461bcd60e51b815260206004820152601f60248201527f5072696365206d7573742062652067726561746572207468616e207a65726f006044820152606401610564565b60008b8152600b602052604090206002016108af8b82613996565b5060008b8152600b602052604090206004016108cb8982613996565b5060008b8152600b602052604090206003016108e78a82613996565b5060008b8152600b602052604090206005016109038882613996565b5060008b8152600b6020526040902060060161091f8782613996565b5060009a8b52600b60208190526040909b20600781019590955560088501939093556009840191909155600a8301559601959095555050505050565b60606001805461096a9061390e565b80601f01602080910402602001604051908101604052809291908181526020018280546109969061390e565b80156109e35780601f106109b8576101008083540402835291602001916109e3565b820191906000526020600020905b8154815290600101906020018083116109c657829003601f168201915b5050505050905090565b60006109f882612953565b506000908152600560205260409020546001600160a01b031690565b6000610a1f82611ffb565b9050806001600160a01b0316836001600160a01b031603610a8c5760405162461bcd60e51b815260206004820152602160248201527f4552433732313a20617070726f76616c20746f2063757272656e74206f776e656044820152603960f91b6064820152608401610564565b336001600160a01b0382161480610aa85750610aa881336128af565b610b1a5760405162461bcd60e51b815260206004820152603d60248201527f4552433732313a20617070726f76652063616c6c6572206973206e6f7420746f60448201527f6b656e206f776e6572206f7220617070726f76656420666f7220616c6c0000006064820152608401610564565b610b2483836129b2565b505050565b6000818152600e602052604090205460ff16610b875760405162461bcd60e51b815260206004820152601860248201527f50726f706572747920646f6573206e6f742065786973697400000000000000006044820152606401610564565b6000818152600b60205260409020600101546001600160a01b0316331480610bb957506000546001600160a01b031633145b610c155760405162461bcd60e51b815260206004820152602760248201527f4f6e6c792070726f7065727479206f776e65722063616e2064656c6574652070604482015266726f706572747960c81b6064820152608401610564565b6000908152600b60205260409020600c01805461ff001916610100179055565b6000838152600e602052604090205460ff16610c635760405162461bcd60e51b815260040161056490613853565b6000828152600f602052604090205460ff16610cb95760405162461bcd60e51b815260206004820152601560248201527414995d9a595dc8191bd95cc81b9bdd08195e1a5cdd605a1b6044820152606401610564565b6000815111610d0a5760405162461bcd60e51b815260206004820152601760248201527f436f6d6d656e742063616e6e6f7420626520656d7074790000000000000000006044820152606401610564565b60005b6000848152600c6020526040902054811015610e4f576000848152600c60205260409020805484919083908110610d4657610d46613a56565b90600052602060002090600402016000015403610e3d576000848152600c60205260409020805482908110610d7d57610d7d613a56565b60009182526020909120600490910201600301546001600160a01b03163314610df65760405162461bcd60e51b815260206004820152602560248201527f4f6e6c79207468652072657669657765722063616e2065646974207468652072604482015264657669657760d81b6064820152608401610564565b6000848152600c60205260409020805483919083908110610e1957610e19613a56565b90600052602060002090600402016002019081610e369190613996565b5050505050565b80610e4781613a82565b915050610d0d565b5060405162461bcd60e51b815260206004820152601060248201526f14995d9a595dc81b9bdd08199bdd5b9960821b6044820152606401610564565b610e953382612a20565b610eb15760405162461bcd60e51b815260040161056490613a9b565b610b24838383612a7f565b6000828152600e602052604090205460ff16610eea5760405162461bcd60e51b815260040161056490613853565b6000818152600f602052604090205460ff16610f405760405162461bcd60e51b815260206004820152601560248201527414995d9a595dc8191bd95cc81b9bdd08195e1a5cdd605a1b6044820152606401610564565b60005b6000838152600c6020526040902054811015610e4f576000838152600c60205260409020805483919083908110610f7c57610f7c613a56565b906000526020600020906004020160000154036110aa576000838152600c60205260409020805482908110610fb357610fb3613a56565b60009182526020909120600490910201600301546001600160a01b0316331480610fe757506000546001600160a01b031633145b6110595760405162461bcd60e51b815260206004820152603960248201527f4f6e6c7920746865207265766965776572206f7220636f6e7472616374206f7760448201527f6e65722063616e2064656c6574652074686520726576696577000000000000006064820152608401610564565b6000838152600c602052604090208054600191908390811061107d5761107d613a56565b906000526020600020906004020160030160146101000a81548160ff021916908315150217905550505050565b806110b481613a82565b915050610f43565b6000828152600e602052604090205460ff166110ea5760405162461bcd60e51b815260040161056490613853565b6000828152600b60205260409020600c0154610100900460ff161561114d5760405162461bcd60e51b8152602060048201526019602482015278141c9bdc195c9d1e481a185cc81899595b8819195b195d1959603a1b6044820152606401610564565b600081511161119e5760405162461bcd60e51b815260206004820152601860248201527f526576696577206d757374206e6f7420626520656d70747900000000000000006044820152606401610564565b6111ac600a80546001019055565b6111e96040518060a0016040528060008152602001600081526020016060815260200160006001600160a01b031681526020016000151581525090565b600a548152602080820184815233606084015260408084018581526000878152600c85529182208054600181810183559184529490922085516004909502019384559151908301555182919060028201906112449082613996565b506060820151600390910180546080909301511515600160a01b026001600160a81b03199093166001600160a01b0390921691909117919091179055516000908152600f60205260409020805460ff191660011790555050565b6112a66130b3565b6000828152600e602052604090205460ff166112d45760405162461bcd60e51b815260040161056490613853565b6000828152600b60205260409020600c0154610100900460ff161561133b5760405162461bcd60e51b815260206004820152601860248201527f50726f7065727920686173206265656e2064656c6574656400000000000000006044820152606401610564565b6000828152600b602090815260409182902082516101c0810184528154815260018201546001600160a01b03169281019290925260028101805492939192918401916113869061390e565b80601f01602080910402602001604051908101604052809291908181526020018280546113b29061390e565b80156113ff5780601f106113d4576101008083540402835291602001916113ff565b820191906000526020600020905b8154815290600101906020018083116113e257829003601f168201915b505050505081526020016003820180546114189061390e565b80601f01602080910402602001604051908101604052809291908181526020018280546114449061390e565b80156114915780601f1061146657610100808354040283529160200191611491565b820191906000526020600020905b81548152906001019060200180831161147457829003601f168201915b505050505081526020016004820180546114aa9061390e565b80601f01602080910402602001604051908101604052809291908181526020018280546114d69061390e565b80156115235780601f106114f857610100808354040283529160200191611523565b820191906000526020600020905b81548152906001019060200180831161150657829003601f168201915b5050505050815260200160058201805461153c9061390e565b80601f01602080910402602001604051908101604052809291908181526020018280546115689061390e565b80156115b55780601f1061158a576101008083540402835291602001916115b5565b820191906000526020600020905b81548152906001019060200180831161159857829003601f168201915b505050505081526020016006820180546115ce9061390e565b80601f01602080910402602001604051908101604052809291908181526020018280546115fa9061390e565b80156116475780601f1061161c57610100808354040283529160200191611647565b820191906000526020600020905b81548152906001019060200180831161162a57829003601f168201915b5050509183525050600782015460208201526008820154604082015260098201546060820152600a8201546080820152600b82015460a0820152600c9091015460ff808216151560c084015261010090910416151560e09091015292915050565b6060600060015b60085481116116f6576000818152600b60205260409020600c0154610100900460ff166116e457816116e081613a82565b9250505b806116ee81613a82565b9150506116af565b508067ffffffffffffffff81111561171057611710613162565b60405190808252806020026020018201604052801561174957816020015b6117366130b3565b81526020019060019003908161172e5790505b509150600060015b6008548111611b1a576000818152600b60205260409020600c0154610100900460ff16611b08576000818152600b602090815260409182902082516101c0810184528154815260018201546001600160a01b03169281019290925260028101805492939192918401916117c39061390e565b80601f01602080910402602001604051908101604052809291908181526020018280546117ef9061390e565b801561183c5780601f106118115761010080835404028352916020019161183c565b820191906000526020600020905b81548152906001019060200180831161181f57829003601f168201915b505050505081526020016003820180546118559061390e565b80601f01602080910402602001604051908101604052809291908181526020018280546118819061390e565b80156118ce5780601f106118a3576101008083540402835291602001916118ce565b820191906000526020600020905b8154815290600101906020018083116118b157829003601f168201915b505050505081526020016004820180546118e79061390e565b80601f01602080910402602001604051908101604052809291908181526020018280546119139061390e565b80156119605780601f1061193557610100808354040283529160200191611960565b820191906000526020600020905b81548152906001019060200180831161194357829003601f168201915b505050505081526020016005820180546119799061390e565b80601f01602080910402602001604051908101604052809291908181526020018280546119a59061390e565b80156119f25780601f106119c7576101008083540402835291602001916119f2565b820191906000526020600020905b8154815290600101906020018083116119d557829003601f168201915b50505050508152602001600682018054611a0b9061390e565b80601f0160208091040260200160405190810160405280929190818152602001828054611a379061390e565b8015611a845780601f10611a5957610100808354040283529160200191611a84565b820191906000526020600020905b815481529060010190602001808311611a6757829003601f168201915b5050509183525050600782015460208201526008820154604082015260098201546060820152600a8201546080820152600b82015460a0820152600c9091015460ff808216151560c084015261010090910416151560e0909101528483611aea81613a82565b945081518110611afc57611afc613a56565b60200260200101819052505b80611b1281613a82565b915050611751565b50505090565b6060600060015b6008548111611b95576000818152600b60205260409020600c0154610100900460ff16158015611b7057506000818152600b60205260409020600101546001600160a01b031633145b15611b835781611b7f81613a82565b9250505b80611b8d81613a82565b915050611b27565b508067ffffffffffffffff811115611baf57611baf613162565b604051908082528060200260200182016040528015611be857816020015b611bd56130b3565b815260200190600190039081611bcd5790505b509150600060015b6008548111611b1a576000818152600b60205260409020600c0154610100900460ff16158015611c3957506000818152600b60205260409020600101546001600160a01b031633145b15611fce576000818152600b602090815260409182902082516101c0810184528154815260018201546001600160a01b0316928101929092526002810180549293919291840191611c899061390e565b80601f0160208091040260200160405190810160405280929190818152602001828054611cb59061390e565b8015611d025780601f10611cd757610100808354040283529160200191611d02565b820191906000526020600020905b815481529060010190602001808311611ce557829003601f168201915b50505050508152602001600382018054611d1b9061390e565b80601f0160208091040260200160405190810160405280929190818152602001828054611d479061390e565b8015611d945780601f10611d6957610100808354040283529160200191611d94565b820191906000526020600020905b815481529060010190602001808311611d7757829003601f168201915b50505050508152602001600482018054611dad9061390e565b80601f0160208091040260200160405190810160405280929190818152602001828054611dd99061390e565b8015611e265780601f10611dfb57610100808354040283529160200191611e26565b820191906000526020600020905b815481529060010190602001808311611e0957829003601f168201915b50505050508152602001600582018054611e3f9061390e565b80601f0160208091040260200160405190810160405280929190818152602001828054611e6b9061390e565b8015611eb85780601f10611e8d57610100808354040283529160200191611eb8565b820191906000526020600020905b815481529060010190602001808311611e9b57829003601f168201915b50505050508152602001600682018054611ed19061390e565b80601f0160208091040260200160405190810160405280929190818152602001828054611efd9061390e565b8015611f4a5780601f10611f1f57610100808354040283529160200191611f4a565b820191906000526020600020905b815481529060010190602001808311611f2d57829003601f168201915b5050509183525050600782015460208201526008820154604082015260098201546060820152600a8201546080820152600b82015460a0820152600c9091015460ff808216151560c084015261010090910416151560e0909101528483611fb081613a82565b945081518110611fc257611fc2613a56565b60200260200101819052505b80611fd881613a82565b915050611bf0565b610b2483838360405180602001604052806000815250612803565b6000818152600360205260408120546001600160a01b0316806105305760405162461bcd60e51b8152602060048201526018602482015277115490cdcc8c4e881a5b9d985b1a59081d1bdad95b88125160421b6044820152606401610564565b612063612be3565b6000818152600e602052604090205460ff166120915760405162461bcd60e51b815260040161056490613853565b6000818152600b6020819052604090912001543410156120ea5760405162461bcd60e51b8152602060048201526014602482015273125b9cdd59999a58da595b9d081c185e5b595b9d60621b6044820152606401610564565b6000818152600b60205260409020600c0154610100900460ff161561214d5760405162461bcd60e51b8152602060048201526019602482015278141c9bdc195c9d1e481a185cc81899595b8819195b195d1959603a1b6044820152606401610564565b6000818152600b60205260409020600c015460ff16156121a85760405162461bcd60e51b8152602060048201526016602482015275141c9bdc195c9d1e481a185cc81899595b881cdbdb1960521b6044820152606401610564565b6121b6600980546001019055565b6121e36040518060600160405280600081526020016000815260200160006001600160a01b031681525090565b600954815260208082018381523360408085019182526000868152600d8552908120805460018082018355918352948220865160039096020194855592519284019290925551600290920180546001600160a01b0319166001600160a01b039093169290921790915560105460649061225c9034613ae8565b6122669190613aff565b905060006122748234613b21565b6000858152600b602052604090206001015490915061229c906001600160a01b031682612c3c565b6122b76122b16000546001600160a01b031690565b83612c3c565b6000848152600b60205260409020600c8101805460ff191660019081179091550180546001600160a01b031916339081179091556122f6908086612a7f565b5050506123036001600755565b50565b60006001600160a01b0382166123705760405162461bcd60e51b815260206004820152602960248201527f4552433732313a2061646472657373207a65726f206973206e6f7420612076616044820152683634b21037bbb732b960b91b6064820152608401610564565b506001600160a01b031660009081526004602052604090205490565b612394612c9c565b61239e6000612cf6565b565b60008a51116123e85760405162461bcd60e51b81526020600482015260146024820152734e616d652063616e6e6f7420626520656d70747960601b6044820152606401610564565b60008951116124315760405162461bcd60e51b8152602060048201526015602482015274496d6167652063616e6e6f7420626520656d70747960581b6044820152606401610564565b600088511161247d5760405162461bcd60e51b815260206004820152601860248201527743617465676f72792063616e6e6f7420626520656d70747960401b6044820152606401610564565b60008751116124ce5760405162461bcd60e51b815260206004820152601b60248201527f4465736372697074696f6e2063616e6e6f7420626520656d70747900000000006044820152606401610564565b600086511161251a5760405162461bcd60e51b81526020600482015260186024820152774c6f636174696f6e2063616e6e6f7420626520656d70747960401b6044820152606401610564565b6000851161256a5760405162461bcd60e51b815260206004820152601f60248201527f426564726f6f6d2063616e6e6f74206265207a65726f206f7220656d707479006044820152606401610564565b600084116125ba5760405162461bcd60e51b815260206004820181905260248201527f42617468726f6f6d2063616e6e6f74206265207a65726f206f7220656d7074796044820152606401610564565b600083116125da5760405162461bcd60e51b81526004016105649061388a565b600082116125fa5760405162461bcd60e51b8152600401610564906138cc565b6000811161264a5760405162461bcd60e51b815260206004820152601f60248201527f5072696365206d7573742062652067726561746572207468616e207a65726f006044820152606401610564565b612658600880546001019055565b6126606130b3565b60085480825233602080840191825260408085018f8152606086018f9052608086018e905260a086018d905260c086018c905260e086018b905261010086018a90526101208601899052610140860188905261016086018790526000948552600b9092529092208351815590516001820180546001600160a01b0319166001600160a01b03909216919091179055905182919060028201906127029082613996565b50606082015160038201906127179082613996565b506080820151600482019061272c9082613996565b5060a082015160058201906127419082613996565b5060c082015160068201906127569082613996565b5060e082015160078201556101008083015160088301556101208301516009830155610140830151600a830155610160830151600b830155610180830151600c90920180546101a09094015161ffff1990941692151561ff0019169290921792151502919091179055516000908152600e60205260409020805460ff1916600117905550505050505050505050565b60606002805461096a9061390e565b6127ff338383612d46565b5050565b61280d3383612a20565b6128295760405162461bcd60e51b815260040161056490613a9b565b61283584848484612e14565b50505050565b606061284682612953565b600061285d60408051602081019091526000815290565b9050600081511161287d57604051806020016040528060008152506128a8565b8061288784612e47565b604051602001612898929190613b34565b6040516020818303038152906040525b9392505050565b6001600160a01b03918216600090815260066020908152604080832093909416825291909152205460ff1690565b6128e5612c9c565b6001600160a01b03811661294a5760405162461bcd60e51b815260206004820152602660248201527f4f776e61626c653a206e6577206f776e657220697320746865207a65726f206160448201526564647265737360d01b6064820152608401610564565b61230381612cf6565b6000818152600360205260409020546001600160a01b03166123035760405162461bcd60e51b8152602060048201526018602482015277115490cdcc8c4e881a5b9d985b1a59081d1bdad95b88125160421b6044820152606401610564565b600081815260056020526040902080546001600160a01b0319166001600160a01b03841690811790915581906129e782611ffb565b6001600160a01b03167f8c5be1e5ebec7d5bd14f71427d1e84f3dd0314c0f7b2291e5b200ac8c7c3b92560405160405180910390a45050565b600080612a2c83611ffb565b9050806001600160a01b0316846001600160a01b03161480612a535750612a5381856128af565b80612a775750836001600160a01b0316612a6c846109ed565b6001600160a01b0316145b949350505050565b826001600160a01b0316612a9282611ffb565b6001600160a01b031614612ab85760405162461bcd60e51b815260040161056490613b63565b6001600160a01b038216612b1a5760405162461bcd60e51b8152602060048201526024808201527f4552433732313a207472616e7366657220746f20746865207a65726f206164646044820152637265737360e01b6064820152608401610564565b826001600160a01b0316612b2d82611ffb565b6001600160a01b031614612b535760405162461bcd60e51b815260040161056490613b63565b600081815260056020908152604080832080546001600160a01b03199081169091556001600160a01b0387811680865260048552838620805460001901905590871680865283862080546001019055868652600390945282852080549092168417909155905184937fddf252ad1be2c89b69c2b068fc378daa952ba7f163c4a11628f55a4df523b3ef91a4505050565b600260075403612c355760405162461bcd60e51b815260206004820152601f60248201527f5265656e7472616e637947756172643a207265656e7472616e742063616c6c006044820152606401610564565b6002600755565b6000826001600160a01b03168260405160006040518083038185875af1925050503d8060008114612c89576040519150601f19603f3d011682016040523d82523d6000602084013e612c8e565b606091505b5050905080610b2457600080fd5b6000546001600160a01b0316331461239e5760405162461bcd60e51b815260206004820181905260248201527f4f776e61626c653a2063616c6c6572206973206e6f7420746865206f776e65726044820152606401610564565b600080546001600160a01b038381166001600160a01b0319831681178455604051919092169283917f8be0079c531659141344cd1fd0a4f28419497f9722a3daafe3b4186f6b6457e09190a35050565b816001600160a01b0316836001600160a01b031603612da75760405162461bcd60e51b815260206004820152601960248201527f4552433732313a20617070726f766520746f2063616c6c6572000000000000006044820152606401610564565b6001600160a01b03838116600081815260066020908152604080832094871680845294825291829020805460ff191686151590811790915591519182527f17307eab39ab6107e8899845ad3d59bd9653f200f220920489ca2b5937696c31910160405180910390a3505050565b612e1f848484612a7f565b612e2b84848484612eda565b6128355760405162461bcd60e51b815260040161056490613ba8565b60606000612e5483612fdb565b600101905060008167ffffffffffffffff811115612e7457612e74613162565b6040519080825280601f01601f191660200182016040528015612e9e576020820181803683370190505b5090508181016020015b600019016f181899199a1a9b1b9c1cb0b131b232b360811b600a86061a8153600a8504945084612ea857509392505050565b60006001600160a01b0384163b15612fd057604051630a85bd0160e11b81526001600160a01b0385169063150b7a0290612f1e903390899088908890600401613bfa565b6020604051808303816000875af1925050508015612f59575060408051601f3d908101601f19168201909252612f5691810190613c37565b60015b612fb6573d808015612f87576040519150601f19603f3d011682016040523d82523d6000602084013e612f8c565b606091505b508051600003612fae5760405162461bcd60e51b815260040161056490613ba8565b805181602001fd5b6001600160e01b031916630a85bd0160e11b149050612a77565b506001949350505050565b60008072184f03e93ff9f4daa797ed6e38ed64bf6a1f0160401b831061301a5772184f03e93ff9f4daa797ed6e38ed64bf6a1f0160401b830492506040015b6d04ee2d6d415b85acef81000000008310613046576d04ee2d6d415b85acef8100000000830492506020015b662386f26fc10000831061306457662386f26fc10000830492506010015b6305f5e100831061307c576305f5e100830492506008015b612710831061309057612710830492506004015b606483106130a2576064830492506002015b600a83106105305760010192915050565b604051806101c001604052806000815260200160006001600160a01b03168152602001606081526020016060815260200160608152602001606081526020016060815260200160008152602001600081526020016000815260200160008152602001600081526020016000151581526020016000151581525090565b6001600160e01b03198116811461230357600080fd5b60006020828403121561315757600080fd5b81356128a88161312f565b634e487b7160e01b600052604160045260246000fd5b600067ffffffffffffffff8084111561319357613193613162565b604051601f8501601f19908116603f011681019082821181831017156131bb576131bb613162565b816040528093508581528686860111156131d457600080fd5b858560208301376000602087830101525050509392505050565b600082601f8301126131ff57600080fd5b6128a883833560208501613178565b60008060008060008060008060008060006101608c8e03121561323057600080fd5b8b359a5067ffffffffffffffff8060208e0135111561324e57600080fd5b61325e8e60208f01358f016131ee565b9a508060408e0135111561327157600080fd5b6132818e60408f01358f016131ee565b99508060608e0135111561329457600080fd5b6132a48e60608f01358f016131ee565b98508060808e013511156132b757600080fd5b6132c78e60808f01358f016131ee565b97508060a08e013511156132da57600080fd5b506132eb8d60a08e01358e016131ee565b9a9d999c50979a9699959895975050505060c08401359360e081013593610100820135935061012082013592506101409091013590565b60005b8381101561333d578181015183820152602001613325565b50506000910152565b6000815180845261335e816020860160208601613322565b601f01601f19169290920160200192915050565b6020815260006128a86020830184613346565b60006020828403121561339757600080fd5b5035919050565b80356001600160a01b03811681146133b557600080fd5b919050565b600080604083850312156133cd57600080fd5b6133d68361339e565b946020939093013593505050565b6000806000606084860312156133f957600080fd5b8335925060208401359150604084013567ffffffffffffffff81111561341e57600080fd5b61342a868287016131ee565b9150509250925092565b60008060006060848603121561344957600080fd5b6134528461339e565b92506134606020850161339e565b9150604084013590509250925092565b6000806040838503121561348357600080fd5b50508035926020909101359150565b600080604083850312156134a557600080fd5b82359150602083013567ffffffffffffffff8111156134c357600080fd5b6134cf858286016131ee565b9150509250929050565b60006101c08251845260208301516134fc60208601826001600160a01b03169052565b50604083015181604086015261351482860182613346565b9150506060830151848203606086015261352e8282613346565b915050608083015184820360808601526135488282613346565b91505060a083015184820360a08601526135628282613346565b91505060c083015184820360c086015261357c8282613346565b60e085810151908701526101008086015190870152610120808601519087015261014080860151908701526101608086015190870152610180808601511515908701526101a09485015115159490950193909352509192915050565b6020815260006128a860208301846134d9565b6000602080830181845280855180835260408601915060408160051b870101925083870160005b8281101561364057603f1988860301845261362e8583516134d9565b94509285019290850190600101613612565b5092979650505050505050565b60006020828403121561365f57600080fd5b6128a88261339e565b6000806000806000806000806000806101408b8d03121561368857600080fd5b8a3567ffffffffffffffff808211156136a057600080fd5b6136ac8e838f016131ee565b9b5060208d01359150808211156136c257600080fd5b6136ce8e838f016131ee565b9a5060408d01359150808211156136e457600080fd5b6136f08e838f016131ee565b995060608d013591508082111561370657600080fd5b6137128e838f016131ee565b985060808d013591508082111561372857600080fd5b506137358d828e016131ee565b9a9d999c50979a96999860a0880135985060c08801359760e0810135975061010081013596506101200135945092505050565b6000806040838503121561377b57600080fd5b6137848361339e565b91506020830135801515811461379957600080fd5b809150509250929050565b600080600080608085870312156137ba57600080fd5b6137c38561339e565b93506137d16020860161339e565b925060408501359150606085013567ffffffffffffffff8111156137f457600080fd5b8501601f8101871361380557600080fd5b61381487823560208401613178565b91505092959194509250565b6000806040838503121561383357600080fd5b61383c8361339e565b915061384a6020840161339e565b90509250929050565b60208082526017908201527f50726f706572747920646f6573206e6f74206578697374000000000000000000604082015260600190565b60208082526022908201527f59656172206275696c742063616e6e6f74206265207a65726f206f7220656d70604082015261747960f01b606082015260800190565b60208082526022908201527f486f7573652073697a652063616e6e6f74206265207a65726f206f7220656d70604082015261747960f01b606082015260800190565b600181811c9082168061392257607f821691505b60208210810361394257634e487b7160e01b600052602260045260246000fd5b50919050565b601f821115610b2457600081815260208120601f850160051c8101602086101561396f5750805b601f850160051c820191505b8181101561398e5782815560010161397b565b505050505050565b815167ffffffffffffffff8111156139b0576139b0613162565b6139c4816139be845461390e565b84613948565b602080601f8311600181146139f957600084156139e15750858301515b600019600386901b1c1916600185901b17855561398e565b600085815260208120601f198616915b82811015613a2857888601518255948401946001909101908401613a09565b5085821015613a465787850151600019600388901b60f8161c191681555b5050505050600190811b01905550565b634e487b7160e01b600052603260045260246000fd5b634e487b7160e01b600052601160045260246000fd5b600060018201613a9457613a94613a6c565b5060010190565b6020808252602d908201527f4552433732313a2063616c6c6572206973206e6f7420746f6b656e206f776e6560408201526c1c881bdc88185c1c1c9bdd9959609a1b606082015260800190565b808202811582820484141761053057610530613a6c565b600082613b1c57634e487b7160e01b600052601260045260246000fd5b500490565b8181038181111561053057610530613a6c565b60008351613b46818460208801613322565b835190830190613b5a818360208801613322565b01949350505050565b60208082526025908201527f4552433732313a207472616e736665722066726f6d20696e636f72726563742060408201526437bbb732b960d91b606082015260800190565b60208082526032908201527f4552433732313a207472616e7366657220746f206e6f6e20455243373231526560408201527131b2b4bb32b91034b6b83632b6b2b73a32b960711b606082015260800190565b6001600160a01b0385811682528416602082015260408101839052608060608201819052600090613c2d90830184613346565b9695505050505050565b600060208284031215613c4957600080fd5b81516128a88161312f56fea264697066735822122089569603468603fc14e60567685df758cafcc1c1ad7d3403cf6990ff0f1e72be64736f6c63430008110033",
  "linkReferences": {},
  "deployedLinkReferences": {}
}