{
  "_format": "hh-sol-artifact-1",
  "contractName": "HemProp",
  "sourceName": "contracts/HemProp.sol",
  "abi": [
    {
      "inputs": [
        {
          "internalType": "uint256",
          "name": "_pct",
          "type": "uint256"
        }
      ],
      "stateMutability": "nonpayable",
      "type": "constructor"
    },
    {
      "anonymous": false,
      "inputs": [
        {
          "indexed": true,
          "internalType": "address",
          "name": "owner",
          "type": "address"
        },
        {
          "indexed": true,
          "internalType": "address",
          "name": "approved",
          "type": "address"
        },
        {
          "indexed": true,
          "internalType": "uint256",
          "name": "tokenId",
          "type": "uint256"
        }
      ],
      "name": "Approval",
      "type": "event"
    },
    {
      "anonymous": false,
      "inputs": [
        {
          "indexed": true,
          "internalType": "address",
          "name": "owner",
          "type": "address"
        },
        {
          "indexed": true,
          "internalType": "address",
          "name": "operator",
          "type": "address"
        },
        {
          "indexed": false,
          "internalType": "bool",
          "name": "approved",
          "type": "bool"
        }
      ],
      "name": "ApprovalForAll",
      "type": "event"
    },
    {
      "anonymous": false,
      "inputs": [
        {
          "indexed": true,
          "internalType": "address",
          "name": "previousOwner",
          "type": "address"
        },
        {
          "indexed": true,
          "internalType": "address",
          "name": "newOwner",
          "type": "address"
        }
      ],
      "name": "OwnershipTransferred",
      "type": "event"
    },
    {
      "anonymous": false,
      "inputs": [
        {
          "indexed": true,
          "internalType": "uint256",
          "name": "id",
          "type": "uint256"
        },
        {
          "indexed": true,
          "internalType": "address",
          "name": "owner",
          "type": "address"
        },
        {
          "indexed": false,
          "internalType": "uint256",
          "name": "price",
          "type": "uint256"
        }
      ],
      "name": "PropertyCreated",
      "type": "event"
    },
    {
      "anonymous": false,
      "inputs": [
        {
          "indexed": true,
          "internalType": "uint256",
          "name": "id",
          "type": "uint256"
        }
      ],
      "name": "PropertyDeleted",
      "type": "event"
    },
    {
      "anonymous": false,
      "inputs": [
        {
          "indexed": true,
          "internalType": "uint256",
          "name": "id",
          "type": "uint256"
        },
        {
          "indexed": true,
          "internalType": "address",
          "name": "oldOwner",
          "type": "address"
        },
        {
          "indexed": true,
          "internalType": "address",
          "name": "newOwner",
          "type": "address"
        },
        {
          "indexed": false,
          "internalType": "uint256",
          "name": "price",
          "type": "uint256"
        }
      ],
      "name": "PropertySold",
      "type": "event"
    },
    {
      "anonymous": false,
      "inputs": [
        {
          "indexed": true,
          "internalType": "uint256",
          "name": "id",
          "type": "uint256"
        }
      ],
      "name": "PropertyUpdated",
      "type": "event"
    },
    {
      "anonymous": false,
      "inputs": [
        {
          "indexed": true,
          "internalType": "uint256",
          "name": "propertyId",
          "type": "uint256"
        },
        {
          "indexed": true,
          "internalType": "uint256",
          "name": "reviewId",
          "type": "uint256"
        }
      ],
      "name": "ReviewCreated",
      "type": "event"
    },
    {
      "anonymous": false,
      "inputs": [
        {
          "indexed": true,
          "internalType": "uint256",
          "name": "propertyId",
          "type": "uint256"
        },
        {
          "indexed": true,
          "internalType": "uint256",
          "name": "reviewId",
          "type": "uint256"
        }
      ],
      "name": "ReviewDeleted",
      "type": "event"
    },
    {
      "anonymous": false,
      "inputs": [
        {
          "indexed": true,
          "internalType": "uint256",
          "name": "propertyId",
          "type": "uint256"
        },
        {
          "indexed": true,
          "internalType": "uint256",
          "name": "reviewId",
          "type": "uint256"
        }
      ],
      "name": "ReviewUpdated",
      "type": "event"
    },
    {
      "anonymous": false,
      "inputs": [
        {
          "indexed": true,
          "internalType": "address",
          "name": "from",
          "type": "address"
        },
        {
          "indexed": true,
          "internalType": "address",
          "name": "to",
          "type": "address"
        },
        {
          "indexed": true,
          "internalType": "uint256",
          "name": "tokenId",
          "type": "uint256"
        }
      ],
      "name": "Transfer",
      "type": "event"
    },
    {
      "inputs": [
        {
          "internalType": "address",
          "name": "to",
          "type": "address"
        },
        {
          "internalType": "uint256",
          "name": "tokenId",
          "type": "uint256"
        }
      ],
      "name": "approve",
      "outputs": [],
      "stateMutability": "nonpayable",
      "type": "function"
    },
    {
      "inputs": [
        {
          "internalType": "address",
          "name": "owner",
          "type": "address"
        }
      ],
      "name": "balanceOf",
      "outputs": [
        {
          "internalType": "uint256",
          "name": "",
          "type": "uint256"
        }
      ],
      "stateMutability": "view",
      "type": "function"
    },
    {
      "inputs": [
        {
          "internalType": "uint256",
          "name": "id",
          "type": "uint256"
        }
      ],
      "name": "buyProperty",
      "outputs": [],
      "stateMutability": "payable",
      "type": "function"
    },
    {
      "inputs": [
        {
          "internalType": "string",
          "name": "name",
          "type": "string"
        },
        {
          "internalType": "string[]",
          "name": "images",
          "type": "string[]"
        },
        {
          "internalType": "string",
          "name": "category",
          "type": "string"
        },
        {
          "internalType": "string",
          "name": "description",
          "type": "string"
        },
        {
          "internalType": "string",
          "name": "location",
          "type": "string"
        },
        {
          "internalType": "uint256",
          "name": "bedroom",
          "type": "uint256"
        },
        {
          "internalType": "uint256",
          "name": "bathroom",
          "type": "uint256"
        },
        {
          "internalType": "uint256",
          "name": "built",
          "type": "uint256"
        },
        {
          "internalType": "uint256",
          "name": "squarefit",
          "type": "uint256"
        },
        {
          "internalType": "uint256",
          "name": "price",
          "type": "uint256"
        }
      ],
      "name": "createProperty",
      "outputs": [],
      "stateMutability": "nonpayable",
      "type": "function"
    },
    {
      "inputs": [
        {
          "internalType": "uint256",
          "name": "propertyId",
          "type": "uint256"
        },
        {
          "internalType": "string",
          "name": "comment",
          "type": "string"
        }
      ],
      "name": "createReview",
      "outputs": [],
      "stateMutability": "nonpayable",
      "type": "function"
    },
    {
      "inputs": [
        {
          "internalType": "uint256",
          "name": "id",
          "type": "uint256"
        }
      ],
      "name": "deleteProperty",
      "outputs": [],
      "stateMutability": "nonpayable",
      "type": "function"
    },
    {
      "inputs": [
        {
          "internalType": "uint256",
          "name": "propertyId",
          "type": "uint256"
        },
        {
          "internalType": "uint256",
          "name": "reviewId",
          "type": "uint256"
        }
      ],
      "name": "deleteReview",
      "outputs": [],
      "stateMutability": "nonpayable",
      "type": "function"
    },
    {
      "inputs": [],
      "name": "getAllProperties",
      "outputs": [
        {
          "components": [
            {
              "internalType": "uint256",
              "name": "id",
              "type": "uint256"
            },
            {
              "internalType": "address",
              "name": "owner",
              "type": "address"
            },
            {
              "internalType": "string",
              "name": "name",
              "type": "string"
            },
            {
              "internalType": "string[]",
              "name": "images",
              "type": "string[]"
            },
            {
              "internalType": "string",
              "name": "category",
              "type": "string"
            },
            {
              "internalType": "string",
              "name": "description",
              "type": "string"
            },
            {
              "internalType": "string",
              "name": "location",
              "type": "string"
            },
            {
              "internalType": "uint256",
              "name": "bedroom",
              "type": "uint256"
            },
            {
              "internalType": "uint256",
              "name": "bathroom",
              "type": "uint256"
            },
            {
              "internalType": "uint256",
              "name": "built",
              "type": "uint256"
            },
            {
              "internalType": "uint256",
              "name": "squarefit",
              "type": "uint256"
            },
            {
              "internalType": "uint256",
              "name": "price",
              "type": "uint256"
            },
            {
              "internalType": "bool",
              "name": "sold",
              "type": "bool"
            },
            {
              "internalType": "bool",
              "name": "deleted",
              "type": "bool"
            }
          ],
          "internalType": "struct HemProp.PropertyStruct[]",
          "name": "myProperties",
          "type": "tuple[]"
        }
      ],
      "stateMutability": "view",
      "type": "function"
    },
    {
      "inputs": [
        {
          "internalType": "uint256",
          "name": "tokenId",
          "type": "uint256"
        }
      ],
      "name": "getApproved",
      "outputs": [
        {
          "internalType": "address",
          "name": "",
          "type": "address"
        }
      ],
      "stateMutability": "view",
      "type": "function"
    },
    {
      "inputs": [],
      "name": "getMyProperties",
      "outputs": [
        {
          "components": [
            {
              "internalType": "uint256",
              "name": "id",
              "type": "uint256"
            },
            {
              "internalType": "address",
              "name": "owner",
              "type": "address"
            },
            {
              "internalType": "string",
              "name": "name",
              "type": "string"
            },
            {
              "internalType": "string[]",
              "name": "images",
              "type": "string[]"
            },
            {
              "internalType": "string",
              "name": "category",
              "type": "string"
            },
            {
              "internalType": "string",
              "name": "description",
              "type": "string"
            },
            {
              "internalType": "string",
              "name": "location",
              "type": "string"
            },
            {
              "internalType": "uint256",
              "name": "bedroom",
              "type": "uint256"
            },
            {
              "internalType": "uint256",
              "name": "bathroom",
              "type": "uint256"
            },
            {
              "internalType": "uint256",
              "name": "built",
              "type": "uint256"
            },
            {
              "internalType": "uint256",
              "name": "squarefit",
              "type": "uint256"
            },
            {
              "internalType": "uint256",
              "name": "price",
              "type": "uint256"
            },
            {
              "internalType": "bool",
              "name": "sold",
              "type": "bool"
            },
            {
              "internalType": "bool",
              "name": "deleted",
              "type": "bool"
            }
          ],
          "internalType": "struct HemProp.PropertyStruct[]",
          "name": "myProperties",
          "type": "tuple[]"
        }
      ],
      "stateMutability": "view",
      "type": "function"
    },
    {
      "inputs": [
        {
          "internalType": "uint256",
          "name": "propertyId",
          "type": "uint256"
        }
      ],
      "name": "getMyReviews",
      "outputs": [
        {
          "components": [
            {
              "internalType": "uint256",
              "name": "id",
              "type": "uint256"
            },
            {
              "internalType": "uint256",
              "name": "propertyId",
              "type": "uint256"
            },
            {
              "internalType": "string",
              "name": "comment",
              "type": "string"
            },
            {
              "internalType": "address",
              "name": "reviewer",
              "type": "address"
            },
            {
              "internalType": "bool",
              "name": "deleted",
              "type": "bool"
            },
            {
              "internalType": "uint256",
              "name": "timestamp",
              "type": "uint256"
            }
          ],
          "internalType": "struct HemProp.ReviewStruct[]",
          "name": "",
          "type": "tuple[]"
        }
      ],
      "stateMutability": "view",
      "type": "function"
    },
    {
      "inputs": [
        {
          "internalType": "uint256",
          "name": "id",
          "type": "uint256"
        }
      ],
      "name": "getProperty",
      "outputs": [
        {
          "components": [
            {
              "internalType": "uint256",
              "name": "id",
              "type": "uint256"
            },
            {
              "internalType": "address",
              "name": "owner",
              "type": "address"
            },
            {
              "internalType": "string",
              "name": "name",
              "type": "string"
            },
            {
              "internalType": "string[]",
              "name": "images",
              "type": "string[]"
            },
            {
              "internalType": "string",
              "name": "category",
              "type": "string"
            },
            {
              "internalType": "string",
              "name": "description",
              "type": "string"
            },
            {
              "internalType": "string",
              "name": "location",
              "type": "string"
            },
            {
              "internalType": "uint256",
              "name": "bedroom",
              "type": "uint256"
            },
            {
              "internalType": "uint256",
              "name": "bathroom",
              "type": "uint256"
            },
            {
              "internalType": "uint256",
              "name": "built",
              "type": "uint256"
            },
            {
              "internalType": "uint256",
              "name": "squarefit",
              "type": "uint256"
            },
            {
              "internalType": "uint256",
              "name": "price",
              "type": "uint256"
            },
            {
              "internalType": "bool",
              "name": "sold",
              "type": "bool"
            },
            {
              "internalType": "bool",
              "name": "deleted",
              "type": "bool"
            }
          ],
          "internalType": "struct HemProp.PropertyStruct",
          "name": "",
          "type": "tuple"
        }
      ],
      "stateMutability": "view",
      "type": "function"
    },
    {
      "inputs": [
        {
          "internalType": "uint256",
          "name": "propertyId",
          "type": "uint256"
        },
        {
          "internalType": "uint256",
          "name": "reviewId",
          "type": "uint256"
        }
      ],
      "name": "getReview",
      "outputs": [
        {
          "components": [
            {
              "internalType": "uint256",
              "name": "id",
              "type": "uint256"
            },
            {
              "internalType": "uint256",
              "name": "propertyId",
              "type": "uint256"
            },
            {
              "internalType": "string",
              "name": "comment",
              "type": "string"
            },
            {
              "internalType": "address",
              "name": "reviewer",
              "type": "address"
            },
            {
              "internalType": "bool",
              "name": "deleted",
              "type": "bool"
            },
            {
              "internalType": "uint256",
              "name": "timestamp",
              "type": "uint256"
            }
          ],
          "internalType": "struct HemProp.ReviewStruct",
          "name": "",
          "type": "tuple"
        }
      ],
      "stateMutability": "view",
      "type": "function"
    },
    {
      "inputs": [
        {
          "internalType": "uint256",
          "name": "propertyId",
          "type": "uint256"
        }
      ],
      "name": "getReviews",
      "outputs": [
        {
          "components": [
            {
              "internalType": "uint256",
              "name": "id",
              "type": "uint256"
            },
            {
              "internalType": "uint256",
              "name": "propertyId",
              "type": "uint256"
            },
            {
              "internalType": "string",
              "name": "comment",
              "type": "string"
            },
            {
              "internalType": "address",
              "name": "reviewer",
              "type": "address"
            },
            {
              "internalType": "bool",
              "name": "deleted",
              "type": "bool"
            },
            {
              "internalType": "uint256",
              "name": "timestamp",
              "type": "uint256"
            }
          ],
          "internalType": "struct HemProp.ReviewStruct[]",
          "name": "",
          "type": "tuple[]"
        }
      ],
      "stateMutability": "view",
      "type": "function"
    },
    {
      "inputs": [
        {
          "internalType": "address",
          "name": "owner",
          "type": "address"
        },
        {
          "internalType": "address",
          "name": "operator",
          "type": "address"
        }
      ],
      "name": "isApprovedForAll",
      "outputs": [
        {
          "internalType": "bool",
          "name": "",
          "type": "bool"
        }
      ],
      "stateMutability": "view",
      "type": "function"
    },
    {
      "inputs": [],
      "name": "name",
      "outputs": [
        {
          "internalType": "string",
          "name": "",
          "type": "string"
        }
      ],
      "stateMutability": "view",
      "type": "function"
    },
    {
      "inputs": [],
      "name": "owner",
      "outputs": [
        {
          "internalType": "address",
          "name": "",
          "type": "address"
        }
      ],
      "stateMutability": "view",
      "type": "function"
    },
    {
      "inputs": [
        {
          "internalType": "uint256",
          "name": "tokenId",
          "type": "uint256"
        }
      ],
      "name": "ownerOf",
      "outputs": [
        {
          "internalType": "address",
          "name": "",
          "type": "address"
        }
      ],
      "stateMutability": "view",
      "type": "function"
    },
    {
      "inputs": [],
      "name": "renounceOwnership",
      "outputs": [],
      "stateMutability": "nonpayable",
      "type": "function"
    },
    {
      "inputs": [
        {
          "internalType": "address",
          "name": "from",
          "type": "address"
        },
        {
          "internalType": "address",
          "name": "to",
          "type": "address"
        },
        {
          "internalType": "uint256",
          "name": "tokenId",
          "type": "uint256"
        }
      ],
      "name": "safeTransferFrom",
      "outputs": [],
      "stateMutability": "nonpayable",
      "type": "function"
    },
    {
      "inputs": [
        {
          "internalType": "address",
          "name": "from",
          "type": "address"
        },
        {
          "internalType": "address",
          "name": "to",
          "type": "address"
        },
        {
          "internalType": "uint256",
          "name": "tokenId",
          "type": "uint256"
        },
        {
          "internalType": "bytes",
          "name": "data",
          "type": "bytes"
        }
      ],
      "name": "safeTransferFrom",
      "outputs": [],
      "stateMutability": "nonpayable",
      "type": "function"
    },
    {
      "inputs": [
        {
          "internalType": "address",
          "name": "operator",
          "type": "address"
        },
        {
          "internalType": "bool",
          "name": "approved",
          "type": "bool"
        }
      ],
      "name": "setApprovalForAll",
      "outputs": [],
      "stateMutability": "nonpayable",
      "type": "function"
    },
    {
      "inputs": [
        {
          "internalType": "bytes4",
          "name": "interfaceId",
          "type": "bytes4"
        }
      ],
      "name": "supportsInterface",
      "outputs": [
        {
          "internalType": "bool",
          "name": "",
          "type": "bool"
        }
      ],
      "stateMutability": "view",
      "type": "function"
    },
    {
      "inputs": [],
      "name": "symbol",
      "outputs": [
        {
          "internalType": "string",
          "name": "",
          "type": "string"
        }
      ],
      "stateMutability": "view",
      "type": "function"
    },
    {
      "inputs": [
        {
          "internalType": "uint256",
          "name": "tokenId",
          "type": "uint256"
        }
      ],
      "name": "tokenURI",
      "outputs": [
        {
          "internalType": "string",
          "name": "",
          "type": "string"
        }
      ],
      "stateMutability": "view",
      "type": "function"
    },
    {
      "inputs": [
        {
          "internalType": "address",
          "name": "from",
          "type": "address"
        },
        {
          "internalType": "address",
          "name": "to",
          "type": "address"
        },
        {
          "internalType": "uint256",
          "name": "tokenId",
          "type": "uint256"
        }
      ],
      "name": "transferFrom",
      "outputs": [],
      "stateMutability": "nonpayable",
      "type": "function"
    },
    {
      "inputs": [
        {
          "internalType": "address",
          "name": "newOwner",
          "type": "address"
        }
      ],
      "name": "transferOwnership",
      "outputs": [],
      "stateMutability": "nonpayable",
      "type": "function"
    },
    {
      "inputs": [
        {
          "internalType": "uint256",
          "name": "id",
          "type": "uint256"
        },
        {
          "internalType": "string",
          "name": "name",
          "type": "string"
        },
        {
          "internalType": "string[]",
          "name": "images",
          "type": "string[]"
        },
        {
          "internalType": "string",
          "name": "category",
          "type": "string"
        },
        {
          "internalType": "string",
          "name": "description",
          "type": "string"
        },
        {
          "internalType": "string",
          "name": "location",
          "type": "string"
        },
        {
          "internalType": "uint256",
          "name": "bedroom",
          "type": "uint256"
        },
        {
          "internalType": "uint256",
          "name": "bathroom",
          "type": "uint256"
        },
        {
          "internalType": "uint256",
          "name": "built",
          "type": "uint256"
        },
        {
          "internalType": "uint256",
          "name": "squarefit",
          "type": "uint256"
        },
        {
          "internalType": "uint256",
          "name": "price",
          "type": "uint256"
        }
      ],
      "name": "updateProperty",
      "outputs": [],
      "stateMutability": "nonpayable",
      "type": "function"
    },
    {
      "inputs": [
        {
          "internalType": "uint256",
          "name": "propertyId",
          "type": "uint256"
        },
        {
          "internalType": "uint256",
          "name": "reviewId",
          "type": "uint256"
        },
        {
          "internalType": "string",
          "name": "comment",
          "type": "string"
        }
      ],
      "name": "updateReview",
      "outputs": [],
      "stateMutability": "nonpayable",
      "type": "function"
    }
  ],
  "bytecode": "0x60806040523480156200001157600080fd5b506040516200522238038062005222833981016040819052620000349162000110565b6040518060400160405280600b81526020016a48656d50726f706572747960a81b81525060405180604001604052806003815260200162121c1d60ea1b8152506200008e62000088620000bc60201b60201c565b620000c0565b60016200009c8382620001cf565b506002620000ab8282620001cf565b50506001600755506011556200029b565b3390565b600080546001600160a01b038381166001600160a01b0319831681178455604051919092169283917f8be0079c531659141344cd1fd0a4f28419497f9722a3daafe3b4186f6b6457e09190a35050565b6000602082840312156200012357600080fd5b5051919050565b634e487b7160e01b600052604160045260246000fd5b600181811c908216806200015557607f821691505b6020821081036200017657634e487b7160e01b600052602260045260246000fd5b50919050565b601f821115620001ca57600081815260208120601f850160051c81016020861015620001a55750805b601f850160051c820191505b81811015620001c657828155600101620001b1565b5050505b505050565b81516001600160401b03811115620001eb57620001eb6200012a565b6200020381620001fc845462000140565b846200017c565b602080601f8311600181146200023b5760008415620002225750858301515b600019600386901b1c1916600185901b178555620001c6565b600085815260208120601f198616915b828110156200026c578886015182559484019460019091019084016200024b565b50858210156200028b5787850151600019600388901b60f8161c191681555b5050505050600190811b01905550565b614f7780620002ab6000396000f3fe6080604052600436106101c25760003560e01c80636352211e116100f7578063a22cb46511610095578063e985e9c511610064578063e985e9c51461051f578063f15bfa6814610568578063f2fde38b14610588578063fda8bb62146105a857600080fd5b8063a22cb46514610492578063b88d4fde146104b2578063c87b56dd146104d2578063dfa505ed146104f257600080fd5b8063715018a6116100d1578063715018a61461041d5780638da5cb5b1461043257806395d89b41146104505780639d4a22551461046557600080fd5b80636352211e146103bc5780636fa830a6146103dc57806370a08231146103ef57600080fd5b806324d41a03116101645780633932a4d31161013e5780633932a4d314610345578063397f7952146103655780633d51402c1461038757806342842e0e1461039c57600080fd5b806324d41a03146102d85780632c0e839b146102f857806332665ffb1461031857600080fd5b8063095ea7b3116101a0578063095ea7b314610256578063170140f114610278578063175a3b411461029857806323b872dd146102b857600080fd5b806301ffc9a7146101c757806306fdde03146101fc578063081812fc1461021e575b600080fd5b3480156101d357600080fd5b506101e76101e23660046141c9565b6105c8565b60405190151581526020015b60405180910390f35b34801561020857600080fd5b5061021161061a565b6040516101f39190614236565b34801561022a57600080fd5b5061023e610239366004614249565b6106ac565b6040516001600160a01b0390911681526020016101f3565b34801561026257600080fd5b5061027661027136600461427e565b6106d3565b005b34801561028457600080fd5b50610276610293366004614249565b6107ed565b3480156102a457600080fd5b506102766102b3366004614365565b6108f1565b3480156102c457600080fd5b506102766102d33660046143b4565b610c1c565b3480156102e457600080fd5b506102766102f33660046143f0565b610c4d565b34801561030457600080fd5b50610276610313366004614412565b610ea8565b34801561032457600080fd5b50610338610333366004614249565b6110d1565b6040516101f391906145ab565b34801561035157600080fd5b5061027661036036600461465c565b6114f2565b34801561037157600080fd5b5061037a611a21565b6040516101f3919061476f565b34801561039357600080fd5b5061037a611f2d565b3480156103a857600080fd5b506102766103b73660046143b4565b6123e5565b3480156103c857600080fd5b5061023e6103d7366004614249565b612400565b6102766103ea366004614249565b612460565b3480156103fb57600080fd5b5061040f61040a3660046147d1565b612739565b6040519081526020016101f3565b34801561042957600080fd5b506102766127bf565b34801561043e57600080fd5b506000546001600160a01b031661023e565b34801561045c57600080fd5b506102116127d3565b34801561047157600080fd5b50610485610480366004614249565b6127e2565b6040516101f39190614848565b34801561049e57600080fd5b506102766104ad36600461489d565b612a9d565b3480156104be57600080fd5b506102766104cd3660046148d9565b612aac565b3480156104de57600080fd5b506102116104ed366004614249565b612ae4565b3480156104fe57600080fd5b5061051261050d3660046143f0565b612b58565b6040516101f39190614954565b34801561052b57600080fd5b506101e761053a366004614967565b6001600160a01b03918216600090815260066020908152604080832093909416825291909152205460ff1690565b34801561057457600080fd5b50610485610583366004614249565b612d9e565b34801561059457600080fd5b506102766105a33660046147d1565b6130e5565b3480156105b457600080fd5b506102766105c336600461499a565b61315b565b60006001600160e01b031982166380ac58cd60e01b14806105f957506001600160e01b03198216635b5e139f60e01b145b8061061457506301ffc9a760e01b6001600160e01b03198316145b92915050565b60606001805461062990614a99565b80601f016020809104026020016040519081016040528092919081815260200182805461065590614a99565b80156106a25780601f10610677576101008083540402835291602001916106a2565b820191906000526020600020905b81548152906001019060200180831161068557829003601f168201915b5050505050905090565b60006106b7826136e2565b506000908152600560205260409020546001600160a01b031690565b60006106de82612400565b9050806001600160a01b0316836001600160a01b0316036107505760405162461bcd60e51b815260206004820152602160248201527f4552433732313a20617070726f76616c20746f2063757272656e74206f776e656044820152603960f91b60648201526084015b60405180910390fd5b336001600160a01b038216148061076c575061076c813361053a565b6107de5760405162461bcd60e51b815260206004820152603d60248201527f4552433732313a20617070726f76652063616c6c6572206973206e6f7420746f60448201527f6b656e206f776e6572206f7220617070726f76656420666f7220616c6c0000006064820152608401610747565b6107e88383613741565b505050565b6000818152600e602052604090205460ff1661081b5760405162461bcd60e51b815260040161074790614ad3565b6000818152600b60205260409020600101546001600160a01b031633148061084d57506000546001600160a01b031633145b6108a95760405162461bcd60e51b815260206004820152602760248201527f4f6e6c792070726f7065727479206f776e65722063616e2064656c6574652070604482015266726f706572747960c81b6064820152608401610747565b6000818152600b6020526040808220600c01805461ff0019166101001790555182917f7156884be24ff0be75b08b7bf2034f16982585fcfc7fc22c70716ad234e9267391a250565b6000838152600e602052604090205460ff1661091f5760405162461bcd60e51b815260040161074790614ad3565b6000838152600b60205260409020600c0154610100900460ff16156109565760405162461bcd60e51b815260040161074790614b0a565b6000828152600f602052604090205460ff166109845760405162461bcd60e51b815260040161074790614b41565b60008151116109d05760405162461bcd60e51b8152602060048201526018602482015277526576696577206d757374206e6f7420626520656d70747960401b6044820152606401610747565b6103e881511115610a185760405162461bcd60e51b815260206004820152601260248201527152657669657720697320746f6f206c6f6e6760701b6044820152606401610747565b6000838152601060209081526040808320858452825280832054868452600c909252909120548110610a5c5760405162461bcd60e51b815260040161074790614b70565b6000848152600c60205260409020805433919083908110610a7f57610a7f614bb2565b60009182526020909120600360059092020101546001600160a01b031614610ae95760405162461bcd60e51b815260206004820152601860248201527f4f6e6c792072657669657765722063616e2075706461746500000000000000006044820152606401610747565b6000848152600c60205260409020805482908110610b0957610b09614bb2565b906000526020600020906005020160030160149054906101000a900460ff1615610b6f5760405162461bcd60e51b815260206004820152601760248201527614995d9a595dc81a185cc81899595b8819195b195d1959604a1b6044820152606401610747565b6000848152600c60205260409020805483919083908110610b9257610b92614bb2565b90600052602060002090600502016002019081610baf9190614c16565b506000848152600c60205260409020805442919083908110610bd357610bd3614bb2565b90600052602060002090600502016004018190555082847fa36bbb9e7cdd66e8ea36022dd73f106f7fa8d76d37b933cde8cc2af00e401ae760405160405180910390a350505050565b610c2633826137af565b610c425760405162461bcd60e51b815260040161074790614cd5565b6107e883838361382e565b6000828152600e602052604090205460ff16610c7b5760405162461bcd60e51b815260040161074790614ad3565b6000818152600f602052604090205460ff16610ca95760405162461bcd60e51b815260040161074790614b41565b6000828152601060209081526040808320848452825280832054858452600c909252909120548110610ced5760405162461bcd60e51b815260040161074790614b70565b6000838152600c60205260409020805433919083908110610d1057610d10614bb2565b60009182526020909120600360059092020101546001600160a01b03161480610d4357506000546001600160a01b031633145b610da25760405162461bcd60e51b815260206004820152602a60248201527f4f6e6c79207265766965776572206f7220636f6e7472616374206f776e65722060448201526963616e2064656c65746560b01b6064820152608401610747565b6000838152600c60205260409020805482908110610dc257610dc2614bb2565b906000526020600020906005020160030160149054906101000a900460ff1615610e275760405162461bcd60e51b815260206004820152601660248201527514995d9a595dc8185b1c9958591e4819195b195d195960521b6044820152606401610747565b6000838152600c6020526040902080546001919083908110610e4b57610e4b614bb2565b6000918252602082206003600590920201018054921515600160a01b0260ff60a01b1990931692909217909155604051839185917ffe09911b3ec9652ef94a11286713bd397f2fb090f28c62303451d8040ff62c629190a3505050565b6000828152600e602052604090205460ff16610ed65760405162461bcd60e51b815260040161074790614ad3565b6000828152600b60205260409020600c0154610100900460ff1615610f0d5760405162461bcd60e51b815260040161074790614b0a565b6000815111610f595760405162461bcd60e51b8152602060048201526018602482015277526576696577206d757374206e6f7420626520656d70747960401b6044820152606401610747565b6103e881511115610fa15760405162461bcd60e51b815260206004820152601260248201527152657669657720697320746f6f206c6f6e6760701b6044820152606401610747565b610faf600a80546001019055565b610fb7614039565b6000610fc2600a5490565b808352602080840186815233606086015260408086018781526000608088018190524260a0890152898152600c808652838220805460108852858420898552885294832085905590865260018481018255908252949020875160059093020191825591519281019290925551919250839160028201906110429082614c16565b50606082015160038201805460808501511515600160a01b026001600160a81b03199091166001600160a01b039093169290921791909117905560a0909101516004909101556000818152600f6020526040808220805460ff1916600117905551829186917f7f81c790a4345d8750e5542a4c0213b9a5969741805deafb58ad031fe113c4cd9190a350505050565b6110d961407a565b6000828152600e602052604090205460ff166111075760405162461bcd60e51b815260040161074790614ad3565b6000828152600b60205260409020600c0154610100900460ff161561113e5760405162461bcd60e51b815260040161074790614b0a565b6000828152600b602090815260409182902082516101c0810184528154815260018201546001600160a01b031692810192909252600281018054929391929184019161118990614a99565b80601f01602080910402602001604051908101604052809291908181526020018280546111b590614a99565b80156112025780601f106111d757610100808354040283529160200191611202565b820191906000526020600020905b8154815290600101906020018083116111e557829003601f168201915b5050505050815260200160038201805480602002602001604051908101604052809291908181526020016000905b828210156112dc57838290600052602060002001805461124f90614a99565b80601f016020809104026020016040519081016040528092919081815260200182805461127b90614a99565b80156112c85780601f1061129d576101008083540402835291602001916112c8565b820191906000526020600020905b8154815290600101906020018083116112ab57829003601f168201915b505050505081526020019060010190611230565b5050505081526020016004820180546112f490614a99565b80601f016020809104026020016040519081016040528092919081815260200182805461132090614a99565b801561136d5780601f106113425761010080835404028352916020019161136d565b820191906000526020600020905b81548152906001019060200180831161135057829003601f168201915b5050505050815260200160058201805461138690614a99565b80601f01602080910402602001604051908101604052809291908181526020018280546113b290614a99565b80156113ff5780601f106113d4576101008083540402835291602001916113ff565b820191906000526020600020905b8154815290600101906020018083116113e257829003601f168201915b5050505050815260200160068201805461141890614a99565b80601f016020809104026020016040519081016040528092919081815260200182805461144490614a99565b80156114915780601f1061146657610100808354040283529160200191611491565b820191906000526020600020905b81548152906001019060200180831161147457829003601f168201915b5050509183525050600782015460208201526008820154604082015260098201546060820152600a8201546080820152600b82015460a0820152600c9091015460ff808216151560c084015261010090910416151560e09091015292915050565b60008b8152600e602052604090205460ff166115205760405162461bcd60e51b815260040161074790614ad3565b60008b8152600b60205260409020600101546001600160a01b031633146115a05760405162461bcd60e51b815260206004820152602e60248201527f4f6e6c79207468652070726f7065727479206f776e65722063616e206564697460448201526d20746869732070726f706572747960901b6064820152608401610747565b60008a51116115e85760405162461bcd60e51b81526020600482015260146024820152734e616d652063616e6e6f7420626520656d70747960601b6044820152606401610747565b60008951116116395760405162461bcd60e51b815260206004820152601e60248201527f4174206c65617374206f6e6520696d61676520697320726571756972656400006044820152606401610747565b600a895111156116875760405162461bcd60e51b815260206004820152601960248201527813585e1a5b5d5b480c4c081a5b5859d95cc8185b1b1bddd959603a1b6044820152606401610747565b60008851116116d35760405162461bcd60e51b815260206004820152601860248201527743617465676f72792063616e6e6f7420626520656d70747960401b6044820152606401610747565b600086511161171f5760405162461bcd60e51b81526020600482015260186024820152774c6f636174696f6e2063616e6e6f7420626520656d70747960401b6044820152606401610747565b60008751116117705760405162461bcd60e51b815260206004820152601b60248201527f4465736372697074696f6e2063616e6e6f7420626520656d70747900000000006044820152606401610747565b600085116117c05760405162461bcd60e51b815260206004820152601f60248201527f426564726f6f6d2063616e6e6f74206265207a65726f206f7220656d707479006044820152606401610747565b600084116118105760405162461bcd60e51b815260206004820181905260248201527f42617468726f6f6d2063616e6e6f74206265207a65726f206f7220656d7074796044820152606401610747565b600083116118305760405162461bcd60e51b815260040161074790614d22565b600082116118505760405162461bcd60e51b815260040161074790614d64565b600081116118a05760405162461bcd60e51b815260206004820152601f60248201527f5072696365206d7573742062652067726561746572207468616e207a65726f006044820152606401610747565b60005b89518110156119245760008a82815181106118c0576118c0614bb2565b602002602001015151116119125760405162461bcd60e51b8152602060048201526019602482015278496d6167652055524c2063616e6e6f7420626520656d70747960381b6044820152606401610747565b8061191c81614dbc565b9150506118a3565b5060008b8152600b602052604090206002016119408b82614c16565b5060008b8152600b602090815260409091208a51611966926003909201918c01906140f6565b5060008b8152600b602052604090206004016119828982614c16565b5060008b8152600b6020526040902060050161199e8882614c16565b5060008b8152600b602052604090206006016119ba8782614c16565b5060008b8152600b60208190526040808320600781018990556008810188905560098101879055600a8101869055909101839055518c917f7ad43e2b215acc30fe68db10cbf57c6b2b699ef7572e54808c2a106fb904f3fb91a25050505050505050505050565b6060600060015b6008548111611a96576000818152600b60205260409020600c0154610100900460ff16158015611a7157506000818152600b60205260409020600101546001600160a01b031633145b15611a845781611a8081614dbc565b9250505b80611a8e81614dbc565b915050611a28565b50806001600160401b03811115611aaf57611aaf6142a8565b604051908082528060200260200182016040528015611ae857816020015b611ad561407a565b815260200190600190039081611acd5790505b509150600060015b6008548111611f27576000818152600b60205260409020600c0154610100900460ff16158015611b3957506000818152600b60205260409020600101546001600160a01b031633145b15611f15576000818152600b602090815260409182902082516101c0810184528154815260018201546001600160a01b0316928101929092526002810180549293919291840191611b8990614a99565b80601f0160208091040260200160405190810160405280929190818152602001828054611bb590614a99565b8015611c025780601f10611bd757610100808354040283529160200191611c02565b820191906000526020600020905b815481529060010190602001808311611be557829003601f168201915b5050505050815260200160038201805480602002602001604051908101604052809291908181526020016000905b82821015611cdc578382906000526020600020018054611c4f90614a99565b80601f0160208091040260200160405190810160405280929190818152602001828054611c7b90614a99565b8015611cc85780601f10611c9d57610100808354040283529160200191611cc8565b820191906000526020600020905b815481529060010190602001808311611cab57829003601f168201915b505050505081526020019060010190611c30565b505050508152602001600482018054611cf490614a99565b80601f0160208091040260200160405190810160405280929190818152602001828054611d2090614a99565b8015611d6d5780601f10611d4257610100808354040283529160200191611d6d565b820191906000526020600020905b815481529060010190602001808311611d5057829003601f168201915b50505050508152602001600582018054611d8690614a99565b80601f0160208091040260200160405190810160405280929190818152602001828054611db290614a99565b8015611dff5780601f10611dd457610100808354040283529160200191611dff565b820191906000526020600020905b815481529060010190602001808311611de257829003601f168201915b50505050508152602001600682018054611e1890614a99565b80601f0160208091040260200160405190810160405280929190818152602001828054611e4490614a99565b8015611e915780601f10611e6657610100808354040283529160200191611e91565b820191906000526020600020905b815481529060010190602001808311611e7457829003601f168201915b5050509183525050600782015460208201526008820154604082015260098201546060820152600a8201546080820152600b82015460a0820152600c9091015460ff808216151560c084015261010090910416151560e0909101528483611ef781614dbc565b945081518110611f0957611f09614bb2565b60200260200101819052505b80611f1f81614dbc565b915050611af0565b50505090565b6060600060015b6008548111611f7b576000818152600b60205260409020600c0154610100900460ff16611f695781611f6581614dbc565b9250505b80611f7381614dbc565b915050611f34565b50806001600160401b03811115611f9457611f946142a8565b604051908082528060200260200182016040528015611fcd57816020015b611fba61407a565b815260200190600190039081611fb25790505b509150600060015b6008548111611f27576000818152600b60205260409020600c0154610100900460ff166123d3576000818152600b602090815260409182902082516101c0810184528154815260018201546001600160a01b031692810192909252600281018054929391929184019161204790614a99565b80601f016020809104026020016040519081016040528092919081815260200182805461207390614a99565b80156120c05780601f10612095576101008083540402835291602001916120c0565b820191906000526020600020905b8154815290600101906020018083116120a357829003601f168201915b5050505050815260200160038201805480602002602001604051908101604052809291908181526020016000905b8282101561219a57838290600052602060002001805461210d90614a99565b80601f016020809104026020016040519081016040528092919081815260200182805461213990614a99565b80156121865780601f1061215b57610100808354040283529160200191612186565b820191906000526020600020905b81548152906001019060200180831161216957829003601f168201915b5050505050815260200190600101906120ee565b5050505081526020016004820180546121b290614a99565b80601f01602080910402602001604051908101604052809291908181526020018280546121de90614a99565b801561222b5780601f106122005761010080835404028352916020019161222b565b820191906000526020600020905b81548152906001019060200180831161220e57829003601f168201915b5050505050815260200160058201805461224490614a99565b80601f016020809104026020016040519081016040528092919081815260200182805461227090614a99565b80156122bd5780601f10612292576101008083540402835291602001916122bd565b820191906000526020600020905b8154815290600101906020018083116122a057829003601f168201915b505050505081526020016006820180546122d690614a99565b80601f016020809104026020016040519081016040528092919081815260200182805461230290614a99565b801561234f5780601f106123245761010080835404028352916020019161234f565b820191906000526020600020905b81548152906001019060200180831161233257829003601f168201915b5050509183525050600782015460208201526008820154604082015260098201546060820152600a8201546080820152600b82015460a0820152600c9091015460ff808216151560c084015261010090910416151560e09091015284836123b581614dbc565b9450815181106123c7576123c7614bb2565b60200260200101819052505b806123dd81614dbc565b915050611fd5565b6107e883838360405180602001604052806000815250612aac565b6000818152600360205260408120546001600160a01b0316806106145760405162461bcd60e51b8152602060048201526018602482015277115490cdcc8c4e881a5b9d985b1a59081d1bdad95b88125160421b6044820152606401610747565b612468613992565b6000818152600e602052604090205460ff166124965760405162461bcd60e51b815260040161074790614ad3565b6000818152600b6020819052604090912001543410156124ef5760405162461bcd60e51b8152602060048201526014602482015273125b9cdd59999a58da595b9d081c185e5b595b9d60621b6044820152606401610747565b6000818152600b60205260409020600c0154610100900460ff16156125265760405162461bcd60e51b815260040161074790614b0a565b6000818152600b60205260409020600c015460ff16156125815760405162461bcd60e51b8152602060048201526016602482015275141c9bdc195c9d1e481a185cc81899595b881cdbdb1960521b6044820152606401610747565b61258f600980546001019055565b6125bc6040518060600160405280600081526020016000815260200160006001600160a01b031681525090565b600954815260208082018381523360408085019182526000868152600d8552908120805460018082018355918352948220865160039096020194855592519284019290925551600290920180546001600160a01b0319166001600160a01b03909316929092179091556011546064906126359034614dd5565b61263f9190614dec565b9050600061264d8234614e0e565b6000858152600b6020526040902060010154909150612675906001600160a01b0316826139eb565b61269061268a6000546001600160a01b031690565b836139eb565b6000848152600b60205260409020600c8101805460ff191660019081179091550180546001600160a01b031916339081179091556126cf90808661382e565b6000848152600b60208181526040928390206001810154920154925192835233926001600160a01b039092169187917fddd64180d9701c7ede08673ac8106484ff983a472929330d4fbde4e35d65cb06910160405180910390a45050506127366001600755565b50565b60006001600160a01b0382166127a35760405162461bcd60e51b815260206004820152602960248201527f4552433732313a2061646472657373207a65726f206973206e6f7420612076616044820152683634b21037bbb732b960b91b6064820152608401610747565b506001600160a01b031660009081526004602052604090205490565b6127c7613a4b565b6127d16000613aa5565b565b60606002805461062990614a99565b6000818152600e602052604090205460609060ff166128135760405162461bcd60e51b815260040161074790614ad3565b6000805b6000848152600c6020526040902054811015612890576000848152600c6020526040902080548290811061284d5761284d614bb2565b906000526020600020906005020160030160149054906101000a900460ff1661287e578161287a81614dbc565b9250505b8061288881614dbc565b915050612817565b506000816001600160401b038111156128ab576128ab6142a8565b6040519080825280602002602001820160405280156128e457816020015b6128d1614039565b8152602001906001900390816128c95790505b5090506000805b6000868152600c6020526040902054811015612a93576000868152600c6020526040902080548290811061292157612921614bb2565b906000526020600020906005020160030160149054906101000a900460ff16612a81576000868152600c6020526040902080548290811061296457612964614bb2565b90600052602060002090600502016040518060c001604052908160008201548152602001600182015481526020016002820180546129a190614a99565b80601f01602080910402602001604051908101604052809291908181526020018280546129cd90614a99565b8015612a1a5780601f106129ef57610100808354040283529160200191612a1a565b820191906000526020600020905b8154815290600101906020018083116129fd57829003601f168201915b505050918352505060038201546001600160a01b0381166020830152600160a01b900460ff16151560408201526004909101546060909101528351849084908110612a6757612a67614bb2565b60200260200101819052508180612a7d90614dbc565b9250505b80612a8b81614dbc565b9150506128eb565b5090949350505050565b612aa8338383613af5565b5050565b612ab633836137af565b612ad25760405162461bcd60e51b815260040161074790614cd5565b612ade84848484613bc3565b50505050565b6060612aef826136e2565b6000612b0660408051602081019091526000815290565b90506000815111612b265760405180602001604052806000815250612b51565b80612b3084613bf6565b604051602001612b41929190614e21565b6040516020818303038152906040525b9392505050565b612b60614039565b6000838152600e602052604090205460ff16612b8e5760405162461bcd60e51b815260040161074790614ad3565b6000828152600f602052604090205460ff16612bbc5760405162461bcd60e51b815260040161074790614b41565b6000838152601060209081526040808320858452825280832054868452600c909252909120548110612c005760405162461bcd60e51b815260040161074790614b70565b6000848152600c60205260409020805482908110612c2057612c20614bb2565b906000526020600020906005020160030160149054906101000a900460ff1615612c865760405162461bcd60e51b815260206004820152601760248201527614995d9a595dc81a185cc81899595b8819195b195d1959604a1b6044820152606401610747565b6000848152600c60205260409020805482908110612ca657612ca6614bb2565b90600052602060002090600502016040518060c00160405290816000820154815260200160018201548152602001600282018054612ce390614a99565b80601f0160208091040260200160405190810160405280929190818152602001828054612d0f90614a99565b8015612d5c5780601f10612d3157610100808354040283529160200191612d5c565b820191906000526020600020905b815481529060010190602001808311612d3f57829003601f168201915b505050918352505060038201546001600160a01b0381166020830152600160a01b900460ff161515604082015260049091015460609091015291505092915050565b6000818152600e602052604090205460609060ff16612dcf5760405162461bcd60e51b815260040161074790614ad3565b6000805b6000848152600c6020526040902054811015612e97576000848152600c60205260409020805433919083908110612e0c57612e0c614bb2565b60009182526020909120600360059092020101546001600160a01b0316148015612e7257506000848152600c60205260409020805482908110612e5157612e51614bb2565b906000526020600020906005020160030160149054906101000a900460ff16155b15612e855781612e8181614dbc565b9250505b80612e8f81614dbc565b915050612dd3565b506000816001600160401b03811115612eb257612eb26142a8565b604051908082528060200260200182016040528015612eeb57816020015b612ed8614039565b815260200190600190039081612ed05790505b5090506000805b6000868152600c6020526040902054811015612a93576000868152600c60205260409020805433919083908110612f2b57612f2b614bb2565b60009182526020909120600360059092020101546001600160a01b0316148015612f9157506000868152600c60205260409020805482908110612f7057612f70614bb2565b906000526020600020906005020160030160149054906101000a900460ff16155b156130d3576000868152600c60205260409020805482908110612fb657612fb6614bb2565b90600052602060002090600502016040518060c00160405290816000820154815260200160018201548152602001600282018054612ff390614a99565b80601f016020809104026020016040519081016040528092919081815260200182805461301f90614a99565b801561306c5780601f106130415761010080835404028352916020019161306c565b820191906000526020600020905b81548152906001019060200180831161304f57829003601f168201915b505050918352505060038201546001600160a01b0381166020830152600160a01b900460ff161515604082015260049091015460609091015283518490849081106130b9576130b9614bb2565b602002602001018190525081806130cf90614dbc565b9250505b806130dd81614dbc565b915050612ef2565b6130ed613a4b565b6001600160a01b0381166131525760405162461bcd60e51b815260206004820152602660248201527f4f776e61626c653a206e6577206f776e657220697320746865207a65726f206160448201526564647265737360d01b6064820152608401610747565b61273681613aa5565b60008a51116131a35760405162461bcd60e51b81526020600482015260146024820152734e616d652063616e6e6f7420626520656d70747960601b6044820152606401610747565b60008951116131f45760405162461bcd60e51b815260206004820152601e60248201527f4174206c65617374206f6e6520696d61676520697320726571756972656400006044820152606401610747565b600a895111156132425760405162461bcd60e51b815260206004820152601960248201527813585e1a5b5d5b480c4c081a5b5859d95cc8185b1b1bddd959603a1b6044820152606401610747565b600088511161328e5760405162461bcd60e51b815260206004820152601860248201527743617465676f72792063616e6e6f7420626520656d70747960401b6044820152606401610747565b60008751116132df5760405162461bcd60e51b815260206004820152601b60248201527f4465736372697074696f6e2063616e6e6f7420626520656d70747900000000006044820152606401610747565b600086511161332b5760405162461bcd60e51b81526020600482015260186024820152774c6f636174696f6e2063616e6e6f7420626520656d70747960401b6044820152606401610747565b6000851161337b5760405162461bcd60e51b815260206004820152601f60248201527f426564726f6f6d2063616e6e6f74206265207a65726f206f7220656d707479006044820152606401610747565b600084116133cb5760405162461bcd60e51b815260206004820181905260248201527f42617468726f6f6d2063616e6e6f74206265207a65726f206f7220656d7074796044820152606401610747565b600083116133eb5760405162461bcd60e51b815260040161074790614d22565b6000821161340b5760405162461bcd60e51b815260040161074790614d64565b6000811161345b5760405162461bcd60e51b815260206004820152601f60248201527f5072696365206d7573742062652067726561746572207468616e207a65726f006044820152606401610747565b60005b89518110156134df5760008a828151811061347b5761347b614bb2565b602002602001015151116134cd5760405162461bcd60e51b8152602060048201526019602482015278496d6167652055524c2063616e6e6f7420626520656d70747960381b6044820152606401610747565b806134d781614dbc565b91505061345e565b506134ee600880546001019055565b6134f661407a565b600854808252336020830152604082018c9052606082018b9052608082018a905260a0820189905260c0820188905260e0820187905261010082018690526101208201859052610140820184905261016082018390526135563382613c88565b81516000908152600b602090815260409182902084518155908401516001820180546001600160a01b0319166001600160a01b039092169190911790559083015183919060028201906135a99082614c16565b50606082015180516135c59160038401916020909101906140f6565b50608082015160048201906135da9082614c16565b5060a082015160058201906135ef9082614c16565b5060c082015160068201906136049082614c16565b5060e082015160078201556101008083015160088301556101208301516009830155610140830151600a83015561016080840151600b840155610180840151600c90930180546101a09095015161ffff1990951693151561ff0019169390931793151590910292909217905582516000908152600e6020908152604091829020805460ff191660011790558085015185519386015192519283526001600160a01b031692917f9815995bdb741d1e283b7e7fd822a34b01efd21fd2c59dc0d5ab07a587a61726910160405180910390a3505050505050505050505050565b6000818152600360205260409020546001600160a01b03166127365760405162461bcd60e51b8152602060048201526018602482015277115490cdcc8c4e881a5b9d985b1a59081d1bdad95b88125160421b6044820152606401610747565b600081815260056020526040902080546001600160a01b0319166001600160a01b038416908117909155819061377682612400565b6001600160a01b03167f8c5be1e5ebec7d5bd14f71427d1e84f3dd0314c0f7b2291e5b200ac8c7c3b92560405160405180910390a45050565b6000806137bb83612400565b9050806001600160a01b0316846001600160a01b0316148061380257506001600160a01b0380821660009081526006602090815260408083209388168352929052205460ff165b806138265750836001600160a01b031661381b846106ac565b6001600160a01b0316145b949350505050565b826001600160a01b031661384182612400565b6001600160a01b0316146138675760405162461bcd60e51b815260040161074790614e50565b6001600160a01b0382166138c95760405162461bcd60e51b8152602060048201526024808201527f4552433732313a207472616e7366657220746f20746865207a65726f206164646044820152637265737360e01b6064820152608401610747565b826001600160a01b03166138dc82612400565b6001600160a01b0316146139025760405162461bcd60e51b815260040161074790614e50565b600081815260056020908152604080832080546001600160a01b03199081169091556001600160a01b0387811680865260048552838620805460001901905590871680865283862080546001019055868652600390945282852080549092168417909155905184937fddf252ad1be2c89b69c2b068fc378daa952ba7f163c4a11628f55a4df523b3ef91a4505050565b6002600754036139e45760405162461bcd60e51b815260206004820152601f60248201527f5265656e7472616e637947756172643a207265656e7472616e742063616c6c006044820152606401610747565b6002600755565b6000826001600160a01b03168260405160006040518083038185875af1925050503d8060008114613a38576040519150601f19603f3d011682016040523d82523d6000602084013e613a3d565b606091505b50509050806107e857600080fd5b6000546001600160a01b031633146127d15760405162461bcd60e51b815260206004820181905260248201527f4f776e61626c653a2063616c6c6572206973206e6f7420746865206f776e65726044820152606401610747565b600080546001600160a01b038381166001600160a01b0319831681178455604051919092169283917f8be0079c531659141344cd1fd0a4f28419497f9722a3daafe3b4186f6b6457e09190a35050565b816001600160a01b0316836001600160a01b031603613b565760405162461bcd60e51b815260206004820152601960248201527f4552433732313a20617070726f766520746f2063616c6c6572000000000000006044820152606401610747565b6001600160a01b03838116600081815260066020908152604080832094871680845294825291829020805460ff191686151590811790915591519182527f17307eab39ab6107e8899845ad3d59bd9653f200f220920489ca2b5937696c31910160405180910390a3505050565b613bce84848461382e565b613bda84848484613ca2565b612ade5760405162461bcd60e51b815260040161074790614e95565b60606000613c0383613da3565b60010190506000816001600160401b03811115613c2257613c226142a8565b6040519080825280601f01601f191660200182016040528015613c4c576020820181803683370190505b5090508181016020015b600019016f181899199a1a9b1b9c1cb0b131b232b360811b600a86061a8153600a8504945084613c5657509392505050565b612aa8828260405180602001604052806000815250613e7b565b60006001600160a01b0384163b15613d9857604051630a85bd0160e11b81526001600160a01b0385169063150b7a0290613ce6903390899088908890600401614ee7565b6020604051808303816000875af1925050508015613d21575060408051601f3d908101601f19168201909252613d1e91810190614f24565b60015b613d7e573d808015613d4f576040519150601f19603f3d011682016040523d82523d6000602084013e613d54565b606091505b508051600003613d765760405162461bcd60e51b815260040161074790614e95565b805181602001fd5b6001600160e01b031916630a85bd0160e11b149050613826565b506001949350505050565b60008072184f03e93ff9f4daa797ed6e38ed64bf6a1f0160401b8310613de25772184f03e93ff9f4daa797ed6e38ed64bf6a1f0160401b830492506040015b6d04ee2d6d415b85acef81000000008310613e0e576d04ee2d6d415b85acef8100000000830492506020015b662386f26fc100008310613e2c57662386f26fc10000830492506010015b6305f5e1008310613e44576305f5e100830492506008015b6127108310613e5857612710830492506004015b60648310613e6a576064830492506002015b600a83106106145760010192915050565b613e858383613eae565b613e926000848484613ca2565b6107e85760405162461bcd60e51b815260040161074790614e95565b6001600160a01b038216613f045760405162461bcd60e51b815260206004820181905260248201527f4552433732313a206d696e7420746f20746865207a65726f20616464726573736044820152606401610747565b6000818152600360205260409020546001600160a01b031615613f695760405162461bcd60e51b815260206004820152601c60248201527f4552433732313a20746f6b656e20616c7265616479206d696e746564000000006044820152606401610747565b6000818152600360205260409020546001600160a01b031615613fce5760405162461bcd60e51b815260206004820152601c60248201527f4552433732313a20746f6b656e20616c7265616479206d696e746564000000006044820152606401610747565b6001600160a01b038216600081815260046020908152604080832080546001019055848352600390915280822080546001600160a01b0319168417905551839291907fddf252ad1be2c89b69c2b068fc378daa952ba7f163c4a11628f55a4df523b3ef908290a45050565b6040518060c0016040528060008152602001600081526020016060815260200160006001600160a01b03168152602001600015158152602001600081525090565b604051806101c001604052806000815260200160006001600160a01b03168152602001606081526020016060815260200160608152602001606081526020016060815260200160008152602001600081526020016000815260200160008152602001600081526020016000151581526020016000151581525090565b82805482825590600052602060002090810192821561413c579160200282015b8281111561413c578251829061412c9082614c16565b5091602001919060010190614116565b5061414892915061414c565b5090565b808211156141485760006141608282614169565b5060010161414c565b50805461417590614a99565b6000825580601f10614185575050565b601f01602090049060005260206000209081019061273691905b80821115614148576000815560010161419f565b6001600160e01b03198116811461273657600080fd5b6000602082840312156141db57600080fd5b8135612b51816141b3565b60005b838110156142015781810151838201526020016141e9565b50506000910152565b600081518084526142228160208601602086016141e6565b601f01601f19169290920160200192915050565b602081526000612b51602083018461420a565b60006020828403121561425b57600080fd5b5035919050565b80356001600160a01b038116811461427957600080fd5b919050565b6000806040838503121561429157600080fd5b61429a83614262565b946020939093013593505050565b634e487b7160e01b600052604160045260246000fd5b604051601f8201601f191681016001600160401b03811182821017156142e6576142e66142a8565b604052919050565b60006001600160401b03831115614307576143076142a8565b61431a601f8401601f19166020016142be565b905082815283838301111561432e57600080fd5b828260208301376000602084830101529392505050565b600082601f83011261435657600080fd5b612b51838335602085016142ee565b60008060006060848603121561437a57600080fd5b833592506020840135915060408401356001600160401b0381111561439e57600080fd5b6143aa86828701614345565b9150509250925092565b6000806000606084860312156143c957600080fd5b6143d284614262565b92506143e060208501614262565b9150604084013590509250925092565b6000806040838503121561440357600080fd5b50508035926020909101359150565b6000806040838503121561442557600080fd5b8235915060208301356001600160401b0381111561444257600080fd5b61444e85828601614345565b9150509250929050565b600081518084526020808501808196508360051b8101915082860160005b858110156144a057828403895261448e84835161420a565b98850198935090840190600101614476565b5091979650505050505050565b60006101c08251845260208301516144d060208601826001600160a01b03169052565b5060408301518160408601526144e88286018261420a565b915050606083015184820360608601526145028282614458565b9150506080830151848203608086015261451c828261420a565b91505060a083015184820360a0860152614536828261420a565b91505060c083015184820360c0860152614550828261420a565b60e085810151908701526101008086015190870152610120808601519087015261014080860151908701526101608086015190870152610180808601511515908701526101a080860151801515828901529193509150612a93565b602081526000612b5160208301846144ad565b600082601f8301126145cf57600080fd5b813560206001600160401b03808311156145eb576145eb6142a8565b8260051b6145fa8382016142be565b938452858101830193838101908886111561461457600080fd5b84880192505b85831015614650578235848111156146325760008081fd5b6146408a87838c0101614345565b835250918401919084019061461a565b98975050505050505050565b60008060008060008060008060008060006101608c8e03121561467e57600080fd5b8b359a506001600160401b038060208e0135111561469b57600080fd5b6146ab8e60208f01358f01614345565b9a508060408e013511156146be57600080fd5b6146ce8e60408f01358f016145be565b99508060608e013511156146e157600080fd5b6146f18e60608f01358f01614345565b98508060808e0135111561470457600080fd5b6147148e60808f01358f01614345565b97508060a08e0135111561472757600080fd5b506147388d60a08e01358e01614345565b9a9d999c50979a9699959895975050505060c08401359360e081013593610100820135935061012082013592506101409091013590565b6000602080830181845280855180835260408601915060408160051b870101925083870160005b828110156147c457603f198886030184526147b28583516144ad565b94509285019290850190600101614796565b5092979650505050505050565b6000602082840312156147e357600080fd5b612b5182614262565b80518252602081015160208301526000604082015160c0604085015261481560c085018261420a565b6060848101516001600160a01b03169086015260808085015115159086015260a093840151949093019390935250919050565b6000602080830181845280855180835260408601915060408160051b870101925083870160005b828110156147c457603f1988860301845261488b8583516147ec565b9450928501929085019060010161486f565b600080604083850312156148b057600080fd5b6148b983614262565b9150602083013580151581146148ce57600080fd5b809150509250929050565b600080600080608085870312156148ef57600080fd5b6148f885614262565b935061490660208601614262565b92506040850135915060608501356001600160401b0381111561492857600080fd5b8501601f8101871361493957600080fd5b614948878235602084016142ee565b91505092959194509250565b602081526000612b5160208301846147ec565b6000806040838503121561497a57600080fd5b61498383614262565b915061499160208401614262565b90509250929050565b6000806000806000806000806000806101408b8d0312156149ba57600080fd5b8a356001600160401b03808211156149d157600080fd5b6149dd8e838f01614345565b9b5060208d01359150808211156149f357600080fd5b6149ff8e838f016145be565b9a5060408d0135915080821115614a1557600080fd5b614a218e838f01614345565b995060608d0135915080821115614a3757600080fd5b614a438e838f01614345565b985060808d0135915080821115614a5957600080fd5b50614a668d828e01614345565b9a9d999c50979a96999860a0880135985060c08801359760e0810135975061010081013596506101200135945092505050565b600181811c90821680614aad57607f821691505b602082108103614acd57634e487b7160e01b600052602260045260246000fd5b50919050565b60208082526017908201527f50726f706572747920646f6573206e6f74206578697374000000000000000000604082015260600190565b60208082526019908201527f50726f706572747920686173206265656e2064656c6574656400000000000000604082015260600190565b60208082526015908201527414995d9a595dc8191bd95cc81b9bdd08195e1a5cdd605a1b604082015260600190565b60208082526022908201527f526576696577206e6f7420666f756e6420666f7220746869732070726f706572604082015261747960f01b606082015260800190565b634e487b7160e01b600052603260045260246000fd5b601f8211156107e857600081815260208120601f850160051c81016020861015614bef5750805b601f850160051c820191505b81811015614c0e57828155600101614bfb565b505050505050565b81516001600160401b03811115614c2f57614c2f6142a8565b614c4381614c3d8454614a99565b84614bc8565b602080601f831160018114614c785760008415614c605750858301515b600019600386901b1c1916600185901b178555614c0e565b600085815260208120601f198616915b82811015614ca757888601518255948401946001909101908401614c88565b5085821015614cc55787850151600019600388901b60f8161c191681555b5050505050600190811b01905550565b6020808252602d908201527f4552433732313a2063616c6c6572206973206e6f7420746f6b656e206f776e6560408201526c1c881bdc88185c1c1c9bdd9959609a1b606082015260800190565b60208082526022908201527f59656172206275696c742063616e6e6f74206265207a65726f206f7220656d70604082015261747960f01b606082015260800190565b60208082526022908201527f486f7573652073697a652063616e6e6f74206265207a65726f206f7220656d70604082015261747960f01b606082015260800190565b634e487b7160e01b600052601160045260246000fd5b600060018201614dce57614dce614da6565b5060010190565b808202811582820484141761061457610614614da6565b600082614e0957634e487b7160e01b600052601260045260246000fd5b500490565b8181038181111561061457610614614da6565b60008351614e338184602088016141e6565b835190830190614e478183602088016141e6565b01949350505050565b60208082526025908201527f4552433732313a207472616e736665722066726f6d20696e636f72726563742060408201526437bbb732b960d91b606082015260800190565b60208082526032908201527f4552433732313a207472616e7366657220746f206e6f6e20455243373231526560408201527131b2b4bb32b91034b6b83632b6b2b73a32b960711b606082015260800190565b6001600160a01b0385811682528416602082015260408101839052608060608201819052600090614f1a9083018461420a565b9695505050505050565b600060208284031215614f3657600080fd5b8151612b51816141b356fea264697066735822122041963bc097fc7260c30d057e8e1dac655262c85a3722cae10ea63f9c304ff6bf64736f6c63430008110033",
  "linkReferences": {},
  "deployedLinkReferences": {}
}